{"abi":[{"type":"function","name":"_msgSender","inputs":[],"outputs":[{"name":"sender","type":"address","internalType":"address"}],"stateMutability":"view"},{"type":"function","name":"_msgValue","inputs":[],"outputs":[{"name":"value","type":"uint256","internalType":"uint256"}],"stateMutability":"view"},{"type":"function","name":"_world","inputs":[],"outputs":[{"name":"","type":"address","internalType":"address"}],"stateMutability":"view"},{"type":"function","name":"grantAttackXP","inputs":[{"name":"player","type":"address","internalType":"address"},{"name":"xp","type":"uint32","internalType":"uint32"}],"outputs":[],"stateMutability":"nonpayable"},{"type":"function","name":"grantConstitutionXP","inputs":[{"name":"player","type":"address","internalType":"address"},{"name":"xp","type":"uint32","internalType":"uint32"}],"outputs":[],"stateMutability":"nonpayable"},{"type":"function","name":"grantCookingXP","inputs":[{"name":"player","type":"address","internalType":"address"},{"name":"xp","type":"uint32","internalType":"uint32"}],"outputs":[],"stateMutability":"nonpayable"},{"type":"function","name":"grantDefenseXP","inputs":[{"name":"player","type":"address","internalType":"address"},{"name":"xp","type":"uint32","internalType":"uint32"}],"outputs":[],"stateMutability":"nonpayable"},{"type":"function","name":"grantFiremakingXP","inputs":[{"name":"player","type":"address","internalType":"address"},{"name":"xp","type":"uint32","internalType":"uint32"}],"outputs":[],"stateMutability":"nonpayable"},{"type":"function","name":"grantFishingXP","inputs":[{"name":"player","type":"address","internalType":"address"},{"name":"xp","type":"uint32","internalType":"uint32"}],"outputs":[],"stateMutability":"nonpayable"},{"type":"function","name":"grantRangedXP","inputs":[{"name":"player","type":"address","internalType":"address"},{"name":"xp","type":"uint32","internalType":"uint32"}],"outputs":[],"stateMutability":"nonpayable"},{"type":"function","name":"grantStrengthXP","inputs":[{"name":"player","type":"address","internalType":"address"},{"name":"xp","type":"uint32","internalType":"uint32"}],"outputs":[],"stateMutability":"nonpayable"},{"type":"function","name":"grantWoodcuttingXP","inputs":[{"name":"player","type":"address","internalType":"address"},{"name":"xp","type":"uint32","internalType":"uint32"}],"outputs":[],"stateMutability":"nonpayable"},{"type":"function","name":"supportsInterface","inputs":[{"name":"interfaceId","type":"bytes4","internalType":"bytes4"}],"outputs":[{"name":"","type":"bool","internalType":"bool"}],"stateMutability":"pure"},{"type":"event","name":"LevelUp","inputs":[{"name":"player","type":"address","indexed":true,"internalType":"address"},{"name":"skill","type":"uint8","indexed":false,"internalType":"uint8"},{"name":"newLevel","type":"uint8","indexed":false,"internalType":"uint8"}],"anonymous":false},{"type":"event","name":"Store_SetRecord","inputs":[{"name":"tableId","type":"bytes32","indexed":true,"internalType":"ResourceId"},{"name":"keyTuple","type":"bytes32[]","indexed":false,"internalType":"bytes32[]"},{"name":"staticData","type":"bytes","indexed":false,"internalType":"bytes"},{"name":"encodedLengths","type":"bytes32","indexed":false,"internalType":"EncodedLengths"},{"name":"dynamicData","type":"bytes","indexed":false,"internalType":"bytes"}],"anonymous":false},{"type":"event","name":"Store_SpliceStaticData","inputs":[{"name":"tableId","type":"bytes32","indexed":true,"internalType":"ResourceId"},{"name":"keyTuple","type":"bytes32[]","indexed":false,"internalType":"bytes32[]"},{"name":"start","type":"uint48","indexed":false,"internalType":"uint48"},{"name":"data","type":"bytes","indexed":false,"internalType":"bytes"}],"anonymous":false},{"type":"event","name":"XPGained","inputs":[{"name":"player","type":"address","indexed":true,"internalType":"address"},{"name":"skill","type":"uint8","indexed":false,"internalType":"uint8"},{"name":"xp","type":"uint32","indexed":false,"internalType":"uint32"}],"anonymous":false},{"type":"error","name":"Slice_OutOfBounds","inputs":[{"name":"data","type":"bytes","internalType":"bytes"},{"name":"start","type":"uint256","internalType":"uint256"},{"name":"end","type":"uint256","internalType":"uint256"}]}],"bytecode":{"object":"0x60808060405234610016576150af908161001b8239f35b5f80fdfe60806040526004361015610011575f80fd5b5f3560e01c806301ffc9a7146100e4578063057403e5146100df578063119df25f146100da5780631a218fc7146100d55780632d1b9bbf146100d057806345ec9354146100cb5780637134f8d8146100c65780637a45e7af146100c15780638850f3e9146100bc578063cb59dedc146100b7578063e1af802c146100b2578063f6c8a062146100ad5763fda631a4146100a8575f80fd5b61110d565b610f7f565b610f29565b610dd5565b610b6a565b6108c8565b6107ca565b61076f565b610491565b610395565b610311565b610205565b346101a35760207ffffffffffffffffffffffffffffffffffffffffffffffffffffffffffffffffc3601126101a3576004357fffffffff0000000000000000000000000000000000000000000000000000000081168091036101a357807fb5dee1270000000000000000000000000000000000000000000000000000000060209214908115610179575b506040519015158152f35b7f01ffc9a7000000000000000000000000000000000000000000000000000000009150145f61016e565b5f80fd5b7ffffffffffffffffffffffffffffffffffffffffffffffffffffffffffffffffc60409101126101a35760043573ffffffffffffffffffffffffffffffffffffffff811681036101a3579060243563ffffffff811681036101a35790565b346101a35773ffffffffffffffffffffffffffffffffffffffff7f97e42771f09e20ad3d258ce7124645a05d5043b7273c909da14b75f7fb759d8a610249366101a7565b929061025c610257826113ce565b611209565b6102a961026882611455565b6102a361027f8763ffffffff60e08501511661129b565b60ff60c061028c836115c7565b9401511660ff84169081116102cc575b5084611667565b826117e2565b604080516008815263ffffffff909516602086015291169290819081015b0390a2005b604051906008825260208201527f0e211de16f0882ef75d9cd28098f9025fcfe5da4f50b75ee6c521e71174798e7604088881692a25f61029c565b5f9103126101a357565b346101a3575f7ffffffffffffffffffffffffffffffffffffffffffffffffffffffffffffffffc3601126101a3577fffffffffffffffffffffffffffffffffffffffffffffffffffffffffffffffcc36013560601c801561038e575b60209073ffffffffffffffffffffffffffffffffffffffff60405191168152f35b503361036d565b346101a35773ffffffffffffffffffffffffffffffffffffffff7f97e42771f09e20ad3d258ce7124645a05d5043b7273c909da14b75f7fb759d8a6103d9366101a7565b92906103e7610257826113ce565b6104346103f382611455565b61042e61040a8763ffffffff60a08501511661129b565b60ff6080610417836115c7565b9401511660ff8416908111610456575b5084611918565b82611a4e565b604080516007815263ffffffff909516602086015291169290819081016102c7565b604051906007825260208201527f0e211de16f0882ef75d9cd28098f9025fcfe5da4f50b75ee6c521e71174798e7604088881692a25f610427565b346101a35761049f366101a7565b906104ac610257826113ce565b6104b581611455565b916104ca8163ffffffff60208601511661129b565b9260ff6104d6856115c7565b91511660ff8216908111610720575b506104ee611373565b9373ffffffffffffffffffffffffffffffffffffffff948585169581511561071b5761058161055593886020850152604051948591602083017fffffffff0000000000000000000000000000000000000000000000000000000060049260e01b1681520190565b037fffffffffffffffffffffffffffffffffffffffffffffffffffffffffffffffe08101855284611332565b6105896133f1565b163081036105e95750917f97e42771f09e20ad3d258ce7124645a05d5043b7273c909da14b75f7fb759d8a946105c66105cb936102c79695613814565b611b84565b604080516005815263ffffffff909216602083015290918291820190565b939291843b156101a357610698946106615f8094604051988995869485937f390baae00000000000000000000000000000000000000000000000000000000085527f74626879706572736361706500000000476174686572696e67536b696c6c7300600486015260a0602486015260a4850190612a01565b90600160448501527ffffffffffffffffffffffffffffffffffffffffffffffffffffffffffffffffc848303016064850152613307565b7e14080001040104010401040000000000000000000000000000000000000000608483015203925af1908115610716577f97e42771f09e20ad3d258ce7124645a05d5043b7273c909da14b75f7fb759d8a946102c7946105cb936106fd575b50611b84565b8061070a610710926112fd565b80610307565b5f6106f7565b612a34565b61138d565b604051906005825260208201527f0e211de16f0882ef75d9cd28098f9025fcfe5da4f50b75ee6c521e71174798e7604073ffffffffffffffffffffffffffffffffffffffff861692a25f6104e5565b346101a3575f7ffffffffffffffffffffffffffffffffffffffffffffffffffffffffffffffffc3601126101a35760206040517fffffffffffffffffffffffffffffffffffffffffffffffffffffffffffffffe03601358152f35b346101a35773ffffffffffffffffffffffffffffffffffffffff7f97e42771f09e20ad3d258ce7124645a05d5043b7273c909da14b75f7fb759d8a61080e366101a7565b929061081c610257826113ce565b61086b61082882611d15565b6108656108408763ffffffff6101208501511661129b565b60ff61010061084e836115c7565b9401511660ff841690811161088d575b5084611e37565b82611fa3565b604080516004815263ffffffff909516602086015291169290819081016102c7565b604051906004825260208201527f0e211de16f0882ef75d9cd28098f9025fcfe5da4f50b75ee6c521e71174798e7604088881692a25f61085e565b346101a3576108d6366101a7565b906108e3610257826113ce565b6108ec81611455565b916109018163ffffffff60608601511661129b565b9261090b846115c7565b60ff6040809301511660ff8216908111610b1d575b50610929611373565b9473ffffffffffffffffffffffffffffffffffffffff958686169681511561071b5761098f610555938960208501528651948591602083017fffffffff0000000000000000000000000000000000000000000000000000000060049260e01b1681520190565b6109976133f1565b163081036109f65750917f97e42771f09e20ad3d258ce7124645a05d5043b7273c909da14b75f7fb759d8a956109d56109da936102c7979695613934565b6120d9565b516006815263ffffffff90911660208201529081906040820190565b94939291853b156101a357610aa595610a6e5f80948751998a95869485937f390baae00000000000000000000000000000000000000000000000000000000085527f74626879706572736361706500000000476174686572696e67536b696c6c7300600486015260a0602486015260a4850190612a01565b90600360448501527ffffffffffffffffffffffffffffffffffffffffffffffffffffffffffffffffc848303016064850152613307565b7e14080001040104010401040000000000000000000000000000000000000000608483015203925af1908115610716577f97e42771f09e20ad3d258ce7124645a05d5043b7273c909da14b75f7fb759d8a956102c7956109da93610b0a575b506120d9565b8061070a610b17926112fd565b5f610b04565b8251906006825260208201527f0e211de16f0882ef75d9cd28098f9025fcfe5da4f50b75ee6c521e71174798e78373ffffffffffffffffffffffffffffffffffffffff871692a25f610920565b346101a357610b78366101a7565b90610b85610257826113ce565b610b8e81611d15565b91610ba38163ffffffff60608601511661129b565b92610bad846115c7565b60ff6040809301511660ff8216908111610d88575b50610bcb611373565b9473ffffffffffffffffffffffffffffffffffffffff958686169681511561071b57610c31610555938960208501528651948591602083017fffffffff0000000000000000000000000000000000000000000000000000000060049260e01b1681520190565b610c396133f1565b16308103610c985750917f97e42771f09e20ad3d258ce7124645a05d5043b7273c909da14b75f7fb759d8a95610c77610c7c936102c79796956139f8565b61220f565b516001815263ffffffff90911660208201529081906040820190565b94939291853b156101a357610d1095610a6e5f80948751998a95869485937f390baae00000000000000000000000000000000000000000000000000000000085527f74626879706572736361706500000000436f6d626174536b696c6c7300000000600486015260a0602486015260a4850190612a01565b7e190a0001040104010401040104000000000000000000000000000000000000608483015203925af1908115610716577f97e42771f09e20ad3d258ce7124645a05d5043b7273c909da14b75f7fb759d8a956102c795610c7c93610d75575b5061220f565b8061070a610d82926112fd565b5f610d6f565b8251906001825260208201527f0e211de16f0882ef75d9cd28098f9025fcfe5da4f50b75ee6c521e71174798e78373ffffffffffffffffffffffffffffffffffffffff871692a25f610bc2565b346101a35773ffffffffffffffffffffffffffffffffffffffff7f97e42771f09e20ad3d258ce7124645a05d5043b7273c909da14b75f7fb759d8a610e19366101a7565b9290610e27610257826113ce565b610e89610e3382611d15565b610e83610e5087610e4b60e085015163ffffffff1690565b61129b565b610e70610e6a60c0610e61846115c7565b95015160ff1690565b60ff1690565b60ff8416908111610eab575b50846124f7565b826125f6565b604080516003815263ffffffff909516602086015291169290819081016102c7565b610eb7610ee4916112b8565b610ecd610ec388612337565b5163ffffffff1690565b63ffffffff80831690821611610f22575b87612398565b604080516003815260ff85166020820152878716917f0e211de16f0882ef75d9cd28098f9025fcfe5da4f50b75ee6c521e71174798e791a25f610e7c565b5080610ede565b346101a3575f7ffffffffffffffffffffffffffffffffffffffffffffffffffffffffffffffffc3601126101a3576020610f616133f1565b73ffffffffffffffffffffffffffffffffffffffff60405191168152f35b346101a357610f8d366101a7565b90610f9a610257826113ce565b610fa381611d15565b91610fb88163ffffffff60208601511661129b565b9060ff610fc4836115c7565b94511660ff8516116110bd575b610fd9611373565b9173ffffffffffffffffffffffffffffffffffffffff84169483511561071b577f97e42771f09e20ad3d258ce7124645a05d5043b7273c909da14b75f7fb759d8a9461109b61106a866110966110a0968b60206102c79b0152604051938491602083017fffffffff0000000000000000000000000000000000000000000000000000000060049260e01b1681520190565b037fffffffffffffffffffffffffffffffffffffffffffffffffffffffffffffffe08101845283611332565b61334a565b6126f5565b604080515f815263ffffffff909216602083015290918291820190565b604080515f815260ff8616602082015273ffffffffffffffffffffffffffffffffffffffff8516917f0e211de16f0882ef75d9cd28098f9025fcfe5da4f50b75ee6c521e71174798e791a2610fd1565b346101a35773ffffffffffffffffffffffffffffffffffffffff7f97e42771f09e20ad3d258ce7124645a05d5043b7273c909da14b75f7fb759d8a611151366101a7565b929061115f610257826113ce565b6111ac61116b82611d15565b6111a66111828763ffffffff60a08501511661129b565b60ff608061118f836115c7565b9401511660ff84169081116111ce575b50846127f4565b826128f3565b604080516002815263ffffffff909516602086015291169290819081016102c7565b604051906002825260208201527f0e211de16f0882ef75d9cd28098f9025fcfe5da4f50b75ee6c521e71174798e7604088881692a25f61119f565b1561121057565b60646040517f08c379a000000000000000000000000000000000000000000000000000000000815260206004820152601560248201527f506c61796572206e6f74207265676973746572656400000000000000000000006044820152fd5b7f4e487b71000000000000000000000000000000000000000000000000000000005f52601160045260245ffd5b91909163ffffffff808094169116019182116112b357565b61126e565b90600a63ffffffff809316029182169182036112b357565b7f4e487b71000000000000000000000000000000000000000000000000000000005f52604160045260245ffd5b67ffffffffffffffff811161131157604052565b6112d0565b6040810190811067ffffffffffffffff82111761131157604052565b90601f7fffffffffffffffffffffffffffffffffffffffffffffffffffffffffffffffe0910116810190811067ffffffffffffffff82111761131157604052565b6040519061138082611316565b6001825260203681840137565b7f4e487b71000000000000000000000000000000000000000000000000000000005f52603260045260245ffd5b805182101561071b5760209160051b010190565b6113d6611373565b80511561071b5773ffffffffffffffffffffffffffffffffffffffff61140192166020820152612a3f565b60f81c90565b60405190610100820182811067ffffffffffffffff821117611311576040525f60e0838281528260208201528260408201528260608201528260808201528260a08201528260c08201520152565b61145d611407565b50611466611373565b80511561071b5773ffffffffffffffffffffffffffffffffffffffff61149192166020820152612c1a565b505061157361149e611407565b9161156c602082015160f81c916115626021820151916115586114c5602583015160f81c90565b9161154b6114d7602683015160e01c90565b916115418b6115346114ed602a85015160f81c90565b9360c06114fe602b83015160e01c90565b9361152b61151e6030611515602f87015160f81c90565b95015160e01c90565b63ffffffff1660e0830152565b019060ff169052565b63ffffffff1660a08d0152565b60ff1660808b0152565b63ffffffff166060890152565b60ff166040870152565b60e01c6020850152565b60ff168252565b90565b90606381101561071b5760051b0190565b60ff1680156112b3577fffffffffffffffffffffffffffffffffffffffffffffffffffffffffffffffff0190565b60ff60019116019060ff82116112b357565b6115cf612ef6565b9063ffffffff806115e98160208601511663ffffffff1690565b921691821061165f57610c408301511663ffffffff168110156116585760625b60ff81166001811061164f57611625610ec361162e9286611576565b63ffffffff1690565b8210156116435761163e90611587565b611609565b905061157391506115b5565b50505050600190565b5050606390565b505050600190565b90611670611373565b9173ffffffffffffffffffffffffffffffffffffffff9083511561071b5761106a92826116d592166020860152604051938491602083017fffffffff0000000000000000000000000000000000000000000000000000000060049260e01b1681520190565b6116dd6133f1565b16913083036116f2576116f09250613694565b565b90823b156101a35761179f926117685f8094604051968795869485937f390baae00000000000000000000000000000000000000000000000000000000085527f74626879706572736361706500000000476174686572696e67536b696c6c7300600486015260a0602486015260a4850190612a01565b90600760448501527ffffffffffffffffffffffffffffffffffffffffffffffffffffffffffffffffc848303016064850152613307565b7e14080001040104010401040000000000000000000000000000000000000000608483015203925af18015610716576117d55750565b8061070a6116f0926112fd565b906117eb611373565b9173ffffffffffffffffffffffffffffffffffffffff9083511561071b5761106a928261185092166020860152604051938491602083017fff0000000000000000000000000000000000000000000000000000000000000060019260f81b1681520190565b6118586133f1565b169130830361186b576116f092506136f4565b90823b156101a35761179f926118e15f8094604051968795869485937f390baae00000000000000000000000000000000000000000000000000000000085527f74626879706572736361706500000000476174686572696e67536b696c6c7300600486015260a0602486015260a4850190612a01565b90600660448501527ffffffffffffffffffffffffffffffffffffffffffffffffffffffffffffffffc848303016064850152613307565b90611921611373565b9173ffffffffffffffffffffffffffffffffffffffff9083511561071b5761106a928261198692166020860152604051938491602083017fffffffff0000000000000000000000000000000000000000000000000000000060049260e01b1681520190565b61198e6133f1565b16913083036119a1576116f09250613754565b90823b156101a35761179f92611a175f8094604051968795869485937f390baae00000000000000000000000000000000000000000000000000000000085527f74626879706572736361706500000000476174686572696e67536b696c6c7300600486015260a0602486015260a4850190612a01565b90600560448501527ffffffffffffffffffffffffffffffffffffffffffffffffffffffffffffffffc848303016064850152613307565b90611a57611373565b9173ffffffffffffffffffffffffffffffffffffffff9083511561071b5761106a9282611abc92166020860152604051938491602083017fff0000000000000000000000000000000000000000000000000000000000000060019260f81b1681520190565b611ac46133f1565b1691308303611ad7576116f092506137b4565b90823b156101a35761179f92611b4d5f8094604051968795869485937f390baae00000000000000000000000000000000000000000000000000000000085527f74626879706572736361706500000000476174686572696e67536b696c6c7300600486015260a0602486015260a4850190612a01565b90600460448501527ffffffffffffffffffffffffffffffffffffffffffffffffffffffffffffffffc848303016064850152613307565b90611b8d611373565b9173ffffffffffffffffffffffffffffffffffffffff9083511561071b5761106a9282611bf292166020860152604051938491602083017fff0000000000000000000000000000000000000000000000000000000000000060019260f81b1681520190565b611bfa6133f1565b1691308303611c0d576116f09250614391565b90823b156101a35761179f92611c835f8094604051968795869485937f390baae00000000000000000000000000000000000000000000000000000000085527f74626879706572736361706500000000476174686572696e67536b696c6c7300600486015260a0602486015260a4850190612a01565b908460448501527ffffffffffffffffffffffffffffffffffffffffffffffffffffffffffffffffc848303016064850152613307565b60405190610140820182811067ffffffffffffffff821117611311576040525f610120838281528260208201528260408201528260608201528260808201528260a08201528260c08201528260e0820152826101008201520152565b611d1d611cb9565b50611d26611373565b80511561071b5773ffffffffffffffffffffffffffffffffffffffff611d5192166020820152612d23565b5050611573611d5e611cb9565b9161156c611d70602083015160f81c90565b91611e2a611d82602183015160e01c90565b91611558611d94602583015160f81c90565b9161154b611da6602683015160e01c90565b916115418b611534611dbc602a85015160f81c90565b9360c0611dcd602b83015160e01c90565b9361152b611ddf602f85015160f81c90565b9361151e611df1603083015160e01c90565b91611e1f611e116035611e08603485015160f81c90565b93015160e01c90565b63ffffffff16610120870152565b60ff16610100850152565b63ffffffff166020850152565b90611e40611373565b9173ffffffffffffffffffffffffffffffffffffffff9083511561071b5761106a9282611ea592166020860152604051938491602083017fffffffff0000000000000000000000000000000000000000000000000000000060049260e01b1681520190565b611ead6133f1565b1691308303611ec0576116f09250613874565b90823b156101a357611f6d92611f365f8094604051968795869485937f390baae00000000000000000000000000000000000000000000000000000000085527f74626879706572736361706500000000436f6d626174536b696c6c7300000000600486015260a0602486015260a4850190612a01565b90600960448501527ffffffffffffffffffffffffffffffffffffffffffffffffffffffffffffffffc848303016064850152613307565b7e190a0001040104010401040104000000000000000000000000000000000000608483015203925af18015610716576117d55750565b90611fac611373565b9173ffffffffffffffffffffffffffffffffffffffff9083511561071b5761106a928261201192166020860152604051938491602083017fff0000000000000000000000000000000000000000000000000000000000000060019260f81b1681520190565b6120196133f1565b169130830361202c576116f092506138d4565b90823b156101a357611f6d926120a25f8094604051968795869485937f390baae00000000000000000000000000000000000000000000000000000000085527f74626879706572736361706500000000436f6d626174536b696c6c7300000000600486015260a0602486015260a4850190612a01565b90600860448501527ffffffffffffffffffffffffffffffffffffffffffffffffffffffffffffffffc848303016064850152613307565b906120e2611373565b9173ffffffffffffffffffffffffffffffffffffffff9083511561071b5761106a928261214792166020860152604051938491602083017fff0000000000000000000000000000000000000000000000000000000000000060019260f81b1681520190565b61214f6133f1565b1691308303612162576116f09250613998565b90823b156101a35761179f926121d85f8094604051968795869485937f390baae00000000000000000000000000000000000000000000000000000000085527f74626879706572736361706500000000476174686572696e67536b696c6c7300600486015260a0602486015260a4850190612a01565b90600260448501527ffffffffffffffffffffffffffffffffffffffffffffffffffffffffffffffffc848303016064850152613307565b90612218611373565b9173ffffffffffffffffffffffffffffffffffffffff9083511561071b5761106a928261227d92166020860152604051938491602083017fff0000000000000000000000000000000000000000000000000000000000000060019260f81b1681520190565b6122856133f1565b1691308303612298576116f09250613a5c565b90823b156101a357611f6d926121d85f8094604051968795869485937f390baae00000000000000000000000000000000000000000000000000000000085527f74626879706572736361706500000000436f6d626174536b696c6c7300000000600486015260a0602486015260a4850190612a01565b604051906040820182811067ffffffffffffffff821117611311576040525f6020838281520152565b61233f61230e565b50612348611373565b80511561071b5773ffffffffffffffffffffffffffffffffffffffff61237392166020820152612dfa565b505061237d61230e565b906024602082015191015160e01c602083015260e01c815290565b90604051927fffffffff00000000000000000000000000000000000000000000000000000000809260e01b16602085015260e01b166024830152600882526123df82611316565b6123e7611373565b9073ffffffffffffffffffffffffffffffffffffffff9082511561071b57811660208301526124146133f1565b163081036124275750906116f091613c9c565b90813b156101a3575f916124a0836124d1936124e6604051978896879586947f298314fb0000000000000000000000000000000000000000000000000000000086527f746268797065727363617065000000004865616c746800000000000000000000600487015260a0602487015260a4860190612a01565b7ffffffffffffffffffffffffffffffffffffffffffffffffffffffffffffffffc9283868303016044870152613307565b908460648501528382030160848401526132ac565b03925af18015610716576117d55750565b90612500611373565b9173ffffffffffffffffffffffffffffffffffffffff9083511561071b5761106a928261256592166020860152604051938491602083017fffffffff0000000000000000000000000000000000000000000000000000000060049260e01b1681520190565b61256d6133f1565b1691308303612580576116f09250613abc565b90823b156101a357611f6d926117685f8094604051968795869485937f390baae00000000000000000000000000000000000000000000000000000000085527f74626879706572736361706500000000436f6d626174536b696c6c7300000000600486015260a0602486015260a4850190612a01565b906125ff611373565b9173ffffffffffffffffffffffffffffffffffffffff9083511561071b5761106a928261266492166020860152604051938491602083017fff0000000000000000000000000000000000000000000000000000000000000060019260f81b1681520190565b61266c6133f1565b169130830361267f576116f09250613b1c565b90823b156101a357611f6d926118e15f8094604051968795869485937f390baae00000000000000000000000000000000000000000000000000000000085527f74626879706572736361706500000000436f6d626174536b696c6c7300000000600486015260a0602486015260a4850190612a01565b906126fe611373565b9173ffffffffffffffffffffffffffffffffffffffff9083511561071b5761106a928261276392166020860152604051938491602083017fff0000000000000000000000000000000000000000000000000000000000000060019260f81b1681520190565b61276b6133f1565b169130830361277e576116f09250614734565b90823b156101a357611f6d92611c835f8094604051968795869485937f390baae00000000000000000000000000000000000000000000000000000000085527f74626879706572736361706500000000436f6d626174536b696c6c7300000000600486015260a0602486015260a4850190612a01565b906127fd611373565b9173ffffffffffffffffffffffffffffffffffffffff9083511561071b5761106a928261286292166020860152604051938491602083017fffffffff0000000000000000000000000000000000000000000000000000000060049260e01b1681520190565b61286a6133f1565b169130830361287d576116f09250613b7c565b90823b156101a357611f6d92611a175f8094604051968795869485937f390baae00000000000000000000000000000000000000000000000000000000085527f74626879706572736361706500000000436f6d626174536b696c6c7300000000600486015260a0602486015260a4850190612a01565b906128fc611373565b9173ffffffffffffffffffffffffffffffffffffffff9083511561071b5761106a928261296192166020860152604051938491602083017fff0000000000000000000000000000000000000000000000000000000000000060019260f81b1681520190565b6129696133f1565b169130830361297c576116f09250613bdc565b90823b156101a357611f6d92611b4d5f8094604051968795869485937f390baae00000000000000000000000000000000000000000000000000000000085527f74626879706572736361706500000000436f6d626174536b696c6c7300000000600486015260a0602486015260a4850190612a01565b908160209103126101a3575190565b9081518082526020808093019301915f5b828110612a20575050505090565b835185529381019392810192600101612a12565b6040513d5f823e3d90fd5b73ffffffffffffffffffffffffffffffffffffffff612a5c6133f1565b16308103612a6e575061157390613433565b612ad79160209160405180809581947f8c364d590000000000000000000000000000000000000000000000000000000083527f74626879706572736361706500000000506c61796572000000000000000000006004840152608060248401526084830190612a01565b5f60448301527e41030101202000000000000000000000000000000000000000000000000000606483015203915afa908115610716575f91612b17575090565b611573915060203d602011612b39575b612b318183611332565b8101906129f2565b503d612b27565b5f5b838110612b515750505f910152565b8181015183820152602001612b42565b81601f820112156101a357805167ffffffffffffffff81116113115760405192612bb360207fffffffffffffffffffffffffffffffffffffffffffffffffffffffffffffffe0601f8501160185611332565b818452602082840101116101a3576115739160208085019101612b40565b90916060828403126101a35781519167ffffffffffffffff928381116101a35784612bfd918301612b61565b9360208201519360408301519081116101a3576115739201612b61565b73ffffffffffffffffffffffffffffffffffffffff612c376133f1565b16308103612c505750612c49906134ea565b9192909190565b612cb992915f9160405180809681947f419b58fd0000000000000000000000000000000000000000000000000000000083527f74626879706572736361706500000000476174686572696e67536b696c6c73006004840152606060248401526064830190612a01565b7e14080001040104010401040000000000000000000000000000000000000000604483015203915afa908115610716575f80935f93612cf9575b50929190565b91935050612d1991503d805f833e612d118183611332565b810190612bd1565b929092915f612cf3565b73ffffffffffffffffffffffffffffffffffffffff612d406133f1565b16308103612d525750612c49906135a0565b612dbb92915f9160405180809681947f419b58fd0000000000000000000000000000000000000000000000000000000083527f74626879706572736361706500000000436f6d626174536b696c6c73000000006004840152606060248401526064830190612a01565b7e190a0001040104010401040104000000000000000000000000000000000000604483015203915afa908115610716575f80935f93612cf95750929190565b73ffffffffffffffffffffffffffffffffffffffff612e176133f1565b16308103612e295750612c499061361a565b612e9292915f9160405180809681947f419b58fd0000000000000000000000000000000000000000000000000000000083527f746268797065727363617065000000004865616c7468000000000000000000006004840152606060248401526064830190612a01565b7e08020004040000000000000000000000000000000000000000000000000000604483015203915afa908115610716575f80935f93612cf95750929190565b60405190610c6080830183811067ffffffffffffffff82111761131157604052368337565b612efe612ed1565b50612f07612ed1565b5f81526053602082015260ae60408201526101146060820152610184608082015261020060a082015261028a60c082015261032160e08201526103c961010082015261048261012082015261054e61014082015261063061016082015261072961018082015261083b6101a082015261096b6101c0820152610aba6101e0820152610c2b610200820152610dc3610220820152610f8561024082015261117661026082015261139a6102808201526115f86102a08201526118936102c0820152611b746102e0820152611ea2610300820152612224610320820152612602610340820152612a48610360820152612eff6103808201526134336103a08201526139f16103c08201526140486103e0820152614747610400820152614f006104208201526157866104408201526160ef610460820152616b516104808201526176c86104a08201526183706104c08201526191686104e082015261a0d361050082015261b1d961052082015261c4a361054082015261d96161056082015261f0486105808201526201098f6105a0820152620125776105c0820152620144466105e08201526201664961060082015262018bd56106208201526201b5496106408201526201e30c6106608201526202159261068082015262024d586106a082015262028aec6106c08201526202cee86106e0820152620319f661070082015262036cd26107208201526203c84e61074082015262042d4e61076082015262049cd0610780820152620517ec6107a082015262059fd76107c0820152620635e76107e08201526206db946108008201526207927e61082082015262085c7161084082015262093b68610860820152620a3193610880820152620b415b6108a0820152620c6d6d6108c0820152620db8b96108e0820152620f267f6109008201526210ba56610920820152621278356109408201526214647b610960820152621683fd6109808201526218dc106109a0820152621b72986109c0820152621e4e146109e0820152622175b2610a008201526224f15f610a208201526228c9da610a40820152622d08cd610a608201526231b8e2610a808201526236e5e0610aa0820152623c9cc6610ac08201526242ebf0610ae08201526249e337610b008201526251941c610b20820152625a11ef610b4082015262637205610b60820152626dcbed610b80820152627939a6610ba08201526285d7e6610bc08201526293c661610be082015262a32815610c0082015262b423a6610c2082015262c6e3bf610c4082015290565b90606051918281525f5b8381106132f357507fffffffffffffffffffffffffffffffffffffffffffffffffffffffffffffffe0601f845f6020809697860101520116010190565b8060209160800151828285010152016132b6565b907fffffffffffffffffffffffffffffffffffffffffffffffffffffffffffffffe0601f60209361334381518092818752878088019101612b40565b0116010190565b9073ffffffffffffffffffffffffffffffffffffffff6133686133f1565b169130830361337b576116f09250613c3c565b90823b156101a357611f6d926106615f8094604051968795869485937f390baae00000000000000000000000000000000000000000000000000000000085527f74626879706572736361706500000000436f6d626174536b696c6c7300000000600486015260a0602486015260a4850190612a01565b7f629a4c26e296b22a8e0856e9f6ecb2d1008d7e00081111962cd175fa7488e1755473ffffffffffffffffffffffffffffffffffffffff168061157357503390565b60405160208160208101937f74626879706572736361706500000000506c617965720000000000000000000085526040820160208251919201935f5b8281106134d3575050506134aa9250037fffffffffffffffffffffffffffffffffffffffffffffffffffffffffffffffe08101835282611332565b5190207f86425bff6b57326c7859e89024fe4f238ca327a1ae4a230180dd2f0e88aaa7d9185490565b85518452948101948694509281019260010161346f565b5f906134f7606091614022565b604051906020907fffffffffffffffffffffffffffffffffffffffffffffffffffffffffffffffe090816053850116604052601484526020840192601491925b818310156135885750508061354d575b50505092565b7fffffffffffffffffffffffffffffffffffffffffffffffffffffffffffffffff9060031b1c908183511691199054161790525f8080613547565b81600185839495979654875201940194019190613537565b5f906135ad6060916140d8565b604051906020907fffffffffffffffffffffffffffffffffffffffffffffffffffffffffffffffe090816058850116604052601984526020840192601991925b818310156136025750508061354d5750505092565b816001858394959796548752019401940191906135ed565b5f90613627606091614166565b604051906020907fffffffffffffffffffffffffffffffffffffffffffffffffffffffffffffffe090816047850116604052600884526020840192600891925b8183101561367c5750508061354d5750505092565b81600185839495979654875201940194019190613667565b91905f925f5b600781106136b6575065ffffffffffff6116f09394169061455b565b9360ff7e1408000104010401040104000000000000000000000000000000000000000086601b0360031b1c1681018091116112b3579360010161369a565b91905f925f5b60068110613716575065ffffffffffff6116f09394169061455b565b9360ff7e1408000104010401040104000000000000000000000000000000000000000086601b0360031b1c1681018091116112b357936001016136fa565b91905f925f5b60058110613776575065ffffffffffff6116f09394169061455b565b9360ff7e1408000104010401040104000000000000000000000000000000000000000086601b0360031b1c1681018091116112b3579360010161375a565b91905f925f5b600481106137d6575065ffffffffffff6116f09394169061455b565b9360ff7e1408000104010401040104000000000000000000000000000000000000000086601b0360031b1c1681018091116112b357936001016137ba565b91905f925f5b60018110613836575065ffffffffffff6116f09394169061455b565b9360ff7e1408000104010401040104000000000000000000000000000000000000000086601b0360031b1c1681018091116112b3579360010161381a565b91905f925f5b60098110613896575065ffffffffffff6116f0939416906148ee565b9360ff7e190a000104010401040104010400000000000000000000000000000000000086601b0360031b1c1681018091116112b3579360010161387a565b91905f925f5b600881106138f6575065ffffffffffff6116f0939416906148ee565b9360ff7e190a000104010401040104010400000000000000000000000000000000000086601b0360031b1c1681018091116112b357936001016138da565b5f92835b600380861015613981577e1408000104010401040104000000000000000000000000000000000000000060ff9187601b03901b1c1681018091116112b357600190940193613938565b506116f0939291945065ffffffffffff169061455b565b91905f925f5b600281106139ba575065ffffffffffff6116f09394169061455b565b9360ff7e1408000104010401040104000000000000000000000000000000000000000086601b0360031b1c1681018091116112b3579360010161399e565b5f92835b600380861015613a45577e190a000104010401040104010400000000000000000000000000000000000060ff9187601b03901b1c1681018091116112b3576001909401936139fc565b506116f0939291945065ffffffffffff16906148ee565b91905f925f5b60028110613a7e575065ffffffffffff6116f0939416906148ee565b9360ff7e190a000104010401040104010400000000000000000000000000000000000086601b0360031b1c1681018091116112b35793600101613a62565b91905f925f5b60078110613ade575065ffffffffffff6116f0939416906148ee565b9360ff7e190a000104010401040104010400000000000000000000000000000000000086601b0360031b1c1681018091116112b35793600101613ac2565b91905f925f5b60068110613b3e575065ffffffffffff6116f0939416906148ee565b9360ff7e190a000104010401040104010400000000000000000000000000000000000086601b0360031b1c1681018091116112b35793600101613b22565b91905f925f5b60058110613b9e575065ffffffffffff6116f0939416906148ee565b9360ff7e190a000104010401040104010400000000000000000000000000000000000086601b0360031b1c1681018091116112b35793600101613b82565b91905f925f5b60048110613bfe575065ffffffffffff6116f0939416906148ee565b9360ff7e190a000104010401040104010400000000000000000000000000000000000086601b0360031b1c1681018091116112b35793600101613be2565b91905f925f5b60018110613c5e575065ffffffffffff6116f0939416906148ee565b9360ff7e190a000104010401040104010400000000000000000000000000000000000086601b0360031b1c1681018091116112b35793600101613c42565b60409283519260208401937f746273746f72650000000000000000005461626c65730000000000000000000085527f746268797065727363617065000000004865616c7468000000000000000000009485878301528682526060916060810181811067ffffffffffffffff8211176113115788525190207f86425bff6b57326c7859e89024fe4f238ca327a1ae4a230180dd2f0e88aaa7d9185492613d3f614c34565b905f5b8251811015613e3257613da6613d81613d5b83866113ba565b517fffffffffffffffffffffffffffffffffffffffffff00000000000000000000001690565b7fffffffffffffffffffffffffffffffffffffffffff00000000000000000000001690565b6001808260581c1614613dbd575b50600101613d42565b841c90813b156101a3575f87613e059388838c8f51978895869485937f57066c9c00000000000000000000000000000000000000000000000000000000855260048501614ae8565b03925af191821561071657600192613e1f575b5090613db4565b8061070a613e2c926112fd565b5f613e18565b50957f8dbb3a9672eebfd3773e72dd9c102393436816d832c7ba9e1e1ac8fcadcac7a9885180613e63878a83614aac565b0390a2613e7e613e7286614166565b84516020860191614edc565b60ff808560e01c1680613f3d575b50505f5b8151811015613f3357613ea9613d81613d5b83856113ba565b6002808260581c1614613ec0575b50600101613e90565b831c90813b156101a35788517f5b28cdaf000000000000000000000000000000000000000000000000000000008152915f908390818381613f068c8c8f60048501614ae8565b03925af191821561071657600192613f20575b5090613eb7565b8061070a613f2d926112fd565b5f613f19565b5050505050509050565b5f613f4788614bf7565b555f60805b888385841610613f5e57505050613e8c565b81613f758693613f70866001956141a7565b614f27565b92011690613f4c565b7f746273746f726500000000000000000053746f7265486f6f6b73000000000000815281516020918201928201915f5b828110613fbc575050505090565b835185529381019392810192600101613fae565b7f746268797065727363617065000000004865616c746800000000000000000000815281516020918201928201915f5b82811061400e575050505090565b835185529381019392810192600101614000565b60405160208160208101937f74626879706572736361706500000000476174686572696e67536b696c6c730085526040820160208251919201935f5b8281106140c1575050506140999250037fffffffffffffffffffffffffffffffffffffffffffffffffffffffffffffffe08101835282611332565b5190207f86425bff6b57326c7859e89024fe4f238ca327a1ae4a230180dd2f0e88aaa7d91890565b85518452948101948694509281019260010161405e565b60405160208160208101937f74626879706572736361706500000000436f6d626174536b696c6c730000000085526040820160208251919201935f5b82811061414f575050506140999250037fffffffffffffffffffffffffffffffffffffffffffffffffffffffffffffffe08101835282611332565b855184529481019486945092810192600101614114565b6040516140998161417b602082019485613fd0565b037fffffffffffffffffffffffffffffffffffffffffffffffffffffffffffffffe08101835282611332565b907fff000000000000000000000000000000000000000000000000000000000000007f3b4102da22e32d82fc925482184f16c09fd4281692720b87d124aef6da48a0f1926040516142008161417b602082019485613fd0565b5190209160f81b16181890565b909161422461157393606084526060840190612a01565b915f60208201526040818403910152613307565b65ffffffffffff6142556115739593606084526060840190612a01565b931660208201526040818403910152613307565b90916142a6611573937f74626879706572736361706500000000476174686572696e67536b696c6c73008452608060208501526080840190612a01565b915f60408201526060818403910152613307565b65ffffffffffff6142fd61157395937f74626879706572736361706500000000476174686572696e67536b696c6c73008452608060208501526080840190612a01565b931660408201526060818403910152613307565b90916142a6611573937f74626879706572736361706500000000436f6d626174536b696c6c73000000008452608060208501526080840190612a01565b65ffffffffffff6142fd61157395937f74626879706572736361706500000000436f6d626174536b696c6c73000000008452608060208501526080840190612a01565b919061439c83614022565b916143a5614d54565b905f5b825181101561444a576143c1613d81613d5b83866113ba565b9060049182808260581c16146143dd575b5060019150016143a8565b60601c803b156101a357855f91898361442496604051978895869485937f964f667d0000000000000000000000000000000000000000000000000000000085528401614269565b03925af191821561071657600192156143d2578061070a614444926112fd565b5f6143d2565b509291906144ae826040947f74626879706572736361706500000000476174686572696e67536b696c6c73007f8c0b5119d4cec7b284c6b1b39252a03d1e2f2d7451a5895562524c113bb952be604051806144a6868d8361420d565b0390a2614e40565b5f5b8151811015614553576144c9613d81613d5b83856113ba565b6008808260581c16146144e0575b506001016144b0565b60601c90813b156101a35784517fa8ba8721000000000000000000000000000000000000000000000000000000008152915f9083908183816145268a8e60048401614269565b03925af191821561071657600192614540575b50906144d7565b8061070a61454d926112fd565b5f614539565b505050509050565b9092919261456882614022565b614570614d54565b905f5b82518110156146165761458c613d81613d5b83866113ba565b9060049182808260581c16146145a8575b506001915001614573565b60601c803b156101a357855f9188838c966145f0604051988996879586947f964f667d00000000000000000000000000000000000000000000000000000000865285016142ba565b03925af1918215610716576001921561459d578061070a614610926112fd565b5f61459d565b50949190614685836040977f74626879706572736361706500000000476174686572696e67536b696c6c73007f8c0b5119d4cec7b284c6b1b39252a03d1e2f2d7451a5895562524c113bb952be60405180614673868a8d84614238565b0390a265ffffffffffff851690614ecb565b5f5b815181101561472b576146a0613d81613d5b83856113ba565b6008808260581c16146146b7575b50600101614687565b60601c90813b156101a35787517fa8ba8721000000000000000000000000000000000000000000000000000000008152915f9083908183816146fe8b8b8e600485016142ba565b03925af191821561071657600192614718575b50906146ae565b8061070a614725926112fd565b5f614711565b50505050509050565b919061473f836140d8565b91614748614dca565b905f5b82518110156147ed57614764613d81613d5b83866113ba565b9060049182808260581c1614614780575b50600191500161474b565b60601c803b156101a357855f9189836147c796604051978895869485937f964f667d0000000000000000000000000000000000000000000000000000000085528401614311565b03925af19182156107165760019215614775578061070a6147e7926112fd565b5f614775565b50929190614849826040947f74626879706572736361706500000000436f6d626174536b696c6c73000000007f8c0b5119d4cec7b284c6b1b39252a03d1e2f2d7451a5895562524c113bb952be604051806144a6868d8361420d565b5f5b815181101561455357614864613d81613d5b83856113ba565b6008808260581c161461487b575b5060010161484b565b60601c90813b156101a35784517fa8ba8721000000000000000000000000000000000000000000000000000000008152915f9083908183816148c18a8e60048401614311565b03925af1918215610716576001926148db575b5090614872565b8061070a6148e8926112fd565b5f6148d4565b909291926148fb826140d8565b614903614dca565b905f5b82518110156149a95761491f613d81613d5b83866113ba565b9060049182808260581c161461493b575b506001915001614906565b60601c803b156101a357855f9188838c96614983604051988996879586947f964f667d000000000000000000000000000000000000000000000000000000008652850161434e565b03925af19182156107165760019215614930578061070a6149a3926112fd565b5f614930565b50949190614a06836040977f74626879706572736361706500000000436f6d626174536b696c6c73000000007f8c0b5119d4cec7b284c6b1b39252a03d1e2f2d7451a5895562524c113bb952be60405180614673868a8d84614238565b5f5b815181101561472b57614a21613d81613d5b83856113ba565b6008808260581c1614614a38575b50600101614a08565b60601c90813b156101a35787517fa8ba8721000000000000000000000000000000000000000000000000000000008152915f908390818381614a7f8b8b8e6004850161434e565b03925af191821561071657600192614a99575b5090614a2f565b8061070a614aa6926112fd565b5f614a92565b9061157392614ac6614ad492608085526080850190612a01565b908382036020850152613307565b905f604082015260608183039101526132ac565b939291614b3a614b4d91614b2c60a0947f746268797065727363617065000000004865616c746800000000000000000000895260c060208a015260c0890190612a01565b908782036040890152613307565b5f606087015285810360808701526132ac565b930152565b604080517fffffffffffffffffffffffffffffffffffffffffffffffffffffffffffffffe0603f85830101811690925283815292602080850193925b81831015614bdf57505080614ba4575b50505090565b7fffffffffffffffffffffffffffffffffffffffffffffffffffffffffffffffff9060031b1c908183511691199054161790525f8080614b9e565b81600185839495979654875201940194019190614b8e565b604051614c0c8161417b602082019485613fd0565b5190207f14e2fcc58e58e68ec7edc30c8d50dccc3ce2714a623ec81f46b6a63922d765691890565b614c3c611373565b80511561071b57614d33817f746268797065727363617065000000004865616c746800000000000000000000602061157394015264ffffffffff604051917f3b4102da22e32d82fc925482184f16c09fd4281692720b87d124aef6da48a0f16020840184614caa8483613f7e565b0394614cdc7fffffffffffffffffffffffffffffffffffffffffffffffffffffffffffffffe096878101835282611332565b5190201892614d036040519182614cf7602082019586613f7e565b03908101835282611332565b5190207f14e2fcc58e58e68ec7edc30c8d50dccc3ce2714a623ec81f46b6a63922d76569185460381c1690614b52565b60206fffffffffffffffffffffffffffffffff825116910160801b1761501d565b614d5c611373565b80511561071b57614d33817f74626879706572736361706500000000476174686572696e67536b696c6c7300602061157394015264ffffffffff604051917f3b4102da22e32d82fc925482184f16c09fd4281692720b87d124aef6da48a0f16020840184614caa8483613f7e565b614dd2611373565b80511561071b57614d33817f74626879706572736361706500000000436f6d626174536b696c6c7300000000602061157394015264ffffffffff604051917f3b4102da22e32d82fc925482184f16c09fd4281692720b87d124aef6da48a0f16020840184614caa8483613f7e565b81519060208093019190925b80821015614e94575080614e5f57505050565b7fffffffffffffffffffffffffffffffffffffffffffffffffffffffffffffffff9060031b1c90818354169119905116179055565b9091928160017fffffffffffffffffffffffffffffffffffffffffffffffffffffffffffffffe09286518155019401920190614e4c565b82516116f093602001929091614f30565b91905b6020808210614f1c57600183947fffffffffffffffffffffffffffffffffffffffffffffffffffffffffffffffe093945181550193019101614edf565b5080614e5f57505050565b905f6020614f1c565b9092919280614f79575b50916020808210614f1c57600183947fffffffffffffffffffffffffffffffffffffffffffffffffffffffffffffffe093945181550193019101614edf565b602081101561500d575b8015614f3a57806020949394038160031b7fffffffffffffffffffffffffffffffffffffffffffffffffffffffffffffffff8560031b1c19811c908651901c9080198554169116178355808411156150065760017fffffffffffffffffffffffffffffffffffffffffffffffffffffffffffffffe093019401920101915f614f3a565b5050505050565b90601f908260051c019116614f83565b8060801c9060156fffffffffffffffffffffffffffffffff81921604604051926020906020850160208460051b8701016040528386525f5b8481106150655750505050505090565b82518252918501919083019060010161505556fea264697066735822122023fa01a8c1a58a6c328f8e5339e65cfeed9385f1665b0b893e50136642c5e28464736f6c63430008180033","linkReferences":{}},"methodIdentifiers":{"_msgSender()":"119df25f","_msgValue()":"45ec9354","_world()":"e1af802c","grantAttackXP(address,uint32)":"f6c8a062","grantConstitutionXP(address,uint32)":"cb59dedc","grantCookingXP(address,uint32)":"057403e5","grantDefenseXP(address,uint32)":"fda631a4","grantFiremakingXP(address,uint32)":"1a218fc7","grantFishingXP(address,uint32)":"7a45e7af","grantRangedXP(address,uint32)":"7134f8d8","grantStrengthXP(address,uint32)":"8850f3e9","grantWoodcuttingXP(address,uint32)":"2d1b9bbf","supportsInterface(bytes4)":"01ffc9a7"},"id":97}