{"abi":[{"type":"function","name":"_msgSender","inputs":[],"outputs":[{"name":"sender","type":"address","internalType":"address"}],"stateMutability":"view"},{"type":"function","name":"_msgValue","inputs":[],"outputs":[{"name":"value","type":"uint256","internalType":"uint256"}],"stateMutability":"view"},{"type":"function","name":"_world","inputs":[],"outputs":[{"name":"","type":"address","internalType":"address"}],"stateMutability":"view"},{"type":"function","name":"equipItem","inputs":[{"name":"inventorySlot","type":"uint8","internalType":"uint8"}],"outputs":[],"stateMutability":"nonpayable"},{"type":"function","name":"supportsInterface","inputs":[{"name":"interfaceId","type":"bytes4","internalType":"bytes4"}],"outputs":[{"name":"","type":"bool","internalType":"bool"}],"stateMutability":"pure"},{"type":"function","name":"unequipItem","inputs":[{"name":"equipSlot","type":"uint8","internalType":"uint8"}],"outputs":[],"stateMutability":"nonpayable"},{"type":"event","name":"ItemEquipped","inputs":[{"name":"player","type":"address","indexed":true,"internalType":"address"},{"name":"slot","type":"uint8","indexed":false,"internalType":"uint8"},{"name":"itemId","type":"uint16","indexed":false,"internalType":"uint16"}],"anonymous":false},{"type":"event","name":"ItemUnequipped","inputs":[{"name":"player","type":"address","indexed":true,"internalType":"address"},{"name":"slot","type":"uint8","indexed":false,"internalType":"uint8"},{"name":"itemId","type":"uint16","indexed":false,"internalType":"uint16"}],"anonymous":false},{"type":"event","name":"Store_SetRecord","inputs":[{"name":"tableId","type":"bytes32","indexed":true,"internalType":"ResourceId"},{"name":"keyTuple","type":"bytes32[]","indexed":false,"internalType":"bytes32[]"},{"name":"staticData","type":"bytes","indexed":false,"internalType":"bytes"},{"name":"encodedLengths","type":"bytes32","indexed":false,"internalType":"EncodedLengths"},{"name":"dynamicData","type":"bytes","indexed":false,"internalType":"bytes"}],"anonymous":false},{"type":"error","name":"Slice_OutOfBounds","inputs":[{"name":"data","type":"bytes","internalType":"bytes"},{"name":"start","type":"uint256","internalType":"uint256"},{"name":"end","type":"uint256","internalType":"uint256"}]}],"bytecode":{"object":"0x6080806040523461001657612ba6908161001b8239f35b5f80fdfe60806040526004361015610011575f80fd5b5f3560e01c806301ffc9a714610074578063119df25f1461006f57806345ec93541461006a5780638266741c14610065578063e1af802c146100605763fddb6b871461005b575f80fd5b6103a1565b610369565b61022a565b610195565b61013f565b346101315760207ffffffffffffffffffffffffffffffffffffffffffffffffffffffffffffffffc360112610131576004357fffffffff000000000000000000000000000000000000000000000000000000008116809103610131577fb5dee127000000000000000000000000000000000000000000000000000000008114908115610107575b50151560805260206080f35b7f01ffc9a700000000000000000000000000000000000000000000000000000000915014816100fb565b5f80fd5b5f91031261013157565b34610131575f7ffffffffffffffffffffffffffffffffffffffffffffffffffffffffffffffffc36011261013157602061017761078f565b73ffffffffffffffffffffffffffffffffffffffff60405191168152f35b34610131575f7ffffffffffffffffffffffffffffffffffffffffffffffffffffffffffffffffc3601126101315760206040517fffffffffffffffffffffffffffffffffffffffffffffffffffffffffffffffe03601358152f35b7ffffffffffffffffffffffffffffffffffffffffffffffffffffffffffffffffc60209101126101315760043560ff811681036101315790565b3461013157610238366101f0565b61024061078f565b61025161024c8261090e565b6104fa565b600660ff8316101561030b5773ffffffffffffffffffffffffffffffffffffffff816103066102a9856102a47f3a596cb44d1fa4c20cb75ec5b6825aeaf50df167500cec02dbd64da2815474ee96610988565b610a5f565b6102b861ffff8216151561055f565b6102da816102c585610ad9565b6102d4601c60ff8316106105c4565b85610b11565b6102e48684610bd2565b60405193849316958390929161ffff60209160ff604085019616845216910152565b0390a2005b60646040517f08c379a000000000000000000000000000000000000000000000000000000000815260206004820152601660248201527f496e76616c69642065717569706d656e7420736c6f74000000000000000000006044820152fd5b34610131575f7ffffffffffffffffffffffffffffffffffffffffffffffffffffffffffffffffc360112610131576020610177611913565b34610131576103af366101f0565b7f1a94e45d792999fd2cfc7850599cd7c54bdaff2dce4eb1e0ab5a65c9ffc5c32173ffffffffffffffffffffffffffffffffffffffff6103ed61078f565b6103f961024c8261090e565b610408601c60ff861610610629565b6103066102e46104188684610d62565b6104bf61ffff976104378961042f855161ffff1690565b16151561068e565b61048c61044e610449855161ffff1690565b610e40565b6004815161045b816106f3565b610464816106f3565b1415806104d7575b6104759061072a565b845161ffff16905190610487826106f3565b610fd2565b9861049a8a6102a489610988565b9081166104c7575b506104b96104b2845161ffff1690565b8a88610c9d565b85610bb5565b5161ffff1690565b6104d19087611102565b5f6104a2565b50610475600382516104e8816106f3565b6104f1816106f3565b1415905061046c565b1561050157565b60646040517f08c379a000000000000000000000000000000000000000000000000000000000815260206004820152601560248201527f506c61796572206e6f74207265676973746572656400000000000000000000006044820152fd5b1561056657565b60646040517f08c379a000000000000000000000000000000000000000000000000000000000815260206004820152601060248201527f4e6f206974656d206571756970706564000000000000000000000000000000006044820152fd5b156105cb57565b60646040517f08c379a000000000000000000000000000000000000000000000000000000000815260206004820152600e60248201527f496e76656e746f72792066756c6c0000000000000000000000000000000000006044820152fd5b1561063057565b60646040517f08c379a000000000000000000000000000000000000000000000000000000000815260206004820152601660248201527f496e76616c696420696e76656e746f727920736c6f74000000000000000000006044820152fd5b1561069557565b60646040517f08c379a000000000000000000000000000000000000000000000000000000000815260206004820152600f60248201527f4e6f206974656d20696e20736c6f7400000000000000000000000000000000006044820152fd5b600611156106fd57565b7f4e487b71000000000000000000000000000000000000000000000000000000005f52602160045260245ffd5b1561073157565b60646040517f08c379a000000000000000000000000000000000000000000000000000000000815260206004820152601b60248201527f43616e6e6f742065717569702074686973206974656d207479706500000000006044820152fd5b7fffffffffffffffffffffffffffffffffffffffffffffffffffffffffffffffcc36013560601c9081156107bf57565b339150565b7f4e487b71000000000000000000000000000000000000000000000000000000005f52604160045260245ffd5b67ffffffffffffffff811161080557604052565b6107c4565b6040810190811067ffffffffffffffff82111761080557604052565b6060810190811067ffffffffffffffff82111761080557604052565b90601f7fffffffffffffffffffffffffffffffffffffffffffffffffffffffffffffffe0910116810190811067ffffffffffffffff82111761080557604052565b604051906108908261080a565b6001825260203681840137565b604051906108aa82610826565b600282526040366020840137565b7f4e487b71000000000000000000000000000000000000000000000000000000005f52603260045260245ffd5b8051600110156108f55760400190565b6108b8565b80518210156108f55760209160051b010190565b610916610883565b8051156108f55773ffffffffffffffffffffffffffffffffffffffff61094192166020820152611172565b60f81c90565b6040519060c0820182811067ffffffffffffffff821117610805576040525f60a0838281528260208201528260408201528260608201528260808201520152565b610990610947565b50610999610883565b8051156108f55773ffffffffffffffffffffffffffffffffffffffff6109c49216602082015261135e565b5050610a5c6109d1610947565b91610a55602082015191610a4a602282015160f01c91610a3f602482015160f01c91610a34602682015160f01c91610a29610a1e602a610a15602885015160f01c90565b93015160f01c90565b61ffff1660a08d0152565b61ffff1660808b0152565b61ffff166060890152565b61ffff166040870152565b61ffff166020850152565b60f01c8252565b90565b9060ff168015610ad05760018114610ac45760028114610ab85760038114610aac5760048114610aa057600514610a9557505f90565b60a0015161ffff1690565b506080015161ffff1690565b506060015161ffff1690565b506040015161ffff1690565b506020015161ffff1690565b505161ffff1690565b905f5b601c60ff821610610aee5750601c9150565b61ffff610afb8285610d62565b511615610b0d5760010160ff16610adc565b9150565b9190917fffff0000000000000000000000000000000000000000000000000000000000006040519260f01b1660208301527c0100000000000000000000000000000000000000000000000000000000602283015260068252610b728261080a565b610b7a61089d565b908151156108f55773ffffffffffffffffffffffffffffffffffffffff166020820152610bb39260ff16610bad826108e5565b526116b3565b565b604051905f60208301525f602283015260068252610b728261080a565b610bb39160ff610be183610988565b911680610c3a57505f81525b805161ffff16602082015161ffff16604083015161ffff1690610c15606085015161ffff1690565b92610c3460a0610c2a608088015161ffff1690565b96015161ffff1690565b9561186f565b60018103610c4f57505f60208201525b610bed565b60028103610c6357505f6040820152610bed565b60038103610c7757505f6060820152610bed565b60048103610c8b57505f6080820152610bed565b600503610c4a575f60a0820152610bed565b90610bb39260ff610cad84610988565b921680610cc0575061ffff168152610bed565b60018103610cd7575061ffff166020820152610bed565b60028103610cee575061ffff166040820152610bed565b60038103610d05575061ffff166060820152610bed565b60048103610d1c575061ffff166080820152610bed565b600514610d2a575b50610bed565b61ffff1660a08201525f610d24565b604051906040820182811067ffffffffffffffff821117610805576040525f6020838281520152565b610d6a610d39565b50610d7361089d565b908151156108f55773ffffffffffffffffffffffffffffffffffffffff1660208201528051600110156108f55760ff610db192166040820152611467565b5050610dbb610d39565b906022602082015160f01c91015160e01c6020830152815290565b60405190610180820182811067ffffffffffffffff821117610805576040526060610160835f81525f60208201525f60408201525f838201525f60808201525f60a08201525f60c08201525f60e08201525f6101008201525f6101208201525f6101408201520152565b610e48610dd6565b50610e51610883565b908151156108f557610fc99161ffff610e6f9216602082015261153e565b90610fc4610e7e949394610dd6565b94610fbe610e98610e93602084015160f81c90565b6121e6565b91610fb5610eaa602183015160f81c90565b91610fab8a610fa1610ecd610ec3602286015160f01c90565b61ffff1660010b90565b936080610ee1610ec3602484015160f01c90565b93610f98610ef6610ec3602686015160f01c90565b93610f8e610f0b610ec3602884015160f01c90565b91610f84610f1d602a83015160f81c90565b91610f7a610f2f602b83015160f81c90565b91610f6f610f41602c83015160f81c90565b91610f64610f58602e610a15602d85015160f81c90565b61ffff166101408d0152565b60ff166101208b0152565b60ff16610100890152565b60ff1660e0870152565b60ff1660c0850152565b60010b60a0830152565b019060010b9052565b60010b60608c0152565b60010b60408a0152565b15156020880152565b85611955565b6121f2565b61016082015290565b90610fdc816106f3565b600581146110fb5780610ff06002926106f3565b146110ec5761ffff166064811015806110f1575b6110ec5760c8811015806110e1575b6110db5761012c811015806110d0575b6110ca5761015e811015806110bf575b6110b95761019081101590816110ad575b506110a8576040517f08c379a000000000000000000000000000000000000000000000000000000000815260206004820152601f60248201527f43616e6e6f742064657465726d696e652065717569706d656e7420736c6f74006044820152606490fd5b600490565b6101c29150105f611044565b50600390565b506101908110611033565b50600290565b5061015e8110611023565b50600190565b5061012c8110611013565b505f90565b5060c88110611004565b5050600590565b90610bb39161111081610ad9565b90611120601c60ff8416106105c4565b610b11565b90816020910312610131575190565b9081518082526020808093019301915f5b828110611153575050505090565b835185529381019392810192600101611145565b6040513d5f823e3d90fd5b73ffffffffffffffffffffffffffffffffffffffff61118f611913565b163081036111a15750610a5c90611961565b61120a9160209160405180809581947f8c364d590000000000000000000000000000000000000000000000000000000083527f74626879706572736361706500000000506c61796572000000000000000000006004840152608060248401526084830190611134565b5f60448301527e41030101202000000000000000000000000000000000000000000000000000606483015203915afa908115611273575f9161124a575090565b610a5c915060203d60201161126c575b6112648183610842565b810190611125565b503d61125a565b611167565b67ffffffffffffffff811161080557601f017fffffffffffffffffffffffffffffffffffffffffffffffffffffffffffffffe01660200190565b5f5b8381106112c35750505f910152565b81810151838201526020016112b4565b81601f820112156101315780516112e981611278565b926112f76040519485610842565b8184526020828401011161013157610a5c91602080850191016112b2565b90916060828403126101315781519167ffffffffffffffff9283811161013157846113419183016112d3565b93602082015193604083015190811161013157610a5c92016112d3565b73ffffffffffffffffffffffffffffffffffffffff61137b611913565b16308103611394575061138d90611a94565b9192909190565b6113fd92915f9160405180809681947f419b58fd0000000000000000000000000000000000000000000000000000000083527f7462687970657273636170650000000045717569706d656e74000000000000006004840152606060248401526064830190611134565b7e0c060002020202020200000000000000000000000000000000000000000000604483015203915afa908115611273575f80935f9361143d575b50929190565b9193505061145d91503d805f833e6114558183610842565b810190611315565b929092915f611437565b73ffffffffffffffffffffffffffffffffffffffff611484611913565b16308103611496575061138d90611b48565b6114ff92915f9160405180809681947f419b58fd0000000000000000000000000000000000000000000000000000000083527f74626879706572736361706500000000496e76656e746f7279536c6f740000006004840152606060248401526064830190611134565b7e06020002040000000000000000000000000000000000000000000000000000604483015203915afa908115611273575f80935f9361143d5750929190565b73ffffffffffffffffffffffffffffffffffffffff61155b611913565b1630810361156d575061138d90611bc0565b6115d692915f9160405180809681947f419b58fd0000000000000000000000000000000000000000000000000000000083527f746268797065727363617065000000004974656d4d65746164617461000000006004840152606060248401526064830190611134565b7e100b0101010202020201010101020000000000000000000000000000000000604483015203915afa908115611273575f80935f9361143d5750929190565b90606051918281525f5b83811061165c57507fffffffffffffffffffffffffffffffffffffffffffffffffffffffffffffffe0601f845f6020809697860101520116010190565b80602091608001518282850101520161161f565b907fffffffffffffffffffffffffffffffffffffffffffffffffffffffffffffffe0601f6020936116ac815180928187528780880191016112b2565b0116010190565b73ffffffffffffffffffffffffffffffffffffffff6116d0611913565b163081036116e3575090610bb391611cb5565b90813b15610131575f9161175c8361178d936117a2604051978896879586947f298314fb0000000000000000000000000000000000000000000000000000000086527f74626879706572736361706500000000496e76656e746f7279536c6f74000000600487015260a0602487015260a4860190611134565b7ffffffffffffffffffffffffffffffffffffffffffffffffffffffffffffffffc9283868303016044870152611670565b90846064850152838203016084840152611615565b03925af18015611273576117b35750565b806117c0610bb3926107f1565b80610135565b73ffffffffffffffffffffffffffffffffffffffff6117e3611913565b163081036117f6575090610bb391611f80565b90813b15610131575f9161175c8361178d936117a2604051978896879586947f298314fb0000000000000000000000000000000000000000000000000000000086527f7462687970657273636170650000000045717569706d656e7400000000000000600487015260a0602487015260a4860190611134565b9592909194604051957fffff000000000000000000000000000000000000000000000000000000000000958680948180948160f0998a1b1660208d0152881b1660228b0152861b166024890152841b166026870152821b1660288501521b16602a820152600c81526118e08161080a565b6118e8610883565b8051156108f55773ffffffffffffffffffffffffffffffffffffffff610bb3931660208201526117c6565b7f629a4c26e296b22a8e0856e9f6ecb2d1008d7e00081111962cd175fa7488e1755473ffffffffffffffffffffffffffffffffffffffff1680610a5c57503390565b61195e826106f3565b52565b60405160208160208101937f74626879706572736361706500000000506c617965720000000000000000000085526040820160208251919201935f5b828110611a01575050506119d89250037fffffffffffffffffffffffffffffffffffffffffffffffffffffffffffffffe08101835282610842565b5190207f86425bff6b57326c7859e89024fe4f238ca327a1ae4a230180dd2f0e88aaa7d9185490565b85518452948101948694509281019260010161199d565b90611a2282611278565b611a2f6040519182610842565b8281527fffffffffffffffffffffffffffffffffffffffffffffffffffffffffffffffe0611a5d8294611278565b0190602036910137565b7f4e487b71000000000000000000000000000000000000000000000000000000005f52601160045260245ffd5b5f90611aa16060916123ce565b6040519060207fffffffffffffffffffffffffffffffffffffffffffffffffffffffffffffffe080604b850116604052600c8452602084019291600c915b81831015611b3057505080611af5575b50505092565b7fffffffffffffffffffffffffffffffffffffffffffffffffffffffffffffffff9060031b1c908183511691199054161790525f8080611aef565b81600185839495979654875201940194019190611adf565b5f90611b5560609161240b565b6040519060207fffffffffffffffffffffffffffffffffffffffffffffffffffffffffffffffe0806045850116604052600684526020840192916006915b81831015611ba857505080611af55750505092565b81600185839495979654875201940194019190611b93565b90611c306040516020810190611c0681611bda87856122d8565b037fffffffffffffffffffffffffffffffffffffffffffffffffffffffffffffffe08101835282610842565b5190207f86425bff6b57326c7859e89024fe4f238ca327a1ae4a230180dd2f0e88aaa7d91861275e565b90611c3a83612882565b54611c4d66ffffffffffffff8216611a18565b935f93602086015b60ff86166001811015611cab57611c878264ffffffffff87611c778b8961245e565b946028026038011c168093612576565b8101809111611ca6579460ff809116908114611ca65760010194611c55565b611a67565b5050949291935050565b604092835192602084017f746273746f72650000000000000000005461626c65730000000000000000000081527f74626879706572736361706500000000496e76656e746f7279536c6f74000000948587820152868152611d1581610826565b5190207f86425bff6b57326c7859e89024fe4f238ca327a1ae4a230180dd2f0e88aaa7d9185491611d446128c1565b905f5b8251811015611e3657611dab611d86611d6083866108fa565b517fffffffffffffffffffffffffffffffffffffffffff00000000000000000000001690565b7fffffffffffffffffffffffffffffffffffffffffff00000000000000000000001690565b6001808260581c1614611dc2575b50600101611d47565b60601c90813b156101315788517f57066c9c000000000000000000000000000000000000000000000000000000008152915f908390818381611e098c8c8f6004850161263a565b03925af191821561127357600192611e23575b5090611db9565b806117c0611e30926107f1565b5f611e1c565b50947f8dbb3a9672eebfd3773e72dd9c102393436816d832c7ba9e1e1ac8fcadcac7a9875180611e678689836125fe565b0390a2611e82611e768561240b565b83516020850191612ab1565b60ff808460e01c1680611f41575b50505f5b8151811015611f3857611ead611d86611d6083856108fa565b6002808260581c1614611ec4575b50600101611e94565b60601c90813b156101315787517f5b28cdaf000000000000000000000000000000000000000000000000000000008152915f908390818381611f0b8b8b8e6004850161263a565b03925af191821561127357600192611f25575b5090611ebb565b806117c0611f32926107f1565b5f611f1e565b50505050509050565b5f611f4b87612897565b555f60805b8284831610611f60575050611e90565b600181611f778693611f72868d6124c4565b612a31565b92011690611f50565b604092835192602084017f746273746f72650000000000000000005461626c65730000000000000000000081527f7462687970657273636170650000000045717569706d656e7400000000000000948587820152868152611fe081610826565b5190207f86425bff6b57326c7859e89024fe4f238ca327a1ae4a230180dd2f0e88aaa7d918549161200f61298a565b905f5b82518110156120b65761202b611d86611d6083866108fa565b6001808260581c1614612042575b50600101612012565b60601c90813b156101315788517f57066c9c000000000000000000000000000000000000000000000000000000008152915f9083908183816120898c8c8f600485016126a4565b03925af1918215611273576001926120a3575b5090612039565b806117c06120b0926107f1565b5f61209c565b50947f8dbb3a9672eebfd3773e72dd9c102393436816d832c7ba9e1e1ac8fcadcac7a98751806120e78689836125fe565b0390a26120f6611e76856123ce565b60ff808460e01c16806121ac575b50505f5b8151811015611f3857612121611d86611d6083856108fa565b6002808260581c1614612138575b50600101612108565b60601c90813b156101315787517f5b28cdaf000000000000000000000000000000000000000000000000000000008152915f90839081838161217f8b8b8e600485016126a4565b03925af191821561127357600192612199575b509061212f565b806117c06121a6926107f1565b5f612192565b5f6121b6876128ac565b555f60805b82848316106121cb575050612104565b6001816121dd8693611f72868d61251d565b920116906121bb565b60ff16610a5c816106f3565b9064ffffffffff6122079260381c16906126e8565b610a5c6fffffffffffffffffffffffffffffffff821661222681611a18565b92602084019060801c612af0565b7f746273746f726500000000000000000053746f7265486f6f6b73000000000000815281516020918201928201915f5b828110612272575050505090565b835185529381019392810192600101612264565b7f746268797065727363617065000000004974656d4d6574616461746100000000815281516020918201928201915f5b8281106122c4575050505090565b8351855293810193928101926001016122b6565b7f746268797065727363617065000000004974656d4d6574616461746100000000815281516020918201928201915f5b828110612316575050505090565b835185529381019392810192600101612308565b7f7462687970657273636170650000000045717569706d656e7400000000000000815281516020918201928201915f5b828110612368575050505090565b83518552938101939281019260010161235a565b7f74626879706572736361706500000000496e76656e746f7279536c6f74000000815281516020918201928201915f5b8281106123ba575050505090565b8351855293810193928101926001016123ac565b6040516123e381611bda60208201948561232a565b5190207f86425bff6b57326c7859e89024fe4f238ca327a1ae4a230180dd2f0e88aaa7d91890565b6040516123e381611bda60208201948561237c565b7f3b4102da22e32d82fc925482184f16c09fd4281692720b87d124aef6da48a0f19060405161245781611bda602082019485612234565b5190201890565b907fff000000000000000000000000000000000000000000000000000000000000007f3b4102da22e32d82fc925482184f16c09fd4281692720b87d124aef6da48a0f1926040516124b781611bda602082019485612286565b5190209160f81b16181890565b907fff000000000000000000000000000000000000000000000000000000000000007f3b4102da22e32d82fc925482184f16c09fd4281692720b87d124aef6da48a0f1926040516124b781611bda60208201948561237c565b907fff000000000000000000000000000000000000000000000000000000000000007f3b4102da22e32d82fc925482184f16c09fd4281692720b87d124aef6da48a0f1926040516124b781611bda60208201948561232a565b929091925b6020908184106125ba57906001827fffffffffffffffffffffffffffffffffffffffffffffffffffffffffffffffe0935487520194019201919261257b565b9193929050806125c957505050565b7fffffffffffffffffffffffffffffffffffffffffffffffffffffffffffffffff9060031b1c90818351169119905416179052565b90610a5c9261261861262692608085526080850190611134565b908382036020850152611670565b905f60408201526060818303910152611615565b93929161268c61269f9161267e60a0947f74626879706572736361706500000000496e76656e746f7279536c6f74000000895260c060208a015260c0890190611134565b908782036040890152611670565b5f60608701528581036080870152611615565b930152565b93929161268c61269f9161267e60a0947f7462687970657273636170650000000045717569706d656e7400000000000000895260c060208a015260c0890190611134565b908151811161270f576fffffffffffffffffffffffffffffffff60209116910160801b1790565b61274e92506040519283927f23230fa3000000000000000000000000000000000000000000000000000000008452606060048501526064840190611670565b905f602484015260448301520390fd5b6040519060207fffffffffffffffffffffffffffffffffffffffffffffffffffffffffffffffe080604f850116604052601084526020840192916010915b818310156127ed575050806127b2575b50505090565b7fffffffffffffffffffffffffffffffffffffffffffffffffffffffffffffffff9060031b1c908183511691199054161790525f80806127ac565b8160018583949597965487520194019401919061279c565b610a5c90604051927fffffffffffffffffffffffffffffffffffffffffffffffffffffffffffffffe0603f82860101166040528084526020840191612576565b60405161285a81611bda602082019485612234565b5190207f14e2fcc58e58e68ec7edc30c8d50dccc3ce2714a623ec81f46b6a63922d765691890565b60405161285a81611bda602082019485612286565b60405161285a81611bda60208201948561237c565b60405161285a81611bda60208201948561232a565b6128c9610883565b8051156108f5576129306129286020927f74626879706572736361706500000000496e76656e746f7279536c6f74000000602082015261292261291461290e83612420565b92612845565b5460381c64ffffffffff1690565b90612805565b8051906126e8565b8060801c9160156fffffffffffffffffffffffffffffffff8193160490604051936020850160208460051b8701016040528386525f5b8481106129765750505050505090565b825182529185019190830190600101612966565b612992610883565b8051156108f5576129d76129286020927f7462687970657273636170650000000045717569706d656e7400000000000000602082015261292261291461290e83612420565b8060801c9160156fffffffffffffffffffffffffffffffff8193160490604051936020850160208460051b8701016040528386525f5b848110612a1d5750505050505090565b825182529185019190830190600101612a0d565b905f5b6020808210612a7157600183947fffffffffffffffffffffffffffffffffffffffffffffffffffffffffffffffe093945181550193019101612a34565b5080612a7c57505050565b7fffffffffffffffffffffffffffffffffffffffffffffffffffffffffffffffff9060031b1c90818354169119905116179055565b91906020808210612a7157600183947fffffffffffffffffffffffffffffffffffffffffffffffffffffffffffffffe093945181550193019101612a34565b90915b6020808210612b2f578083947fffffffffffffffffffffffffffffffffffffffffffffffffffffffffffffffe093945181520193019101612af3565b508015612b6b577fffffffffffffffffffffffffffffffffffffffffffffffffffffffffffffffff9060031b1c90818351169119905116179052565b50505056fea2646970667358221220a4ffd7c2ed819d64cd103a8813bd16781cd32916dc00760aa9dcd45a5928d2ce64736f6c63430008180033","linkReferences":{}},"methodIdentifiers":{"_msgSender()":"119df25f","_msgValue()":"45ec9354","_world()":"e1af802c","equipItem(uint8)":"fddb6b87","supportsInterface(bytes4)":"01ffc9a7","unequipItem(uint8)":"8266741c"},"id":92}