{"abi":[{"type":"function","name":"_msgSender","inputs":[],"outputs":[{"name":"sender","type":"address","internalType":"address"}],"stateMutability":"view"},{"type":"function","name":"_msgValue","inputs":[],"outputs":[{"name":"value","type":"uint256","internalType":"uint256"}],"stateMutability":"view"},{"type":"function","name":"_world","inputs":[],"outputs":[{"name":"","type":"address","internalType":"address"}],"stateMutability":"view"},{"type":"function","name":"attackMob","inputs":[{"name":"mobId","type":"bytes32","internalType":"bytes32"}],"outputs":[],"stateMutability":"nonpayable"},{"type":"function","name":"supportsInterface","inputs":[{"name":"interfaceId","type":"bytes4","internalType":"bytes4"}],"outputs":[{"name":"","type":"bool","internalType":"bool"}],"stateMutability":"pure"},{"type":"event","name":"AttackStarted","inputs":[{"name":"player","type":"address","indexed":true,"internalType":"address"},{"name":"mobId","type":"bytes32","indexed":true,"internalType":"bytes32"}],"anonymous":false},{"type":"event","name":"DamageDealt","inputs":[{"name":"attacker","type":"address","indexed":true,"internalType":"address"},{"name":"target","type":"bytes32","indexed":true,"internalType":"bytes32"},{"name":"damage","type":"uint32","indexed":false,"internalType":"uint32"}],"anonymous":false},{"type":"event","name":"LootDropped","inputs":[{"name":"mobId","type":"bytes32","indexed":true,"internalType":"bytes32"},{"name":"itemId","type":"uint16","indexed":false,"internalType":"uint16"},{"name":"quantity","type":"uint32","indexed":false,"internalType":"uint32"}],"anonymous":false},{"type":"event","name":"MobKilled","inputs":[{"name":"killer","type":"address","indexed":true,"internalType":"address"},{"name":"mobId","type":"bytes32","indexed":true,"internalType":"bytes32"},{"name":"coinsDropped","type":"uint256","indexed":false,"internalType":"uint256"}],"anonymous":false},{"type":"event","name":"Store_SpliceStaticData","inputs":[{"name":"tableId","type":"bytes32","indexed":true,"internalType":"ResourceId"},{"name":"keyTuple","type":"bytes32[]","indexed":false,"internalType":"bytes32[]"},{"name":"start","type":"uint48","indexed":false,"internalType":"uint48"},{"name":"data","type":"bytes","indexed":false,"internalType":"bytes"}],"anonymous":false},{"type":"error","name":"Slice_OutOfBounds","inputs":[{"name":"data","type":"bytes","internalType":"bytes"},{"name":"start","type":"uint256","internalType":"uint256"},{"name":"end","type":"uint256","internalType":"uint256"}]}],"bytecode":{"object":"0x608080604052346100165761532b908161001b8239f35b5f80fdfe60806040526004361015610011575f80fd5b5f3560e01c806301ffc9a714610064578063119df25f1461005f57806345ec93541461005a5780638e2d2244146100555763e1af802c14610050575f80fd5b6104a4565b6101e0565b610185565b61012f565b346101215760207ffffffffffffffffffffffffffffffffffffffffffffffffffffffffffffffffc360112610121576004357fffffffff000000000000000000000000000000000000000000000000000000008116809103610121577fb5dee1270000000000000000000000000000000000000000000000000000000081149081156100f7575b50151560805260206080f35b7f01ffc9a700000000000000000000000000000000000000000000000000000000915014816100eb565b5f80fd5b5f91031261012157565b34610121575f7ffffffffffffffffffffffffffffffffffffffffffffffffffffffffffffffffc36011261012157602061016761069c565b73ffffffffffffffffffffffffffffffffffffffff60405191168152f35b34610121575f7ffffffffffffffffffffffffffffffffffffffffffffffffffffffffffffffffc3601126101215760206040517fffffffffffffffffffffffffffffffffffffffffffffffffffffffffffffffe03601358152f35b346101215760207ffffffffffffffffffffffffffffffffffffffffffffffffffffffffffffffffc360112610121576103d660043561021d61069c565b61022e6102298261080d565b6104dc565b6102378261089e565b9061024e610249610160840151151590565b610541565b608082019063ffffffff6102728161026a855163ffffffff1690565b1615156105a6565b610286604061028084610a68565b01610647565b9461029086610638565b60ff86161561049b575b6102a383610ae8565b6102ad8184610be3565b6102c360ff87166102bd81610638565b84610c28565b6102cd4284610dda565b6102d683610f42565b936102e0846110cf565b805161ffff169661ffff9687891660968110159889610490575b89610464575b50908795949392916103ba999a8b5f146103ed57505061032d610328610360945161ffff1690565b6111fb565b9161035a61034f60a06103466101008096015160ff1690565b95015160010b90565b928392015160ff1690565b9261143b565b9586915b60405163ffffffff84168152849073ffffffffffffffffffffffffffffffffffffffff8716907f63b2ece2ae9de7b2b32615abb4a631a86b6686461252defd1cda6cedef051f9690602090a35163ffffffff1690565b93808516908216106103d857506103d19250611502565b611720565b005b6103e79192506103d193610681565b9061149b565b61042c945091925f928392610434575b5061042661010061041d6040610414885160ff1690565b97015160ff1690565b92015160ff1690565b936113b6565b958691610364565b90925061044191506111fb565b61045d6060610454604084015160010b90565b92015160010b90565b915f6103fd565b6103ba9950908493929161048060a08b999897015161ffff1690565b1615159950909192939495610300565b60c8821099506102fa565b6003955061029a565b34610121575f7ffffffffffffffffffffffffffffffffffffffffffffffffffffffffffffffffc360112610121576020610167612f11565b156104e357565b60646040517f08c379a000000000000000000000000000000000000000000000000000000000815260206004820152601560248201527f506c61796572206e6f74207265676973746572656400000000000000000000006044820152fd5b1561054857565b60646040517f08c379a000000000000000000000000000000000000000000000000000000000815260206004820152600b60248201527f4d6f6220697320646561640000000000000000000000000000000000000000006044820152fd5b156105ad57565b60646040517f08c379a000000000000000000000000000000000000000000000000000000000815260206004820152601160248201527f4d6f6220686173206e6f206865616c74680000000000000000000000000000006044820152fd5b7f4e487b71000000000000000000000000000000000000000000000000000000005f52602160045260245ffd5b6004111561064257565b61060b565b5160048110156106425790565b7f4e487b71000000000000000000000000000000000000000000000000000000005f52601160045260245ffd5b63ffffffff918216908216039190821161069757565b610654565b7fffffffffffffffffffffffffffffffffffffffffffffffffffffffffffffffcc36013560601c9081156106cc57565b339150565b7f4e487b71000000000000000000000000000000000000000000000000000000005f52604160045260245ffd5b610180810190811067ffffffffffffffff82111761071b57604052565b6106d1565b67ffffffffffffffff811161071b57604052565b6040810190811067ffffffffffffffff82111761071b57604052565b60a0810190811067ffffffffffffffff82111761071b57604052565b90601f7fffffffffffffffffffffffffffffffffffffffffffffffffffffffffffffffe0910116810190811067ffffffffffffffff82111761071b57604052565b604051906107ba82610734565b6001825260203681840137565b7f4e487b71000000000000000000000000000000000000000000000000000000005f52603260045260245ffd5b80518210156108085760209160051b010190565b6107c7565b6108156107ad565b8051156108085773ffffffffffffffffffffffffffffffffffffffff6108409216602082015261188a565b60f81c90565b60405190610853826106fe565b5f610160838281528260208201528260408201528260608201528260808201528260a08201528260c08201528260e08201528261010082015282610120820152826101408201520152565b6108a6610846565b506108af6107ad565b805115610808576108c4916020820152611b49565b5050610a306108d1610846565b91610a2a6108eb6108e6602084015160f81c90565b612642565b91610a2061090c610900602184015160e01c90565b63ffffffff1660030b90565b91610a16610921610900602584015160e01c90565b91610a0c610936610900602984015160e01c90565b916109ff8b6109f261094c602d85015160e01c90565b9360c061095d603183015160e01c90565b936109e961096f603585015160f81c90565b936109df610981603683015160f81c90565b916109d4610993603783015160f81c90565b916109a2603882015160f81c90565b906109c36109b96059603984015193015160f81c90565b15156101608a0152565b61014088015260ff16610120870152565b60ff16610100850152565b60ff1660e0830152565b019060ff169052565b63ffffffff1660a08d0152565b63ffffffff1660808b0152565b60030b6060890152565b60030b6040870152565b60030b6020850152565b82612085565b90565b604051906080820182811067ffffffffffffffff82111761071b576040525f6060838281528260208201528260408201520152565b610a70610a33565b50610a796107ad565b8051156108085773ffffffffffffffffffffffffffffffffffffffff610aa492166020820152611c52565b5050610aae610a33565b90602081015190602181015190604181015160f81c906004821015610642576042015160608501526040840152602083015260f81c815290565b610af06107ad565b8051156108085773ffffffffffffffffffffffffffffffffffffffff610b5292166020820152604051907f0100000000000000000000000000000000000000000000000000000000000000602083015260018252610b4d82610734565b6120d4565b565b610b5c6107ad565b8051156108085773ffffffffffffffffffffffffffffffffffffffff610b5292166020820152604051905f602083015260018252610b4d82610734565b610ba16107ad565b8051156108085773ffffffffffffffffffffffffffffffffffffffff610b5292166020820152604051905f602083015260208252610bde82610734565b6121b1565b90610bec6107ad565b8051156108085773ffffffffffffffffffffffffffffffffffffffff610b529316602082015260405191602083015260208252610bde82610734565b90610c316107ad565b9173ffffffffffffffffffffffffffffffffffffffff90835115610808578116602084015260048210156106425760405160f89290921b7fff00000000000000000000000000000000000000000000000000000000000000166020830152610cc482602181015b037fffffffffffffffffffffffffffffffffffffffffffffffffffffffffffffffe0810184528361076c565b610ccc612f11565b1691308303610cdf57610b52925061353d565b90823b1561012157610d8c92610d555f8094604051968795869485937f390baae00000000000000000000000000000000000000000000000000000000085527f74626879706572736361706500000000436f6d62617454617267657400000000600486015260a0602486015260a485019061184c565b90600260448501527ffffffffffffffffffffffffffffffffffffffffffffffffffffffffffffffffc848303016064850152612091565b7e42040001200120000000000000000000000000000000000000000000000000608483015203925af18015610dd557610dc25750565b80610dcf610b5292610720565b80610125565b61187f565b90610de36107ad565b9173ffffffffffffffffffffffffffffffffffffffff90835115610808578116602084015260405191602083015260208252610e1e82610734565b610e26612f11565b1691308303610e3957610b52925061359d565b90823b1561012157610d8c92610eaf5f8094604051968795869485937f390baae00000000000000000000000000000000000000000000000000000000085527f74626879706572736361706500000000436f6d62617454617267657400000000600486015260a0602486015260a485019061184c565b90600360448501527ffffffffffffffffffffffffffffffffffffffffffffffffffffffffffffffffc848303016064850152612091565b60405190610140820182811067ffffffffffffffff82111761071b576040525f610120838281528260208201528260408201528260608201528260808201528260a08201528260c08201528260e0820152826101008201520152565b610f4a610ee6565b50610f536107ad565b8051156108085773ffffffffffffffffffffffffffffffffffffffff610f7e92166020820152611d29565b5050610a30610f8b610ee6565b91611087610f9d602083015160f81c90565b9161107a610faf602183015160e01c90565b91611070610fc1602583015160f81c90565b91611063610fd3602683015160e01c90565b916110598b6109f2610fe9602a85015160f81c90565b9360c0610ffa602b83015160e01c90565b936109e961100c602f85015160f81c90565b9361104c61101e603083015160e01c90565b916109d461103e6035611035603485015160f81c90565b93015160e01c90565b63ffffffff16610120870152565b63ffffffff1660e0830152565b60ff1660808b0152565b63ffffffff166060890152565b60ff166040870152565b63ffffffff166020850152565b60ff168252565b6040519060c0820182811067ffffffffffffffff82111761071b576040525f60a0838281528260208201528260408201528260608201528260808201520152565b6110d761108e565b506110e06107ad565b8051156108085773ffffffffffffffffffffffffffffffffffffffff61110b92166020820152611e00565b5050610a3061111861108e565b9161119c602082015191611191602282015160f01c91611186602482015160f01c9161117b602682015160f01c91611170611165602a61115c602885015160f01c90565b93015160f01c90565b61ffff1660a08d0152565b61ffff1660808b0152565b61ffff166060890152565b61ffff166040870152565b61ffff166020850152565b60f01c8252565b604051906111b0826106fe565b6060610160835f81525f60208201525f60408201525f838201525f60808201525f60a08201525f60c08201525f60e08201525f6101008201525f6101208201525f6101408201520152565b6112036111a3565b5061120c6107ad565b90815115610808576113849161ffff61122a92166020820152611ed7565b9061137f6112399493946111a3565b9461137961125361124e602084015160f81c90565b613b7a565b91611370611265602183015160f81c90565b916113668a61135c61128861127e602286015160f01c90565b61ffff1660010b90565b93608061129c61127e602484015160f01c90565b936113536112b161127e602686015160f01c90565b936113496112c661127e602884015160f01c90565b9161133f6112d8602a83015160f81c90565b916113356112ea602b83015160f81c90565b9161132a6112fc602c83015160f81c90565b9161131f611313602e61115c602d85015160f81c90565b61ffff166101408d0152565b60ff166101208b0152565b60ff16610100890152565b60ff1660e0870152565b60ff1660c0850152565b60010b60a0830152565b019060010b9052565b60010b60608c0152565b60010b60408a0152565b15156020880152565b856123a3565b613b89565b61016082015290565b906001820180921161069757565b906008820180921161069757565b9190820180921161069757565b92936113c39192846123e0565b156114345760ff809116911681018091116106975780915f8160010b1361141f575b50506008810180911161069757600a90048015611417575b61141361140e63ffffffff92612501565b61138d565b1690565b5060016113fd565b61ffff16810191508110610697575f806113e5565b5050505f90565b919261144791836123e0565b156114955760ff16905f8160010b13611482575b506008810180911161069757600a900480156114175761141361140e63ffffffff92612501565b61ffff168101809111610697575f61145b565b50505f90565b906114a46107ad565b805115610808576114f3610c9892610b52946020840152604051938491602083017fffffffff0000000000000000000000000000000000000000000000000000000060049260e01b1681520190565b61228f565b6009111561064257565b9061150c8261089e565b916115156107ad565b805115610808578082602061153d930152604051905f6020830152600482526114f382610734565b6115456107ad565b80511561080857816020820152604051905f60208301526001825261156982610734565b73ffffffffffffffffffffffffffffffffffffffff611586612f11565b163081036115d2575091610b52946115a285936115c4956136c1565b6115ac4283612539565b516115b6816114f8565b6115bf816114f8565b612651565b6115cd81610b54565b610b99565b9291833b1561012157611680936116495f8094604051978895869485937f390baae00000000000000000000000000000000000000000000000000000000085527f746268797065727363617065000000004d6f6200000000000000000000000000600486015260a0602486015260a485019061184c565b90600b60448501527ffffffffffffffffffffffffffffffffffffffffffffffffffffffffffffffffc848303016064850152612091565b7e3a0c0001040404040401010101200100000000000000000000000000000000608483015203925af1908115610dd557610b52946115c49385936116c5575b506115a2565b80610dcf6116d292610720565b5f6116bf565b60021b906403fffffffc63fffffffc83169216820361069757565b90600163ffffffff8093160191821161069757565b91909163ffffffff8080941691160191821161069757565b9192600363ffffffff61178760e0610b529761173e611790976116d8565b9561174889610f42565b9161181d5760ff1660018103611796575061177c61177687611771606085015163ffffffff1690565b611708565b89612ba6565b015163ffffffff1690565b92160490611708565b90612ddb565b6002036117c0576117bb6117b58761177160a085015163ffffffff1690565b89612ca5565b61177c565b6117bb6117b56117d7602084015163ffffffff1690565b6117ef6117e989898c16048093611708565b8c612aa7565b61180d61180782611771606088015163ffffffff1690565b8c612ba6565b60a084015163ffffffff16611708565b506117bb6118378761177161012085015163ffffffff1690565b8961293b565b90816020910312610121575190565b9081518082526020808093019301915f5b82811061186b575050505090565b83518552938101939281019260010161185d565b6040513d5f823e3d90fd5b73ffffffffffffffffffffffffffffffffffffffff6118a7612f11565b163081036118b95750610a3090612f53565b6119229160209160405180809581947f8c364d590000000000000000000000000000000000000000000000000000000083527f74626879706572736361706500000000506c6179657200000000000000000000600484015260806024840152608483019061184c565b5f60448301527e41030101202000000000000000000000000000000000000000000000000000606483015203915afa908115610dd5575f91611962575090565b610a30915060203d602011611984575b61197c818361076c565b81019061183d565b503d611972565b73ffffffffffffffffffffffffffffffffffffffff6119a8612f11565b163081036119ba5750610a309061300a565b611a239160209160405180809581947f8c364d590000000000000000000000000000000000000000000000000000000083527f74626879706572736361706500000000436f696e730000000000000000000000600484015260806024840152608483019061184c565b5f60448301527e80040020202020000000000000000000000000000000000000000000000000606483015203915afa908115610dd5575f91611962575090565b67ffffffffffffffff811161071b57601f017fffffffffffffffffffffffffffffffffffffffffffffffffffffffffffffffe01660200190565b5f5b838110611aae5750505f910152565b8181015183820152602001611a9f565b81601f82011215610121578051611ad481611a63565b92611ae2604051948561076c565b8184526020828401011161012157610a309160208085019101611a9d565b90916060828403126101215781519167ffffffffffffffff928381116101215784611b2c918301611abe565b93602082015193604083015190811161012157610a309201611abe565b73ffffffffffffffffffffffffffffffffffffffff611b66612f11565b16308103611b7f5750611b78906130f8565b9192909190565b611be892915f9160405180809681947f419b58fd0000000000000000000000000000000000000000000000000000000083527f746268797065727363617065000000004d6f6200000000000000000000000000600484015260606024840152606483019061184c565b7e3a0c0001040404040401010101200100000000000000000000000000000000604483015203915afa908115610dd5575f80935f93611c28575b50929190565b91935050611c4891503d805f833e611c40818361076c565b810190611b00565b929092915f611c22565b73ffffffffffffffffffffffffffffffffffffffff611c6f612f11565b16308103611c815750611b78906131ae565b611cea92915f9160405180809681947f419b58fd0000000000000000000000000000000000000000000000000000000083527f74626879706572736361706500000000436f6d62617454617267657400000000600484015260606024840152606483019061184c565b7e42040001200120000000000000000000000000000000000000000000000000604483015203915afa908115610dd5575f80935f93611c285750929190565b73ffffffffffffffffffffffffffffffffffffffff611d46612f11565b16308103611d585750611b7890613228565b611dc192915f9160405180809681947f419b58fd0000000000000000000000000000000000000000000000000000000083527f74626879706572736361706500000000436f6d626174536b696c6c7300000000600484015260606024840152606483019061184c565b7e190a0001040104010401040104000000000000000000000000000000000000604483015203915afa908115610dd5575f80935f93611c285750929190565b73ffffffffffffffffffffffffffffffffffffffff611e1d612f11565b16308103611e2f5750611b78906132a2565b611e9892915f9160405180809681947f419b58fd0000000000000000000000000000000000000000000000000000000083527f7462687970657273636170650000000045717569706d656e7400000000000000600484015260606024840152606483019061184c565b7e0c060002020202020200000000000000000000000000000000000000000000604483015203915afa908115610dd5575f80935f93611c285750929190565b73ffffffffffffffffffffffffffffffffffffffff611ef4612f11565b16308103611f065750611b789061335d565b611f6f92915f9160405180809681947f419b58fd0000000000000000000000000000000000000000000000000000000083527f746268797065727363617065000000004974656d4d6574616461746100000000600484015260606024840152606483019061184c565b7e100b0101010202020201010101020000000000000000000000000000000000604483015203915afa908115610dd5575f80935f93611c285750929190565b73ffffffffffffffffffffffffffffffffffffffff611fcb612f11565b16308103611fdd5750611b7890613482565b61204692915f9160405180809681947f419b58fd0000000000000000000000000000000000000000000000000000000083527f746268797065727363617065000000004d6f624c6f6f745461626c6500000000600484015260606024840152606483019061184c565b7e180a0004040202020202020202000000000000000000000000000000000000604483015203915afa908115610dd5575f80935f93611c285750929190565b60098210156106425752565b907fffffffffffffffffffffffffffffffffffffffffffffffffffffffffffffffe0601f6020936120cd81518092818752878088019101611a9d565b0116010190565b9073ffffffffffffffffffffffffffffffffffffffff6120f2612f11565b169130830361210557610b5292506144f0565b90823b1561012157610d8c9261217b5f8094604051968795869485937f390baae00000000000000000000000000000000000000000000000000000000085527f74626879706572736361706500000000436f6d62617454617267657400000000600486015260a0602486015260a485019061184c565b908460448501527ffffffffffffffffffffffffffffffffffffffffffffffffffffffffffffffffc848303016064850152612091565b9073ffffffffffffffffffffffffffffffffffffffff6121cf612f11565b16913083036121e257610b529250613601565b90823b1561012157610d8c926122585f8094604051968795869485937f390baae00000000000000000000000000000000000000000000000000000000085527f74626879706572736361706500000000436f6d62617454617267657400000000600486015260a0602486015260a485019061184c565b90600160448501527ffffffffffffffffffffffffffffffffffffffffffffffffffffffffffffffffc848303016064850152612091565b9073ffffffffffffffffffffffffffffffffffffffff6122ad612f11565b16913083036122c057610b529250613661565b90823b156101215761236d926123365f8094604051968795869485937f390baae00000000000000000000000000000000000000000000000000000000085527f746268797065727363617065000000004d6f6200000000000000000000000000600486015260a0602486015260a485019061184c565b90600460448501527ffffffffffffffffffffffffffffffffffffffffffffffffffffffffffffffffc848303016064850152612091565b7e3a0c0001040404040401010101200100000000000000000000000000000000608483015203925af18015610dd557610dc25750565b60068210156106425752565b603203906032821161069757565b9190820391821161069757565b908160011b918083046002149015171561069757565b60ff6123ec911661139b565b905f8160010b13612487575b509060ff612406911661139b565b6032918181111561244a5761242261242d9392612427926123bd565b6123ca565b906113a9565b605f8111612442575b61243e61249b565b1090565b50605f612436565b9081811161245a575b505061242d565b61246791612422916123bd565b9081106124795750600a5b5f80612453565b612482906123af565b612472565b61ffff1681018091116106975760ff6123f8565b60645a60405160208101914283524460408301523360601b60608301526074820152607481526124ca81610750565b5190200690565b6127105a60405160208101914283524460408301523360601b60608301526074820152607481526124ca81610750565b8015612534575a60405160208101914283524460408301523360601b60608301526074820152607481526124ca81610750565b505f90565b906125426107ad565b918251156108085760208301526040519060208201526020815261256581610734565b73ffffffffffffffffffffffffffffffffffffffff612582612f11565b169130830361259557610b529250613721565b90823b156101215761236d9261260b5f8094604051968795869485937f390baae00000000000000000000000000000000000000000000000000000000085527f746268797065727363617065000000004d6f6200000000000000000000000000600486015260a0602486015260a485019061184c565b90600a60448501527ffffffffffffffffffffffffffffffffffffffffffffffffffffffffffffffffc848303016064850152612091565b60ff1660098110156106425790565b60ff6126699193929316612664816114f8565b613bcb565b826126bd61267b835163ffffffff1690565b63ffffffff6126b66126b16126a86126a38561269e60208b015163ffffffff1690565b610681565b6116f3565b63ffffffff1690565b612501565b91166113a9565b6126d86126d2826126cd87613ceb565b6113a9565b85613d1e565b604080519182529373ffffffffffffffffffffffffffffffffffffffff16907f076725e4f3b2fcd7660260255ee0cf014764b4196b64680c76dd29628308dde390602090a38282820161ffff612730825161ffff1690565b1615158061291a575b6128e0575b5060808201612759612752825161ffff1690565b61ffff1690565b1515806128bf575b612885575b5060c0820161277a612752825161ffff1690565b151580612864575b61280f575b505061010081019061279e612752835161ffff1690565b151590816127eb575b506127b157505050565b51905161ffff9091168152600160208201527f0d8b2795ce408cd875e0332c00f14dd7655707d2ee387b451c74940434dc103790604090a2565b90506128086127526101206127fe6124d1565b93015161ffff1690565b115f6127a7565b61285a61283f7f0d8b2795ce408cd875e0332c00f14dd7655707d2ee387b451c74940434dc1037925161ffff1690565b855161ffff9091168152600160208201529081906040820190565b0390a2825f612787565b5061286d6124d1565b61287f61275260e086015161ffff1690565b11612782565b6128b561283f7f0d8b2795ce408cd875e0332c00f14dd7655707d2ee387b451c74940434dc1037925161ffff1690565b0390a2825f612766565b506128c86124d1565b6128da61275260a086015161ffff1690565b11612761565b61291061283f7f0d8b2795ce408cd875e0332c00f14dd7655707d2ee387b451c74940434dc1037925161ffff1690565b0390a2825f61273e565b506129236124d1565b612935612752606086015161ffff1690565b11612739565b906129446107ad565b9173ffffffffffffffffffffffffffffffffffffffff9083511561080857610c9892826129a992166020860152604051938491602083017fffffffff0000000000000000000000000000000000000000000000000000000060049260e01b1681520190565b6129b1612f11565b16913083036129c457610b529250613781565b90823b1561012157612a7192612a3a5f8094604051968795869485937f390baae00000000000000000000000000000000000000000000000000000000085527f74626879706572736361706500000000436f6d626174536b696c6c7300000000600486015260a0602486015260a485019061184c565b90600960448501527ffffffffffffffffffffffffffffffffffffffffffffffffffffffffffffffffc848303016064850152612091565b7e190a0001040104010401040104000000000000000000000000000000000000608483015203925af18015610dd557610dc25750565b90612ab06107ad565b9173ffffffffffffffffffffffffffffffffffffffff9083511561080857610c989282612b1592166020860152604051938491602083017fffffffff0000000000000000000000000000000000000000000000000000000060049260e01b1681520190565b612b1d612f11565b1691308303612b3057610b5292506137e1565b90823b1561012157612a71926122585f8094604051968795869485937f390baae00000000000000000000000000000000000000000000000000000000085527f74626879706572736361706500000000436f6d626174536b696c6c7300000000600486015260a0602486015260a485019061184c565b90612baf6107ad565b9173ffffffffffffffffffffffffffffffffffffffff9083511561080857610c989282612c1492166020860152604051938491602083017fffffffff0000000000000000000000000000000000000000000000000000000060049260e01b1681520190565b612c1c612f11565b1691308303612c2f57610b529250613841565b90823b1561012157612a7192610eaf5f8094604051968795869485937f390baae00000000000000000000000000000000000000000000000000000000085527f74626879706572736361706500000000436f6d626174536b696c6c7300000000600486015260a0602486015260a485019061184c565b90612cae6107ad565b9173ffffffffffffffffffffffffffffffffffffffff9083511561080857610c989282612d1392166020860152604051938491602083017fffffffff0000000000000000000000000000000000000000000000000000000060049260e01b1681520190565b612d1b612f11565b1691308303612d2e57610b5292506138a5565b90823b1561012157612a7192612da45f8094604051968795869485937f390baae00000000000000000000000000000000000000000000000000000000085527f74626879706572736361706500000000436f6d626174536b696c6c7300000000600486015260a0602486015260a485019061184c565b90600560448501527ffffffffffffffffffffffffffffffffffffffffffffffffffffffffffffffffc848303016064850152612091565b90612de46107ad565b9173ffffffffffffffffffffffffffffffffffffffff9083511561080857610c989282612e4992166020860152604051938491602083017fffffffff0000000000000000000000000000000000000000000000000000000060049260e01b1681520190565b612e51612f11565b1691308303612e6457610b529250613905565b90823b1561012157612a7192612eda5f8094604051968795869485937f390baae00000000000000000000000000000000000000000000000000000000085527f74626879706572736361706500000000436f6d626174536b696c6c7300000000600486015260a0602486015260a485019061184c565b90600760448501527ffffffffffffffffffffffffffffffffffffffffffffffffffffffffffffffffc848303016064850152612091565b7f629a4c26e296b22a8e0856e9f6ecb2d1008d7e00081111962cd175fa7488e1755473ffffffffffffffffffffffffffffffffffffffff1680610a3057503390565b60405160208160208101937f74626879706572736361706500000000506c617965720000000000000000000085526040820160208251919201935f5b828110612ff357505050612fca9250037fffffffffffffffffffffffffffffffffffffffffffffffffffffffffffffffe0810183528261076c565b5190207f86425bff6b57326c7859e89024fe4f238ca327a1ae4a230180dd2f0e88aaa7d9185490565b855184529481019486945092810192600101612f8f565b60405160208160208101937f74626879706572736361706500000000436f696e73000000000000000000000085526040820160208251919201935f5b82811061308157505050612fca9250037fffffffffffffffffffffffffffffffffffffffffffffffffffffffffffffffe0810183528261076c565b855184529481019486945092810192600101613046565b906130a282611a63565b6130af604051918261076c565b8281527fffffffffffffffffffffffffffffffffffffffffffffffffffffffffffffffe06130dd8294611a63565b0190602036910137565b60ff1660ff81146106975760010190565b5f90613105606091613f71565b604051906020907fffffffffffffffffffffffffffffffffffffffffffffffffffffffffffffffe090816079850116604052603a84526020840192603a91925b818310156131965750508061315b575b50505092565b7fffffffffffffffffffffffffffffffffffffffffffffffffffffffffffffffff9060031b1c908183511691199054161790525f8080613155565b81600185839495979654875201940194019190613145565b5f906131bb606091614027565b604051906020907fffffffffffffffffffffffffffffffffffffffffffffffffffffffffffffffe090816081850116604052604284526020840192604291925b818310156132105750508061315b5750505092565b816001858394959796548752019401940191906131fb565b5f906132356060916140b5565b604051906020907fffffffffffffffffffffffffffffffffffffffffffffffffffffffffffffffe090816058850116604052601984526020840192601991925b8183101561328a5750508061315b5750505092565b81600185839495979654875201940194019190613275565b5f9060609060405190602090826132bd602082019283613ecd565b03926132ef7fffffffffffffffffffffffffffffffffffffffffffffffffffffffffffffffe09485810183528261076c565b5190207f86425bff6b57326c7859e89024fe4f238ca327a1ae4a230180dd2f0e88aaa7d918916040519281604b850116604052600c84526020840192600c91925b818310156133455750508061315b5750505092565b81600185839495979654875201940194019190613330565b6040516133ce60208201826133728583613e7b565b03926133a47fffffffffffffffffffffffffffffffffffffffffffffffffffffffffffffffe09485810183528261076c565b5190207f86425bff6b57326c7859e89024fe4f238ca327a1ae4a230180dd2f0e88aaa7d918614c7d565b906040516133f16020820192826133e58786613e7b565b0390810183528261076c565b5190207f14e2fcc58e58e68ec7edc30c8d50dccc3ce2714a623ec81f46b6a63922d76569185461342966ffffffffffffff8216613098565b925f92602085015b60ff85169060018210156134785761347291816126cd61346c9364ffffffffff8961345c8c8b61423b565b956028026038011c1680946142a1565b946130e7565b93613431565b5050949193925050565b5f90606090604051906020908261349d602082019283613f1f565b03926134cf7fffffffffffffffffffffffffffffffffffffffffffffffffffffffffffffffe09485810183528261076c565b5190207f86425bff6b57326c7859e89024fe4f238ca327a1ae4a230180dd2f0e88aaa7d9189160405192816057850116604052601884526020840192601891925b818310156135255750508061315b5750505092565b81600185839495979654875201940194019190613510565b91905f925f5b6002811061355f575065ffffffffffff610b52939416906146b2565b9360ff7e4204000120012000000000000000000000000000000000000000000000000086601b0360031b1c1681018091116106975793600101613543565b5f92835b6003808610156135ea577e4204000120012000000000000000000000000000000000000000000000000060ff9187601b03901b1c168101809111610697576001909401936135a1565b50610b52939291945065ffffffffffff16906146b2565b91905f925f5b60018110613623575065ffffffffffff610b52939416906146b2565b9360ff7e4204000120012000000000000000000000000000000000000000000000000086601b0360031b1c1681018091116106975793600101613607565b91905f925f5b60048110613683575065ffffffffffff610b529394169061488b565b9360ff7e3a0c000104040404040101010120010000000000000000000000000000000086601b0360031b1c1681018091116106975793600101613667565b91905f925f5b600b81106136e3575065ffffffffffff610b529394169061488b565b9360ff7e3a0c000104040404040101010120010000000000000000000000000000000086601b0360031b1c16810180911161069757936001016136c7565b91905f925f5b600a8110613743575065ffffffffffff610b529394169061488b565b9360ff7e3a0c000104040404040101010120010000000000000000000000000000000086601b0360031b1c1681018091116106975793600101613727565b91905f925f5b600981106137a3575065ffffffffffff610b5293941690614a49565b9360ff7e190a000104010401040104010400000000000000000000000000000000000086601b0360031b1c1681018091116106975793600101613787565b91905f925f5b60018110613803575065ffffffffffff610b5293941690614a49565b9360ff7e190a000104010401040104010400000000000000000000000000000000000086601b0360031b1c16810180911161069757936001016137e7565b5f92835b60038086101561388e577e190a000104010401040104010400000000000000000000000000000000000060ff9187601b03901b1c16810180911161069757600190940193613845565b50610b52939291945065ffffffffffff1690614a49565b91905f925f5b600581106138c7575065ffffffffffff610b5293941690614a49565b9360ff7e190a000104010401040104010400000000000000000000000000000000000086601b0360031b1c16810180911161069757936001016138ab565b91905f925f5b60078110613927575065ffffffffffff610b5293941690614a49565b9360ff7e190a000104010401040104010400000000000000000000000000000000000086601b0360031b1c168101809111610697579360010161390b565b919061397083614143565b91613979614dcc565b905f5b8251811015613a69576139e06139bb61399583866107f4565b517fffffffffffffffffffffffffffffffffffffffffff00000000000000000000001690565b7fffffffffffffffffffffffffffffffffffffffffff00000000000000000000001690565b9060049182808260581c16146139fc575b50600191500161397c565b60601c803b1561012157855f918983613a4396604051978895869485937f964f667d0000000000000000000000000000000000000000000000000000000085528401614385565b03925af1918215610dd557600192156139f15780610dcf613a6392610720565b5f6139f1565b50929190613acd826040947f74626879706572736361706500000000436f696e7300000000000000000000007f8c0b5119d4cec7b284c6b1b39252a03d1e2f2d7451a5895562524c113bb952be60405180613ac5868d83614329565b0390a261508a565b5f5b8151811015613b7257613ae86139bb61399583856107f4565b6008808260581c1614613aff575b50600101613acf565b60601c90813b156101215784517fa8ba8721000000000000000000000000000000000000000000000000000000008152915f908390818381613b458a8e60048401614385565b03925af1918215610dd557600192613b5f575b5090613af6565b80610dcf613b6c92610720565b5f613b58565b505050509050565b60ff1660068110156106425790565b9064ffffffffff613b9e9260381c1690614c07565b610a306fffffffffffffffffffffffffffffffff8216613bbd81613098565b92602084019060801c61517c565b613bd3610ee6565b50613bdc6107ad565b6009821015610642578051156108085760ff613bfd92166020820152611fae565b5050610a30613c0a610ee6565b91613ce1613c1c602083015160e01c90565b9161107a613c2e602483015160e01c90565b91611186613c40602883015160f01c90565b9161117b613c52602a83015160f01c90565b916111708b611165613c68602c85015160f01c90565b9360c0613c79602e83015160f01c90565b93613cd7613c8b603085015160f01c90565b93613ccc613c9d603283015160f01c90565b91613cc0613cb4603661115c603485015160f01c90565b61ffff16610120870152565b61ffff16610100850152565b61ffff1660e0830152565b019061ffff169052565b63ffffffff168252565b613cf36107ad565b8051156108085773ffffffffffffffffffffffffffffffffffffffff610a309216602082015261198b565b90613d276107ad565b9173ffffffffffffffffffffffffffffffffffffffff90835115610808578116602084015260405191602083015260208252613d6282610734565b613d6a612f11565b1691308303613d7d57610b529250613965565b90823b1561012157613df39261217b5f8094604051968795869485937f390baae00000000000000000000000000000000000000000000000000000000085527f74626879706572736361706500000000436f696e730000000000000000000000600486015260a0602486015260a485019061184c565b7e80040020202020000000000000000000000000000000000000000000000000608483015203925af18015610dd557610dc25750565b7f746273746f726500000000000000000053746f7265486f6f6b73000000000000815281516020918201928201915f5b828110613e67575050505090565b835185529381019392810192600101613e59565b7f746268797065727363617065000000004974656d4d6574616461746100000000815281516020918201928201915f5b828110613eb9575050505090565b835185529381019392810192600101613eab565b7f7462687970657273636170650000000045717569706d656e7400000000000000815281516020918201928201915f5b828110613f0b575050505090565b835185529381019392810192600101613efd565b7f746268797065727363617065000000004d6f624c6f6f745461626c6500000000815281516020918201928201915f5b828110613f5d575050505090565b835185529381019392810192600101613f4f565b60405160208160208101937f746268797065727363617065000000004d6f620000000000000000000000000085526040820160208251919201935f5b82811061401057505050613fe89250037fffffffffffffffffffffffffffffffffffffffffffffffffffffffffffffffe0810183528261076c565b5190207f86425bff6b57326c7859e89024fe4f238ca327a1ae4a230180dd2f0e88aaa7d91890565b855184529481019486945092810192600101613fad565b60405160208160208101937f74626879706572736361706500000000436f6d6261745461726765740000000085526040820160208251919201935f5b82811061409e57505050613fe89250037fffffffffffffffffffffffffffffffffffffffffffffffffffffffffffffffe0810183528261076c565b855184529481019486945092810192600101614063565b60405160208160208101937f74626879706572736361706500000000436f6d626174536b696c6c730000000085526040820160208251919201935f5b82811061412c57505050613fe89250037fffffffffffffffffffffffffffffffffffffffffffffffffffffffffffffffe0810183528261076c565b8551845294810194869450928101926001016140f1565b60405160208160208101937f74626879706572736361706500000000436f696e73000000000000000000000085526040820160208251919201935f5b8281106141ba57505050613fe89250037fffffffffffffffffffffffffffffffffffffffffffffffffffffffffffffffe0810183528261076c565b85518452948101948694509281019260010161417f565b7f3b4102da22e32d82fc925482184f16c09fd4281692720b87d124aef6da48a0f19060405161423481614208602082019485613e29565b037fffffffffffffffffffffffffffffffffffffffffffffffffffffffffffffffe0810183528261076c565b5190201890565b907fff000000000000000000000000000000000000000000000000000000000000007f3b4102da22e32d82fc925482184f16c09fd4281692720b87d124aef6da48a0f19260405161429481614208602082019485613e7b565b5190209160f81b16181890565b929091925b6020908184106142e557906001827fffffffffffffffffffffffffffffffffffffffffffffffffffffffffffffffe093548752019401920191926142a6565b9193929050806142f457505050565b7fffffffffffffffffffffffffffffffffffffffffffffffffffffffffffffffff9060031b1c90818351169119905416179052565b9091614340610a309360608452606084019061184c565b915f60208201526040818403910152612091565b65ffffffffffff614371610a30959360608452606084019061184c565b931660208201526040818403910152612091565b90916143c2610a30937f74626879706572736361706500000000436f696e730000000000000000000000845260806020850152608084019061184c565b915f60408201526060818403910152612091565b90916143c2610a30937f74626879706572736361706500000000436f6d62617454617267657400000000845260806020850152608084019061184c565b65ffffffffffff614456610a3095937f74626879706572736361706500000000436f6d62617454617267657400000000845260806020850152608084019061184c565b931660408201526060818403910152612091565b65ffffffffffff614456610a3095937f746268797065727363617065000000004d6f6200000000000000000000000000845260806020850152608084019061184c565b65ffffffffffff614456610a3095937f74626879706572736361706500000000436f6d626174536b696c6c7300000000845260806020850152608084019061184c565b91906144fb83614027565b91614504614e95565b905f5b82518110156145a9576145206139bb61399583866107f4565b9060049182808260581c161461453c575b506001915001614507565b60601c803b1561012157855f91898361458396604051978895869485937f964f667d00000000000000000000000000000000000000000000000000000000855284016143d6565b03925af1918215610dd557600192156145315780610dcf6145a392610720565b5f614531565b5092919061460d826040947f74626879706572736361706500000000436f6d626174546172676574000000007f8c0b5119d4cec7b284c6b1b39252a03d1e2f2d7451a5895562524c113bb952be60405180614605868d83614329565b0390a2615115565b5f5b8151811015613b72576146286139bb61399583856107f4565b6008808260581c161461463f575b5060010161460f565b60601c90813b156101215784517fa8ba8721000000000000000000000000000000000000000000000000000000008152915f9083908183816146858a8e600484016143d6565b03925af1918215610dd55760019261469f575b5090614636565b80610dcf6146ac92610720565b5f614698565b909291926146bf82614027565b6146c7614e95565b905f5b825181101561476d576146e36139bb61399583866107f4565b9060049182808260581c16146146ff575b5060019150016146ca565b60601c803b1561012157855f9188838c96614747604051988996879586947f964f667d0000000000000000000000000000000000000000000000000000000086528501614413565b03925af1918215610dd557600192156146f45780610dcf61476792610720565b5f6146f4565b509491906147dc836040977f74626879706572736361706500000000436f6d626174546172676574000000007f8c0b5119d4cec7b284c6b1b39252a03d1e2f2d7451a5895562524c113bb952be604051806147ca868a8d84614354565b0390a265ffffffffffff85169061516b565b5f5b8151811015614882576147f76139bb61399583856107f4565b6008808260581c161461480e575b506001016147de565b60601c90813b156101215787517fa8ba8721000000000000000000000000000000000000000000000000000000008152915f9083908183816148558b8b8e60048501614413565b03925af1918215610dd55760019261486f575b5090614805565b80610dcf61487c92610720565b5f614868565b50505050509050565b9092919261489882613f71565b6148a0614f3c565b905f5b8251811015614946576148bc6139bb61399583866107f4565b9060049182808260581c16146148d8575b5060019150016148a3565b60601c803b1561012157855f9188838c96614920604051988996879586947f964f667d000000000000000000000000000000000000000000000000000000008652850161446a565b03925af1918215610dd557600192156148cd5780610dcf61494092610720565b5f6148cd565b509491906149a3836040977f746268797065727363617065000000004d6f62000000000000000000000000007f8c0b5119d4cec7b284c6b1b39252a03d1e2f2d7451a5895562524c113bb952be604051806147ca868a8d84614354565b5f5b8151811015614882576149be6139bb61399583856107f4565b6008808260581c16146149d5575b506001016149a5565b60601c90813b156101215787517fa8ba8721000000000000000000000000000000000000000000000000000000008152915f908390818381614a1c8b8b8e6004850161446a565b03925af1918215610dd557600192614a36575b50906149cc565b80610dcf614a4392610720565b5f614a2f565b90929192614a56826140b5565b614a5e614fe3565b905f5b8251811015614b0457614a7a6139bb61399583866107f4565b9060049182808260581c1614614a96575b506001915001614a61565b60601c803b1561012157855f9188838c96614ade604051988996879586947f964f667d00000000000000000000000000000000000000000000000000000000865285016144ad565b03925af1918215610dd55760019215614a8b5780610dcf614afe92610720565b5f614a8b565b50949190614b61836040977f74626879706572736361706500000000436f6d626174536b696c6c73000000007f8c0b5119d4cec7b284c6b1b39252a03d1e2f2d7451a5895562524c113bb952be604051806147ca868a8d84614354565b5f5b815181101561488257614b7c6139bb61399583856107f4565b6008808260581c1614614b93575b50600101614b63565b60601c90813b156101215787517fa8ba8721000000000000000000000000000000000000000000000000000000008152915f908390818381614bda8b8b8e600485016144ad565b03925af1918215610dd557600192614bf4575b5090614b8a565b80610dcf614c0192610720565b5f614bed565b9081518111614c2e576fffffffffffffffffffffffffffffffff60209116910160801b1790565b614c6d92506040519283927f23230fa3000000000000000000000000000000000000000000000000000000008452606060048501526064840190612091565b905f602484015260448301520390fd5b604051906020907fffffffffffffffffffffffffffffffffffffffffffffffffffffffffffffffe09081604f850116604052601084526020840192601091925b81831015614d0e57505080614cd3575b50505090565b7fffffffffffffffffffffffffffffffffffffffffffffffffffffffffffffffff9060031b1c908183511691199054161790525f8080614ccd565b81600185839495979654875201940194019190614cbd565b604080517fffffffffffffffffffffffffffffffffffffffffffffffffffffffffffffffe0603f85830101811690925283815292602080850193925b81831015614d7757505080614cd35750505090565b81600185839495979654875201940194019190614d62565b604051614da481614208602082019485613e29565b5190207f14e2fcc58e58e68ec7edc30c8d50dccc3ce2714a623ec81f46b6a63922d765691890565b614dd46107ad565b80511561080857614e3b614e336020927f74626879706572736361706500000000436f696e7300000000000000000000006020820152614e2d614e1f614e19836141d1565b92614d8f565b5460381c64ffffffffff1690565b90614d26565b805190614c07565b8060801c9160156fffffffffffffffffffffffffffffffff8193160490604051936020850160208460051b8701016040528386525f5b848110614e815750505050505090565b825182529185019190830190600101614e71565b614e9d6107ad565b80511561080857614ee2614e336020927f74626879706572736361706500000000436f6d626174546172676574000000006020820152614e2d614e1f614e19836141d1565b8060801c9160156fffffffffffffffffffffffffffffffff8193160490604051936020850160208460051b8701016040528386525f5b848110614f285750505050505090565b825182529185019190830190600101614f18565b614f446107ad565b80511561080857614f89614e336020927f746268797065727363617065000000004d6f62000000000000000000000000006020820152614e2d614e1f614e19836141d1565b8060801c9160156fffffffffffffffffffffffffffffffff8193160490604051936020850160208460051b8701016040528386525f5b848110614fcf5750505050505090565b825182529185019190830190600101614fbf565b614feb6107ad565b80511561080857615030614e336020927f74626879706572736361706500000000436f6d626174536b696c6c73000000006020820152614e2d614e1f614e19836141d1565b8060801c9160156fffffffffffffffffffffffffffffffff8193160490604051936020850160208460051b8701016040528386525f5b8481106150765750505050505090565b825182529185019190830190600101615066565b81519060208093019190925b808210156150de5750806150a957505050565b7fffffffffffffffffffffffffffffffffffffffffffffffffffffffffffffffff9060031b1c90818354169119905116179055565b9091928160017fffffffffffffffffffffffffffffffffffffffffffffffffffffffffffffffe09286518155019401920190615096565b81519060208093019190925b808210156151345750806150a957505050565b9091928160017fffffffffffffffffffffffffffffffffffffffffffffffffffffffffffffffe09286518155019401920190615121565b8251610b52936020019290916151fc565b90915b60208082106151bb578083947fffffffffffffffffffffffffffffffffffffffffffffffffffffffffffffffe09394518152019301910161517f565b5080156151f7577fffffffffffffffffffffffffffffffffffffffffffffffffffffffffffffffff9060031b1c90818351169119905116179052565b505050565b9092919280615251575b50915b602080821061524657600183947fffffffffffffffffffffffffffffffffffffffffffffffffffffffffffffffe093945181550193019101615209565b50806150a957505050565b60208110156152e5575b801561520657806020949394038160031b7fffffffffffffffffffffffffffffffffffffffffffffffffffffffffffffffff8560031b1c19811c908651901c9080198554169116178355808411156152de5760017fffffffffffffffffffffffffffffffffffffffffffffffffffffffffffffffe093019401920101915f615206565b5050505050565b90601f908260051c01911661525b56fea26469706673582212204856679a4e5360f98428c52d58cc04266d21944e95eb37728e4addb33d01a52664736f6c63430008180033","linkReferences":{}},"methodIdentifiers":{"_msgSender()":"119df25f","_msgValue()":"45ec9354","_world()":"e1af802c","attackMob(bytes32)":"8e2d2244","supportsInterface(bytes4)":"01ffc9a7"},"id":91}