{"abi":[{"type":"function","name":"_msgSender","inputs":[],"outputs":[{"name":"sender","type":"address","internalType":"address"}],"stateMutability":"view"},{"type":"function","name":"_msgValue","inputs":[],"outputs":[{"name":"value","type":"uint256","internalType":"uint256"}],"stateMutability":"view"},{"type":"function","name":"_world","inputs":[],"outputs":[{"name":"","type":"address","internalType":"address"}],"stateMutability":"view"},{"type":"function","name":"createItem","inputs":[{"name":"itemId","type":"uint16","internalType":"uint16"},{"name":"name","type":"string","internalType":"string"},{"name":"itemType","type":"uint8","internalType":"uint8"},{"name":"stackable","type":"bool","internalType":"bool"},{"name":"attackBonus","type":"int16","internalType":"int16"},{"name":"strengthBonus","type":"int16","internalType":"int16"},{"name":"defenseBonus","type":"int16","internalType":"int16"},{"name":"rangedBonus","type":"int16","internalType":"int16"},{"name":"reqAttack","type":"uint8","internalType":"uint8"},{"name":"reqStrength","type":"uint8","internalType":"uint8"},{"name":"reqDefense","type":"uint8","internalType":"uint8"},{"name":"reqRanged","type":"uint8","internalType":"uint8"},{"name":"heals","type":"uint16","internalType":"uint16"}],"outputs":[],"stateMutability":"nonpayable"},{"type":"function","name":"initialize","inputs":[],"outputs":[],"stateMutability":"nonpayable"},{"type":"function","name":"setLootTable","inputs":[{"name":"mobType","type":"uint8","internalType":"uint8"},{"name":"coinMin","type":"uint32","internalType":"uint32"},{"name":"coinMax","type":"uint32","internalType":"uint32"},{"name":"itemId1","type":"uint16","internalType":"uint16"},{"name":"itemId1Chance","type":"uint16","internalType":"uint16"},{"name":"itemId2","type":"uint16","internalType":"uint16"},{"name":"itemId2Chance","type":"uint16","internalType":"uint16"},{"name":"itemId3","type":"uint16","internalType":"uint16"},{"name":"itemId3Chance","type":"uint16","internalType":"uint16"},{"name":"itemId4","type":"uint16","internalType":"uint16"},{"name":"itemId4Chance","type":"uint16","internalType":"uint16"}],"outputs":[],"stateMutability":"nonpayable"},{"type":"function","name":"supportsInterface","inputs":[{"name":"interfaceId","type":"bytes4","internalType":"bytes4"}],"outputs":[{"name":"","type":"bool","internalType":"bool"}],"stateMutability":"pure"},{"type":"event","name":"ItemCreated","inputs":[{"name":"itemId","type":"uint16","indexed":true,"internalType":"uint16"},{"name":"name","type":"string","indexed":false,"internalType":"string"}],"anonymous":false},{"type":"event","name":"LootTableSet","inputs":[{"name":"mobType","type":"uint8","indexed":true,"internalType":"uint8"},{"name":"coinMin","type":"uint32","indexed":false,"internalType":"uint32"},{"name":"coinMax","type":"uint32","indexed":false,"internalType":"uint32"}],"anonymous":false},{"type":"event","name":"Store_SetRecord","inputs":[{"name":"tableId","type":"bytes32","indexed":true,"internalType":"ResourceId"},{"name":"keyTuple","type":"bytes32[]","indexed":false,"internalType":"bytes32[]"},{"name":"staticData","type":"bytes","indexed":false,"internalType":"bytes"},{"name":"encodedLengths","type":"bytes32","indexed":false,"internalType":"EncodedLengths"},{"name":"dynamicData","type":"bytes","indexed":false,"internalType":"bytes"}],"anonymous":false},{"type":"event","name":"WorldInitialized","inputs":[{"name":"admin","type":"address","indexed":true,"internalType":"address"}],"anonymous":false},{"type":"error","name":"Slice_OutOfBounds","inputs":[{"name":"data","type":"bytes","internalType":"bytes"},{"name":"start","type":"uint256","internalType":"uint256"},{"name":"end","type":"uint256","internalType":"uint256"}]}],"bytecode":{"object":"0x6080806040523461001757615f3490816200001c8239f35b5f80fdfe60806040526004361015610011575f80fd5b5f3560e01c806301ffc9a714610084578063119df25f1461007f578063205f94e41461007a57806345ec9354146100755780638129fc1c14610070578063e1af802c1461006b5763fa6e7d2b14610066575f80fd5b610755565b6105f1565b61039c565b610341565b610296565b61014f565b346101415760207ffffffffffffffffffffffffffffffffffffffffffffffffffffffffffffffffc360112610141576004357fffffffff000000000000000000000000000000000000000000000000000000008116809103610141577fb5dee127000000000000000000000000000000000000000000000000000000008114908115610117575b50151560805260206080f35b7f01ffc9a7000000000000000000000000000000000000000000000000000000009150148161010b565b5f80fd5b5f91031261014157565b34610141575f7ffffffffffffffffffffffffffffffffffffffffffffffffffffffffffffffffc360112610141576020610187613620565b73ffffffffffffffffffffffffffffffffffffffff60405191168152f35b6044359060ff8216820361014157565b610104359060ff8216820361014157565b610124359060ff8216820361014157565b610144359060ff8216820361014157565b610164359060ff8216820361014157565b6064359061ffff8216820361014157565b6084359061ffff8216820361014157565b60a4359061ffff8216820361014157565b60c4359061ffff8216820361014157565b60e4359061ffff8216820361014157565b610104359061ffff8216820361014157565b610124359061ffff8216820361014157565b610144359061ffff8216820361014157565b610184359061ffff8216820361014157565b34610141576101607ffffffffffffffffffffffffffffffffffffffffffffffffffffffffffffffffc3601126101415760043560ff811681036101415763ffffffff9060243582811681036101415760443592831683036101415761033f926102fd6101f9565b61030561020a565b61030d61021b565b61031561022c565b9161031e61023d565b9361032761024e565b95610330610260565b97610339610272565b99611462565b005b34610141575f7ffffffffffffffffffffffffffffffffffffffffffffffffffffffffffffffffc3601126101415760206040517fffffffffffffffffffffffffffffffffffffffffffffffffffffffffffffffe03601358152f35b34610141577ffffffffffffffffffffffffffffffffffffffffffffffffffffffffffffffffc5f81360112610141576103d36136cb565b51610593576103e0613620565b6040517f010000000000000000000000000000000000000000000000000000000000000080602083015260218201525f60228201527fffffffffffffffffffffffffffffffffffffffff0000000000000000000000008260601b1660238201526017815261044d8161066f565b61045561368a565b9061045e614b51565b73ffffffffffffffffffffffffffffffffffffffff949085163081036104c057505061048991614cac565b61049161421a565b61049961449a565b167f6671a1fe2f1e6cbb5a2635c124345732c2690b62af51d174808bbde4aea27c345f80a2005b809291923b156101415761053b5f61054b956105608296604051988997889687957f298314fb0000000000000000000000000000000000000000000000000000000087527f74626879706572736361706500000000576f726c64436f6e6669670000000000600488015260a0602488015260a487019061481d565b90838683030160448701526115dc565b90846064850152838203016084840152611581565b03925af1801561058e57610575575b50610489565b8061058261058892610656565b80610145565b5f61056f565b614850565b60646040517f08c379a000000000000000000000000000000000000000000000000000000000815260206004820152601960248201527f576f726c6420616c726561647920696e697469616c697a6564000000000000006044820152fd5b34610141575f7ffffffffffffffffffffffffffffffffffffffffffffffffffffffffffffffffc360112610141576020610187614b51565b7f4e487b71000000000000000000000000000000000000000000000000000000005f52604160045260245ffd5b67ffffffffffffffff811161066a57604052565b610629565b6040810190811067ffffffffffffffff82111761066a57604052565b90601f7fffffffffffffffffffffffffffffffffffffffffffffffffffffffffffffffe0910116810190811067ffffffffffffffff82111761066a57604052565b67ffffffffffffffff811161066a57601f017fffffffffffffffffffffffffffffffffffffffffffffffffffffffffffffffe01660200190565b60643590811515820361014157565b608435908160010b820361014157565b60a435908160010b820361014157565b60c435908160010b820361014157565b60e435908160010b820361014157565b34610141576101a07ffffffffffffffffffffffffffffffffffffffffffffffffffffffffffffffffc3601126101415760043561ffff81168103610141576024359067ffffffffffffffff821161014157366023830112156101415781600401356107bf816106cc565b906107cd604051928361068b565b8082523660248286010111610141576020815f92602461033f970183860137830101526107f86101a5565b610800610706565b610808610715565b610810610725565b610818610735565b610820610745565b916108296101b5565b936108326101c6565b9561083b6101d7565b976108446101e8565b9961084d610284565b9b6135ad565b1561085a57565b60646040517f08c379a000000000000000000000000000000000000000000000000000000000815260206004820152600960248201527f4e6f742061646d696e00000000000000000000000000000000000000000000006044820152fd5b7f4e487b71000000000000000000000000000000000000000000000000000000005f52602160045260245ffd5b600911156108ef57565b6108b8565b61092a6108ff613620565b73ffffffffffffffffffffffffffffffffffffffff80606061091f6136cb565b015116911614610853565b6109cc6040517c020000000000000000000000000000000000000000000000000000000060208201527c080000000000000000000000000000000000000000000000000000000060248201525f60288201525f602a8201525f602c8201525f602e8201525f60308201525f60328201525f60348201525f6036820152601881526109b38161066f565b6109bb6136b1565b60016109c682613758565b52614964565b60017f233960ab2b329071927607475159fd3c59a30eeef1ccfaa46dd0cd289931429b60405180610a098190600860206040840193600281520152565b0390a2565b610a196108ff613620565b610af46040517c050000000000000000000000000000000000000000000000000000000060208201527c0f0000000000000000000000000000000000000000000000000000000060248201527f012c00000000000000000000000000000000000000000000000000000000000060288201527e64000000000000000000000000000000000000000000000000000000000000602a8201525f602c8201525f602e8201525f60308201525f60328201525f60348201525f603682015260188152610ae18161066f565b610ae96136b1565b60026109c682613758565b60027f233960ab2b329071927607475159fd3c59a30eeef1ccfaa46dd0cd289931429b60405180610a098190600f60206040840193600581520152565b610b3c6108ff613620565b610c5a6040517c0a0000000000000000000000000000000000000000000000000000000060208201527c190000000000000000000000000000000000000000000000000000000060248201527e6500000000000000000000000000000000000000000000000000000000000060288201527ec8000000000000000000000000000000000000000000000000000000000000602a820152610bfd602c82017ec80000000000000000000000000000000000000000000000000000000000009052565b7e64000000000000000000000000000000000000000000000000000000000000602e8201525f60308201525f60328201525f60348201525f603682015260188152610c478161066f565b610c4f6136b1565b60036109c682613758565b60037f233960ab2b329071927607475159fd3c59a30eeef1ccfaa46dd0cd289931429b60405180610a098190601960206040840193600a81520152565b610ca26108ff613620565b610dc46040517c0f0000000000000000000000000000000000000000000000000000000060208201527c1e0000000000000000000000000000000000000000000000000000000060248201527f015e00000000000000000000000000000000000000000000000000000000000060288201527f01f4000000000000000000000000000000000000000000000000000000000000602a820152610d66602c82017f01900000000000000000000000000000000000000000000000000000000000009052565b7f012c000000000000000000000000000000000000000000000000000000000000602e8201525f60308201525f60328201525f60348201525f603682015260188152610db18161066f565b610db96136b1565b60046109c682613758565b60047f233960ab2b329071927607475159fd3c59a30eeef1ccfaa46dd0cd289931429b60405180610a098190601e60206040840193600f81520152565b610e0c6108ff613620565b610f2c6040517c140000000000000000000000000000000000000000000000000000000060208201527c280000000000000000000000000000000000000000000000000000000060248201527e6500000000000000000000000000000000000000000000000000000000000060288201527f012c000000000000000000000000000000000000000000000000000000000000602a820152610ecf602c82017f015e0000000000000000000000000000000000000000000000000000000000009052565b7ec8000000000000000000000000000000000000000000000000000000000000602e8201525f60308201525f60328201525f60348201525f603682015260188152610f198161066f565b610f216136b1565b60056109c682613758565b60057f233960ab2b329071927607475159fd3c59a30eeef1ccfaa46dd0cd289931429b60405180610a098190602860206040840193601481520152565b610f746108ff613620565b6110d36040517c320000000000000000000000000000000000000000000000000000000060208201527c640000000000000000000000000000000000000000000000000000000060248201527e6600000000000000000000000000000000000000000000000000000000000060288201527f0190000000000000000000000000000000000000000000000000000000000000602a820152611037602c82017f015e0000000000000000000000000000000000000000000000000000000000009052565b7f012c000000000000000000000000000000000000000000000000000000000000602e8201527ec800000000000000000000000000000000000000000000000000000000000060308201527ec800000000000000000000000000000000000000000000000000000000000060328201525f60348201525f6036820152601881526110c08161066f565b6110c86136b1565b60066109c682613758565b60067f233960ab2b329071927607475159fd3c59a30eeef1ccfaa46dd0cd289931429b60405180610a098190606460206040840193603281520152565b61111b6108ff613620565b61127d6040517c4b0000000000000000000000000000000000000000000000000000000060208201527c960000000000000000000000000000000000000000000000000000000060248201527f015e00000000000000000000000000000000000000000000000000000000000060288201527f0258000000000000000000000000000000000000000000000000000000000000602a8201526111df602c82017f01900000000000000000000000000000000000000000000000000000000000009052565b7f01f4000000000000000000000000000000000000000000000000000000000000602e8201527f012c00000000000000000000000000000000000000000000000000000000000060308201527f019000000000000000000000000000000000000000000000000000000000000060328201525f60348201525f60368201526018815261126a8161066f565b6112726136b1565b60076109c682613758565b60077f233960ab2b329071927607475159fd3c59a30eeef1ccfaa46dd0cd289931429b60405180610a098190609660206040840193604b81520152565b6112c56108ff613620565b6114256040517c3c0000000000000000000000000000000000000000000000000000000060208201527c780000000000000000000000000000000000000000000000000000000060248201527e3c00000000000000000000000000000000000000000000000000000000000060288201527f1388000000000000000000000000000000000000000000000000000000000000602a820152611387602c82017e960000000000000000000000000000000000000000000000000000000000009052565b7f01f4000000000000000000000000000000000000000000000000000000000000602e8201527f012c00000000000000000000000000000000000000000000000000000000000060308201527f012c00000000000000000000000000000000000000000000000000000000000060328201525f60348201525f6036820152601881526114128161066f565b61141a6136b1565b60086109c682613758565b60087f233960ab2b329071927607475159fd3c59a30eeef1ccfaa46dd0cd289931429b60405180610a098190607860206040840193603c81520152565b60ff909a959a9994999893969197929861147d6108ff613620565b169960098b1080611543575b156114e5577f233960ab2b329071927607475159fd3c59a30eeef1ccfaa46dd0cd289931429b996114c5978a8a8e6114c0816108e5565b61377e565b6040805163ffffffff928316815292909116602083015281908101610a09565b60646040517f08c379a000000000000000000000000000000000000000000000000000000000815260206004820152600e60248201527f496e76616c696420636f6e6669670000000000000000000000000000000000006044820152fd5b5063ffffffff808916908a161015611489565b600611156108ef57565b5f5b8381106115715750505f910152565b8181015183820152602001611562565b90606051918281525f5b8381106115c857507fffffffffffffffffffffffffffffffffffffffffffffffffffffffffffffffe0601f845f6020809697860101520116010190565b80602091608001518282850101520161158b565b907fffffffffffffffffffffffffffffffffffffffffffffffffffffffffffffffe0601f60209361161881518092818752878088019101611560565b0116010190565b9060206116309281815201906115dc565b90565b61163e6108ff613620565b80511561173c577f8c0a02dff9954f88356b8da5a21bf106c8a1a27725e91feb68318ee77eeae3e9610a096001926117306040517f030000000000000000000000000000000000000000000000000000000000000060208201527f010000000000000000000000000000000000000000000000000000000000000060218201525f60228201525f60248201525f60268201525f60288201525f602a8201525f602b8201525f602c8201525f602d8201525f602e820152601081526117018161066f565b61170e83518060381b1790565b61171784614b93565b916117206136b1565b8861172a82613758565b52614a5c565b6040519182918261161f565b60646040517f08c379a000000000000000000000000000000000000000000000000000000000815260206004820152600c60248201527f496e76616c6964206974656d00000000000000000000000000000000000000006044820152fd5b6117a56108ff613620565b80511561173c577f8c0a02dff9954f88356b8da5a21bf106c8a1a27725e91feb68318ee77eeae3e9610a09600a926117306040517f040000000000000000000000000000000000000000000000000000000000000060208201527f010000000000000000000000000000000000000000000000000000000000000060218201525f60228201525f60248201525f60268201525f60288201525f602a8201525f602b8201525f602c8201525f602d8201525f602e820152601081526117018161066f565b6118736108ff613620565b80511561173c577f8c0a02dff9954f88356b8da5a21bf106c8a1a27725e91feb68318ee77eeae3e9610a09600b926117306040517f040000000000000000000000000000000000000000000000000000000000000060208201527f010000000000000000000000000000000000000000000000000000000000000060218201525f60228201525f60248201525f60268201525f60288201525f602a8201525f602b8201525f602c8201525f602d82015261194e602e82017e1e0000000000000000000000000000000000000000000000000000000000009052565b601081526117018161066f565b6119666108ff613620565b80511561173c577f8c0a02dff9954f88356b8da5a21bf106c8a1a27725e91feb68318ee77eeae3e9610a096032926117306040517f020000000000000000000000000000000000000000000000000000000000000060208201525f60218201525f60228201525f60248201525f60268201525f6028820152611a0a602a82017f01000000000000000000000000000000000000000000000000000000000000009052565b5f602b8201525f602c8201525f602d8201525f602e820152601081526117018161066f565b611a3a6108ff613620565b80511561173c577f8c0a02dff9954f88356b8da5a21bf106c8a1a27725e91feb68318ee77eeae3e9610a096033926117306040517f020000000000000000000000000000000000000000000000000000000000000060208201525f60218201525f60228201525f60248201525f60268201525f60288201525f602a8201525f602b8201525f602c8201525f602d8201525f602e820152601081526117018161066f565b611ae86108ff613620565b80511561173c577f8c0a02dff9954f88356b8da5a21bf106c8a1a27725e91feb68318ee77eeae3e9610a096034926117306040517f020000000000000000000000000000000000000000000000000000000000000060208201527f010000000000000000000000000000000000000000000000000000000000000060218201525f60228201525f60248201525f60268201525f60288201525f602a8201525f602b8201525f602c8201525f602d8201525f602e820152601081526117018161066f565b611bb66108ff613620565b80511561173c577f8c0a02dff9954f88356b8da5a21bf106c8a1a27725e91feb68318ee77eeae3e9610a09603c926117306040517f050000000000000000000000000000000000000000000000000000000000000060208201527f010000000000000000000000000000000000000000000000000000000000000060218201525f60228201525f60248201525f60268201525f60288201525f602a8201525f602b8201525f602c8201525f602d8201525f602e820152601081526117018161066f565b611c846108ff613620565b80511561173c577f8c0a02dff9954f88356b8da5a21bf106c8a1a27725e91feb68318ee77eeae3e9610a096064926117306040515f60208201525f6021820152611cef602282017e040000000000000000000000000000000000000000000000000000000000009052565b7e0500000000000000000000000000000000000000000000000000000000000060248201525f60268201525f6028820152611d4c602a82017f01000000000000000000000000000000000000000000000000000000000000009052565b7f0100000000000000000000000000000000000000000000000000000000000000602b8201525b5f602c8201525f602d8201525f602e820152601081526117018161066f565b611d9d6108ff613620565b80511561173c577f8c0a02dff9954f88356b8da5a21bf106c8a1a27725e91feb68318ee77eeae3e9610a096065926117306040515f60208201525f6021820152611e08602282017e0a0000000000000000000000000000000000000000000000000000000000009052565b7e0c00000000000000000000000000000000000000000000000000000000000060248201525f60268201525f6028820152611e65602a82017f0a000000000000000000000000000000000000000000000000000000000000009052565b7f0a00000000000000000000000000000000000000000000000000000000000000602b820152611d73565b611e9b6108ff613620565b80511561173c577f8c0a02dff9954f88356b8da5a21bf106c8a1a27725e91feb68318ee77eeae3e9610a096066926117306040515f60208201525f6021820152611f06602282017e140000000000000000000000000000000000000000000000000000000000009052565b7e1800000000000000000000000000000000000000000000000000000000000060248201525f60268201525f6028820152611f63602a82017f14000000000000000000000000000000000000000000000000000000000000009052565b7f1400000000000000000000000000000000000000000000000000000000000000602b820152611d73565b611f996108ff613620565b80511561173c577f8c0a02dff9954f88356b8da5a21bf106c8a1a27725e91feb68318ee77eeae3e9610a096067926117306040517f030000000000000000000000000000000000000000000000000000000000000060208201525f60218201525f60228201525f60248201525f60268201525f60288201525f602a8201525f602b8201525f602c8201525f602d8201525f602e820152601081526117018161066f565b6120476108ff613620565b80511561173c577f8c0a02dff9954f88356b8da5a21bf106c8a1a27725e91feb68318ee77eeae3e9610a096068926117306040517f030000000000000000000000000000000000000000000000000000000000000060208201525f60218201525f60228201525f60248201525f60268201525f60288201525f602a8201525f602b8201525f602c8201525f602d8201525f602e820152601081526117018161066f565b6120f56108ff613620565b80511561173c577f8c0a02dff9954f88356b8da5a21bf106c8a1a27725e91feb68318ee77eeae3e9610a096069926117306040517f030000000000000000000000000000000000000000000000000000000000000060208201525f60218201525f60228201525f60248201525f60268201525f60288201525f602a8201525f602b8201525f602c8201525f602d8201525f602e820152601081526117018161066f565b6121a36108ff613620565b80511561173c577f8c0a02dff9954f88356b8da5a21bf106c8a1a27725e91feb68318ee77eeae3e9610a09606a926117306040517f030000000000000000000000000000000000000000000000000000000000000060208201525f60218201525f60228201525f60248201525f60268201525f60288201525f602a8201525f602b8201525f602c8201525f602d8201525f602e820152601081526117018161066f565b6122516108ff613620565b80511561173c577f8c0a02dff9954f88356b8da5a21bf106c8a1a27725e91feb68318ee77eeae3e9610a09606b926117306040517f030000000000000000000000000000000000000000000000000000000000000060208201525f60218201525f60228201525f60248201525f60268201525f60288201525f602a8201525f602b8201525f602c8201525f602d8201525f602e820152601081526117018161066f565b6122ff6108ff613620565b80511561173c577f8c0a02dff9954f88356b8da5a21bf106c8a1a27725e91feb68318ee77eeae3e9610a09606c926117306040517f030000000000000000000000000000000000000000000000000000000000000060208201525f60218201525f60228201525f60248201525f60268201525f60288201525f602a8201525f602b8201525f602c8201525f602d8201525f602e820152601081526117018161066f565b6123ad6108ff613620565b80511561173c577f8c0a02dff9954f88356b8da5a21bf106c8a1a27725e91feb68318ee77eeae3e9610a09606d926117306040517f030000000000000000000000000000000000000000000000000000000000000060208201525f60218201525f60228201525f60248201525f60268201525f60288201525f602a8201525f602b8201525f602c8201525f602d8201525f602e820152601081526117018161066f565b61245b6108ff613620565b80511561173c577f8c0a02dff9954f88356b8da5a21bf106c8a1a27725e91feb68318ee77eeae3e9610a09606e926117306040517f030000000000000000000000000000000000000000000000000000000000000060208201525f60218201525f60228201525f60248201525f60268201525f60288201525f602a8201525f602b8201525f602c8201525f602d8201525f602e820152601081526117018161066f565b6125096108ff613620565b80511561173c577f8c0a02dff9954f88356b8da5a21bf106c8a1a27725e91feb68318ee77eeae3e9610a09606f926117306040517f030000000000000000000000000000000000000000000000000000000000000060208201525f60218201525f60228201525f60248201525f60268201525f60288201525f602a8201525f602b8201525f602c8201525f602d8201525f602e820152601081526117018161066f565b6125b76108ff613620565b80511561173c577f8c0a02dff9954f88356b8da5a21bf106c8a1a27725e91feb68318ee77eeae3e9610a096070926117306040517f030000000000000000000000000000000000000000000000000000000000000060208201525f60218201525f60228201525f60248201525f60268201525f60288201525f602a8201525f602b8201525f602c8201525f602d8201525f602e820152601081526117018161066f565b6126656108ff613620565b80511561173c577f8c0a02dff9954f88356b8da5a21bf106c8a1a27725e91feb68318ee77eeae3e9610a096071926117306040517f030000000000000000000000000000000000000000000000000000000000000060208201525f60218201525f60228201525f60248201525f60268201525f60288201525f602a8201525f602b8201525f602c8201525f602d8201525f602e820152601081526117018161066f565b6127136108ff613620565b80511561173c577f8c0a02dff9954f88356b8da5a21bf106c8a1a27725e91feb68318ee77eeae3e9610a096072926117306040517f030000000000000000000000000000000000000000000000000000000000000060208201525f60218201525f60228201525f60248201525f60268201525f60288201525f602a8201525f602b8201525f602c8201525f602d8201525f602e820152601081526117018161066f565b6127c16108ff613620565b80511561173c577f8c0a02dff9954f88356b8da5a21bf106c8a1a27725e91feb68318ee77eeae3e9610a096073926117306040517f030000000000000000000000000000000000000000000000000000000000000060208201525f60218201525f60228201525f60248201525f60268201525f60288201525f602a8201525f602b8201525f602c8201525f602d8201525f602e820152601081526117018161066f565b61286f6108ff613620565b80511561173c577f8c0a02dff9954f88356b8da5a21bf106c8a1a27725e91feb68318ee77eeae3e9610a096074926117306040517f030000000000000000000000000000000000000000000000000000000000000060208201525f60218201525f60228201525f60248201525f60268201525f60288201525f602a8201525f602b8201525f602c8201525f602d8201525f602e820152601081526117018161066f565b61291d6108ff613620565b80511561173c577f8c0a02dff9954f88356b8da5a21bf106c8a1a27725e91feb68318ee77eeae3e9610a096075926117306040517f030000000000000000000000000000000000000000000000000000000000000060208201525f60218201525f60228201525f60248201525f60268201525f60288201525f602a8201525f602b8201525f602c8201525f602d8201525f602e820152601081526117018161066f565b6129cb6108ff613620565b80511561173c577f8c0a02dff9954f88356b8da5a21bf106c8a1a27725e91feb68318ee77eeae3e9610a096076926117306040517f030000000000000000000000000000000000000000000000000000000000000060208201525f60218201525f60228201525f60248201525f60268201525f60288201525f602a8201525f602b8201525f602c8201525f602d8201525f602e820152601081526117018161066f565b612a796108ff613620565b80511561173c577f8c0a02dff9954f88356b8da5a21bf106c8a1a27725e91feb68318ee77eeae3e9610a096077926117306040517f030000000000000000000000000000000000000000000000000000000000000060208201525f60218201525f60228201525f60248201525f60268201525f60288201525f602a8201525f602b8201525f602c8201525f602d8201525f602e820152601081526117018161066f565b612b276108ff613620565b80511561173c577f8c0a02dff9954f88356b8da5a21bf106c8a1a27725e91feb68318ee77eeae3e9610a096078926117306040517f030000000000000000000000000000000000000000000000000000000000000060208201525f60218201525f60228201525f60248201525f60268201525f60288201525f602a8201525f602b8201525f602c8201525f602d8201525f602e820152601081526117018161066f565b612bd56108ff613620565b80511561173c577f8c0a02dff9954f88356b8da5a21bf106c8a1a27725e91feb68318ee77eeae3e9610a096079926117306040517f030000000000000000000000000000000000000000000000000000000000000060208201525f60218201525f60228201525f60248201525f60268201525f60288201525f602a8201525f602b8201525f602c8201525f602d8201525f602e820152601081526117018161066f565b612c836108ff613620565b80511561173c577f8c0a02dff9954f88356b8da5a21bf106c8a1a27725e91feb68318ee77eeae3e9610a09607a926117306040517f030000000000000000000000000000000000000000000000000000000000000060208201525f60218201525f60228201525f60248201525f60268201525f60288201525f602a8201525f602b8201525f602c8201525f602d8201525f602e820152601081526117018161066f565b612d316108ff613620565b80511561173c577f8c0a02dff9954f88356b8da5a21bf106c8a1a27725e91feb68318ee77eeae3e9610a09607b926117306040517f030000000000000000000000000000000000000000000000000000000000000060208201525f60218201525f60228201525f60248201525f60268201525f60288201525f602a8201525f602b8201525f602c8201525f602d8201525f602e820152601081526117018161066f565b612ddf6108ff613620565b80511561173c577f8c0a02dff9954f88356b8da5a21bf106c8a1a27725e91feb68318ee77eeae3e9610a09607c926117306040517f030000000000000000000000000000000000000000000000000000000000000060208201525f60218201525f60228201525f60248201525f60268201525f60288201525f602a8201525f602b8201525f602c8201525f602d8201525f602e820152601081526117018161066f565b612e8d6108ff613620565b80511561173c577f8c0a02dff9954f88356b8da5a21bf106c8a1a27725e91feb68318ee77eeae3e9610a09607d926117306040517f030000000000000000000000000000000000000000000000000000000000000060208201525f60218201525f60228201525f60248201525f60268201525f60288201525f602a8201525f602b8201525f602c8201525f602d8201525f602e820152601081526117018161066f565b612f3b6108ff613620565b80511561173c577f8c0a02dff9954f88356b8da5a21bf106c8a1a27725e91feb68318ee77eeae3e9610a09607e926117306040517f030000000000000000000000000000000000000000000000000000000000000060208201525f60218201525f60228201525f60248201525f60268201525f60288201525f602a8201525f602b8201525f602c8201525f602d8201525f602e820152601081526117018161066f565b612fe96108ff613620565b80511561173c577f8c0a02dff9954f88356b8da5a21bf106c8a1a27725e91feb68318ee77eeae3e9610a09607f926117306040517f030000000000000000000000000000000000000000000000000000000000000060208201525f60218201525f60228201525f60248201525f60268201525f60288201525f602a8201525f602b8201525f602c8201525f602d8201525f602e820152601081526117018161066f565b6130976108ff613620565b80511561173c577f8c0a02dff9954f88356b8da5a21bf106c8a1a27725e91feb68318ee77eeae3e9610a096096926117306040515f60208201525f60218201525f60228201525f60248201525f6026820152613114602882017e080000000000000000000000000000000000000000000000000000000000009052565b5f602a8201525f602b8201525f602c820152613152602d82017f01000000000000000000000000000000000000000000000000000000000000009052565b5f602e820152601081526117018161066f565b6131706108ff613620565b80511561173c577f8c0a02dff9954f88356b8da5a21bf106c8a1a27725e91feb68318ee77eeae3e9610a0960c8926117306040515f60208201525f60218201525f60228201525f60248201526131e7602682017e080000000000000000000000000000000000000000000000000000000000009052565b5f60288201525f602a8201525f602b820152613225602c82017f01000000000000000000000000000000000000000000000000000000000000009052565b5f602d8201525f602e820152601081526117018161066f565b6132496108ff613620565b80511561173c577f8c0a02dff9954f88356b8da5a21bf106c8a1a27725e91feb68318ee77eeae3e9610a09604051927f010000000000000000000000000000000000000000000000000000000000000060208501525f60218501525f60228501525f60248501526132db602685017e020000000000000000000000000000000000000000000000000000000000009052565b5f60288501525f602a8501525f602b850152613319602c85017f01000000000000000000000000000000000000000000000000000000000000009052565b5f602d8501525f602e850152601084526133328461066f565b61173061334282518060381b1790565b61334b83614b93565b906133546136b1565b9661012c978861172a82613758565b61336e6108ff613620565b80511561173c577f8c0a02dff9954f88356b8da5a21bf106c8a1a27725e91feb68318ee77eeae3e9610a09604051927f010000000000000000000000000000000000000000000000000000000000000060208501525f60218501525f60228501525f6024850152613400602685017e040000000000000000000000000000000000000000000000000000000000009052565b5f60288501525f602a8501525f602b85015261343e602c85017f01000000000000000000000000000000000000000000000000000000000000009052565b5f602d8501525f602e850152601084526134578461066f565b61173061346782518060381b1790565b61347083614b93565b906134796136b1565b9661015e978861172a82613758565b6134936108ff613620565b80511561173c577f8c0a02dff9954f88356b8da5a21bf106c8a1a27725e91feb68318ee77eeae3e9610a09604051927f010000000000000000000000000000000000000000000000000000000000000060208501525f60218501525f60228501525f6024850152613525602685017e020000000000000000000000000000000000000000000000000000000000009052565b5f60288501525f602a8501525f602b850152613563602c85017f01000000000000000000000000000000000000000000000000000000000000009052565b5f602d8501525f602e8501526010845261357c8461066f565b61173061358c82518060381b1790565b61359583614b93565b9061359e6136b1565b96610190978861172a82613758565b97919690989299939a949b956135c46108ff613620565b61ffff89169c8d151580613616575b1561173c577f8c0a02dff9954f88356b8da5a21bf106c8a1a27725e91feb68318ee77eeae3e99c610a099c6117309b60ff8e9c169061361182611556565b6145fd565b508a5115156135d3565b7fffffffffffffffffffffffffffffffffffffffffffffffffffffffffffffffcc36013560601c90811561365057565b339150565b604051906080820182811067ffffffffffffffff82111761066a576040525f6060838281528260208201528260408201520152565b6040516020810181811067ffffffffffffffff82111761066a576040525f8152905f368137565b604051906136be8261066f565b6001825260203681840137565b6136d3613655565b506136e46136df61368a565b61485b565b50506136ee613655565b90602081015190602181015160f81c906023602282015160f81c91015160601c6060850152151560408401521515602083015260f81c1515815290565b7f4e487b71000000000000000000000000000000000000000000000000000000005f52603260045260245ffd5b8051156137655760200190565b61372b565b80518210156137655760209160051b010190565b9997959390989694929198604051997fffffffff00000000000000000000000000000000000000000000000000000000809260e01b1660208c015260e01b1660248a01527fffff000000000000000000000000000000000000000000000000000000000000809260f01b1660288a015260f01b16602a880152602c8701613829917fffff0000000000000000000000000000000000000000000000000000000000009060f01b169052565b60f01b7fffff00000000000000000000000000000000000000000000000000000000000016602e86015260f01b7fffff00000000000000000000000000000000000000000000000000000000000016603085015260f01b7fffff00000000000000000000000000000000000000000000000000000000000016603284015260f01b7fffff00000000000000000000000000000000000000000000000000000000000016603483015260f01b7fffff000000000000000000000000000000000000000000000000000000000000166036820152601881526139088161066f565b6139106136b1565b9161391a816108e5565b60ff1661392683613758565b5261393091614964565b565b6040519061393f8261066f565b600482527f4c6f6773000000000000000000000000000000000000000000000000000000006020830152565b604051906139788261066f565b600a82527f52617720536872696d70000000000000000000000000000000000000000000006020830152565b604051906139b18261066f565b600d82527f436f6f6b656420536872696d70000000000000000000000000000000000000006020830152565b604051906139ea8261066f565b600e82527f42726f6e7a6520486174636865740000000000000000000000000000000000006020830152565b60405190613a238261066f565b600b82527f46697368696e6720526f640000000000000000000000000000000000000000006020830152565b60405190613a5c8261066f565b600982527f54696e646572626f7800000000000000000000000000000000000000000000006020830152565b60405190613a958261066f565b600682527f4172726f777300000000000000000000000000000000000000000000000000006020830152565b60405190613ace8261066f565b600c82527f42726f6e7a652053776f726400000000000000000000000000000000000000006020830152565b60405190613b078261066f565b600b82527f537465656c2053776f72640000000000000000000000000000000000000000006020830152565b60405190613b408261066f565b600d82527f4d69746872696c2053776f7264000000000000000000000000000000000000006020830152565b60405190613b798261066f565b600782527f4974656d313033000000000000000000000000000000000000000000000000006020830152565b60405190613bb28261066f565b600782527f4974656d313034000000000000000000000000000000000000000000000000006020830152565b60405190613beb8261066f565b600782527f4974656d313035000000000000000000000000000000000000000000000000006020830152565b60405190613c248261066f565b600782527f4974656d313036000000000000000000000000000000000000000000000000006020830152565b60405190613c5d8261066f565b600782527f4974656d313037000000000000000000000000000000000000000000000000006020830152565b60405190613c968261066f565b600782527f4974656d313038000000000000000000000000000000000000000000000000006020830152565b60405190613ccf8261066f565b600782527f4974656d313039000000000000000000000000000000000000000000000000006020830152565b60405190613d088261066f565b600782527f4974656d313130000000000000000000000000000000000000000000000000006020830152565b60405190613d418261066f565b600782527f4974656d313131000000000000000000000000000000000000000000000000006020830152565b60405190613d7a8261066f565b600782527f4974656d313132000000000000000000000000000000000000000000000000006020830152565b60405190613db38261066f565b600782527f4974656d313133000000000000000000000000000000000000000000000000006020830152565b60405190613dec8261066f565b600782527f4974656d313134000000000000000000000000000000000000000000000000006020830152565b60405190613e258261066f565b600782527f4974656d313135000000000000000000000000000000000000000000000000006020830152565b60405190613e5e8261066f565b600782527f4974656d313136000000000000000000000000000000000000000000000000006020830152565b60405190613e978261066f565b600782527f4974656d313137000000000000000000000000000000000000000000000000006020830152565b60405190613ed08261066f565b600782527f4974656d313138000000000000000000000000000000000000000000000000006020830152565b60405190613f098261066f565b600782527f4974656d313139000000000000000000000000000000000000000000000000006020830152565b60405190613f428261066f565b600782527f4974656d313230000000000000000000000000000000000000000000000000006020830152565b60405190613f7b8261066f565b600782527f4974656d313231000000000000000000000000000000000000000000000000006020830152565b60405190613fb48261066f565b600782527f4974656d313232000000000000000000000000000000000000000000000000006020830152565b60405190613fed8261066f565b600782527f4974656d313233000000000000000000000000000000000000000000000000006020830152565b604051906140268261066f565b600782527f4974656d313234000000000000000000000000000000000000000000000000006020830152565b6040519061405f8261066f565b600782527f4974656d313235000000000000000000000000000000000000000000000000006020830152565b604051906140988261066f565b600782527f4974656d313236000000000000000000000000000000000000000000000000006020830152565b604051906140d18261066f565b600782527f4974656d313237000000000000000000000000000000000000000000000000006020830152565b6040519061410a8261066f565b600882527f576f6f6420426f770000000000000000000000000000000000000000000000006020830152565b604051906141438261066f565b600d82527f42726f6e7a6520536869656c64000000000000000000000000000000000000006020830152565b6040519061417c8261066f565b600e82527f4c6561746865722048656c6d65740000000000000000000000000000000000006020830152565b604051906141b58261066f565b600c82527f4c65617468657220426f647900000000000000000000000000000000000000006020830152565b604051906141ee8261066f565b600c82527f4c656174686572204c65677300000000000000000000000000000000000000006020830152565b61422a614225613932565b611633565b61423a61423561396b565b61179a565b61424a6142456139a4565b611868565b61425a6142556139dd565b61195b565b61426a614265613a16565b611a2f565b61427a614275613a4f565b611add565b61428a614285613a88565b611bab565b61429a614295613ac1565b611c79565b6142aa6142a5613afa565b611d92565b6142ba6142b5613b33565b611e90565b6142ca6142c5613b6c565b611f8e565b6142da6142d5613ba5565b61203c565b6142ea6142e5613bde565b6120ea565b6142fa6142f5613c17565b612198565b61430a614305613c50565b612246565b61431a614315613c89565b6122f4565b61432a614325613cc2565b6123a2565b61433a614335613cfb565b612450565b61434a614345613d34565b6124fe565b61435a614355613d6d565b6125ac565b61436a614365613da6565b61265a565b61437a614375613ddf565b612708565b61438a614385613e18565b6127b6565b61439a614395613e51565b612864565b6143aa6143a5613e8a565b612912565b6143ba6143b5613ec3565b6129c0565b6143ca6143c5613efc565b612a6e565b6143da6143d5613f35565b612b1c565b6143ea6143e5613f6e565b612bca565b6143fa6143f5613fa7565b612c78565b61440a614405613fe0565b612d26565b61441a614415614019565b612dd4565b61442a614425614052565b612e82565b61443a61443561408b565b612f30565b61444a6144456140c4565b612fde565b61445a6144556140fd565b61308c565b61446a614465614136565b613165565b61447a61447561416f565b61323e565b61448a6144856141a8565b613363565b6139306144956141e1565b613488565b6144a56108ff613620565b61457e6040517c010000000000000000000000000000000000000000000000000000000060208201527c050000000000000000000000000000000000000000000000000000000060248201527e6400000000000000000000000000000000000000000000000000000000000060288201527e32000000000000000000000000000000000000000000000000000000000000602a8201525f602c8201525f602e8201525f60308201525f60328201525f60348201525f60368201526018815261456c8161066f565b6145746136b1565b5f6109c682613758565b5f7f233960ab2b329071927607475159fd3c59a30eeef1ccfaa46dd0cd289931429b604051806145ba8190600560206040840193600181520152565b0390a26145c56108f4565b6145cd610a0e565b6145d5610b31565b6145dd610c97565b6145e5610e01565b6145ed610f69565b6145f5611110565b6139306112ba565b9a969892919b9994939b979095976040519960068810156108ef5761467c6147589a6139309f6147009860268f6146696146729461472c9f6146d49c6146a89b61465f9260f81b6020870152151560f81b6021860152602285019060f01b9052565b60f01b6024830152565b019060f01b9052565b60f01b60288d0152565b60f81b7fff0000000000000000000000000000000000000000000000000000000000000016602a8b0152565b60f81b7fff0000000000000000000000000000000000000000000000000000000000000016602b890152565b60f81b7fff0000000000000000000000000000000000000000000000000000000000000016602c870152565b60f81b7fff0000000000000000000000000000000000000000000000000000000000000016602d850152565b60f01b7fffff00000000000000000000000000000000000000000000000000000000000016602e830152565b601081526147658161066f565b61477b61477583518060381b1790565b92614b93565b9261ffff6147876136b1565b911661172a82613758565b81601f820112156101415780516147a8816106cc565b926147b6604051948561068b565b81845260208284010111610141576116309160208085019101611560565b90916060828403126101415781519167ffffffffffffffff928381116101415784614800918301614792565b936020820151936040830151908111610141576116309201614792565b9081518082526020808093019301915f5b82811061483c575050505090565b83518552938101939281019260010161482e565b6040513d5f823e3d90fd5b73ffffffffffffffffffffffffffffffffffffffff614878614b51565b16308103614891575061488a90614bf6565b9192909190565b6148fa92915f9160405180809681947f419b58fd0000000000000000000000000000000000000000000000000000000083527f74626879706572736361706500000000576f726c64436f6e6669670000000000600484015260606024840152606483019061481d565b7e17040001010114000000000000000000000000000000000000000000000000604483015203915afa90811561058e575f80935f9361493a575b50929190565b9193505061495a91503d805f833e614952818361068b565b8101906147d4565b929092915f614934565b73ffffffffffffffffffffffffffffffffffffffff614981614b51565b1630810361499457509061393091614f8e565b90813b15610141575f91614a0d8361054b93614a3e604051978896879586947f298314fb0000000000000000000000000000000000000000000000000000000086527f746268797065727363617065000000004d6f624c6f6f745461626c6500000000600487015260a0602487015260a486019061481d565b7ffffffffffffffffffffffffffffffffffffffffffffffffffffffffffffffffc92838683030160448701526115dc565b03925af1801561058e57614a4f5750565b8061058261393092610656565b9291909273ffffffffffffffffffffffffffffffffffffffff614a7d614b51565b16308103614a905750926139309361520a565b909192813b15610141575f614b3d93614a3e8296614b0c94604051998a98899788967f298314fb0000000000000000000000000000000000000000000000000000000088527f746268797065727363617065000000004974656d4d6574616461746100000000600489015260a0602489015260a488019061481d565b7ffffffffffffffffffffffffffffffffffffffffffffffffffffffffffffffffc92838883030160448901526115dc565b9260648601528483030160848501526115dc565b7f629a4c26e296b22a8e0856e9f6ecb2d1008d7e00081111962cd175fa7488e1755473ffffffffffffffffffffffffffffffffffffffff168061163057503390565b611630602060405183614baf8295518092858086019101611560565b810103808452018261068b565b91908201809211614bc957565b7f4e487b71000000000000000000000000000000000000000000000000000000005f52601160045260245ffd5b5f90614c03606091615a38565b604051906020907fffffffffffffffffffffffffffffffffffffffffffffffffffffffffffffffe090816056850116604052601784526020840192601791925b81831015614c9457505080614c59575b50505092565b7fffffffffffffffffffffffffffffffffffffffffffffffffffffffffffffffff9060031b1c908183511691199054161790525f8080614c53565b81600185839495979654875201940194019190614c43565b60409283519260208401937f746273746f72650000000000000000005461626c65730000000000000000000085527f74626879706572736361706500000000576f726c64436f6e66696700000000009485878301528682526060916060810181811067ffffffffffffffff82111761066a5788525190207f86425bff6b57326c7859e89024fe4f238ca327a1ae4a230180dd2f0e88aaa7d9185492614d4f615bd7565b905f5b8251811015614e4257614db6614d91614d6b838661376a565b517fffffffffffffffffffffffffffffffffffffffffff00000000000000000000001690565b7fffffffffffffffffffffffffffffffffffffffffff00000000000000000000001690565b6001808260581c1614614dcd575b50600101614d52565b841c90813b15610141575f87614e159388838c8f51978895869485937f57066c9c00000000000000000000000000000000000000000000000000000000855260048501615924565b03925af191821561058e57600192614e2f575b5090614dc4565b80610582614e3c92610656565b5f614e28565b50957f8dbb3a9672eebfd3773e72dd9c102393436816d832c7ba9e1e1ac8fcadcac7a9885180614e73878a836158ba565b0390a2614e8e614e8286615a38565b84516020860191615e63565b60ff808560e01c1680614f4d575b50505f5b8151811015614f4357614eb9614d91614d6b838561376a565b6002808260581c1614614ed0575b50600101614ea0565b831c90813b156101415788517f5b28cdaf000000000000000000000000000000000000000000000000000000008152915f908390818381614f168c8c8f60048501615924565b03925af191821561058e57600192614f30575b5090614ec7565b80610582614f3d92610656565b5f614f29565b5050505050509050565b5f614f5788615b70565b555f60805b888385841610614f6e57505050614e9c565b81614f858693614f8086600195615634565b615de3565b92011690614f5c565b60409283519260208401937f746273746f72650000000000000000005461626c65730000000000000000000085527f746268797065727363617065000000004d6f624c6f6f745461626c65000000009485878301528682526060916060810181811067ffffffffffffffff82111761066a5788525190207f86425bff6b57326c7859e89024fe4f238ca327a1ae4a230180dd2f0e88aaa7d9185492615031615cf7565b905f5b82518110156150d95761504d614d91614d6b838661376a565b6001808260581c1614615064575b50600101615034565b841c90813b15610141575f876150ac9388838c8f51978895869485937f57066c9c0000000000000000000000000000000000000000000000000000000085526004850161598e565b03925af191821561058e576001926150c6575b509061505b565b806105826150d392610656565b5f6150bf565b50957f8dbb3a9672eebfd3773e72dd9c102393436816d832c7ba9e1e1ac8fcadcac7a988518061510a878a836158ba565b0390a2615119614e8286615aa1565b60ff808560e01c16806151ce575b50505f5b8151811015614f4357615144614d91614d6b838561376a565b6002808260581c161461515b575b5060010161512b565b831c90813b156101415788517f5b28cdaf000000000000000000000000000000000000000000000000000000008152915f9083908183816151a18c8c8f6004850161598e565b03925af191821561058e576001926151bb575b5090615152565b806105826151c892610656565b5f6151b4565b5f6151d888615bad565b555f60805b8883858416106151ef57505050615127565b816152018693614f8086600195615714565b920116906151dd565b93929391909160409283519460208601957f746273746f72650000000000000000005461626c65730000000000000000000087527f746268797065727363617065000000004974656d4d65746164617461000000009687878301528682526060916060810181811067ffffffffffffffff82111761066a5788525190207f86425bff6b57326c7859e89024fe4f238ca327a1ae4a230180dd2f0e88aaa7d91854916152b3615d6d565b905f5b825181101561535e576152cf614d91614d6b838661376a565b6001808260581c16146152e6575b506001016152b6565b841c90813b15610141575f898d9389838c8f8c6153319151998a97889687957f57066c9c000000000000000000000000000000000000000000000000000000008752600487016159d2565b03925af191821561058e5760019261534b575b50906152dd565b8061058261535892610656565b5f615344565b50977f8dbb3a9672eebfd3773e72dd9c102393436816d832c7ba9e1e1ac8fcadcac7a98851806153918d8b8a8c856158f6565b0390a26153ac6153a086615ab6565b85516020870191615e63565b60ff808460e01c1680615472575b50505f5b8151811015615466576153d7614d91614d6b838561376a565b6002808260581c16146153ee575b506001016153be565b831c90813b15610141575f888c9388838b6154398f8c9051998a97889687957f5b28cdaf000000000000000000000000000000000000000000000000000000008752600487016159d2565b03925af191821561058e57600192615453575b50906153e5565b8061058261546092610656565b5f61544c565b50505050505050509050565b979198929695949099938661548687615bc2565b555f97602086015b8c8a16908b8210156154d7576154ce8e92826154c96001948f8f8f64ffffffffff926154b9916157e7565b956028026038011c168094615e63565b614bbc565b9a01169861548e565b50509399929850939950939495505f806153ba565b7f746273746f726500000000000000000053746f7265486f6f6b73000000000000815281516020918201928201915f5b82811061552a575050505090565b83518552938101939281019260010161551c565b7f74626879706572736361706500000000576f726c64436f6e6669670000000000815281516020918201928201915f5b82811061557c575050505090565b83518552938101939281019260010161556e565b7f746268797065727363617065000000004d6f624c6f6f745461626c6500000000815281516020918201928201915f5b8281106155ce575050505090565b8351855293810193928101926001016155c0565b7f746268797065727363617065000000004974656d4d6574616461746100000000815281516020918201928201915f5b828110615620575050505090565b835185529381019392810192600101615612565b919060405160209060208101917f74626879706572736361706500000000576f726c64436f6e666967000000000083526040820160208751919701915f5b828110615700575050505090816156f37fff00000000000000000000000000000000000000000000000000000000000000937f3b4102da22e32d82fc925482184f16c09fd4281692720b87d124aef6da48a0f19697037fffffffffffffffffffffffffffffffffffffffffffffffffffffffffffffffe0810183528261068b565b5190209160f81b16181890565b835189529781019792810192600101615672565b919060405160209060208101917f746268797065727363617065000000004d6f624c6f6f745461626c650000000083526040820160208751919701915f5b8281106157d3575050505090816156f37fff00000000000000000000000000000000000000000000000000000000000000937f3b4102da22e32d82fc925482184f16c09fd4281692720b87d124aef6da48a0f19697037fffffffffffffffffffffffffffffffffffffffffffffffffffffffffffffffe0810183528261068b565b835189529781019792810192600101615752565b919060405160209060208101917f746268797065727363617065000000004974656d4d657461646174610000000083526040820160208751919701915f5b8281106158a6575050505090816156f37fff00000000000000000000000000000000000000000000000000000000000000937f3b4102da22e32d82fc925482184f16c09fd4281692720b87d124aef6da48a0f19697037fffffffffffffffffffffffffffffffffffffffffffffffffffffffffffffffe0810183528261068b565b835189529781019792810192600101615825565b90611630926158d46158e29260808552608085019061481d565b9083820360208501526115dc565b905f60408201526060818303910152611581565b9061163094926158d46159119260808552608085019061481d565b92604082015260608184039101526115dc565b9392916159766159899161596860a0947f74626879706572736361706500000000576f726c64436f6e6669670000000000895260c060208a015260c089019061481d565b9087820360408901526115dc565b5f60608701528581036080870152611581565b930152565b9392916159766159899161596860a0947f746268797065727363617065000000004d6f624c6f6f745461626c6500000000895260c060208a015260c089019061481d565b959493615a2561598993615a1760a096947f746268797065727363617065000000004974656d4d65746164617461000000008b5260c060208c015260c08b019061481d565b9089820360408b01526115dc565b91606088015286820360808801526115dc565b604051615a7981615a4d60208201948561553e565b037fffffffffffffffffffffffffffffffffffffffffffffffffffffffffffffffe0810183528261068b565b5190207f86425bff6b57326c7859e89024fe4f238ca327a1ae4a230180dd2f0e88aaa7d91890565b604051615a7981615a4d602082019485615590565b604051615a7981615a4d6020820194856155e2565b604080517fffffffffffffffffffffffffffffffffffffffffffffffffffffffffffffffe0603f85830101811690925283815292602080850193925b81831015615b5857505080615b1d575b50505090565b7fffffffffffffffffffffffffffffffffffffffffffffffffffffffffffffffff9060031b1c908183511691199054161790525f8080615b17565b81600185839495979654875201940194019190615b07565b604051615b8581615a4d60208201948561553e565b5190207f14e2fcc58e58e68ec7edc30c8d50dccc3ce2714a623ec81f46b6a63922d765691890565b604051615b8581615a4d602082019485615590565b604051615b8581615a4d6020820194856155e2565b615bdf6136b1565b80511561376557615cd6817f74626879706572736361706500000000576f726c64436f6e6669670000000000602061163094015264ffffffffff604051917f3b4102da22e32d82fc925482184f16c09fd4281692720b87d124aef6da48a0f16020840184615c4d84836154ec565b0394615c7f7fffffffffffffffffffffffffffffffffffffffffffffffffffffffffffffffe09687810183528261068b565b5190201892615ca66040519182615c9a6020820195866154ec565b0390810183528261068b565b5190207f14e2fcc58e58e68ec7edc30c8d50dccc3ce2714a623ec81f46b6a63922d76569185460381c1690615acb565b60206fffffffffffffffffffffffffffffffff825116910160801b17615ea2565b615cff6136b1565b80511561376557615cd6817f746268797065727363617065000000004d6f624c6f6f745461626c6500000000602061163094015264ffffffffff604051917f3b4102da22e32d82fc925482184f16c09fd4281692720b87d124aef6da48a0f16020840184615c4d84836154ec565b615d756136b1565b80511561376557615cd6817f746268797065727363617065000000004974656d4d6574616461746100000000602061163094015264ffffffffff604051917f3b4102da22e32d82fc925482184f16c09fd4281692720b87d124aef6da48a0f16020840184615c4d84836154ec565b905f5b6020808210615e2357600183947fffffffffffffffffffffffffffffffffffffffffffffffffffffffffffffffe093945181550193019101615de6565b5080615e2e57505050565b7fffffffffffffffffffffffffffffffffffffffffffffffffffffffffffffffff9060031b1c90818354169119905116179055565b91906020808210615e2357600183947fffffffffffffffffffffffffffffffffffffffffffffffffffffffffffffffe093945181550193019101615de6565b8060801c9060156fffffffffffffffffffffffffffffffff81921604604051926020906020850160208460051b8701016040528386525f5b848110615eea5750505050505090565b825182529185019190830190600101615eda56fea26469706673582212207f36c6348b0c35190aa793bba69a1753eef4526ab8f9446aed89dd71aca8ebce64736f6c63430008180033","linkReferences":{}},"methodIdentifiers":{"_msgSender()":"119df25f","_msgValue()":"45ec9354","_world()":"e1af802c","createItem(uint16,string,uint8,bool,int16,int16,int16,int16,uint8,uint8,uint8,uint8,uint16)":"fa6e7d2b","initialize()":"8129fc1c","setLootTable(uint8,uint32,uint32,uint16,uint16,uint16,uint16,uint16,uint16,uint16,uint16)":"205f94e4","supportsInterface(bytes4)":"01ffc9a7"},"id":90}