{"abi":[{"type":"function","name":"_msgSender","inputs":[],"outputs":[{"name":"sender","type":"address","internalType":"address"}],"stateMutability":"view"},{"type":"function","name":"_msgValue","inputs":[],"outputs":[{"name":"value","type":"uint256","internalType":"uint256"}],"stateMutability":"view"},{"type":"function","name":"_world","inputs":[],"outputs":[{"name":"","type":"address","internalType":"address"}],"stateMutability":"view"},{"type":"function","name":"createItem","inputs":[{"name":"itemId","type":"uint16","internalType":"uint16"},{"name":"name","type":"string","internalType":"string"},{"name":"itemType","type":"uint8","internalType":"uint8"},{"name":"stackable","type":"bool","internalType":"bool"},{"name":"attackBonus","type":"int16","internalType":"int16"},{"name":"strengthBonus","type":"int16","internalType":"int16"},{"name":"defenseBonus","type":"int16","internalType":"int16"},{"name":"rangedBonus","type":"int16","internalType":"int16"},{"name":"reqAttack","type":"uint8","internalType":"uint8"},{"name":"reqStrength","type":"uint8","internalType":"uint8"},{"name":"reqDefense","type":"uint8","internalType":"uint8"},{"name":"reqRanged","type":"uint8","internalType":"uint8"},{"name":"heals","type":"uint16","internalType":"uint16"}],"outputs":[],"stateMutability":"nonpayable"},{"type":"function","name":"initialize","inputs":[],"outputs":[],"stateMutability":"nonpayable"},{"type":"function","name":"setItemsContractAddress","inputs":[{"name":"_itemsContract","type":"address","internalType":"address"}],"outputs":[],"stateMutability":"nonpayable"},{"type":"function","name":"setLootTable","inputs":[{"name":"mobType","type":"uint8","internalType":"uint8"},{"name":"coinMin","type":"uint32","internalType":"uint32"},{"name":"coinMax","type":"uint32","internalType":"uint32"},{"name":"itemId1","type":"uint16","internalType":"uint16"},{"name":"itemId1Chance","type":"uint16","internalType":"uint16"},{"name":"itemId2","type":"uint16","internalType":"uint16"},{"name":"itemId2Chance","type":"uint16","internalType":"uint16"},{"name":"itemId3","type":"uint16","internalType":"uint16"},{"name":"itemId3Chance","type":"uint16","internalType":"uint16"},{"name":"itemId4","type":"uint16","internalType":"uint16"},{"name":"itemId4Chance","type":"uint16","internalType":"uint16"}],"outputs":[],"stateMutability":"nonpayable"},{"type":"function","name":"supportsInterface","inputs":[{"name":"interfaceId","type":"bytes4","internalType":"bytes4"}],"outputs":[{"name":"","type":"bool","internalType":"bool"}],"stateMutability":"pure"},{"type":"event","name":"ItemCreated","inputs":[{"name":"itemId","type":"uint16","indexed":true,"internalType":"uint16"},{"name":"name","type":"string","indexed":false,"internalType":"string"}],"anonymous":false},{"type":"event","name":"LootTableSet","inputs":[{"name":"mobType","type":"uint8","indexed":true,"internalType":"uint8"},{"name":"coinMin","type":"uint32","indexed":false,"internalType":"uint32"},{"name":"coinMax","type":"uint32","indexed":false,"internalType":"uint32"}],"anonymous":false},{"type":"event","name":"Store_SetRecord","inputs":[{"name":"tableId","type":"bytes32","indexed":true,"internalType":"ResourceId"},{"name":"keyTuple","type":"bytes32[]","indexed":false,"internalType":"bytes32[]"},{"name":"staticData","type":"bytes","indexed":false,"internalType":"bytes"},{"name":"encodedLengths","type":"bytes32","indexed":false,"internalType":"EncodedLengths"},{"name":"dynamicData","type":"bytes","indexed":false,"internalType":"bytes"}],"anonymous":false},{"type":"event","name":"WorldInitialized","inputs":[{"name":"admin","type":"address","indexed":true,"internalType":"address"}],"anonymous":false},{"type":"error","name":"Slice_OutOfBounds","inputs":[{"name":"data","type":"bytes","internalType":"bytes"},{"name":"start","type":"uint256","internalType":"uint256"},{"name":"end","type":"uint256","internalType":"uint256"}]}],"bytecode":{"object":"0x608080604052346100175761603690816200001c8239f35b5f80fdfe60806040526004361015610011575f80fd5b5f3560e01c806301ffc9a714610094578063119df25f1461008f578063205f94e41461008a57806345ec9354146100855780636eba8784146100805780638129fc1c1461007b578063e1af802c146100765763fa6e7d2b14610071575f80fd5b610870565b6106f0565b61049b565b6103ac565b610351565b6102a6565b61015f565b346101515760207ffffffffffffffffffffffffffffffffffffffffffffffffffffffffffffffffc360112610151576004357fffffffff000000000000000000000000000000000000000000000000000000008116809103610151577fb5dee127000000000000000000000000000000000000000000000000000000008114908115610127575b50151560805260206080f35b7f01ffc9a7000000000000000000000000000000000000000000000000000000009150148161011b565b5f80fd5b5f91031261015157565b34610151575f7ffffffffffffffffffffffffffffffffffffffffffffffffffffffffffffffffc360112610151576020610197613795565b73ffffffffffffffffffffffffffffffffffffffff60405191168152f35b6044359060ff8216820361015157565b610104359060ff8216820361015157565b610124359060ff8216820361015157565b610144359060ff8216820361015157565b610164359060ff8216820361015157565b6064359061ffff8216820361015157565b6084359061ffff8216820361015157565b60a4359061ffff8216820361015157565b60c4359061ffff8216820361015157565b60e4359061ffff8216820361015157565b610104359061ffff8216820361015157565b610124359061ffff8216820361015157565b610144359061ffff8216820361015157565b610184359061ffff8216820361015157565b34610151576101607ffffffffffffffffffffffffffffffffffffffffffffffffffffffffffffffffc3601126101515760043560ff811681036101515763ffffffff9060243582811681036101515760443592831683036101515761034f9261030d610209565b61031561021a565b61031d61022b565b61032561023c565b9161032e61024d565b9361033761025e565b95610340610270565b97610349610282565b99611572565b005b34610151575f7ffffffffffffffffffffffffffffffffffffffffffffffffffffffffffffffffc3601126101515760206040517fffffffffffffffffffffffffffffffffffffffffffffffffffffffffffffffe03601358152f35b346101515760207ffffffffffffffffffffffffffffffffffffffffffffffffffffffffffffffffc3601126101515760043573ffffffffffffffffffffffffffffffffffffffff90818116809103610151575f809161042761034f94610410613795565b9080606061041c613840565b01511691161461096e565b60405160208101917f556abad70000000000000000000000000000000000000000000000000000000083526024820152602481526104648161076e565b519082305af13d15610496573d61047a816107e7565b9061048860405192836107a6565b81525f60203d92013e611666565b611666565b34610151577ffffffffffffffffffffffffffffffffffffffffffffffffffffffffffffffffc5f81360112610151576104d2613840565b51610692576104df613795565b6040517f010000000000000000000000000000000000000000000000000000000000000080602083015260218201525f60228201527fffffffffffffffffffffffffffffffffffffffff0000000000000000000000008260601b1660238201526017815261054c8161078a565b6105546137ff565b9061055d614cc6565b73ffffffffffffffffffffffffffffffffffffffff949085163081036105bf57505061058891614e21565b61059061438f565b61059861460f565b167f6671a1fe2f1e6cbb5a2635c124345732c2690b62af51d174808bbde4aea27c345f80a2005b809291923b156101515761063a5f61064a9561065f8296604051988997889687957f298314fb0000000000000000000000000000000000000000000000000000000087527f74626879706572736361706500000000576f726c64436f6e6669670000000000600488015260a0602488015260a4870190614992565b9083868303016044870152611751565b908460648501528382030160848401526116f6565b03925af1801561068d57610674575b50610588565b8061068161068792610755565b80610155565b5f61066e565b6149c5565b60646040517f08c379a000000000000000000000000000000000000000000000000000000000815260206004820152601960248201527f576f726c6420616c726561647920696e697469616c697a6564000000000000006044820152fd5b34610151575f7ffffffffffffffffffffffffffffffffffffffffffffffffffffffffffffffffc360112610151576020610197614cc6565b7f4e487b71000000000000000000000000000000000000000000000000000000005f52604160045260245ffd5b67ffffffffffffffff811161076957604052565b610728565b6060810190811067ffffffffffffffff82111761076957604052565b6040810190811067ffffffffffffffff82111761076957604052565b90601f7fffffffffffffffffffffffffffffffffffffffffffffffffffffffffffffffe0910116810190811067ffffffffffffffff82111761076957604052565b67ffffffffffffffff811161076957601f017fffffffffffffffffffffffffffffffffffffffffffffffffffffffffffffffe01660200190565b60643590811515820361015157565b608435908160010b820361015157565b60a435908160010b820361015157565b60c435908160010b820361015157565b60e435908160010b820361015157565b34610151576101a07ffffffffffffffffffffffffffffffffffffffffffffffffffffffffffffffffc3601126101515760043561ffff81168103610151576024359067ffffffffffffffff821161015157366023830112156101515781600401356108da816107e7565b906108e860405192836107a6565b8082523660248286010111610151576020815f92602461034f970183860137830101526109136101b5565b61091b610821565b610923610830565b61092b610840565b610933610850565b61093b610860565b916109446101c5565b9361094d6101d6565b956109566101e7565b9761095f6101f8565b99610968610294565b9b613722565b1561097557565b60646040517f08c379a000000000000000000000000000000000000000000000000000000000815260206004820152600960248201527f4e6f742061646d696e00000000000000000000000000000000000000000000006044820152fd5b7f4e487b71000000000000000000000000000000000000000000000000000000005f52602160045260245ffd5b60091115610a0a57565b6109d3565b610a3a610a1a613795565b73ffffffffffffffffffffffffffffffffffffffff80606061041c613840565b610adc6040517c020000000000000000000000000000000000000000000000000000000060208201527c080000000000000000000000000000000000000000000000000000000060248201525f60288201525f602a8201525f602c8201525f602e8201525f60308201525f60328201525f60348201525f603682015260188152610ac38161078a565b610acb613826565b6001610ad6826138cd565b52614ad9565b60017f233960ab2b329071927607475159fd3c59a30eeef1ccfaa46dd0cd289931429b60405180610b198190600860206040840193600281520152565b0390a2565b610b29610a1a613795565b610c046040517c050000000000000000000000000000000000000000000000000000000060208201527c0f0000000000000000000000000000000000000000000000000000000060248201527f012c00000000000000000000000000000000000000000000000000000000000060288201527e64000000000000000000000000000000000000000000000000000000000000602a8201525f602c8201525f602e8201525f60308201525f60328201525f60348201525f603682015260188152610bf18161078a565b610bf9613826565b6002610ad6826138cd565b60027f233960ab2b329071927607475159fd3c59a30eeef1ccfaa46dd0cd289931429b60405180610b198190600f60206040840193600581520152565b610c4c610a1a613795565b610d6a6040517c0a0000000000000000000000000000000000000000000000000000000060208201527c190000000000000000000000000000000000000000000000000000000060248201527e6500000000000000000000000000000000000000000000000000000000000060288201527ec8000000000000000000000000000000000000000000000000000000000000602a820152610d0d602c82017ec80000000000000000000000000000000000000000000000000000000000009052565b7e64000000000000000000000000000000000000000000000000000000000000602e8201525f60308201525f60328201525f60348201525f603682015260188152610d578161078a565b610d5f613826565b6003610ad6826138cd565b60037f233960ab2b329071927607475159fd3c59a30eeef1ccfaa46dd0cd289931429b60405180610b198190601960206040840193600a81520152565b610db2610a1a613795565b610ed46040517c0f0000000000000000000000000000000000000000000000000000000060208201527c1e0000000000000000000000000000000000000000000000000000000060248201527f015e00000000000000000000000000000000000000000000000000000000000060288201527f01f4000000000000000000000000000000000000000000000000000000000000602a820152610e76602c82017f01900000000000000000000000000000000000000000000000000000000000009052565b7f012c000000000000000000000000000000000000000000000000000000000000602e8201525f60308201525f60328201525f60348201525f603682015260188152610ec18161078a565b610ec9613826565b6004610ad6826138cd565b60047f233960ab2b329071927607475159fd3c59a30eeef1ccfaa46dd0cd289931429b60405180610b198190601e60206040840193600f81520152565b610f1c610a1a613795565b61103c6040517c140000000000000000000000000000000000000000000000000000000060208201527c280000000000000000000000000000000000000000000000000000000060248201527e6500000000000000000000000000000000000000000000000000000000000060288201527f012c000000000000000000000000000000000000000000000000000000000000602a820152610fdf602c82017f015e0000000000000000000000000000000000000000000000000000000000009052565b7ec8000000000000000000000000000000000000000000000000000000000000602e8201525f60308201525f60328201525f60348201525f6036820152601881526110298161078a565b611031613826565b6005610ad6826138cd565b60057f233960ab2b329071927607475159fd3c59a30eeef1ccfaa46dd0cd289931429b60405180610b198190602860206040840193601481520152565b611084610a1a613795565b6111e36040517c320000000000000000000000000000000000000000000000000000000060208201527c640000000000000000000000000000000000000000000000000000000060248201527e6600000000000000000000000000000000000000000000000000000000000060288201527f0190000000000000000000000000000000000000000000000000000000000000602a820152611147602c82017f015e0000000000000000000000000000000000000000000000000000000000009052565b7f012c000000000000000000000000000000000000000000000000000000000000602e8201527ec800000000000000000000000000000000000000000000000000000000000060308201527ec800000000000000000000000000000000000000000000000000000000000060328201525f60348201525f6036820152601881526111d08161078a565b6111d8613826565b6006610ad6826138cd565b60067f233960ab2b329071927607475159fd3c59a30eeef1ccfaa46dd0cd289931429b60405180610b198190606460206040840193603281520152565b61122b610a1a613795565b61138d6040517c4b0000000000000000000000000000000000000000000000000000000060208201527c960000000000000000000000000000000000000000000000000000000060248201527f015e00000000000000000000000000000000000000000000000000000000000060288201527f0258000000000000000000000000000000000000000000000000000000000000602a8201526112ef602c82017f01900000000000000000000000000000000000000000000000000000000000009052565b7f01f4000000000000000000000000000000000000000000000000000000000000602e8201527f012c00000000000000000000000000000000000000000000000000000000000060308201527f019000000000000000000000000000000000000000000000000000000000000060328201525f60348201525f60368201526018815261137a8161078a565b611382613826565b6007610ad6826138cd565b60077f233960ab2b329071927607475159fd3c59a30eeef1ccfaa46dd0cd289931429b60405180610b198190609660206040840193604b81520152565b6113d5610a1a613795565b6115356040517c3c0000000000000000000000000000000000000000000000000000000060208201527c780000000000000000000000000000000000000000000000000000000060248201527e3c00000000000000000000000000000000000000000000000000000000000060288201527f1388000000000000000000000000000000000000000000000000000000000000602a820152611497602c82017e960000000000000000000000000000000000000000000000000000000000009052565b7f01f4000000000000000000000000000000000000000000000000000000000000602e8201527f012c00000000000000000000000000000000000000000000000000000000000060308201527f012c00000000000000000000000000000000000000000000000000000000000060328201525f60348201525f6036820152601881526115228161078a565b61152a613826565b6008610ad6826138cd565b60087f233960ab2b329071927607475159fd3c59a30eeef1ccfaa46dd0cd289931429b60405180610b198190607860206040840193603c81520152565b60ff909a959a9994999893969197929861158d610a1a613795565b169960098b1080611653575b156115f5577f233960ab2b329071927607475159fd3c59a30eeef1ccfaa46dd0cd289931429b996115d5978a8a8e6115d081610a00565b6138f3565b6040805163ffffffff928316815292909116602083015281908101610b19565b60646040517f08c379a000000000000000000000000000000000000000000000000000000000815260206004820152600e60248201527f496e76616c696420636f6e6669670000000000000000000000000000000000006044820152fd5b5063ffffffff808916908a161015611599565b1561166d57565b60646040517f08c379a000000000000000000000000000000000000000000000000000000000815260206004820152601c60248201527f4661696c656420746f20736574206974656d7320636f6e7472616374000000006044820152fd5b60061115610a0a57565b5f5b8381106116e65750505f910152565b81810151838201526020016116d7565b90606051918281525f5b83811061173d57507fffffffffffffffffffffffffffffffffffffffffffffffffffffffffffffffe0601f845f6020809697860101520116010190565b806020916080015182828501015201611700565b907fffffffffffffffffffffffffffffffffffffffffffffffffffffffffffffffe0601f60209361178d815180928187528780880191016116d5565b0116010190565b9060206117a5928181520190611751565b90565b6117b3610a1a613795565b8051156118b1577f8c0a02dff9954f88356b8da5a21bf106c8a1a27725e91feb68318ee77eeae3e9610b196001926118a56040517f030000000000000000000000000000000000000000000000000000000000000060208201527f010000000000000000000000000000000000000000000000000000000000000060218201525f60228201525f60248201525f60268201525f60288201525f602a8201525f602b8201525f602c8201525f602d8201525f602e820152601081526118768161078a565b61188383518060381b1790565b61188c84614d08565b91611895613826565b8861189f826138cd565b52614bd1565b60405191829182611794565b60646040517f08c379a000000000000000000000000000000000000000000000000000000000815260206004820152600c60248201527f496e76616c6964206974656d00000000000000000000000000000000000000006044820152fd5b61191a610a1a613795565b8051156118b1577f8c0a02dff9954f88356b8da5a21bf106c8a1a27725e91feb68318ee77eeae3e9610b19600a926118a56040517f040000000000000000000000000000000000000000000000000000000000000060208201527f010000000000000000000000000000000000000000000000000000000000000060218201525f60228201525f60248201525f60268201525f60288201525f602a8201525f602b8201525f602c8201525f602d8201525f602e820152601081526118768161078a565b6119e8610a1a613795565b8051156118b1577f8c0a02dff9954f88356b8da5a21bf106c8a1a27725e91feb68318ee77eeae3e9610b19600b926118a56040517f040000000000000000000000000000000000000000000000000000000000000060208201527f010000000000000000000000000000000000000000000000000000000000000060218201525f60228201525f60248201525f60268201525f60288201525f602a8201525f602b8201525f602c8201525f602d820152611ac3602e82017e1e0000000000000000000000000000000000000000000000000000000000009052565b601081526118768161078a565b611adb610a1a613795565b8051156118b1577f8c0a02dff9954f88356b8da5a21bf106c8a1a27725e91feb68318ee77eeae3e9610b196032926118a56040517f020000000000000000000000000000000000000000000000000000000000000060208201525f60218201525f60228201525f60248201525f60268201525f6028820152611b7f602a82017f01000000000000000000000000000000000000000000000000000000000000009052565b5f602b8201525f602c8201525f602d8201525f602e820152601081526118768161078a565b611baf610a1a613795565b8051156118b1577f8c0a02dff9954f88356b8da5a21bf106c8a1a27725e91feb68318ee77eeae3e9610b196033926118a56040517f020000000000000000000000000000000000000000000000000000000000000060208201525f60218201525f60228201525f60248201525f60268201525f60288201525f602a8201525f602b8201525f602c8201525f602d8201525f602e820152601081526118768161078a565b611c5d610a1a613795565b8051156118b1577f8c0a02dff9954f88356b8da5a21bf106c8a1a27725e91feb68318ee77eeae3e9610b196034926118a56040517f020000000000000000000000000000000000000000000000000000000000000060208201527f010000000000000000000000000000000000000000000000000000000000000060218201525f60228201525f60248201525f60268201525f60288201525f602a8201525f602b8201525f602c8201525f602d8201525f602e820152601081526118768161078a565b611d2b610a1a613795565b8051156118b1577f8c0a02dff9954f88356b8da5a21bf106c8a1a27725e91feb68318ee77eeae3e9610b19603c926118a56040517f050000000000000000000000000000000000000000000000000000000000000060208201527f010000000000000000000000000000000000000000000000000000000000000060218201525f60228201525f60248201525f60268201525f60288201525f602a8201525f602b8201525f602c8201525f602d8201525f602e820152601081526118768161078a565b611df9610a1a613795565b8051156118b1577f8c0a02dff9954f88356b8da5a21bf106c8a1a27725e91feb68318ee77eeae3e9610b196064926118a56040515f60208201525f6021820152611e64602282017e040000000000000000000000000000000000000000000000000000000000009052565b7e0500000000000000000000000000000000000000000000000000000000000060248201525f60268201525f6028820152611ec1602a82017f01000000000000000000000000000000000000000000000000000000000000009052565b7f0100000000000000000000000000000000000000000000000000000000000000602b8201525b5f602c8201525f602d8201525f602e820152601081526118768161078a565b611f12610a1a613795565b8051156118b1577f8c0a02dff9954f88356b8da5a21bf106c8a1a27725e91feb68318ee77eeae3e9610b196065926118a56040515f60208201525f6021820152611f7d602282017e0a0000000000000000000000000000000000000000000000000000000000009052565b7e0c00000000000000000000000000000000000000000000000000000000000060248201525f60268201525f6028820152611fda602a82017f0a000000000000000000000000000000000000000000000000000000000000009052565b7f0a00000000000000000000000000000000000000000000000000000000000000602b820152611ee8565b612010610a1a613795565b8051156118b1577f8c0a02dff9954f88356b8da5a21bf106c8a1a27725e91feb68318ee77eeae3e9610b196066926118a56040515f60208201525f602182015261207b602282017e140000000000000000000000000000000000000000000000000000000000009052565b7e1800000000000000000000000000000000000000000000000000000000000060248201525f60268201525f60288201526120d8602a82017f14000000000000000000000000000000000000000000000000000000000000009052565b7f1400000000000000000000000000000000000000000000000000000000000000602b820152611ee8565b61210e610a1a613795565b8051156118b1577f8c0a02dff9954f88356b8da5a21bf106c8a1a27725e91feb68318ee77eeae3e9610b196067926118a56040517f030000000000000000000000000000000000000000000000000000000000000060208201525f60218201525f60228201525f60248201525f60268201525f60288201525f602a8201525f602b8201525f602c8201525f602d8201525f602e820152601081526118768161078a565b6121bc610a1a613795565b8051156118b1577f8c0a02dff9954f88356b8da5a21bf106c8a1a27725e91feb68318ee77eeae3e9610b196068926118a56040517f030000000000000000000000000000000000000000000000000000000000000060208201525f60218201525f60228201525f60248201525f60268201525f60288201525f602a8201525f602b8201525f602c8201525f602d8201525f602e820152601081526118768161078a565b61226a610a1a613795565b8051156118b1577f8c0a02dff9954f88356b8da5a21bf106c8a1a27725e91feb68318ee77eeae3e9610b196069926118a56040517f030000000000000000000000000000000000000000000000000000000000000060208201525f60218201525f60228201525f60248201525f60268201525f60288201525f602a8201525f602b8201525f602c8201525f602d8201525f602e820152601081526118768161078a565b612318610a1a613795565b8051156118b1577f8c0a02dff9954f88356b8da5a21bf106c8a1a27725e91feb68318ee77eeae3e9610b19606a926118a56040517f030000000000000000000000000000000000000000000000000000000000000060208201525f60218201525f60228201525f60248201525f60268201525f60288201525f602a8201525f602b8201525f602c8201525f602d8201525f602e820152601081526118768161078a565b6123c6610a1a613795565b8051156118b1577f8c0a02dff9954f88356b8da5a21bf106c8a1a27725e91feb68318ee77eeae3e9610b19606b926118a56040517f030000000000000000000000000000000000000000000000000000000000000060208201525f60218201525f60228201525f60248201525f60268201525f60288201525f602a8201525f602b8201525f602c8201525f602d8201525f602e820152601081526118768161078a565b612474610a1a613795565b8051156118b1577f8c0a02dff9954f88356b8da5a21bf106c8a1a27725e91feb68318ee77eeae3e9610b19606c926118a56040517f030000000000000000000000000000000000000000000000000000000000000060208201525f60218201525f60228201525f60248201525f60268201525f60288201525f602a8201525f602b8201525f602c8201525f602d8201525f602e820152601081526118768161078a565b612522610a1a613795565b8051156118b1577f8c0a02dff9954f88356b8da5a21bf106c8a1a27725e91feb68318ee77eeae3e9610b19606d926118a56040517f030000000000000000000000000000000000000000000000000000000000000060208201525f60218201525f60228201525f60248201525f60268201525f60288201525f602a8201525f602b8201525f602c8201525f602d8201525f602e820152601081526118768161078a565b6125d0610a1a613795565b8051156118b1577f8c0a02dff9954f88356b8da5a21bf106c8a1a27725e91feb68318ee77eeae3e9610b19606e926118a56040517f030000000000000000000000000000000000000000000000000000000000000060208201525f60218201525f60228201525f60248201525f60268201525f60288201525f602a8201525f602b8201525f602c8201525f602d8201525f602e820152601081526118768161078a565b61267e610a1a613795565b8051156118b1577f8c0a02dff9954f88356b8da5a21bf106c8a1a27725e91feb68318ee77eeae3e9610b19606f926118a56040517f030000000000000000000000000000000000000000000000000000000000000060208201525f60218201525f60228201525f60248201525f60268201525f60288201525f602a8201525f602b8201525f602c8201525f602d8201525f602e820152601081526118768161078a565b61272c610a1a613795565b8051156118b1577f8c0a02dff9954f88356b8da5a21bf106c8a1a27725e91feb68318ee77eeae3e9610b196070926118a56040517f030000000000000000000000000000000000000000000000000000000000000060208201525f60218201525f60228201525f60248201525f60268201525f60288201525f602a8201525f602b8201525f602c8201525f602d8201525f602e820152601081526118768161078a565b6127da610a1a613795565b8051156118b1577f8c0a02dff9954f88356b8da5a21bf106c8a1a27725e91feb68318ee77eeae3e9610b196071926118a56040517f030000000000000000000000000000000000000000000000000000000000000060208201525f60218201525f60228201525f60248201525f60268201525f60288201525f602a8201525f602b8201525f602c8201525f602d8201525f602e820152601081526118768161078a565b612888610a1a613795565b8051156118b1577f8c0a02dff9954f88356b8da5a21bf106c8a1a27725e91feb68318ee77eeae3e9610b196072926118a56040517f030000000000000000000000000000000000000000000000000000000000000060208201525f60218201525f60228201525f60248201525f60268201525f60288201525f602a8201525f602b8201525f602c8201525f602d8201525f602e820152601081526118768161078a565b612936610a1a613795565b8051156118b1577f8c0a02dff9954f88356b8da5a21bf106c8a1a27725e91feb68318ee77eeae3e9610b196073926118a56040517f030000000000000000000000000000000000000000000000000000000000000060208201525f60218201525f60228201525f60248201525f60268201525f60288201525f602a8201525f602b8201525f602c8201525f602d8201525f602e820152601081526118768161078a565b6129e4610a1a613795565b8051156118b1577f8c0a02dff9954f88356b8da5a21bf106c8a1a27725e91feb68318ee77eeae3e9610b196074926118a56040517f030000000000000000000000000000000000000000000000000000000000000060208201525f60218201525f60228201525f60248201525f60268201525f60288201525f602a8201525f602b8201525f602c8201525f602d8201525f602e820152601081526118768161078a565b612a92610a1a613795565b8051156118b1577f8c0a02dff9954f88356b8da5a21bf106c8a1a27725e91feb68318ee77eeae3e9610b196075926118a56040517f030000000000000000000000000000000000000000000000000000000000000060208201525f60218201525f60228201525f60248201525f60268201525f60288201525f602a8201525f602b8201525f602c8201525f602d8201525f602e820152601081526118768161078a565b612b40610a1a613795565b8051156118b1577f8c0a02dff9954f88356b8da5a21bf106c8a1a27725e91feb68318ee77eeae3e9610b196076926118a56040517f030000000000000000000000000000000000000000000000000000000000000060208201525f60218201525f60228201525f60248201525f60268201525f60288201525f602a8201525f602b8201525f602c8201525f602d8201525f602e820152601081526118768161078a565b612bee610a1a613795565b8051156118b1577f8c0a02dff9954f88356b8da5a21bf106c8a1a27725e91feb68318ee77eeae3e9610b196077926118a56040517f030000000000000000000000000000000000000000000000000000000000000060208201525f60218201525f60228201525f60248201525f60268201525f60288201525f602a8201525f602b8201525f602c8201525f602d8201525f602e820152601081526118768161078a565b612c9c610a1a613795565b8051156118b1577f8c0a02dff9954f88356b8da5a21bf106c8a1a27725e91feb68318ee77eeae3e9610b196078926118a56040517f030000000000000000000000000000000000000000000000000000000000000060208201525f60218201525f60228201525f60248201525f60268201525f60288201525f602a8201525f602b8201525f602c8201525f602d8201525f602e820152601081526118768161078a565b612d4a610a1a613795565b8051156118b1577f8c0a02dff9954f88356b8da5a21bf106c8a1a27725e91feb68318ee77eeae3e9610b196079926118a56040517f030000000000000000000000000000000000000000000000000000000000000060208201525f60218201525f60228201525f60248201525f60268201525f60288201525f602a8201525f602b8201525f602c8201525f602d8201525f602e820152601081526118768161078a565b612df8610a1a613795565b8051156118b1577f8c0a02dff9954f88356b8da5a21bf106c8a1a27725e91feb68318ee77eeae3e9610b19607a926118a56040517f030000000000000000000000000000000000000000000000000000000000000060208201525f60218201525f60228201525f60248201525f60268201525f60288201525f602a8201525f602b8201525f602c8201525f602d8201525f602e820152601081526118768161078a565b612ea6610a1a613795565b8051156118b1577f8c0a02dff9954f88356b8da5a21bf106c8a1a27725e91feb68318ee77eeae3e9610b19607b926118a56040517f030000000000000000000000000000000000000000000000000000000000000060208201525f60218201525f60228201525f60248201525f60268201525f60288201525f602a8201525f602b8201525f602c8201525f602d8201525f602e820152601081526118768161078a565b612f54610a1a613795565b8051156118b1577f8c0a02dff9954f88356b8da5a21bf106c8a1a27725e91feb68318ee77eeae3e9610b19607c926118a56040517f030000000000000000000000000000000000000000000000000000000000000060208201525f60218201525f60228201525f60248201525f60268201525f60288201525f602a8201525f602b8201525f602c8201525f602d8201525f602e820152601081526118768161078a565b613002610a1a613795565b8051156118b1577f8c0a02dff9954f88356b8da5a21bf106c8a1a27725e91feb68318ee77eeae3e9610b19607d926118a56040517f030000000000000000000000000000000000000000000000000000000000000060208201525f60218201525f60228201525f60248201525f60268201525f60288201525f602a8201525f602b8201525f602c8201525f602d8201525f602e820152601081526118768161078a565b6130b0610a1a613795565b8051156118b1577f8c0a02dff9954f88356b8da5a21bf106c8a1a27725e91feb68318ee77eeae3e9610b19607e926118a56040517f030000000000000000000000000000000000000000000000000000000000000060208201525f60218201525f60228201525f60248201525f60268201525f60288201525f602a8201525f602b8201525f602c8201525f602d8201525f602e820152601081526118768161078a565b61315e610a1a613795565b8051156118b1577f8c0a02dff9954f88356b8da5a21bf106c8a1a27725e91feb68318ee77eeae3e9610b19607f926118a56040517f030000000000000000000000000000000000000000000000000000000000000060208201525f60218201525f60228201525f60248201525f60268201525f60288201525f602a8201525f602b8201525f602c8201525f602d8201525f602e820152601081526118768161078a565b61320c610a1a613795565b8051156118b1577f8c0a02dff9954f88356b8da5a21bf106c8a1a27725e91feb68318ee77eeae3e9610b196096926118a56040515f60208201525f60218201525f60228201525f60248201525f6026820152613289602882017e080000000000000000000000000000000000000000000000000000000000009052565b5f602a8201525f602b8201525f602c8201526132c7602d82017f01000000000000000000000000000000000000000000000000000000000000009052565b5f602e820152601081526118768161078a565b6132e5610a1a613795565b8051156118b1577f8c0a02dff9954f88356b8da5a21bf106c8a1a27725e91feb68318ee77eeae3e9610b1960c8926118a56040515f60208201525f60218201525f60228201525f602482015261335c602682017e080000000000000000000000000000000000000000000000000000000000009052565b5f60288201525f602a8201525f602b82015261339a602c82017f01000000000000000000000000000000000000000000000000000000000000009052565b5f602d8201525f602e820152601081526118768161078a565b6133be610a1a613795565b8051156118b1577f8c0a02dff9954f88356b8da5a21bf106c8a1a27725e91feb68318ee77eeae3e9610b19604051927f010000000000000000000000000000000000000000000000000000000000000060208501525f60218501525f60228501525f6024850152613450602685017e020000000000000000000000000000000000000000000000000000000000009052565b5f60288501525f602a8501525f602b85015261348e602c85017f01000000000000000000000000000000000000000000000000000000000000009052565b5f602d8501525f602e850152601084526134a78461078a565b6118a56134b782518060381b1790565b6134c083614d08565b906134c9613826565b9661012c978861189f826138cd565b6134e3610a1a613795565b8051156118b1577f8c0a02dff9954f88356b8da5a21bf106c8a1a27725e91feb68318ee77eeae3e9610b19604051927f010000000000000000000000000000000000000000000000000000000000000060208501525f60218501525f60228501525f6024850152613575602685017e040000000000000000000000000000000000000000000000000000000000009052565b5f60288501525f602a8501525f602b8501526135b3602c85017f01000000000000000000000000000000000000000000000000000000000000009052565b5f602d8501525f602e850152601084526135cc8461078a565b6118a56135dc82518060381b1790565b6135e583614d08565b906135ee613826565b9661015e978861189f826138cd565b613608610a1a613795565b8051156118b1577f8c0a02dff9954f88356b8da5a21bf106c8a1a27725e91feb68318ee77eeae3e9610b19604051927f010000000000000000000000000000000000000000000000000000000000000060208501525f60218501525f60228501525f602485015261369a602685017e020000000000000000000000000000000000000000000000000000000000009052565b5f60288501525f602a8501525f602b8501526136d8602c85017f01000000000000000000000000000000000000000000000000000000000000009052565b5f602d8501525f602e850152601084526136f18461078a565b6118a561370182518060381b1790565b61370a83614d08565b90613713613826565b96610190978861189f826138cd565b97919690989299939a949b95613739610a1a613795565b61ffff89169c8d15158061378b575b156118b1577f8c0a02dff9954f88356b8da5a21bf106c8a1a27725e91feb68318ee77eeae3e99c610b199c6118a59b60ff8e9c1690613786826116cb565b614772565b508a511515613748565b7fffffffffffffffffffffffffffffffffffffffffffffffffffffffffffffffcc36013560601c9081156137c557565b339150565b604051906080820182811067ffffffffffffffff821117610769576040525f6060838281528260208201528260408201520152565b6040516020810181811067ffffffffffffffff821117610769576040525f8152905f368137565b604051906138338261078a565b6001825260203681840137565b6138486137ca565b506138596138546137ff565b6149d0565b50506138636137ca565b90602081015190602181015160f81c906023602282015160f81c91015160601c6060850152151560408401521515602083015260f81c1515815290565b7f4e487b71000000000000000000000000000000000000000000000000000000005f52603260045260245ffd5b8051156138da5760200190565b6138a0565b80518210156138da5760209160051b010190565b9997959390989694929198604051997fffffffff00000000000000000000000000000000000000000000000000000000809260e01b1660208c015260e01b1660248a01527fffff000000000000000000000000000000000000000000000000000000000000809260f01b1660288a015260f01b16602a880152602c870161399e917fffff0000000000000000000000000000000000000000000000000000000000009060f01b169052565b60f01b7fffff00000000000000000000000000000000000000000000000000000000000016602e86015260f01b7fffff00000000000000000000000000000000000000000000000000000000000016603085015260f01b7fffff00000000000000000000000000000000000000000000000000000000000016603284015260f01b7fffff00000000000000000000000000000000000000000000000000000000000016603483015260f01b7fffff00000000000000000000000000000000000000000000000000000000000016603682015260188152613a7d8161078a565b613a85613826565b91613a8f81610a00565b60ff16613a9b836138cd565b52613aa591614ad9565b565b60405190613ab48261078a565b600482527f4c6f6773000000000000000000000000000000000000000000000000000000006020830152565b60405190613aed8261078a565b600a82527f52617720536872696d70000000000000000000000000000000000000000000006020830152565b60405190613b268261078a565b600d82527f436f6f6b656420536872696d70000000000000000000000000000000000000006020830152565b60405190613b5f8261078a565b600e82527f42726f6e7a6520486174636865740000000000000000000000000000000000006020830152565b60405190613b988261078a565b600b82527f46697368696e6720526f640000000000000000000000000000000000000000006020830152565b60405190613bd18261078a565b600982527f54696e646572626f7800000000000000000000000000000000000000000000006020830152565b60405190613c0a8261078a565b600682527f4172726f777300000000000000000000000000000000000000000000000000006020830152565b60405190613c438261078a565b600c82527f42726f6e7a652053776f726400000000000000000000000000000000000000006020830152565b60405190613c7c8261078a565b600b82527f537465656c2053776f72640000000000000000000000000000000000000000006020830152565b60405190613cb58261078a565b600d82527f4d69746872696c2053776f7264000000000000000000000000000000000000006020830152565b60405190613cee8261078a565b600782527f4974656d313033000000000000000000000000000000000000000000000000006020830152565b60405190613d278261078a565b600782527f4974656d313034000000000000000000000000000000000000000000000000006020830152565b60405190613d608261078a565b600782527f4974656d313035000000000000000000000000000000000000000000000000006020830152565b60405190613d998261078a565b600782527f4974656d313036000000000000000000000000000000000000000000000000006020830152565b60405190613dd28261078a565b600782527f4974656d313037000000000000000000000000000000000000000000000000006020830152565b60405190613e0b8261078a565b600782527f4974656d313038000000000000000000000000000000000000000000000000006020830152565b60405190613e448261078a565b600782527f4974656d313039000000000000000000000000000000000000000000000000006020830152565b60405190613e7d8261078a565b600782527f4974656d313130000000000000000000000000000000000000000000000000006020830152565b60405190613eb68261078a565b600782527f4974656d313131000000000000000000000000000000000000000000000000006020830152565b60405190613eef8261078a565b600782527f4974656d313132000000000000000000000000000000000000000000000000006020830152565b60405190613f288261078a565b600782527f4974656d313133000000000000000000000000000000000000000000000000006020830152565b60405190613f618261078a565b600782527f4974656d313134000000000000000000000000000000000000000000000000006020830152565b60405190613f9a8261078a565b600782527f4974656d313135000000000000000000000000000000000000000000000000006020830152565b60405190613fd38261078a565b600782527f4974656d313136000000000000000000000000000000000000000000000000006020830152565b6040519061400c8261078a565b600782527f4974656d313137000000000000000000000000000000000000000000000000006020830152565b604051906140458261078a565b600782527f4974656d313138000000000000000000000000000000000000000000000000006020830152565b6040519061407e8261078a565b600782527f4974656d313139000000000000000000000000000000000000000000000000006020830152565b604051906140b78261078a565b600782527f4974656d313230000000000000000000000000000000000000000000000000006020830152565b604051906140f08261078a565b600782527f4974656d313231000000000000000000000000000000000000000000000000006020830152565b604051906141298261078a565b600782527f4974656d313232000000000000000000000000000000000000000000000000006020830152565b604051906141628261078a565b600782527f4974656d313233000000000000000000000000000000000000000000000000006020830152565b6040519061419b8261078a565b600782527f4974656d313234000000000000000000000000000000000000000000000000006020830152565b604051906141d48261078a565b600782527f4974656d313235000000000000000000000000000000000000000000000000006020830152565b6040519061420d8261078a565b600782527f4974656d313236000000000000000000000000000000000000000000000000006020830152565b604051906142468261078a565b600782527f4974656d313237000000000000000000000000000000000000000000000000006020830152565b6040519061427f8261078a565b600882527f576f6f6420426f770000000000000000000000000000000000000000000000006020830152565b604051906142b88261078a565b600d82527f42726f6e7a6520536869656c64000000000000000000000000000000000000006020830152565b604051906142f18261078a565b600e82527f4c6561746865722048656c6d65740000000000000000000000000000000000006020830152565b6040519061432a8261078a565b600c82527f4c65617468657220426f647900000000000000000000000000000000000000006020830152565b604051906143638261078a565b600c82527f4c656174686572204c65677300000000000000000000000000000000000000006020830152565b61439f61439a613aa7565b6117a8565b6143af6143aa613ae0565b61190f565b6143bf6143ba613b19565b6119dd565b6143cf6143ca613b52565b611ad0565b6143df6143da613b8b565b611ba4565b6143ef6143ea613bc4565b611c52565b6143ff6143fa613bfd565b611d20565b61440f61440a613c36565b611dee565b61441f61441a613c6f565b611f07565b61442f61442a613ca8565b612005565b61443f61443a613ce1565b612103565b61444f61444a613d1a565b6121b1565b61445f61445a613d53565b61225f565b61446f61446a613d8c565b61230d565b61447f61447a613dc5565b6123bb565b61448f61448a613dfe565b612469565b61449f61449a613e37565b612517565b6144af6144aa613e70565b6125c5565b6144bf6144ba613ea9565b612673565b6144cf6144ca613ee2565b612721565b6144df6144da613f1b565b6127cf565b6144ef6144ea613f54565b61287d565b6144ff6144fa613f8d565b61292b565b61450f61450a613fc6565b6129d9565b61451f61451a613fff565b612a87565b61452f61452a614038565b612b35565b61453f61453a614071565b612be3565b61454f61454a6140aa565b612c91565b61455f61455a6140e3565b612d3f565b61456f61456a61411c565b612ded565b61457f61457a614155565b612e9b565b61458f61458a61418e565b612f49565b61459f61459a6141c7565b612ff7565b6145af6145aa614200565b6130a5565b6145bf6145ba614239565b613153565b6145cf6145ca614272565b613201565b6145df6145da6142ab565b6132da565b6145ef6145ea6142e4565b6133b3565b6145ff6145fa61431d565b6134d8565b613aa561460a614356565b6135fd565b61461a610a1a613795565b6146f36040517c010000000000000000000000000000000000000000000000000000000060208201527c050000000000000000000000000000000000000000000000000000000060248201527e6400000000000000000000000000000000000000000000000000000000000060288201527e32000000000000000000000000000000000000000000000000000000000000602a8201525f602c8201525f602e8201525f60308201525f60328201525f60348201525f6036820152601881526146e18161078a565b6146e9613826565b5f610ad6826138cd565b5f7f233960ab2b329071927607475159fd3c59a30eeef1ccfaa46dd0cd289931429b6040518061472f8190600560206040840193600181520152565b0390a261473a610a0f565b614742610b1e565b61474a610c41565b614752610da7565b61475a610f11565b614762611079565b61476a611220565b613aa56113ca565b9a969892919b9994939b97909597604051996006881015610a0a576147f16148cd9a613aa59f6148759860268f6147de6147e7946148a19f6148499c61481d9b6147d49260f81b6020870152151560f81b6021860152602285019060f01b9052565b60f01b6024830152565b019060f01b9052565b60f01b60288d0152565b60f81b7fff0000000000000000000000000000000000000000000000000000000000000016602a8b0152565b60f81b7fff0000000000000000000000000000000000000000000000000000000000000016602b890152565b60f81b7fff0000000000000000000000000000000000000000000000000000000000000016602c870152565b60f81b7fff0000000000000000000000000000000000000000000000000000000000000016602d850152565b60f01b7fffff00000000000000000000000000000000000000000000000000000000000016602e830152565b601081526148da8161078a565b6148f06148ea83518060381b1790565b92614d08565b9261ffff6148fc613826565b911661189f826138cd565b81601f8201121561015157805161491d816107e7565b9261492b60405194856107a6565b81845260208284010111610151576117a591602080850191016116d5565b90916060828403126101515781519167ffffffffffffffff928381116101515784614975918301614907565b936020820151936040830151908111610151576117a59201614907565b9081518082526020808093019301915f5b8281106149b1575050505090565b8351855293810193928101926001016149a3565b6040513d5f823e3d90fd5b73ffffffffffffffffffffffffffffffffffffffff6149ed614cc6565b16308103614a0657506149ff90614d6b565b9192909190565b614a6f92915f9160405180809681947f419b58fd0000000000000000000000000000000000000000000000000000000083527f74626879706572736361706500000000576f726c64436f6e66696700000000006004840152606060248401526064830190614992565b7e17040001010114000000000000000000000000000000000000000000000000604483015203915afa90811561068d575f80935f93614aaf575b50929190565b91935050614acf91503d805f833e614ac781836107a6565b810190614949565b929092915f614aa9565b73ffffffffffffffffffffffffffffffffffffffff614af6614cc6565b16308103614b09575090613aa5916150ec565b90813b15610151575f91614b828361064a93614bb3604051978896879586947f298314fb0000000000000000000000000000000000000000000000000000000086527f746268797065727363617065000000004d6f624c6f6f745461626c6500000000600487015260a0602487015260a4860190614992565b7ffffffffffffffffffffffffffffffffffffffffffffffffffffffffffffffffc9283868303016044870152611751565b03925af1801561068d57614bc45750565b80610681613aa592610755565b9291909273ffffffffffffffffffffffffffffffffffffffff614bf2614cc6565b16308103614c05575092613aa593615352565b909192813b15610151575f614cb293614bb38296614c8194604051998a98899788967f298314fb0000000000000000000000000000000000000000000000000000000088527f746268797065727363617065000000004974656d4d6574616461746100000000600489015260a0602489015260a4880190614992565b7ffffffffffffffffffffffffffffffffffffffffffffffffffffffffffffffffc9283888303016044890152611751565b926064860152848303016084850152611751565b7f629a4c26e296b22a8e0856e9f6ecb2d1008d7e00081111962cd175fa7488e1755473ffffffffffffffffffffffffffffffffffffffff16806117a557503390565b6117a5602060405183614d2482955180928580860191016116d5565b81010380845201826107a6565b91908201809211614d3e57565b7f4e487b71000000000000000000000000000000000000000000000000000000005f52601160045260245ffd5b5f90614d78606091615a29565b604051906020907fffffffffffffffffffffffffffffffffffffffffffffffffffffffffffffffe090816056850116604052601784526020840192601791925b81831015614e0957505080614dce575b50505092565b7fffffffffffffffffffffffffffffffffffffffffffffffffffffffffffffffff9060031b1c908183511691199054161790525f8080614dc8565b81600185839495979654875201940194019190614db8565b604092835192602084017f746273746f72650000000000000000005461626c65730000000000000000000081527f74626879706572736361706500000000576f726c64436f6e6669670000000000948587820152868152614e818161076e565b5190207f86425bff6b57326c7859e89024fe4f238ca327a1ae4a230180dd2f0e88aaa7d9185491614eb0615b9c565b905f5b8251811015614fa257614f17614ef2614ecc83866138df565b517fffffffffffffffffffffffffffffffffffffffffff00000000000000000000001690565b7fffffffffffffffffffffffffffffffffffffffffff00000000000000000000001690565b6001808260581c1614614f2e575b50600101614eb3565b60601c90813b156101515788517f57066c9c000000000000000000000000000000000000000000000000000000008152915f908390818381614f758c8c8f60048501615915565b03925af191821561068d57600192614f8f575b5090614f25565b80610681614f9c92610755565b5f614f88565b50947f8dbb3a9672eebfd3773e72dd9c102393436816d832c7ba9e1e1ac8fcadcac7a9875180614fd38689836158ab565b0390a2614fee614fe285615a29565b83516020850191615f65565b60ff808460e01c16806150ad575b50505f5b81518110156150a457615019614ef2614ecc83856138df565b6002808260581c1614615030575b50600101615000565b60601c90813b156101515787517f5b28cdaf000000000000000000000000000000000000000000000000000000008152915f9083908183816150778b8b8e60048501615915565b03925af191821561068d57600192615091575b5090615027565b8061068161509e92610755565b5f61508a565b50505050509050565b5f6150b787615b35565b555f60805b82848316106150cc575050614ffc565b6001816150e386936150de868d615767565b615ee5565b920116906150bc565b604092835192602084017f746273746f72650000000000000000005461626c65730000000000000000000081527f746268797065727363617065000000004d6f624c6f6f745461626c650000000094858782015286815261514c8161076e565b5190207f86425bff6b57326c7859e89024fe4f238ca327a1ae4a230180dd2f0e88aaa7d918549161517b615d09565b905f5b825181101561522257615197614ef2614ecc83866138df565b6001808260581c16146151ae575b5060010161517e565b60601c90813b156101515788517f57066c9c000000000000000000000000000000000000000000000000000000008152915f9083908183816151f58c8c8f6004850161597f565b03925af191821561068d5760019261520f575b50906151a5565b8061068161521c92610755565b5f615208565b50947f8dbb3a9672eebfd3773e72dd9c102393436816d832c7ba9e1e1ac8fcadcac7a98751806152538689836158ab565b0390a2615262614fe285615a66565b60ff808460e01c1680615318575b50505f5b81518110156150a45761528d614ef2614ecc83856138df565b6002808260581c16146152a4575b50600101615274565b60601c90813b156101515787517f5b28cdaf000000000000000000000000000000000000000000000000000000008152915f9083908183816152eb8b8b8e6004850161597f565b03925af191821561068d57600192615305575b509061529b565b8061068161531292610755565b5f6152fe565b5f61532287615b72565b555f60805b8284831610615337575050615270565b60018161534986936150de868d6157f9565b92011690615327565b939293919091604092835194602086017f746273746f72650000000000000000005461626c65730000000000000000000081527f746268797065727363617065000000004974656d4d65746164617461000000009687878201528681526153b88161076e565b5190207f86425bff6b57326c7859e89024fe4f238ca327a1ae4a230180dd2f0e88aaa7d91854906153e7615df7565b905f5b825181101561549357615403614ef2614ecc83866138df565b6001808260581c161461541a575b506001016153ea565b60601c90813b15610151575f888c9388838b6154668f8c9051998a97889687957f57066c9c000000000000000000000000000000000000000000000000000000008752600487016159c3565b03925af191821561068d57600192615480575b5090615411565b8061068161548d92610755565b5f615479565b50967f8dbb3a9672eebfd3773e72dd9c102393436816d832c7ba9e1e1ac8fcadcac7a98751806154c68c8a898b856158e7565b0390a26154e16154d585615a7b565b84516020860191615f65565b60ff808360e01c16806155a6575b50505f5b815181101561559b5761550c614ef2614ecc83856138df565b6002808260581c1614615523575b506001016154f3565b60601c90813b15610151575f878b9387838a61556e8a8f51998a97889687957f5b28cdaf000000000000000000000000000000000000000000000000000000008752600487016159c3565b03925af191821561068d57600192615588575b509061551a565b8061068161559592610755565b5f615581565b505050505050509050565b96909892959493856155ba869a949a615b87565b555f96602085015b8b8916908a82101561560c576156038d92826155fe60019464ffffffffff8f8f908f906155ee91615852565b956028026038011c168094615f65565b614d31565b990116976155c2565b5050939950939495509550955f806154ef565b7f746273746f726500000000000000000053746f7265486f6f6b73000000000000815281516020918201928201915f5b82811061565d575050505090565b83518552938101939281019260010161564f565b7f74626879706572736361706500000000576f726c64436f6e6669670000000000815281516020918201928201915f5b8281106156af575050505090565b8351855293810193928101926001016156a1565b7f746268797065727363617065000000004d6f624c6f6f745461626c6500000000815281516020918201928201915f5b828110615701575050505090565b8351855293810193928101926001016156f3565b7f746268797065727363617065000000004974656d4d6574616461746100000000815281516020918201928201915f5b828110615753575050505090565b835185529381019392810192600101615745565b907fff000000000000000000000000000000000000000000000000000000000000007f3b4102da22e32d82fc925482184f16c09fd4281692720b87d124aef6da48a0f1926040516157ec816157c0602082019485615671565b037fffffffffffffffffffffffffffffffffffffffffffffffffffffffffffffffe081018352826107a6565b5190209160f81b16181890565b907fff000000000000000000000000000000000000000000000000000000000000007f3b4102da22e32d82fc925482184f16c09fd4281692720b87d124aef6da48a0f1926040516157ec816157c06020820194856156c3565b907fff000000000000000000000000000000000000000000000000000000000000007f3b4102da22e32d82fc925482184f16c09fd4281692720b87d124aef6da48a0f1926040516157ec816157c0602082019485615715565b906117a5926158c56158d392608085526080850190614992565b908382036020850152611751565b905f604082015260608183039101526116f6565b906117a594926158c561590292608085526080850190614992565b9260408201526060818403910152611751565b93929161596761597a9161595960a0947f74626879706572736361706500000000576f726c64436f6e6669670000000000895260c060208a015260c0890190614992565b908782036040890152611751565b5f606087015285810360808701526116f6565b930152565b93929161596761597a9161595960a0947f746268797065727363617065000000004d6f624c6f6f745461626c6500000000895260c060208a015260c0890190614992565b959493615a1661597a93615a0860a096947f746268797065727363617065000000004974656d4d65746164617461000000008b5260c060208c015260c08b0190614992565b9089820360408b0152611751565b9160608801528682036080880152611751565b604051615a3e816157c0602082019485615671565b5190207f86425bff6b57326c7859e89024fe4f238ca327a1ae4a230180dd2f0e88aaa7d91890565b604051615a3e816157c06020820194856156c3565b604051615a3e816157c0602082019485615715565b604080517fffffffffffffffffffffffffffffffffffffffffffffffffffffffffffffffe0603f85830101811690925283815292602080850193925b81831015615b1d57505080615ae2575b50505090565b7fffffffffffffffffffffffffffffffffffffffffffffffffffffffffffffffff9060031b1c908183511691199054161790525f8080615adc565b81600185839495979654875201940194019190615acc565b604051615b4a816157c0602082019485615671565b5190207f14e2fcc58e58e68ec7edc30c8d50dccc3ce2714a623ec81f46b6a63922d765691890565b604051615b4a816157c06020820194856156c3565b604051615b4a816157c0602082019485615715565b615ba4613826565b908151156138da576020808301927f74626879706572736361706500000000576f726c64436f6e66696700000000008452604051908282017f746273746f726500000000000000000053746f7265486f6f6b7300000000000081526040830182519096905f5b818110615cf55750505082917f3b4102da22e32d82fc925482184f16c09fd4281692720b87d124aef6da48a0f1615ccf92615cd5956117a598990394615c767fffffffffffffffffffffffffffffffffffffffffffffffffffffffffffffffe0968781018352826107a6565b5190201892615c9c6040519182615c90898201958661561f565b039081018352826107a6565b5190207f14e2fcc58e58e68ec7edc30c8d50dccc3ce2714a623ec81f46b6a63922d76569185460381c64ffffffffff1690565b90615a90565b906fffffffffffffffffffffffffffffffff825116910160801b17615fa4565b825189529786019791860191600101615c0a565b615d11613826565b908151156138da576020808301927f746268797065727363617065000000004d6f624c6f6f745461626c65000000008452604051908282017f746273746f726500000000000000000053746f7265486f6f6b7300000000000081526040830182519096905f5b818110615de35750505082917f3b4102da22e32d82fc925482184f16c09fd4281692720b87d124aef6da48a0f1615ccf92615cd5956117a598990394615c767fffffffffffffffffffffffffffffffffffffffffffffffffffffffffffffffe0968781018352826107a6565b825189529786019791860191600101615d77565b615dff613826565b908151156138da576020808301927f746268797065727363617065000000004974656d4d65746164617461000000008452604051908282017f746273746f726500000000000000000053746f7265486f6f6b7300000000000081526040830182519096905f5b818110615ed15750505082917f3b4102da22e32d82fc925482184f16c09fd4281692720b87d124aef6da48a0f1615ccf92615cd5956117a598990394615c767fffffffffffffffffffffffffffffffffffffffffffffffffffffffffffffffe0968781018352826107a6565b825189529786019791860191600101615e65565b905f5b6020808210615f2557600183947fffffffffffffffffffffffffffffffffffffffffffffffffffffffffffffffe093945181550193019101615ee8565b5080615f3057505050565b7fffffffffffffffffffffffffffffffffffffffffffffffffffffffffffffffff9060031b1c90818354169119905116179055565b91906020808210615f2557600183947fffffffffffffffffffffffffffffffffffffffffffffffffffffffffffffffe093945181550193019101615ee8565b8060801c9060156fffffffffffffffffffffffffffffffff81921604604051926020906020850160208460051b8701016040528386525f5b848110615fec5750505050505090565b825182529185019190830190600101615fdc56fea2646970667358221220b4e688bc82bf337f36bd9b8984324a0d7f0c0e2273be5c65ca914a3d06e48c1464736f6c63430008180033","linkReferences":{}},"methodIdentifiers":{"_msgSender()":"119df25f","_msgValue()":"45ec9354","_world()":"e1af802c","createItem(uint16,string,uint8,bool,int16,int16,int16,int16,uint8,uint8,uint8,uint8,uint16)":"fa6e7d2b","initialize()":"8129fc1c","setItemsContractAddress(address)":"6eba8784","setLootTable(uint8,uint32,uint32,uint16,uint16,uint16,uint16,uint16,uint16,uint16,uint16)":"205f94e4","supportsInterface(bytes4)":"01ffc9a7"},"id":87}