{"abi":[{"type":"function","name":"_msgSender","inputs":[],"outputs":[{"name":"sender","type":"address","internalType":"address"}],"stateMutability":"view"},{"type":"function","name":"_msgValue","inputs":[],"outputs":[{"name":"value","type":"uint256","internalType":"uint256"}],"stateMutability":"view"},{"type":"function","name":"_world","inputs":[],"outputs":[{"name":"","type":"address","internalType":"address"}],"stateMutability":"view"},{"type":"function","name":"chopTree","inputs":[{"name":"resourceId","type":"bytes32","internalType":"bytes32"}],"outputs":[{"name":"success","type":"bool","internalType":"bool"},{"name":"itemId","type":"uint16","internalType":"uint16"}],"stateMutability":"nonpayable"},{"type":"function","name":"fish","inputs":[{"name":"resourceId","type":"bytes32","internalType":"bytes32"}],"outputs":[{"name":"success","type":"bool","internalType":"bool"},{"name":"itemId","type":"uint16","internalType":"uint16"}],"stateMutability":"nonpayable"},{"type":"function","name":"lightFire","inputs":[{"name":"resourceId","type":"bytes32","internalType":"bytes32"}],"outputs":[{"name":"success","type":"bool","internalType":"bool"}],"stateMutability":"nonpayable"},{"type":"function","name":"spawnResource","inputs":[{"name":"resourceType","type":"uint8","internalType":"uint8"},{"name":"x","type":"int32","internalType":"int32"},{"name":"y","type":"int32","internalType":"int32"},{"name":"z","type":"int32","internalType":"int32"}],"outputs":[{"name":"","type":"bytes32","internalType":"bytes32"}],"stateMutability":"nonpayable"},{"type":"function","name":"supportsInterface","inputs":[{"name":"interfaceId","type":"bytes4","internalType":"bytes4"}],"outputs":[{"name":"","type":"bool","internalType":"bool"}],"stateMutability":"pure"},{"type":"event","name":"ResourceDepleted","inputs":[{"name":"resourceId","type":"bytes32","indexed":true,"internalType":"bytes32"}],"anonymous":false},{"type":"event","name":"ResourceHarvested","inputs":[{"name":"player","type":"address","indexed":true,"internalType":"address"},{"name":"resourceId","type":"bytes32","indexed":true,"internalType":"bytes32"},{"name":"itemId","type":"uint16","indexed":false,"internalType":"uint16"}],"anonymous":false},{"type":"event","name":"ResourceSpawned","inputs":[{"name":"resourceId","type":"bytes32","indexed":true,"internalType":"bytes32"},{"name":"resourceType","type":"uint8","indexed":false,"internalType":"uint8"},{"name":"x","type":"int32","indexed":false,"internalType":"int32"},{"name":"y","type":"int32","indexed":false,"internalType":"int32"},{"name":"z","type":"int32","indexed":false,"internalType":"int32"}],"anonymous":false},{"type":"event","name":"Store_SetRecord","inputs":[{"name":"tableId","type":"bytes32","indexed":true,"internalType":"ResourceId"},{"name":"keyTuple","type":"bytes32[]","indexed":false,"internalType":"bytes32[]"},{"name":"staticData","type":"bytes","indexed":false,"internalType":"bytes"},{"name":"encodedLengths","type":"bytes32","indexed":false,"internalType":"EncodedLengths"},{"name":"dynamicData","type":"bytes","indexed":false,"internalType":"bytes"}],"anonymous":false},{"type":"event","name":"Store_SpliceStaticData","inputs":[{"name":"tableId","type":"bytes32","indexed":true,"internalType":"ResourceId"},{"name":"keyTuple","type":"bytes32[]","indexed":false,"internalType":"bytes32[]"},{"name":"start","type":"uint48","indexed":false,"internalType":"uint48"},{"name":"data","type":"bytes","indexed":false,"internalType":"bytes"}],"anonymous":false},{"type":"error","name":"Slice_OutOfBounds","inputs":[{"name":"data","type":"bytes","internalType":"bytes"},{"name":"start","type":"uint256","internalType":"uint256"},{"name":"end","type":"uint256","internalType":"uint256"}]}],"bytecode":{"object":"0x608080604052346100165761500f908161001b8239f35b5f80fdfe60806040526004361015610011575f80fd5b5f3560e01c806301ffc9a714610094578063119df25f1461008f578063160916961461008a57806345ec93541461008557806389f7246914610080578063ba9aec7e1461007b578063cc728d56146100765763e1af802c14610071575f80fd5b6107de565b6106d9565b6104f5565b610363565b610308565b6101e5565b61015f565b346101515760207ffffffffffffffffffffffffffffffffffffffffffffffffffffffffffffffffc360112610151576004357fffffffff000000000000000000000000000000000000000000000000000000008116809103610151577fb5dee127000000000000000000000000000000000000000000000000000000008114908115610127575b50151560805260206080f35b7f01ffc9a7000000000000000000000000000000000000000000000000000000009150148161011b565b5f80fd5b5f91031261015157565b34610151575f7ffffffffffffffffffffffffffffffffffffffffffffffffffffffffffffffffc360112610151576020610197610dd5565b73ffffffffffffffffffffffffffffffffffffffff60405191168152f35b7ffffffffffffffffffffffffffffffffffffffffffffffffffffffffffffffffc60209101126101515760043590565b34610151576101f3366101b5565b610231600261022261021d610206610dd5565b9461021861021387610ea2565b610816565b610f22565b6108b2565b61022b8161087b565b146108bf565b5f9081805b601c60ff82161061029a575061028a9261025261025792610924565b610989565b61027c600160ff610274608061026c86611109565b015160ff1690565b1610156109ee565b6102858161128d565b61139a565b60405160018152602090f35b0390f35b6102a48184611047565b6102ba6102b3825161ffff1690565b61ffff1690565b90603482146102ff575b600180921490816102eb575b506102e2575b5060010160ff16610236565b935060016102d6565b6020015163ffffffff16151590505f6102d0565b600193506102c4565b34610151575f7ffffffffffffffffffffffffffffffffffffffffffffffffffffffffffffffffc3601126101515760206040517fffffffffffffffffffffffffffffffffffffffffffffffffffffffffffffffe03601358152f35b3461015157610371366101b5565b8061037a610dd5565b61038661021382610ea2565b6103c06103bb608061039785610f22565b6103b481516103a58161087b565b6103ae8161087b565b15610a53565b0151151590565b610ab8565b6103ed61ffff6103da6103d284611510565b5161ffff1690565b16603281101590816104ba575b50610b1d565b61040f600160ff61040761040085611109565b5160ff1690565b161015610b82565b610418816115e4565b61042181611775565b61042a8261189e565b61043442836119f4565b7f851a6089101acf9df1424fd8132cca8da4f82be3f45fc185424b0e8c8d0ccb9b73ffffffffffffffffffffffffffffffffffffffff6040519216918061048081906001602083019252565b0390a3604051907f840aca0f1388b5927c450a7dae8f7bbf7d975d4b3c3963ffa2077adaeaf875925f80a260018082526020820152604090f35b603c9150105f6103e7565b602435908160030b820361015157565b604435908160030b820361015157565b606435908160030b820361015157565b346101515760807ffffffffffffffffffffffffffffffffffffffffffffffffffffffffffffffffc3601126101515760043560ff81168082036101515761053a6104c5565b906105436104d5565b9161054c6104e5565b90600383101561067b57610296946106687ff94088d7d2c785919b38b66ddc58f0b2bb3c0c6b02cf364fa503a46f3c15919093610637966040516020810190610613816105e74287878c8c8993917fff00000000000000000000000000000000000000000000000000000000000000602d96949260f81b16855260e01b600185015260e01b600584015260e01b6009830152600d8201520190565b037fffffffffffffffffffffffffffffffffffffffffffffffffffffffffffffffe08101835282610c65565b51902097889761062286611afd565b9061062c8161087b565b84848942938d611b2b565b60405194859485926060929594919560ff608086019716855260030b602085015260030b604084015260030b910152565b0390a26040519081529081906020820190565b60646040517f08c379a000000000000000000000000000000000000000000000000000000000815260206004820152601560248201527f496e76616c6964207265736f75726365207479706500000000000000000000006044820152fd5b34610151576106e7366101b5565b6106ef610dd5565b6106fb61021382610ea2565b61072b6103bb608061070c85610f22565b6103b46001825161071c8161087b565b6107258161087b565b14610ca6565b610746603361ffff61073f6103d285611510565b1614610d0b565b610763600160ff61075b604061026c86611109565b161015610d70565b61076c816116bc565b61077581611beb565b7f851a6089101acf9df1424fd8132cca8da4f82be3f45fc185424b0e8c8d0ccb9b73ffffffffffffffffffffffffffffffffffffffff604051921691806107c18190600a602083019252565b0390a3604051806102968190600a60206040840193600181520152565b34610151575f7ffffffffffffffffffffffffffffffffffffffffffffffffffffffffffffffffc360112610151576020610197612d98565b1561081d57565b60646040517f08c379a000000000000000000000000000000000000000000000000000000000815260206004820152601560248201527f506c61796572206e6f74207265676973746572656400000000000000000000006044820152fd5b6003111561088557565b7f4e487b71000000000000000000000000000000000000000000000000000000005f52602160045260245ffd5b5160038110156108855790565b156108c657565b60646040517f08c379a000000000000000000000000000000000000000000000000000000000815260206004820152601360248201527f4e6f7420612066697265206c6f636174696f6e000000000000000000000000006044820152fd5b1561092b57565b60646040517f08c379a000000000000000000000000000000000000000000000000000000000815260206004820152600e60248201527f4e6565642074696e646572626f780000000000000000000000000000000000006044820152fd5b1561099057565b60646040517f08c379a000000000000000000000000000000000000000000000000000000000815260206004820152600960248201527f4e656564206c6f677300000000000000000000000000000000000000000000006044820152fd5b156109f557565b60646040517f08c379a000000000000000000000000000000000000000000000000000000000815260206004820152601860248201527f466972656d616b696e67206c6576656c20746f6f206c6f7700000000000000006044820152fd5b15610a5a57565b60646040517f08c379a000000000000000000000000000000000000000000000000000000000815260206004820152600a60248201527f4e6f7420612074726565000000000000000000000000000000000000000000006044820152fd5b15610abf57565b60646040517f08c379a000000000000000000000000000000000000000000000000000000000815260206004820152601660248201527f5265736f75726365206e6f7420617661696c61626c65000000000000000000006044820152fd5b15610b2457565b60646040517f08c379a000000000000000000000000000000000000000000000000000000000815260206004820152601560248201527f4e656564206861746368657420657175697070656400000000000000000000006044820152fd5b15610b8957565b60646040517f08c379a000000000000000000000000000000000000000000000000000000000815260206004820152601960248201527f576f6f6463757474696e67206c6576656c20746f6f206c6f77000000000000006044820152fd5b7f4e487b71000000000000000000000000000000000000000000000000000000005f52604160045260245ffd5b67ffffffffffffffff8111610c2857604052565b610be7565b6040810190811067ffffffffffffffff821117610c2857604052565b6060810190811067ffffffffffffffff821117610c2857604052565b90601f7fffffffffffffffffffffffffffffffffffffffffffffffffffffffffffffffe0910116810190811067ffffffffffffffff821117610c2857604052565b15610cad57565b60646040517f08c379a000000000000000000000000000000000000000000000000000000000815260206004820152601260248201527f4e6f7420612066697368696e672073706f7400000000000000000000000000006044820152fd5b15610d1257565b60646040517f08c379a000000000000000000000000000000000000000000000000000000000815260206004820152601960248201527f4e6565642066697368696e6720726f64206571756970706564000000000000006044820152fd5b15610d7757565b60646040517f08c379a000000000000000000000000000000000000000000000000000000000815260206004820152601560248201527f46697368696e67206c6576656c20746f6f206c6f7700000000000000000000006044820152fd5b7fffffffffffffffffffffffffffffffffffffffffffffffffffffffffffffffcc36013560601c908115610e0557565b339150565b60405190610e1782610c2d565b6001825260203681840137565b60405190610e3182610c49565b600282526040366020840137565b7f4e487b71000000000000000000000000000000000000000000000000000000005f52603260045260245ffd5b805115610e795760200190565b610e3f565b805160011015610e795760400190565b8051821015610e795760209160051b010190565b610eaa610e0a565b805115610e795773ffffffffffffffffffffffffffffffffffffffff610ed592166020820152611d61565b60f81c90565b6040519060e0820182811067ffffffffffffffff821117610c28576040525f60c0838281528260208201528260408201528260608201528260808201528260a08201520152565b610f2a610edb565b50610f33610e0a565b805115610e7957610f48916020820152611f3c565b5050610f52610edb565b90602081015160f81c6003811015610885576110158261100b610f8b610f7f602161101b97015160e01c90565b63ffffffff1660030b90565b91611001610fa0610f7f602584015160e01c90565b91610ff7610fb5610f7f602984015160e01c90565b91610fc4602d82015160f81c90565b90610fe98c60c0610fde604e602e86015195015160e01c90565b63ffffffff16910152565b60a08c0152151560808b0152565b60030b6060890152565b60030b6040870152565b60030b6020850152565b826122ca565b90565b604051906040820182811067ffffffffffffffff821117610c28576040525f6020838281520152565b61104f61101e565b50611058610e24565b90815115610e795773ffffffffffffffffffffffffffffffffffffffff166020820152805160011015610e795760ff61109692166040820152612045565b50506110a061101e565b906022602082015160f01c91015160e01c6020830152815290565b60405190610100820182811067ffffffffffffffff821117610c28576040525f60e0838281528260208201528260408201528260608201528260808201528260a08201528260c08201520152565b6111116110bb565b5061111a610e0a565b805115610e795773ffffffffffffffffffffffffffffffffffffffff6111459216602082015261211c565b505061101b6111526110bb565b91611220602082015160f81c9161121660218201519161120c611179602583015160f81c90565b916111ff61118b602683015160e01c90565b916111f58b6111e86111a1602a85015160f81c90565b9360c06111b2602b83015160e01c90565b936111df6111d260306111c9602f87015160f81c90565b95015160e01c90565b63ffffffff1660e0830152565b019060ff169052565b63ffffffff1660a08d0152565b60ff1660808b0152565b63ffffffff166060890152565b60ff166040870152565b60e01c6020850152565b60ff168252565b7f4e487b71000000000000000000000000000000000000000000000000000000005f52601160045260245ffd5b907fffffffffffffffffffffffffffffffffffffffffffffffffffffffffffffffff63ffffffff8093160191821161128857565b611227565b905f5b601c60ff8216106112fa576040517f08c379a000000000000000000000000000000000000000000000000000000000815260206004820152600e60248201527f4974656d206e6f7420666f756e640000000000000000000000000000000000006044820152606490fd5b6113048184611047565b6001908161ffff611317835161ffff1690565b161480611365575b61133057505060010160ff16611290565b60200151929363ffffffff90931692908303611352576113509250612482565b565b9061135f61135093611254565b916122d6565b508163ffffffff61137d602084015163ffffffff1690565b16101561131f565b90600163ffffffff8093160191821161128857565b63ffffffff60288160a06113ad85611109565b01511601908111611288576113c1816125e3565b9073ffffffffffffffffffffffffffffffffffffffff6113df610e0a565b931690835115610e795761142e61146591836020870152604051918291602083017fffffffff0000000000000000000000000000000000000000000000000000000060049260e01b1681520190565b03946114607fffffffffffffffffffffffffffffffffffffffffffffffffffffffffffffffe096878101845283610c65565b61272b565b61146d610e0a565b90815115610e7957611350936114be936114ca926020850152604051948591602083017fff0000000000000000000000000000000000000000000000000000000000000060019260f81b1681520190565b03908101845283610c65565b612808565b6040519060c0820182811067ffffffffffffffff821117610c28576040525f60a0838281528260208201528260408201528260608201528260808201520152565b6115186114cf565b50611521610e0a565b805115610e795773ffffffffffffffffffffffffffffffffffffffff61154c921660208201526121f3565b505061101b6115596114cf565b916115dd6020820151916115d2602282015160f01c916115c7602482015160f01c916115bc602682015160f01c916115b16115a6602a61159d602885015160f01c90565b93015160f01c90565b61ffff1660a08d0152565b61ffff1660808b0152565b61ffff166060890152565b61ffff166040870152565b61ffff166020850152565b60f01c8252565b905f5b601c60ff821610611651576040517f08c379a000000000000000000000000000000000000000000000000000000000815260206004820152600e60248201527f496e76656e746f72792066756c6c0000000000000000000000000000000000006044820152606490fd5b61165b8184611047565b61166a6102b3825161ffff1690565b156116b157600161ffff611680835161ffff1690565b1614611692575060010160ff166115e7565b9061135f6116ac6020611350959694015163ffffffff1690565b611385565b5061135091926124e0565b905f5b601c60ff821610611729576040517f08c379a000000000000000000000000000000000000000000000000000000000815260206004820152600e60248201527f496e76656e746f72792066756c6c0000000000000000000000000000000000006044820152606490fd5b6117338184611047565b6117426102b3825161ffff1690565b1561176a57600a61ffff611758835161ffff1690565b1614611692575060010160ff166116bf565b506113509192612539565b63ffffffff601981602061178885611109565b015116019081116112885761179c816125e3565b9073ffffffffffffffffffffffffffffffffffffffff6117ba610e0a565b931690835115610e795761180961184091836020870152604051918291602083017fffffffff0000000000000000000000000000000000000000000000000000000060049260e01b1681520190565b039461183b7fffffffffffffffffffffffffffffffffffffffffffffffffffffffffffffffe096878101845283610c65565b6128af565b611848610e0a565b90815115610e7957611350936114be93611899926020850152604051948591602083017fff0000000000000000000000000000000000000000000000000000000000000060019260f81b1681520190565b612956565b6118a6610e0a565b90815115610e795760208201526040515f6020820152600181526118c981610c2d565b73ffffffffffffffffffffffffffffffffffffffff6118e6612d98565b16913083036118f95761135092506134d1565b90823b15610151576119a69261196f5f8094604051968795869485937f390baae00000000000000000000000000000000000000000000000000000000085527f746268797065727363617065000000005265736f757263650000000000000000600486015260a0602486015260a4850190611d23565b90600460448501527ffffffffffffffffffffffffffffffffffffffffffffffffffffffffffffffffc8483030160648501526126e8565b7e32070001040404012004000000000000000000000000000000000000000000608483015203925af180156119ef576119dc5750565b806119e961135092610c14565b80610155565b611d56565b906119fd610e0a565b91825115610e7957602083015260405190602082015260208152611a2081610c2d565b73ffffffffffffffffffffffffffffffffffffffff611a3d612d98565b1691308303611a50576113509250613531565b90823b15610151576119a692611ac65f8094604051968795869485937f390baae00000000000000000000000000000000000000000000000000000000085527f746268797065727363617065000000005265736f757263650000000000000000600486015260a0602486015260a4850190611d23565b90600560448501527ffffffffffffffffffffffffffffffffffffffffffffffffffffffffffffffffc8483030160648501526126e8565b60ff168015611b255760018114611b1f57600214611b1a57603c90565b607890565b50601e90565b50603c90565b939490959192956040519560038210156108855761135097611bc695611b6f9360f81b60208a015260e01b602189015260e01b6025880152602987019060e01b9052565b7f0100000000000000000000000000000000000000000000000000000000000000602d860152602e85015260e01b7fffffffff0000000000000000000000000000000000000000000000000000000016604e840152565b60328252611bd382610c49565b611bdb610e0a565b90611be582610e6c565b52612bef565b63ffffffff600a816060611bfe85611109565b0151160190811161128857611c12816125e3565b9073ffffffffffffffffffffffffffffffffffffffff611c30610e0a565b931690835115610e7957611c7f611cb691836020870152604051918291602083017fffffffff0000000000000000000000000000000000000000000000000000000060049260e01b1681520190565b0394611cb17fffffffffffffffffffffffffffffffffffffffffffffffffffffffffffffffe096878101845283610c65565b612a33565b611cbe610e0a565b90815115610e7957611350936114be93611d0f926020850152604051948591602083017fff0000000000000000000000000000000000000000000000000000000000000060019260f81b1681520190565b612b11565b90816020910312610151575190565b9081518082526020808093019301915f5b828110611d42575050505090565b835185529381019392810192600101611d34565b6040513d5f823e3d90fd5b73ffffffffffffffffffffffffffffffffffffffff611d7e612d98565b16308103611d90575061101b90612dda565b611df99160209160405180809581947f8c364d590000000000000000000000000000000000000000000000000000000083527f74626879706572736361706500000000506c61796572000000000000000000006004840152608060248401526084830190611d23565b5f60448301527e41030101202000000000000000000000000000000000000000000000000000606483015203915afa9081156119ef575f91611e39575090565b61101b915060203d602011611e5b575b611e538183610c65565b810190611d14565b503d611e49565b5f5b838110611e735750505f910152565b8181015183820152602001611e64565b81601f8201121561015157805167ffffffffffffffff8111610c285760405192611ed560207fffffffffffffffffffffffffffffffffffffffffffffffffffffffffffffffe0601f8501160185610c65565b818452602082840101116101515761101b9160208085019101611e62565b90916060828403126101515781519167ffffffffffffffff928381116101515784611f1f918301611e83565b9360208201519360408301519081116101515761101b9201611e83565b73ffffffffffffffffffffffffffffffffffffffff611f59612d98565b16308103611f725750611f6b90612e91565b9192909190565b611fdb92915f9160405180809681947f419b58fd0000000000000000000000000000000000000000000000000000000083527f746268797065727363617065000000005265736f7572636500000000000000006004840152606060248401526064830190611d23565b7e32070001040404012004000000000000000000000000000000000000000000604483015203915afa9081156119ef575f80935f9361201b575b50929190565b9193505061203b91503d805f833e6120338183610c65565b810190611ef3565b929092915f612015565b73ffffffffffffffffffffffffffffffffffffffff612062612d98565b163081036120745750611f6b90612f47565b6120dd92915f9160405180809681947f419b58fd0000000000000000000000000000000000000000000000000000000083527f74626879706572736361706500000000496e76656e746f7279536c6f740000006004840152606060248401526064830190611d23565b7e06020002040000000000000000000000000000000000000000000000000000604483015203915afa9081156119ef575f80935f9361201b5750929190565b73ffffffffffffffffffffffffffffffffffffffff612139612d98565b1630810361214b5750611f6b90612fc1565b6121b492915f9160405180809681947f419b58fd0000000000000000000000000000000000000000000000000000000083527f74626879706572736361706500000000476174686572696e67536b696c6c73006004840152606060248401526064830190611d23565b7e14080001040104010401040000000000000000000000000000000000000000604483015203915afa9081156119ef575f80935f9361201b5750929190565b73ffffffffffffffffffffffffffffffffffffffff612210612d98565b163081036122225750611f6b9061303b565b61228b92915f9160405180809681947f419b58fd0000000000000000000000000000000000000000000000000000000083527f7462687970657273636170650000000045717569706d656e74000000000000006004840152606060248401526064830190611d23565b7e0c060002020202020200000000000000000000000000000000000000000000604483015203915afa9081156119ef575f80935f9361201b5750929190565b60038210156108855752565b9190916122e1610e24565b9273ffffffffffffffffffffffffffffffffffffffff91845115610e795782166020850152835160011015610e79576123589260ff61238492166040860152604051938491602083017fffffffff0000000000000000000000000000000000000000000000000000000060049260e01b1681520190565b037fffffffffffffffffffffffffffffffffffffffffffffffffffffffffffffffe08101845283610c65565b61238c612d98565b169130830361239f576113509250613591565b90823b156101515761244c926124155f8094604051968795869485937f390baae00000000000000000000000000000000000000000000000000000000085527f74626879706572736361706500000000496e76656e746f7279536c6f74000000600486015260a0602486015260a4850190611d23565b90600160448501527ffffffffffffffffffffffffffffffffffffffffffffffffffffffffffffffffc8483030160648501526126e8565b7e06020002040000000000000000000000000000000000000000000000000000608483015203925af180156119ef576119dc5750565b604051905f60208301525f60228301526006825261249f82610c2d565b6124a7610e24565b90815115610e795773ffffffffffffffffffffffffffffffffffffffff1660208201526113509260ff166124da82610e7e565b52612cef565b604051907e0100000000000000000000000000000000000000000000000000000000000060208301527c010000000000000000000000000000000000000000000000000000000060228301526006825261249f82610c2d565b604051907e0a00000000000000000000000000000000000000000000000000000000000060208301527c010000000000000000000000000000000000000000000000000000000060228301526006825261249f82610c2d565b906063811015610e795760051b0190565b60ff168015611288577fffffffffffffffffffffffffffffffffffffffffffffffffffffffffffffffff0190565b60ff60019116019060ff821161128857565b6125eb61311b565b9063ffffffff806126058160208601511663ffffffff1690565b921691821061268557610c408301511663ffffffff1681101561267e5760625b60ff8116600181106126755761264b6126416126549286612592565b5163ffffffff1690565b63ffffffff1690565b82101561266957612664906125a3565b612625565b905061101b91506125d1565b50505050600190565b5050606390565b505050600190565b90606051918281525f5b8381106126d457507fffffffffffffffffffffffffffffffffffffffffffffffffffffffffffffffe0601f845f6020809697860101520116010190565b806020916080015182828501015201612697565b907fffffffffffffffffffffffffffffffffffffffffffffffffffffffffffffffe0601f60209361272481518092818752878088019101611e62565b0116010190565b9073ffffffffffffffffffffffffffffffffffffffff612749612d98565b169130830361275c576113509250613801565b90823b15610151576127d292611ac65f8094604051968795869485937f390baae00000000000000000000000000000000000000000000000000000000085527f74626879706572736361706500000000476174686572696e67536b696c6c7300600486015260a0602486015260a4850190611d23565b7e14080001040104010401040000000000000000000000000000000000000000608483015203925af180156119ef576119dc5750565b9073ffffffffffffffffffffffffffffffffffffffff612826612d98565b1691308303612839576113509250613861565b90823b15610151576127d29261196f5f8094604051968795869485937f390baae00000000000000000000000000000000000000000000000000000000085527f74626879706572736361706500000000476174686572696e67536b696c6c7300600486015260a0602486015260a4850190611d23565b9073ffffffffffffffffffffffffffffffffffffffff6128cd612d98565b16913083036128e05761135092506138c1565b90823b15610151576127d2926124155f8094604051968795869485937f390baae00000000000000000000000000000000000000000000000000000000085527f74626879706572736361706500000000476174686572696e67536b696c6c7300600486015260a0602486015260a4850190611d23565b9073ffffffffffffffffffffffffffffffffffffffff612974612d98565b16913083036129875761135092506145f5565b90823b15610151576127d2926129fd5f8094604051968795869485937f390baae00000000000000000000000000000000000000000000000000000000085527f74626879706572736361706500000000476174686572696e67536b696c6c7300600486015260a0602486015260a4850190611d23565b908460448501527ffffffffffffffffffffffffffffffffffffffffffffffffffffffffffffffffc8483030160648501526126e8565b9073ffffffffffffffffffffffffffffffffffffffff612a51612d98565b1691308303612a64576113509250613921565b90823b15610151576127d292612ada5f8094604051968795869485937f390baae00000000000000000000000000000000000000000000000000000000085527f74626879706572736361706500000000476174686572696e67536b696c6c7300600486015260a0602486015260a4850190611d23565b90600360448501527ffffffffffffffffffffffffffffffffffffffffffffffffffffffffffffffffc8483030160648501526126e8565b9073ffffffffffffffffffffffffffffffffffffffff612b2f612d98565b1691308303612b42576113509250613985565b90823b15610151576127d292612bb85f8094604051968795869485937f390baae00000000000000000000000000000000000000000000000000000000085527f74626879706572736361706500000000476174686572696e67536b696c6c7300600486015260a0602486015260a4850190611d23565b90600260448501527ffffffffffffffffffffffffffffffffffffffffffffffffffffffffffffffffc8483030160648501526126e8565b73ffffffffffffffffffffffffffffffffffffffff612c0c612d98565b16308103612c1f575090611350916139e5565b90813b15610151575f91612c9883612cc993612cde604051978896879586947f298314fb0000000000000000000000000000000000000000000000000000000086527f746268797065727363617065000000005265736f757263650000000000000000600487015260a0602487015260a4860190611d23565b7ffffffffffffffffffffffffffffffffffffffffffffffffffffffffffffffffc92838683030160448701526126e8565b9084606485015283820301608484015261268d565b03925af180156119ef576119dc5750565b73ffffffffffffffffffffffffffffffffffffffff612d0c612d98565b16308103612d1f57509061135091613c5c565b90813b15610151575f91612c9883612cc993612cde604051978896879586947f298314fb0000000000000000000000000000000000000000000000000000000086527f74626879706572736361706500000000496e76656e746f7279536c6f74000000600487015260a0602487015260a4860190611d23565b7f629a4c26e296b22a8e0856e9f6ecb2d1008d7e00081111962cd175fa7488e1755473ffffffffffffffffffffffffffffffffffffffff168061101b57503390565b60405160208160208101937f74626879706572736361706500000000506c617965720000000000000000000085526040820160208251919201935f5b828110612e7a57505050612e519250037fffffffffffffffffffffffffffffffffffffffffffffffffffffffffffffffe08101835282610c65565b5190207f86425bff6b57326c7859e89024fe4f238ca327a1ae4a230180dd2f0e88aaa7d9185490565b855184529481019486945092810192600101612e16565b5f90612e9e60609161400a565b604051906020907fffffffffffffffffffffffffffffffffffffffffffffffffffffffffffffffe090816071850116604052603284526020840192603291925b81831015612f2f57505080612ef4575b50505092565b7fffffffffffffffffffffffffffffffffffffffffffffffffffffffffffffffff9060031b1c908183511691199054161790525f8080612eee565b81600185839495979654875201940194019190612ede565b5f90612f546060916140c0565b604051906020907fffffffffffffffffffffffffffffffffffffffffffffffffffffffffffffffe090816045850116604052600684526020840192600691925b81831015612fa957505080612ef45750505092565b81600185839495979654875201940194019190612f94565b5f90612fce60609161414e565b604051906020907fffffffffffffffffffffffffffffffffffffffffffffffffffffffffffffffe090816053850116604052601484526020840192601491925b8183101561302357505080612ef45750505092565b8160018583949597965487520194019401919061300e565b5f906060906040519060209082613056602082019283613f14565b03926130887fffffffffffffffffffffffffffffffffffffffffffffffffffffffffffffffe094858101835282610c65565b5190207f86425bff6b57326c7859e89024fe4f238ca327a1ae4a230180dd2f0e88aaa7d918916040519281604b850116604052600c84526020840192600c91925b818310156130de57505080612ef45750505092565b816001858394959796548752019401940191906130c9565b60405190610c6080830183811067ffffffffffffffff821117610c2857604052368337565b6131236130f6565b5061312c6130f6565b5f81526053602082015260ae60408201526101146060820152610184608082015261020060a082015261028a60c082015261032160e08201526103c961010082015261048261012082015261054e61014082015261063061016082015261072961018082015261083b6101a082015261096b6101c0820152610aba6101e0820152610c2b610200820152610dc3610220820152610f8561024082015261117661026082015261139a6102808201526115f86102a08201526118936102c0820152611b746102e0820152611ea2610300820152612224610320820152612602610340820152612a48610360820152612eff6103808201526134336103a08201526139f16103c08201526140486103e0820152614747610400820152614f006104208201526157866104408201526160ef610460820152616b516104808201526176c86104a08201526183706104c08201526191686104e082015261a0d361050082015261b1d961052082015261c4a361054082015261d96161056082015261f0486105808201526201098f6105a0820152620125776105c0820152620144466105e08201526201664961060082015262018bd56106208201526201b5496106408201526201e30c6106608201526202159261068082015262024d586106a082015262028aec6106c08201526202cee86106e0820152620319f661070082015262036cd26107208201526203c84e61074082015262042d4e61076082015262049cd0610780820152620517ec6107a082015262059fd76107c0820152620635e76107e08201526206db946108008201526207927e61082082015262085c7161084082015262093b68610860820152620a3193610880820152620b415b6108a0820152620c6d6d6108c0820152620db8b96108e0820152620f267f6109008201526210ba56610920820152621278356109408201526214647b610960820152621683fd6109808201526218dc106109a0820152621b72986109c0820152621e4e146109e0820152622175b2610a008201526224f15f610a208201526228c9da610a40820152622d08cd610a608201526231b8e2610a808201526236e5e0610aa0820152623c9cc6610ac08201526242ebf0610ae08201526249e337610b008201526251941c610b20820152625a11ef610b4082015262637205610b60820152626dcbed610b80820152627939a6610ba08201526285d7e6610bc08201526293c661610be082015262a32815610c0082015262b423a6610c2082015262c6e3bf610c4082015290565b91905f925f5b600481106134f3575065ffffffffffff61135093941690614425565b9360ff7e3207000104040401200400000000000000000000000000000000000000000086601b0360031b1c16810180911161128857936001016134d7565b91905f925f5b60058110613553575065ffffffffffff61135093941690614425565b9360ff7e3207000104040401200400000000000000000000000000000000000000000086601b0360031b1c1681018091116112885793600101613537565b9190915f805b600182106137c25765ffffffffffff9150166135b2826140c0565b6135ba614b5e565b905f5b82518110156136ab576136216135fc6135d68386610e8e565b517fffffffffffffffffffffffffffffffffffffffffff00000000000000000000001690565b7fffffffffffffffffffffffffffffffffffffffffff00000000000000000000001690565b9060049182808260581c161461363d575b5060019150016135bd565b60601c803b1561015157855f9188838c96613685604051988996879586947f964f667d00000000000000000000000000000000000000000000000000000000865285016142f7565b03925af19182156119ef576001921561363257806119e96136a592610c14565b5f613632565b5094919061371383836040987f74626879706572736361706500000000496e76656e746f7279536c6f740000007f8c0b5119d4cec7b284c6b1b39252a03d1e2f2d7451a5895562524c113bb952be838a61370b87604051938493846142c6565b0390a2614df5565b5f5b81518110156137b95761372e6135fc6135d68385610e8e565b6008808260581c1614613745575b50600101613715565b60601c90813b156101515787517fa8ba8721000000000000000000000000000000000000000000000000000000008152915f90839081838161378c8b8b8e600485016142f7565b03925af19182156119ef576001926137a6575b509061373c565b806119e96137b392610c14565b5f61379f565b50505050509050565b60ff7e0602000204000000000000000000000000000000000000000000000000000083601b0360031b1c16810180911161128857600190910190613597565b91905f925f5b60058110613823575065ffffffffffff611350939416906147bf565b9360ff7e1408000104010401040104000000000000000000000000000000000000000086601b0360031b1c1681018091116112885793600101613807565b91905f925f5b60048110613883575065ffffffffffff611350939416906147bf565b9360ff7e1408000104010401040104000000000000000000000000000000000000000086601b0360031b1c1681018091116112885793600101613867565b91905f925f5b600181106138e3575065ffffffffffff611350939416906147bf565b9360ff7e1408000104010401040104000000000000000000000000000000000000000086601b0360031b1c16810180911161128857936001016138c7565b5f92835b60038086101561396e577e1408000104010401040104000000000000000000000000000000000000000060ff9187601b03901b1c16810180911161128857600190940193613925565b50611350939291945065ffffffffffff16906147bf565b91905f925f5b600281106139a7575065ffffffffffff611350939416906147bf565b9360ff7e1408000104010401040104000000000000000000000000000000000000000086601b0360031b1c168101809111611288579360010161398b565b604092835192602084017f746273746f72650000000000000000005461626c65730000000000000000000081527f746268797065727363617065000000005265736f757263650000000000000000948587820152868152613a4581610c49565b5190207f86425bff6b57326c7859e89024fe4f238ca327a1ae4a230180dd2f0e88aaa7d9185491613a74614c7e565b905f5b8251811015613b1b57613a906135fc6135d68386610e8e565b6001808260581c1614613aa7575b50600101613a77565b60601c90813b156101515788517f57066c9c000000000000000000000000000000000000000000000000000000008152915f908390818381613aee8c8c8f600485016149b9565b03925af19182156119ef57600192613b08575b5090613a9e565b806119e9613b1592610c14565b5f613b01565b50947f8dbb3a9672eebfd3773e72dd9c102393436816d832c7ba9e1e1ac8fcadcac7a9875180613b4c86898361497d565b0390a2613b67613b5b8561400a565b83516020850191614e51565b60ff808460e01c1680613c1d575b50505f5b81518110156137b957613b926135fc6135d68385610e8e565b6002808260581c1614613ba9575b50600101613b79565b60601c90813b156101515787517f5b28cdaf000000000000000000000000000000000000000000000000000000008152915f908390818381613bf08b8b8e600485016149b9565b03925af19182156119ef57600192613c0a575b5090613ba0565b806119e9613c1792610c14565b5f613c03565b5f613c2787614b0c565b555f60805b8284831610613c3c575050613b75565b600181613c538693613c4e868d6141dc565b614e06565b92011690613c2c565b604092835192602084017f746273746f72650000000000000000005461626c65730000000000000000000081527f74626879706572736361706500000000496e76656e746f7279536c6f74000000948587820152868152613cbc81610c49565b5190207f86425bff6b57326c7859e89024fe4f238ca327a1ae4a230180dd2f0e88aaa7d9185491613ceb614b5e565b905f5b8251811015613d9257613d076135fc6135d68386610e8e565b6001808260581c1614613d1e575b50600101613cee565b60601c90813b156101515788517f57066c9c000000000000000000000000000000000000000000000000000000008152915f908390818381613d658c8c8f60048501614a23565b03925af19182156119ef57600192613d7f575b5090613d15565b806119e9613d8c92610c14565b5f613d78565b50947f8dbb3a9672eebfd3773e72dd9c102393436816d832c7ba9e1e1ac8fcadcac7a9875180613dc386898361497d565b0390a2613dd2613b5b856140c0565b60ff808460e01c1680613e88575b50505f5b81518110156137b957613dfd6135fc6135d68385610e8e565b6002808260581c1614613e14575b50600101613de4565b60601c90813b156101515787517f5b28cdaf000000000000000000000000000000000000000000000000000000008152915f908390818381613e5b8b8b8e60048501614a23565b03925af19182156119ef57600192613e75575b5090613e0b565b806119e9613e8292610c14565b5f613e6e565b5f613e9287614b49565b555f60805b8284831610613ea7575050613de0565b600181613eb98693613c4e868d614242565b92011690613e97565b7f746273746f726500000000000000000053746f7265486f6f6b73000000000000815281516020918201928201915f5b828110613f00575050505090565b835185529381019392810192600101613ef2565b7f7462687970657273636170650000000045717569706d656e7400000000000000815281516020918201928201915f5b828110613f52575050505090565b835185529381019392810192600101613f44565b7f746268797065727363617065000000005265736f757263650000000000000000815281516020918201928201915f5b828110613fa4575050505090565b835185529381019392810192600101613f96565b7f74626879706572736361706500000000496e76656e746f7279536c6f74000000815281516020918201928201915f5b828110613ff6575050505090565b835185529381019392810192600101613fe8565b60405160208160208101937f746268797065727363617065000000005265736f75726365000000000000000085526040820160208251919201935f5b8281106140a9575050506140819250037fffffffffffffffffffffffffffffffffffffffffffffffffffffffffffffffe08101835282610c65565b5190207f86425bff6b57326c7859e89024fe4f238ca327a1ae4a230180dd2f0e88aaa7d91890565b855184529481019486945092810192600101614046565b60405160208160208101937f74626879706572736361706500000000496e76656e746f7279536c6f7400000085526040820160208251919201935f5b828110614137575050506140819250037fffffffffffffffffffffffffffffffffffffffffffffffffffffffffffffffe08101835282610c65565b8551845294810194869450928101926001016140fc565b60405160208160208101937f74626879706572736361706500000000476174686572696e67536b696c6c730085526040820160208251919201935f5b8281106141c5575050506140819250037fffffffffffffffffffffffffffffffffffffffffffffffffffffffffffffffe08101835282610c65565b85518452948101948694509281019260010161418a565b907fff000000000000000000000000000000000000000000000000000000000000007f3b4102da22e32d82fc925482184f16c09fd4281692720b87d124aef6da48a0f192604051614235816105e7602082019485613f66565b5190209160f81b16181890565b907fff000000000000000000000000000000000000000000000000000000000000007f3b4102da22e32d82fc925482184f16c09fd4281692720b87d124aef6da48a0f192604051614235816105e7602082019485613fb8565b90916142b261101b93606084526060840190611d23565b915f602082015260408184039101526126e8565b65ffffffffffff6142e361101b9593606084526060840190611d23565b9316602082015260408184039101526126e8565b65ffffffffffff61433a61101b95937f74626879706572736361706500000000496e76656e746f7279536c6f740000008452608060208501526080840190611d23565b9316604082015260608184039101526126e8565b65ffffffffffff61433a61101b95937f746268797065727363617065000000005265736f7572636500000000000000008452608060208501526080840190611d23565b90916143ce61101b937f74626879706572736361706500000000476174686572696e67536b696c6c73008452608060208501526080840190611d23565b915f604082015260608184039101526126e8565b65ffffffffffff61433a61101b95937f74626879706572736361706500000000476174686572696e67536b696c6c73008452608060208501526080840190611d23565b909291926144328261400a565b61443a614c7e565b905f5b82518110156144e0576144566135fc6135d68386610e8e565b9060049182808260581c1614614472575b50600191500161443d565b60601c803b1561015157855f9188838c966144ba604051988996879586947f964f667d000000000000000000000000000000000000000000000000000000008652850161434e565b03925af19182156119ef576001921561446757806119e96144da92610c14565b5f614467565b5094919061454f836040977f746268797065727363617065000000005265736f7572636500000000000000007f8c0b5119d4cec7b284c6b1b39252a03d1e2f2d7451a5895562524c113bb952be6040518061453d868a8d846142c6565b0390a265ffffffffffff851690614df5565b5f5b81518110156137b95761456a6135fc6135d68385610e8e565b6008808260581c1614614581575b50600101614551565b60601c90813b156101515787517fa8ba8721000000000000000000000000000000000000000000000000000000008152915f9083908183816145c88b8b8e6004850161434e565b03925af19182156119ef576001926145e2575b5090614578565b806119e96145ef92610c14565b5f6145db565b91906146008361414e565b91614609614cf4565b905f5b82518110156146ae576146256135fc6135d68386610e8e565b9060049182808260581c1614614641575b50600191500161460c565b60601c803b1561015157855f91898361468896604051978895869485937f964f667d0000000000000000000000000000000000000000000000000000000085528401614391565b03925af19182156119ef576001921561463657806119e96146a892610c14565b5f614636565b50929190614712826040947f74626879706572736361706500000000476174686572696e67536b696c6c73007f8c0b5119d4cec7b284c6b1b39252a03d1e2f2d7451a5895562524c113bb952be6040518061470a868d8361429b565b0390a2614d6a565b5f5b81518110156147b75761472d6135fc6135d68385610e8e565b6008808260581c1614614744575b50600101614714565b60601c90813b156101515784517fa8ba8721000000000000000000000000000000000000000000000000000000008152915f90839081838161478a8a8e60048401614391565b03925af19182156119ef576001926147a4575b509061473b565b806119e96147b192610c14565b5f61479d565b505050509050565b909291926147cc8261414e565b6147d4614cf4565b905f5b825181101561487a576147f06135fc6135d68386610e8e565b9060049182808260581c161461480c575b5060019150016147d7565b60601c803b1561015157855f9188838c96614854604051988996879586947f964f667d00000000000000000000000000000000000000000000000000000000865285016143e2565b03925af19182156119ef576001921561480157806119e961487492610c14565b5f614801565b509491906148d7836040977f74626879706572736361706500000000476174686572696e67536b696c6c73007f8c0b5119d4cec7b284c6b1b39252a03d1e2f2d7451a5895562524c113bb952be6040518061453d868a8d846142c6565b5f5b81518110156137b9576148f26135fc6135d68385610e8e565b6008808260581c1614614909575b506001016148d9565b60601c90813b156101515787517fa8ba8721000000000000000000000000000000000000000000000000000000008152915f9083908183816149508b8b8e600485016143e2565b03925af19182156119ef5760019261496a575b5090614900565b806119e961497792610c14565b5f614963565b9061101b926149976149a592608085526080850190611d23565b9083820360208501526126e8565b905f6040820152606081830391015261268d565b939291614a0b614a1e916149fd60a0947f746268797065727363617065000000005265736f757263650000000000000000895260c060208a015260c0890190611d23565b9087820360408901526126e8565b5f6060870152858103608087015261268d565b930152565b939291614a0b614a1e916149fd60a0947f74626879706572736361706500000000496e76656e746f7279536c6f74000000895260c060208a015260c0890190611d23565b604080517fffffffffffffffffffffffffffffffffffffffffffffffffffffffffffffffe0603f85830101811690925283815292602080850193925b81831015614af457505080614ab9575b50505090565b7fffffffffffffffffffffffffffffffffffffffffffffffffffffffffffffffff9060031b1c908183511691199054161790525f8080614ab3565b81600185839495979654875201940194019190614aa3565b604051614b21816105e7602082019485613f66565b5190207f14e2fcc58e58e68ec7edc30c8d50dccc3ce2714a623ec81f46b6a63922d765691890565b604051614b21816105e7602082019485613fb8565b614b66610e0a565b805115610e7957614c5d817f74626879706572736361706500000000496e76656e746f7279536c6f74000000602061101b94015264ffffffffff604051917f3b4102da22e32d82fc925482184f16c09fd4281692720b87d124aef6da48a0f16020840184614bd48483613ec2565b0394614c067fffffffffffffffffffffffffffffffffffffffffffffffffffffffffffffffe096878101835282610c65565b5190201892614c2d6040519182614c21602082019586613ec2565b03908101835282610c65565b5190207f14e2fcc58e58e68ec7edc30c8d50dccc3ce2714a623ec81f46b6a63922d76569185460381c1690614a67565b60206fffffffffffffffffffffffffffffffff825116910160801b17614f7d565b614c86610e0a565b805115610e7957614c5d817f746268797065727363617065000000005265736f757263650000000000000000602061101b94015264ffffffffff604051917f3b4102da22e32d82fc925482184f16c09fd4281692720b87d124aef6da48a0f16020840184614bd48483613ec2565b614cfc610e0a565b805115610e7957614c5d817f74626879706572736361706500000000476174686572696e67536b696c6c7300602061101b94015264ffffffffff604051917f3b4102da22e32d82fc925482184f16c09fd4281692720b87d124aef6da48a0f16020840184614bd48483613ec2565b81519060208093019190925b80821015614dbe575080614d8957505050565b7fffffffffffffffffffffffffffffffffffffffffffffffffffffffffffffffff9060031b1c90818354169119905116179055565b9091928160017fffffffffffffffffffffffffffffffffffffffffffffffffffffffffffffffe09286518155019401920190614d76565b825161135093602001929091614e90565b905f5b6020808210614e4657600183947fffffffffffffffffffffffffffffffffffffffffffffffffffffffffffffffe093945181550193019101614e09565b5080614d8957505050565b91906020808210614e4657600183947fffffffffffffffffffffffffffffffffffffffffffffffffffffffffffffffe093945181550193019101614e09565b9092919280614ed9575b50916020808210614e4657600183947fffffffffffffffffffffffffffffffffffffffffffffffffffffffffffffffe093945181550193019101614e09565b6020811015614f6d575b8015614e9a57806020949394038160031b7fffffffffffffffffffffffffffffffffffffffffffffffffffffffffffffffff8560031b1c19811c908651901c908019855416911617835580841115614f665760017fffffffffffffffffffffffffffffffffffffffffffffffffffffffffffffffe093019401920101915f614e9a565b5050505050565b90601f908260051c019116614ee3565b8060801c9060156fffffffffffffffffffffffffffffffff81921604604051926020906020850160208460051b8701016040528386525f5b848110614fc55750505050505090565b825182529185019190830190600101614fb556fea26469706673582212202d9744108f8e633b7a38e175deda180367351987006645f2ca646bb453d1cb2064736f6c63430008180033","linkReferences":{}},"methodIdentifiers":{"_msgSender()":"119df25f","_msgValue()":"45ec9354","_world()":"e1af802c","chopTree(bytes32)":"89f72469","fish(bytes32)":"cc728d56","lightFire(bytes32)":"16091696","spawnResource(uint8,int32,int32,int32)":"ba9aec7e","supportsInterface(bytes4)":"01ffc9a7"},"id":96}