{"abi":[{"type":"function","name":"MAX_INVENTORY_SLOTS","inputs":[],"outputs":[{"name":"","type":"uint8","internalType":"uint8"}],"stateMutability":"view"},{"type":"function","name":"_msgSender","inputs":[],"outputs":[{"name":"sender","type":"address","internalType":"address"}],"stateMutability":"view"},{"type":"function","name":"_msgValue","inputs":[],"outputs":[{"name":"value","type":"uint256","internalType":"uint256"}],"stateMutability":"view"},{"type":"function","name":"_world","inputs":[],"outputs":[{"name":"","type":"address","internalType":"address"}],"stateMutability":"view"},{"type":"function","name":"addItem","inputs":[{"name":"player","type":"address","internalType":"address"},{"name":"itemId","type":"uint16","internalType":"uint16"},{"name":"quantity","type":"uint32","internalType":"uint32"}],"outputs":[{"name":"success","type":"bool","internalType":"bool"},{"name":"slot","type":"uint8","internalType":"uint8"}],"stateMutability":"nonpayable"},{"type":"function","name":"findItem","inputs":[{"name":"player","type":"address","internalType":"address"},{"name":"itemId","type":"uint16","internalType":"uint16"}],"outputs":[{"name":"found","type":"bool","internalType":"bool"},{"name":"slot","type":"uint8","internalType":"uint8"}],"stateMutability":"view"},{"type":"function","name":"getFreeSlots","inputs":[{"name":"player","type":"address","internalType":"address"}],"outputs":[{"name":"freeSlots","type":"uint8","internalType":"uint8"}],"stateMutability":"view"},{"type":"function","name":"hasItem","inputs":[{"name":"player","type":"address","internalType":"address"},{"name":"itemId","type":"uint16","internalType":"uint16"}],"outputs":[{"name":"found","type":"bool","internalType":"bool"},{"name":"quantity","type":"uint32","internalType":"uint32"}],"stateMutability":"view"},{"type":"function","name":"moveItem","inputs":[{"name":"player","type":"address","internalType":"address"},{"name":"fromSlot","type":"uint8","internalType":"uint8"},{"name":"toSlot","type":"uint8","internalType":"uint8"}],"outputs":[],"stateMutability":"nonpayable"},{"type":"function","name":"removeItem","inputs":[{"name":"player","type":"address","internalType":"address"},{"name":"slot","type":"uint8","internalType":"uint8"},{"name":"quantity","type":"uint32","internalType":"uint32"}],"outputs":[{"name":"success","type":"bool","internalType":"bool"}],"stateMutability":"nonpayable"},{"type":"function","name":"supportsInterface","inputs":[{"name":"interfaceId","type":"bytes4","internalType":"bytes4"}],"outputs":[{"name":"","type":"bool","internalType":"bool"}],"stateMutability":"pure"},{"type":"event","name":"ItemAdded","inputs":[{"name":"player","type":"address","indexed":true,"internalType":"address"},{"name":"itemId","type":"uint16","indexed":false,"internalType":"uint16"},{"name":"quantity","type":"uint32","indexed":false,"internalType":"uint32"},{"name":"slot","type":"uint8","indexed":false,"internalType":"uint8"}],"anonymous":false},{"type":"event","name":"ItemMoved","inputs":[{"name":"player","type":"address","indexed":true,"internalType":"address"},{"name":"fromSlot","type":"uint8","indexed":false,"internalType":"uint8"},{"name":"toSlot","type":"uint8","indexed":false,"internalType":"uint8"}],"anonymous":false},{"type":"event","name":"ItemRemoved","inputs":[{"name":"player","type":"address","indexed":true,"internalType":"address"},{"name":"itemId","type":"uint16","indexed":false,"internalType":"uint16"},{"name":"quantity","type":"uint32","indexed":false,"internalType":"uint32"},{"name":"slot","type":"uint8","indexed":false,"internalType":"uint8"}],"anonymous":false},{"type":"event","name":"Store_SetRecord","inputs":[{"name":"tableId","type":"bytes32","indexed":true,"internalType":"ResourceId"},{"name":"keyTuple","type":"bytes32[]","indexed":false,"internalType":"bytes32[]"},{"name":"staticData","type":"bytes","indexed":false,"internalType":"bytes"},{"name":"encodedLengths","type":"bytes32","indexed":false,"internalType":"EncodedLengths"},{"name":"dynamicData","type":"bytes","indexed":false,"internalType":"bytes"}],"anonymous":false},{"type":"event","name":"Store_SpliceStaticData","inputs":[{"name":"tableId","type":"bytes32","indexed":true,"internalType":"ResourceId"},{"name":"keyTuple","type":"bytes32[]","indexed":false,"internalType":"bytes32[]"},{"name":"start","type":"uint48","indexed":false,"internalType":"uint48"},{"name":"data","type":"bytes","indexed":false,"internalType":"bytes"}],"anonymous":false},{"type":"error","name":"Slice_OutOfBounds","inputs":[{"name":"data","type":"bytes","internalType":"bytes"},{"name":"start","type":"uint256","internalType":"uint256"},{"name":"end","type":"uint256","internalType":"uint256"}]}],"bytecode":{"object":"0x6080806040523461001657612d64908161001b8239f35b5f80fdfe60806040526004361015610011575f80fd5b5f3560e01c806301ffc9a7146100c4578063101b2968146100bf578063119df25f146100ba57806342f1bb1d146100b557806345ec9354146100b05780637df94658146100ab5780637f5c21a7146100a657806393ee72d5146100a1578063e1af802c1461009c578063eedf0ad6146100975763ff99adab14610092575f80fd5b6108d4565b6106e2565b610697565b610638565b6105ae565b61037e565b610303565b6102ca565b610274565b6101bb565b346101835760207ffffffffffffffffffffffffffffffffffffffffffffffffffffffffffffffffc360112610183576004357fffffffff00000000000000000000000000000000000000000000000000000000811680910361018357807fb5dee1270000000000000000000000000000000000000000000000000000000060209214908115610159575b506040519015158152f35b7f01ffc9a7000000000000000000000000000000000000000000000000000000009150145f61014e565b5f80fd5b6004359073ffffffffffffffffffffffffffffffffffffffff8216820361018357565b6024359061ffff8216820361018357565b346101835760407ffffffffffffffffffffffffffffffffffffffffffffffffffffffffffffffffc360112610183576101f2610187565b6101fa6101aa565b61ffff908116915f91825b601c60ff821610610227576040805163ffffffff861680151582526020820152f35b6102318184611098565b858382511614610248575b5060010160ff16610205565b61026260ff929563ffffffff602060019401511690610951565b94915061023c565b5f91031261018357565b34610183575f7ffffffffffffffffffffffffffffffffffffffffffffffffffffffffffffffffc3601126101835760206102ac61110c565b73ffffffffffffffffffffffffffffffffffffffff60405191168152f35b34610183575f7ffffffffffffffffffffffffffffffffffffffffffffffffffffffffffffffffc360112610183576020604051601c8152f35b34610183575f7ffffffffffffffffffffffffffffffffffffffffffffffffffffffffffffffffc3601126101835760206040517fffffffffffffffffffffffffffffffffffffffffffffffffffffffffffffffe03601358152f35b6024359060ff8216820361018357565b6044359060ff8216820361018357565b346101835760607ffffffffffffffffffffffffffffffffffffffffffffffffffffffffffffffffc360112610183576103b5610187565b7f7282ccecdfbf0e00565eec579e1581f943cc57c4402994cddeff922dc49293636103de61035e565b6103e661036e565b906103f86103f385611141565b61096e565b61041c61040361110c565b73ffffffffffffffffffffffffffffffffffffffff1690565b9361043f73ffffffffffffffffffffffffffffffffffffffff82169586146109d3565b61046460ff8316601c8110806105a1575b61045990610a38565b60ff85161415610a9d565b8161046f8183611098565b9161ffff61048b81610483865161ffff1690565b161515610b02565b6104958683611098565b90806104a3835161ffff1690565b16806104f5575050506104d8836104d060206104c46104dd975161ffff1690565b92015163ffffffff1690565b9087846113df565b61137f565b6040805160ff928316815292909116602083015290a2005b855161ffff16918216149081610584575b501561053d576105316105389461052b60206104c4816104d896015163ffffffff1690565b90610951565b8683611447565b6104dd565b9091506105608361055860206104c4610538975161ffff1690565b9087856113df565b8361057e6020610572845161ffff1690565b93015163ffffffff1690565b926113df565b61059b91506105946020916111e4565b0151151590565b5f610506565b50601c60ff861610610450565b346101835760207ffffffffffffffffffffffffffffffffffffffffffffffffffffffffffffffffc360112610183576105e5610187565b5f805b601c60ff8216106106015760208260ff60405191168152f35b61ffff61060e8285611098565b511615610621575b60010160ff166105e8565b90600161062f60ff92610b67565b92915050610616565b346101835760407ffffffffffffffffffffffffffffffffffffffffffffffffffffffffffffffffc36011261018357610680610672610187565b61067a6101aa565b90610b78565b60408051921515835260ff91909116602083015290f35b34610183575f7ffffffffffffffffffffffffffffffffffffffffffffffffffffffffffffffffc3601126101835760206102ac611bc8565b6044359063ffffffff8216820361018357565b346101835760607ffffffffffffffffffffffffffffffffffffffffffffffffffffffffffffffffc36011261018357610719610187565b61072161035e565b9061072a6106cf565b6107366103f383611141565b610745601c60ff851610610a38565b61074f8383611098565b9061076a61ffff610762845161ffff1690565b161515610bbd565b63ffffffff811680159081156108ad575b5015610819575090817f69cd56fbfba66cdf8bce3ca36debbd14110faa4241cad1ed2ef0d6bf667c2f8b846107c760206107bb61080d98975161ffff1690565b94015163ffffffff1690565b6040805161ffff95909516855263ffffffff91909116602085015260ff919091169083015273ffffffffffffffffffffffffffffffffffffffff831691606090a261137f565b60405160018152602090f35b6108a29061089d6020846108336108a898965161ffff1690565b6040805161ffff92909216825263ffffffff8616602083015260ff88169082015273ffffffffffffffffffffffffffffffffffffffff8816907f69cd56fbfba66cdf8bce3ca36debbd14110faa4241cad1ed2ef0d6bf667c2f8b90606090a2015163ffffffff1690565b610c22565b91611447565b61080d565b90506108cc6108c3602085015163ffffffff1690565b63ffffffff1690565b11155f61077b565b346101835760607ffffffffffffffffffffffffffffffffffffffffffffffffffffffffffffffffc3601126101835761068061090e610187565b6109166101aa565b61091e6106cf565b91610d67565b7f4e487b71000000000000000000000000000000000000000000000000000000005f52601160045260245ffd5b91909163ffffffff8080941691160191821161096957565b610924565b1561097557565b60646040517f08c379a000000000000000000000000000000000000000000000000000000000815260206004820152601560248201527f506c61796572206e6f74207265676973746572656400000000000000000000006044820152fd5b156109da57565b60646040517f08c379a000000000000000000000000000000000000000000000000000000000815260206004820152601760248201527f43616e206f6e6c79206d6f7665206f776e206974656d730000000000000000006044820152fd5b15610a3f57565b60646040517f08c379a000000000000000000000000000000000000000000000000000000000815260206004820152600c60248201527f496e76616c696420736c6f7400000000000000000000000000000000000000006044820152fd5b15610aa457565b60646040517f08c379a000000000000000000000000000000000000000000000000000000000815260206004820152600960248201527f53616d6520736c6f7400000000000000000000000000000000000000000000006044820152fd5b15610b0957565b60646040517f08c379a000000000000000000000000000000000000000000000000000000000815260206004820152601260248201527f46726f6d20736c6f7420697320656d70747900000000000000000000000000006044820152fd5b60ff1660ff81146109695760010190565b91905f5b601c60ff821610610b9157505090505f905f90565b61ffff80610b9f8387611098565b511690831614610bb45760010160ff16610b7c565b92505060019190565b15610bc457565b60646040517f08c379a000000000000000000000000000000000000000000000000000000000815260206004820152600d60248201527f536c6f7420697320656d707479000000000000000000000000000000000000006044820152fd5b63ffffffff918216908216039190821161096957565b15610c3f57565b60646040517f08c379a000000000000000000000000000000000000000000000000000000000815260206004820152600f60248201527f496e76616c6964206974656d20494400000000000000000000000000000000006044820152fd5b15610ca457565b60646040517f08c379a000000000000000000000000000000000000000000000000000000000815260206004820152601060248201527f496e76616c6964207175616e74697479000000000000000000000000000000006044820152fd5b15610d0957565b60646040517f08c379a000000000000000000000000000000000000000000000000000000000815260206004820152601360248201527f4974656d20646f6573206e6f74206578697374000000000000000000000000006044820152fd5b929192610d766103f382611141565b61ffff8216610d86811515610c38565b610d9763ffffffff86161515610c9d565b610da0836111e4565b610db1610160820151511515610d02565b602090810151610e85575b50505f5b601c60ff821610610dd65750505090505f905f90565b610df5610dee610de68385611098565b5161ffff1690565b61ffff1690565b15610e055760010160ff16610dc0565b9381610e7c8683610e4e73ffffffffffffffffffffffffffffffffffffffff9588847f7286f6df8bea35b83f655779d98827bb5f3f691c52a9aefbf14d8c203a6406ab996113df565b60405194859416968491604091949363ffffffff60ff9261ffff606087019816865216602085015216910152565b0390a260019190565b5f5b601c60ff821610610e985750610dbc565b610ea28185611098565b83610eb2610dee835161ffff1690565b14610ec3575060010160ff16610e87565b73ffffffffffffffffffffffffffffffffffffffff93509087610e4e610f1e839a610f197f7286f6df8bea35b83f655779d98827bb5f3f691c52a9aefbf14d8c203a6406ab9997610e7c97015163ffffffff1690565b610951565b8386611447565b7f4e487b71000000000000000000000000000000000000000000000000000000005f52604160045260245ffd5b67ffffffffffffffff8111610f6657604052565b610f25565b6060810190811067ffffffffffffffff821117610f6657604052565b6040810190811067ffffffffffffffff821117610f6657604052565b90601f7fffffffffffffffffffffffffffffffffffffffffffffffffffffffffffffffe0910116810190811067ffffffffffffffff821117610f6657604052565b604051906040820182811067ffffffffffffffff821117610f66576040525f6020838281520152565b6040519061101a82610f6b565b600282526040366020840137565b6040519061103582610f87565b6001825260203681840137565b7f4e487b71000000000000000000000000000000000000000000000000000000005f52603260045260245ffd5b80516001101561107f5760400190565b611042565b805182101561107f5760209160051b010190565b6110a0610fe4565b506110a961100d565b9081511561107f5773ffffffffffffffffffffffffffffffffffffffff16602082015280516001101561107f5760ff6110e792166040820152611701565b50506110f1610fe4565b906022602082015160f01c91015160e01c6020830152815290565b7fffffffffffffffffffffffffffffffffffffffffffffffffffffffffffffffcc36013560601c90811561113c57565b339150565b611149611028565b80511561107f5773ffffffffffffffffffffffffffffffffffffffff611174921660208201526118f0565b60f81c90565b60405190610180820182811067ffffffffffffffff821117610f66576040526060610160835f81525f60208201525f60408201525f838201525f60808201525f60a08201525f60c08201525f60e08201525f6101008201525f6101208201525f6101408201520152565b6111ec61117a565b506111f5611028565b9081511561107f576113769161ffff6112139216602082015261180a565b9061137161122294939461117a565b9461136b61123c611237602084015160f81c90565b611ee9565b9161136261124e602183015160f81c90565b916113588a61134e611271611267602286015160f01c90565b61ffff1660010b90565b936080611285611267602484015160f01c90565b9361134561129a611267602686015160f01c90565b9361133b6112af611267602884015160f01c90565b916113316112c1602a83015160f81c90565b916113276112d3602b83015160f81c90565b9161131c6112e5602c83015160f81c90565b91611311611305602e6112fc602d85015160f81c90565b93015160f01c90565b61ffff166101408d0152565b60ff166101208b0152565b60ff16610100890152565b60ff1660e0870152565b60ff1660c0850152565b60010b60a0830152565b019060010b9052565b60010b60608c0152565b60010b60408a0152565b15156020880152565b856119f1565b611ef8565b61016082015290565b604051905f60208301525f60228301526006825261139c82610f87565b6113a461100d565b9081511561107f5773ffffffffffffffffffffffffffffffffffffffff1660208201526113dd9260ff166113d78261106f565b52611ac8565b565b90927fffffffff00000000000000000000000000000000000000000000000000000000907fffff0000000000000000000000000000000000000000000000000000000000006040519460f01b16602085015260e01b1660228301526006825261139c82610f87565b91909161145261100d565b9273ffffffffffffffffffffffffffffffffffffffff9184511561107f578216602085015283516001101561107f5760ff1660408401527fffffffff000000000000000000000000000000000000000000000000000000006040519260e01b166020830152600482526114c482610f87565b6114cc611bc8565b16913083036114df576113dd9250612205565b90823b156101835761158c926115555f8094604051968795869485937f390baae00000000000000000000000000000000000000000000000000000000085527f74626879706572736361706500000000496e76656e746f7279536c6f74000000600486015260a0602486015260a48501906116c3565b90600160448501527ffffffffffffffffffffffffffffffffffffffffffffffffffffffffffffffffc848303016064850152611a85565b7e06020002040000000000000000000000000000000000000000000000000000608483015203925af180156115d5576115c25750565b806115cf6113dd92610f52565b8061026a565b6116f6565b67ffffffffffffffff8111610f6657601f017fffffffffffffffffffffffffffffffffffffffffffffffffffffffffffffffe01660200190565b5f5b8381106116255750505f910152565b8181015183820152602001611616565b81601f8201121561018357805161164b816115da565b926116596040519485610fa3565b81845260208284010111610183576116779160208085019101611614565b90565b90916060828403126101835781519167ffffffffffffffff9283811161018357846116a6918301611635565b936020820151936040830151908111610183576116779201611635565b9081518082526020808093019301915f5b8281106116e2575050505090565b8351855293810193928101926001016116d4565b6040513d5f823e3d90fd5b73ffffffffffffffffffffffffffffffffffffffff61171e611bc8565b16308103611737575061173090611c66565b9192909190565b6117a092915f9160405180809681947f419b58fd0000000000000000000000000000000000000000000000000000000083527f74626879706572736361706500000000496e76656e746f7279536c6f7400000060048401526060602484015260648301906116c3565b7e06020002040000000000000000000000000000000000000000000000000000604483015203915afa9081156115d5575f80935f936117e0575b50929190565b9193505061180091503d805f833e6117f88183610fa3565b81019061167a565b929092915f6117da565b73ffffffffffffffffffffffffffffffffffffffff611827611bc8565b16308103611839575061173090611d1c565b6118a292915f9160405180809681947f419b58fd0000000000000000000000000000000000000000000000000000000083527f746268797065727363617065000000004974656d4d657461646174610000000060048401526060602484015260648301906116c3565b7e100b0101010202020201010101020000000000000000000000000000000000604483015203915afa9081156115d5575f80935f936117e05750929190565b90816020910312610183575190565b73ffffffffffffffffffffffffffffffffffffffff61190d611bc8565b1630810361191f575061167790611e32565b6119889160209160405180809581947f8c364d590000000000000000000000000000000000000000000000000000000083527f74626879706572736361706500000000506c617965720000000000000000000060048401526080602484015260848301906116c3565b5f60448301527e41030101202000000000000000000000000000000000000000000000000000606483015203915afa9081156115d5575f916119c8575090565b611677915060203d6020116119ea575b6119e28183610fa3565b8101906118e1565b503d6119d8565b60068210156119fd5752565b7f4e487b71000000000000000000000000000000000000000000000000000000005f52602160045260245ffd5b90606051918281525f5b838110611a7157507fffffffffffffffffffffffffffffffffffffffffffffffffffffffffffffffe0601f845f6020809697860101520116010190565b806020916080015182828501015201611a34565b907fffffffffffffffffffffffffffffffffffffffffffffffffffffffffffffffe0601f602093611ac181518092818752878088019101611614565b0116010190565b73ffffffffffffffffffffffffffffffffffffffff611ae5611bc8565b16308103611af85750906113dd91611f3a565b90813b15610183575f91611b7183611ba293611bb7604051978896879586947f298314fb0000000000000000000000000000000000000000000000000000000086527f74626879706572736361706500000000496e76656e746f7279536c6f74000000600487015260a0602487015260a48601906116c3565b7ffffffffffffffffffffffffffffffffffffffffffffffffffffffffffffffffc9283868303016044870152611a85565b90846064850152838203016084840152611a2a565b03925af180156115d5576115c25750565b7f629a4c26e296b22a8e0856e9f6ecb2d1008d7e00081111962cd175fa7488e1755473ffffffffffffffffffffffffffffffffffffffff168061167757503390565b90611c14826115da565b611c216040519182610fa3565b8281527fffffffffffffffffffffffffffffffffffffffffffffffffffffffffffffffe0611c4f82946115da565b0190602036910137565b9190820180921161096957565b5f90611c73606091612640565b604051906020907fffffffffffffffffffffffffffffffffffffffffffffffffffffffffffffffe090816045850116604052600684526020840192600691925b81831015611d0457505080611cc9575b50505092565b7fffffffffffffffffffffffffffffffffffffffffffffffffffffffffffffffff9060031b1c908183511691199054161790525f8080611cc3565b81600185839495979654875201940194019190611cb3565b611d2d611d288261267d565b6128af565b90611d37816129fe565b54611d4a66ffffffffffffff8216611c0a565b9360209160208601935f945b60019060ff871682811015611e265764ffffffffff85611d768a87612581565b926028026038011c169282918490915b8980831015611df157505091611daa939183611db09694611db6575b505050611c59565b95610b67565b94611d56565b7fffffffffffffffffffffffffffffffffffffffffffffffffffffffffffffffff9060031b1c908183511691199054161790525f8080611da2565b81847fffffffffffffffffffffffffffffffffffffffffffffffffffffffffffffffe093949695548652019301930190611d86565b50505050939492509050565b60405160208160208101937f74626879706572736361706500000000506c617965720000000000000000000085526040820160208251919201935f5b828110611ed257505050611ea99250037fffffffffffffffffffffffffffffffffffffffffffffffffffffffffffffffe08101835282610fa3565b5190207f86425bff6b57326c7859e89024fe4f238ca327a1ae4a230180dd2f0e88aaa7d9185490565b855184529481019486945092810192600101611e6e565b60ff1660068110156119fd5790565b9064ffffffffff611f0d9260381c169061270b565b6116776fffffffffffffffffffffffffffffffff8216611f2c81611c0a565b92602084019060801c612a28565b604092835192602084017f746273746f72650000000000000000005461626c65730000000000000000000081527f74626879706572736361706500000000496e76656e746f7279536c6f74000000948587820152868152611f9a81610f6b565b5190207f86425bff6b57326c7859e89024fe4f238ca327a1ae4a230180dd2f0e88aaa7d9185491611fc9612aa8565b905f5b82518110156120bb5761203061200b611fe58386611084565b517fffffffffffffffffffffffffffffffffffffffffff00000000000000000000001690565b7fffffffffffffffffffffffffffffffffffffffffff00000000000000000000001690565b6001808260581c1614612047575b50600101611fcc565b60601c90813b156101835788517f57066c9c000000000000000000000000000000000000000000000000000000008152915f90839081838161208e8c8c8f600485016127bd565b03925af19182156115d5576001926120a8575b509061203e565b806115cf6120b592610f52565b5f6120a1565b50947f8dbb3a9672eebfd3773e72dd9c102393436816d832c7ba9e1e1ac8fcadcac7a98751806120ec868983612781565b0390a26121076120fb85612640565b83516020850191612bf1565b60ff808460e01c16806121c6575b50505f5b81518110156121bd5761213261200b611fe58385611084565b6002808260581c1614612149575b50600101612119565b60601c90813b156101835787517f5b28cdaf000000000000000000000000000000000000000000000000000000008152915f9083908183816121908b8b8e600485016127bd565b03925af19182156115d5576001926121aa575b5090612140565b806115cf6121b792610f52565b5f6121a3565b50505050509050565b5f6121d087612a13565b555f60805b82848316106121e5575050612115565b6001816121fc86936121f7868d6125e7565b612b71565b920116906121d5565b9190915f805b600182106123e25765ffffffffffff91501661222682612640565b61222e612aa8565b905f5b82518110156122d45761224a61200b611fe58386611084565b9060049182808260581c1614612266575b506001915001612231565b60601c803b1561018357855f9188838c966122ae604051988996879586947f964f667d0000000000000000000000000000000000000000000000000000000086528501612858565b03925af19182156115d5576001921561225b57806115cf6122ce92610f52565b5f61225b565b5094919061233c83836040987f74626879706572736361706500000000496e76656e746f7279536c6f740000007f8c0b5119d4cec7b284c6b1b39252a03d1e2f2d7451a5895562524c113bb952be838a6123348760405193849384612827565b0390a2612d1d565b5f5b81518110156121bd5761235761200b611fe58385611084565b6008808260581c161461236e575b5060010161233e565b60601c90813b156101835787517fa8ba8721000000000000000000000000000000000000000000000000000000008152915f9083908183816123b58b8b8e60048501612858565b03925af19182156115d5576001926123cf575b5090612365565b806115cf6123dc92610f52565b5f6123c8565b60ff7e0602000204000000000000000000000000000000000000000000000000000083601b0360031b1c1681018091116109695760019091019061220b565b7f746273746f726500000000000000000053746f7265486f6f6b73000000000000815281516020918201928201915f5b82811061245f575050505090565b835185529381019392810192600101612451565b7f746268797065727363617065000000004974656d4d6574616461746100000000815281516020918201928201915f5b8281106124b1575050505090565b8351855293810193928101926001016124a3565b7f74626879706572736361706500000000496e76656e746f7279536c6f74000000815281516020918201928201915f5b828110612503575050505090565b8351855293810193928101926001016124f5565b7f3b4102da22e32d82fc925482184f16c09fd4281692720b87d124aef6da48a0f19060405161257a8161254e602082019485612421565b037fffffffffffffffffffffffffffffffffffffffffffffffffffffffffffffffe08101835282610fa3565b5190201890565b907fff000000000000000000000000000000000000000000000000000000000000007f3b4102da22e32d82fc925482184f16c09fd4281692720b87d124aef6da48a0f1926040516125da8161254e602082019485612473565b5190209160f81b16181890565b907fff000000000000000000000000000000000000000000000000000000000000007f3b4102da22e32d82fc925482184f16c09fd4281692720b87d124aef6da48a0f1926040516125da8161254e6020820194856124c5565b6040516126558161254e6020820194856124c5565b5190207f86425bff6b57326c7859e89024fe4f238ca327a1ae4a230180dd2f0e88aaa7d91890565b60405160208160208101937f746268797065727363617065000000004974656d4d657461646174610000000085526040820160208251919201935f5b8281106126f4575050506126559250037fffffffffffffffffffffffffffffffffffffffffffffffffffffffffffffffe08101835282610fa3565b8551845294810194869450928101926001016126b9565b9081518111612732576fffffffffffffffffffffffffffffffff60209116910160801b1790565b61277192506040519283927f23230fa3000000000000000000000000000000000000000000000000000000008452606060048501526064840190611a85565b905f602484015260448301520390fd5b906116779261279b6127a9926080855260808501906116c3565b908382036020850152611a85565b905f60408201526060818303910152611a2a565b93929161280f6128229161280160a0947f74626879706572736361706500000000496e76656e746f7279536c6f74000000895260c060208a015260c08901906116c3565b908782036040890152611a85565b5f60608701528581036080870152611a2a565b930152565b65ffffffffffff61284461167795936060845260608401906116c3565b931660208201526040818403910152611a85565b65ffffffffffff61289b61167795937f74626879706572736361706500000000496e76656e746f7279536c6f7400000084526080602085015260808401906116c3565b931660408201526060818403910152611a85565b604051906020907fffffffffffffffffffffffffffffffffffffffffffffffffffffffffffffffe09081604f850116604052601084526020840192601091925b8183101561294057505080612905575b50505090565b7fffffffffffffffffffffffffffffffffffffffffffffffffffffffffffffffff9060031b1c908183511691199054161790525f80806128ff565b816001858394959796548752019401940191906128ef565b604080517fffffffffffffffffffffffffffffffffffffffffffffffffffffffffffffffe0603f85830101811690925283815292602080850193925b818310156129a9575050806129055750505090565b81600185839495979654875201940194019190612994565b6040516129d68161254e602082019485612421565b5190207f14e2fcc58e58e68ec7edc30c8d50dccc3ce2714a623ec81f46b6a63922d765691890565b6040516129d68161254e602082019485612473565b6040516129d68161254e6020820194856124c5565b90915b6020808210612a67578083947fffffffffffffffffffffffffffffffffffffffffffffffffffffffffffffffe093945181520193019101612a2b565b508015612aa3577fffffffffffffffffffffffffffffffffffffffffffffffffffffffffffffffff9060031b1c90818351169119905116179052565b505050565b612ab0611028565b80511561107f57612b17612b0f6020927f74626879706572736361706500000000496e76656e746f7279536c6f740000006020820152612b09612afb612af583612517565b926129c1565b5460381c64ffffffffff1690565b90612958565b80519061270b565b8060801c9160156fffffffffffffffffffffffffffffffff8193160490604051936020850160208460051b8701016040528386525f5b848110612b5d5750505050505090565b825182529185019190830190600101612b4d565b905f5b6020808210612bb157600183947fffffffffffffffffffffffffffffffffffffffffffffffffffffffffffffffe093945181550193019101612b74565b5080612bbc57505050565b7fffffffffffffffffffffffffffffffffffffffffffffffffffffffffffffffff9060031b1c90818354169119905116179055565b91906020808210612bb157600183947fffffffffffffffffffffffffffffffffffffffffffffffffffffffffffffffe093945181550193019101612b74565b9092919280612c79575b50916020808210612bb157600183947fffffffffffffffffffffffffffffffffffffffffffffffffffffffffffffffe093945181550193019101612b74565b6020811015612d0d575b8015612c3a57806020949394038160031b7fffffffffffffffffffffffffffffffffffffffffffffffffffffffffffffffff8560031b1c19811c908651901c908019855416911617835580841115612d065760017fffffffffffffffffffffffffffffffffffffffffffffffffffffffffffffffe093019401920101915f612c3a565b5050505050565b90601f908260051c019116612c83565b82516113dd93602001929091612c3056fea2646970667358221220e646683e4fd6526a3c0737d53355fd795e03b9a43b6a078dec138f931cacb5a264736f6c63430008180033","linkReferences":{}},"methodIdentifiers":{"MAX_INVENTORY_SLOTS()":"42f1bb1d","_msgSender()":"119df25f","_msgValue()":"45ec9354","_world()":"e1af802c","addItem(address,uint16,uint32)":"ff99adab","findItem(address,uint16)":"93ee72d5","getFreeSlots(address)":"7f5c21a7","hasItem(address,uint16)":"101b2968","moveItem(address,uint8,uint8)":"7df94658","removeItem(address,uint8,uint32)":"eedf0ad6","supportsInterface(bytes4)":"01ffc9a7"},"id":93}