{"abi":[{"type":"constructor","inputs":[],"stateMutability":"nonpayable"},{"type":"function","name":"_msgSender","inputs":[],"outputs":[{"name":"sender","type":"address","internalType":"address"}],"stateMutability":"view"},{"type":"function","name":"_msgValue","inputs":[],"outputs":[{"name":"value","type":"uint256","internalType":"uint256"}],"stateMutability":"view"},{"type":"function","name":"_world","inputs":[],"outputs":[{"name":"","type":"address","internalType":"address"}],"stateMutability":"view"},{"type":"function","name":"getPosition","inputs":[{"name":"player","type":"address","internalType":"address"}],"outputs":[{"name":"x","type":"int32","internalType":"int32"},{"name":"y","type":"int32","internalType":"int32"},{"name":"z","type":"int32","internalType":"int32"}],"stateMutability":"view"},{"type":"function","name":"heal","inputs":[{"name":"player","type":"address","internalType":"address"},{"name":"amount","type":"uint32","internalType":"uint32"}],"outputs":[],"stateMutability":"nonpayable"},{"type":"function","name":"isAlive","inputs":[{"name":"player","type":"address","internalType":"address"}],"outputs":[{"name":"","type":"bool","internalType":"bool"}],"stateMutability":"view"},{"type":"function","name":"move","inputs":[{"name":"x","type":"int32","internalType":"int32"},{"name":"y","type":"int32","internalType":"int32"},{"name":"z","type":"int32","internalType":"int32"}],"outputs":[],"stateMutability":"nonpayable"},{"type":"function","name":"register","inputs":[{"name":"name","type":"string","internalType":"string"}],"outputs":[],"stateMutability":"nonpayable"},{"type":"function","name":"supportsInterface","inputs":[{"name":"interfaceId","type":"bytes4","internalType":"bytes4"}],"outputs":[{"name":"","type":"bool","internalType":"bool"}],"stateMutability":"pure"},{"type":"function","name":"takeDamage","inputs":[{"name":"player","type":"address","internalType":"address"},{"name":"amount","type":"uint32","internalType":"uint32"}],"outputs":[{"name":"died","type":"bool","internalType":"bool"}],"stateMutability":"nonpayable"},{"type":"function","name":"updateMaxHealth","inputs":[{"name":"player","type":"address","internalType":"address"},{"name":"constitutionLevel","type":"uint8","internalType":"uint8"}],"outputs":[],"stateMutability":"nonpayable"},{"type":"event","name":"ItemDropped","inputs":[{"name":"player","type":"address","indexed":true,"internalType":"address"},{"name":"itemId","type":"uint16","indexed":true,"internalType":"uint16"},{"name":"instanceId","type":"bytes32","indexed":false,"internalType":"bytes32"},{"name":"x","type":"int32","indexed":false,"internalType":"int32"},{"name":"y","type":"int32","indexed":false,"internalType":"int32"},{"name":"z","type":"int32","indexed":false,"internalType":"int32"},{"name":"quantity","type":"uint32","indexed":false,"internalType":"uint32"}],"anonymous":false},{"type":"event","name":"ItemProtected","inputs":[{"name":"player","type":"address","indexed":true,"internalType":"address"},{"name":"itemId","type":"uint16","indexed":true,"internalType":"uint16"},{"name":"instanceId","type":"bytes32","indexed":false,"internalType":"bytes32"}],"anonymous":false},{"type":"event","name":"PlayerDied","inputs":[{"name":"player","type":"address","indexed":true,"internalType":"address"},{"name":"deathX","type":"int32","indexed":false,"internalType":"int32"},{"name":"deathY","type":"int32","indexed":false,"internalType":"int32"},{"name":"deathZ","type":"int32","indexed":false,"internalType":"int32"}],"anonymous":false},{"type":"event","name":"PlayerMoved","inputs":[{"name":"player","type":"address","indexed":true,"internalType":"address"},{"name":"x","type":"int32","indexed":false,"internalType":"int32"},{"name":"y","type":"int32","indexed":false,"internalType":"int32"},{"name":"z","type":"int32","indexed":false,"internalType":"int32"}],"anonymous":false},{"type":"event","name":"PlayerRegistered","inputs":[{"name":"player","type":"address","indexed":true,"internalType":"address"},{"name":"name","type":"string","indexed":false,"internalType":"string"}],"anonymous":false},{"type":"event","name":"PlayerRespawned","inputs":[{"name":"player","type":"address","indexed":true,"internalType":"address"},{"name":"spawnX","type":"int32","indexed":false,"internalType":"int32"},{"name":"spawnY","type":"int32","indexed":false,"internalType":"int32"},{"name":"spawnZ","type":"int32","indexed":false,"internalType":"int32"}],"anonymous":false},{"type":"event","name":"Store_SetRecord","inputs":[{"name":"tableId","type":"bytes32","indexed":true,"internalType":"ResourceId"},{"name":"keyTuple","type":"bytes32[]","indexed":false,"internalType":"bytes32[]"},{"name":"staticData","type":"bytes","indexed":false,"internalType":"bytes"},{"name":"encodedLengths","type":"bytes32","indexed":false,"internalType":"EncodedLengths"},{"name":"dynamicData","type":"bytes","indexed":false,"internalType":"bytes"}],"anonymous":false},{"type":"event","name":"Store_SpliceStaticData","inputs":[{"name":"tableId","type":"bytes32","indexed":true,"internalType":"ResourceId"},{"name":"keyTuple","type":"bytes32[]","indexed":false,"internalType":"bytes32[]"},{"name":"start","type":"uint48","indexed":false,"internalType":"uint48"},{"name":"data","type":"bytes","indexed":false,"internalType":"bytes"}],"anonymous":false},{"type":"error","name":"Slice_OutOfBounds","inputs":[{"name":"data","type":"bytes","internalType":"bytes"},{"name":"start","type":"uint256","internalType":"uint256"},{"name":"end","type":"uint256","internalType":"uint256"}]}],"bytecode":{"object":"0x6080604052346200008c57620000306200001862000090565b60648152600a602082015260646040820152620000c4565b620000566200003e62000090565b60c88152600a602082015260966040820152620000c4565b6200007c6200006462000090565b60968152600a602082015260c86040820152620000c4565b604051614d759081620001668239f35b5f80fd5b60405190606082016001600160401b03811183821017620000b057604052565b634e487b7160e01b5f52604160045260245ffd5b5f549068010000000000000000821015620000b0576001808301805f5583101562000151575f808052927f290decd9548b62a8d60345a988386fc84ba6bc95484008f6362f93160ef3e5630191908360205b6003821062000126575050505055565b9091818496829551908560051b9163ffffffff908116831b921b191617960192019092919262000116565b634e487b7160e01b5f52603260045260245ffdfe60806040526004361015610011575f80fd5b5f3560e01c806301ffc9a7146100c4578063048296fa146100bf578063119df25f146100ba57806316c19739146100b55780631703e5f9146100b057806345ec9354146100ab578063521c5a12146100a6578063582bca83146100a15780636c53eb2a1461009c578063e1af802c146100975763f2c298be14610092575f80fd5b6107ad565b610660565b6104be565b61040d565b6103a6565b61034b565b6102f9565b61028b565b610235565b610208565b346101835760207ffffffffffffffffffffffffffffffffffffffffffffffffffffffffffffffffc360112610183576004357fffffffff00000000000000000000000000000000000000000000000000000000811680910361018357807fb5dee1270000000000000000000000000000000000000000000000000000000060209214908115610159575b506040519015158152f35b7f01ffc9a7000000000000000000000000000000000000000000000000000000009150145f61014e565b5f80fd5b6004359073ffffffffffffffffffffffffffffffffffffffff8216820361018357565b7ffffffffffffffffffffffffffffffffffffffffffffffffffffffffffffffffc60409101126101835760043573ffffffffffffffffffffffffffffffffffffffff81168103610183579060243563ffffffff811681036101835790565b3461018357602061022161021b366101aa565b906108cf565b6040519015158152f35b5f91031261018357565b34610183575f7ffffffffffffffffffffffffffffffffffffffffffffffffffffffffffffffffc36011261018357602061026d610ffa565b73ffffffffffffffffffffffffffffffffffffffff60405191168152f35b346101835760207ffffffffffffffffffffffffffffffffffffffffffffffffffffffffffffffffc360112610183576102ca6102c5610187565b61106a565b80516020808301516040938401518451600394850b815291840b92820192909252910b91810191909152606090f35b346101835760207ffffffffffffffffffffffffffffffffffffffffffffffffffffffffffffffffc36011261018357602063ffffffff61033f61033a610187565b610d83565b51161515604051908152f35b34610183575f7ffffffffffffffffffffffffffffffffffffffffffffffffffffffffffffffffc3601126101835760206040517fffffffffffffffffffffffffffffffffffffffffffffffffffffffffffffffe03601358152f35b34610183576103b4366101aa565b6103c56103c083610d21565b61083d565b6103ce82610d83565b63ffffffff9182808351169116019282841161040857838360206103fe9694015116938491161161040057610e50565b005b829150610e50565b6108a2565b346101835760407ffffffffffffffffffffffffffffffffffffffffffffffffffffffffffffffffc36011261018357610444610187565b60243560ff811680910361018357600a906104616103c084610d21565b0263ffffffff91828216918203610408576103fe9261047f82610d83565b51169082821161040057610e50565b600435908160030b820361018357565b602435908160030b820361018357565b604435908160030b820361018357565b346101835760607ffffffffffffffffffffffffffffffffffffffffffffffffffffffffffffffffc360112610183576104f561048e565b6104fd61049e565b906105066104ae565b9161050f610ffa565b9161051c6103c084610d21565b61053c60108560030b0560010b60108360030b0560010b8685858861114b565b6105446112b8565b5061054d610ce6565b73ffffffffffffffffffffffffffffffffffffffff84169481511561065b5761062e6106247fdcd8aaaa06454f13d15afde0bb2190e2ab57ef3207a93db6b53162822eb56ea8966105ea6105a9868b6020610656990152611b8e565b64ffffffffff6105bc96939492966112b8565b96602086015160f81c604160218801519701519660208a019760408b015287521515885260381c16906141ca565b936106186fffffffffffffffffffffffffffffffff861661060a8161208f565b96602088019060801c614cb0565b84606082015251151590565b9051904292611392565b6040519384938491926040919493606084019560030b845260030b602084015260030b910152565b0390a2005b610a6d565b34610183575f7ffffffffffffffffffffffffffffffffffffffffffffffffffffffffffffffffc36011261018357602061026d611fe3565b7f4e487b71000000000000000000000000000000000000000000000000000000005f52604160045260245ffd5b67ffffffffffffffff81116106d957604052565b610698565b6040810190811067ffffffffffffffff8211176106d957604052565b6060810190811067ffffffffffffffff8211176106d957604052565b6080810190811067ffffffffffffffff8211176106d957604052565b90601f7fffffffffffffffffffffffffffffffffffffffffffffffffffffffffffffffe0910116810190811067ffffffffffffffff8211176106d957604052565b67ffffffffffffffff81116106d957601f017fffffffffffffffffffffffffffffffffffffffffffffffffffffffffffffffe01660200190565b346101835760207ffffffffffffffffffffffffffffffffffffffffffffffffffffffffffffffffc3601126101835760043567ffffffffffffffff8111610183573660238201121561018357806004013561080781610773565b906108156040519283610732565b8082523660248285010111610183576020815f9260246103fe96018386013783010152610bce565b1561084457565b60646040517f08c379a000000000000000000000000000000000000000000000000000000000815260206004820152601560248201527f506c61796572206e6f74207265676973746572656400000000000000000000006044820152fd5b7f4e487b71000000000000000000000000000000000000000000000000000000005f52601160045260245ffd5b6108db6103c082610d21565b6108e481610d83565b8051909263ffffffff91908216908216808210610987575050509060200151907fffffffff00000000000000000000000000000000000000000000000000000000604051925f602085015260e01b16602483015260088252610945826106de565b61094d610ce6565b80511561065b576109829261097d9173ffffffffffffffffffffffffffffffffffffffff84166020820152611e45565b610e98565b600190565b039080821161040857602061099f9401511691610e50565b5f90565b156109aa57565b60646040517f08c379a000000000000000000000000000000000000000000000000000000000815260206004820152601960248201527f506c6179657220616c72656164792072656769737465726564000000000000006044820152fd5b15610a0f57565b60646040517f08c379a000000000000000000000000000000000000000000000000000000000815260206004820152601c60248201527f4e616d65206d75737420626520312d32302063686172616374657273000000006044820152fd5b7f4e487b71000000000000000000000000000000000000000000000000000000005f52603260045260245ffd5b5f5481101561065b575f80527f290decd9548b62a8d60345a988386fc84ba6bc95484008f6362f93160ef3e56301905f90565b9060405191548060030b83528060201c60030b602084015260401c60030b6040830152610af9826106fa565b565b5f5b838110610b0c5750505f910152565b8181015183820152602001610afd565b90606051918281525f5b838110610b6357507fffffffffffffffffffffffffffffffffffffffffffffffffffffffffffffffe0601f845f6020809697860101520116010190565b806020916080015182828501015201610b26565b907fffffffffffffffffffffffffffffffffffffffffffffffffffffffffffffffe0601f602093610bb381518092818752878088019101610afb565b0116010190565b906020610bcb928181520190610b77565b90565b7fe04d23b73ae3d3b27074da9719b5a4cd521395aaf86bfe7e374933ecb567731a73ffffffffffffffffffffffffffffffffffffffff610c0c610ffa565b610c24610c1f610c1b83610d21565b1590565b6109a3565b610c3984518015159081610cda575b50610a08565b610c45844242846112ed565b610c8e610c63610c5d610c585f546113be565b610a9a565b50610acd565b805160030b6040602083015160030b92015160030b6010810560010b926010830560010b928661114b565b610c9781610de4565b610ca08161140e565b610ca981611578565b610cb281611698565b610cbb816117d9565b610cc4816118cd565b610cd5604051928392169482610bba565b0390a2565b6014915011155f610c33565b60405190610cf3826106de565b6001825260203681840137565b80511561065b5760200190565b805182101561065b5760209160051b010190565b610d29610ce6565b80511561065b5773ffffffffffffffffffffffffffffffffffffffff610d5492166020820152611a02565b60f81c90565b604051906040820182811067ffffffffffffffff8211176106d9576040525f6020838281520152565b610d8b610d5a565b50610d94610ce6565b80511561065b5773ffffffffffffffffffffffffffffffffffffffff610dbf92166020820152611c97565b5050610dc9610d5a565b906024602082015191015160e01c602083015260e01c815290565b6040517c6400000000000000000000000000000000000000000000000000000000806020830152602482015260088152610e1d816106de565b610e25610ce6565b80511561065b5773ffffffffffffffffffffffffffffffffffffffff610af993166020820152611e45565b9190604051917fffffffff00000000000000000000000000000000000000000000000000000000809260e01b16602084015260e01b16602482015260088152610e1d816106de565b7f70b198330127a7b958040236de84a5bfa533a1af8c75e16758e6984531be6d45610f5291610ec68161106a565b7ffa6c1c9a5416b8ff10f457002d34f984ce2a8e406984b9e2a56959c81c3701fe610ef2825160030b90565b91610f0f6040610f06602084015160030b90565b92015160030b90565b9273ffffffffffffffffffffffffffffffffffffffff85169687946040519384938491926040919493606084019560030b845260030b602084015260030b910152565b0390a2610f65610c5d610c585f546113be565b90610cd58251600390810b93610fc76020820194610f9f8651850b60408501988951870b6010810560010b926010830560010b928661114b565b610fc2610fbb6020610fb084610d83565b015163ffffffff1690565b8083610e50565b6118cd565b51810b9251810b9351900b6040519384938491926040919493606084019560030b845260030b602084015260030b910152565b7fffffffffffffffffffffffffffffffffffffffffffffffffffffffffffffffcc36013560601c90811561102a57565b339150565b6040519060a0820182811067ffffffffffffffff8211176106d9576040525f6080838281528260208201528260408201528260608201520152565b61107261102f565b5061107b610ce6565b80511561065b5773ffffffffffffffffffffffffffffffffffffffff6110a692166020820152611d6e565b5050610bcb6110b361102f565b91611141602082015191611137602482015160e01d9161112d6110e96110dd602884015160e01c90565b63ffffffff1660030b90565b91611123611119611106602e611110611106602c87015160f01c90565b61ffff1660010b90565b94015160f01c90565b60010b60808b0152565b60010b6060890152565b60030b6040870152565b60030b6020850152565b60e01d60030b8252565b9391949290946040519560e01b602087015260e01b602486015260e01b602885015260f01b602c84015260f01b602e8301526010825261118a826106de565b611192610ce6565b9073ffffffffffffffffffffffffffffffffffffffff8091166111b483610d00565b526111bd611fe3565b163081036111d0575090610af991612333565b90813b15610183575f916112498361127a9361128f604051978896879586947f298314fb0000000000000000000000000000000000000000000000000000000086527f74626879706572736361706500000000506f736974696f6e0000000000000000600487015260a0602487015260a48601906119c4565b7ffffffffffffffffffffffffffffffffffffffffffffffffffffffffffffffffc9283868303016044870152610b77565b90846064850152838203016084840152610b1c565b03925af180156112b3576112a05750565b806112ad610af9926106c5565b8061022b565b6119f7565b604051906080820182811067ffffffffffffffff8211176106d957604052606080835f81525f60208201525f60408201520152565b90610af99392604051917f01000000000000000000000000000000000000000000000000000000000000006020840152602183015260418201526041815261133481610716565b825161134a816040519560208088019101610afb565b61135e602085838101038087520185610732565b73ffffffffffffffffffffffffffffffffffffffff61137b610ce6565b931661138684610d00565b528060381b1791611eee565b9192610af9949360405192151560f81b6020840152602183015260418201526041815261133481610716565b8015611409575a60405160208101914283524460408301523360601b606083015260748201526074815260a0810181811067ffffffffffffffff8211176106d9576040525190200690565b505f90565b604051907f01000000000000000000000000000000000000000000000000000000000000008060208401525f60218401528060258401525f602684015280602a8401525f602b8401527f0a00000000000000000000000000000000000000000000000000000000000000602f8401527d048200000000000000000000000000000000000000000000000000000000603084015260348301525f6035830152601982526114b9826106de565b6114c1610ce6565b9073ffffffffffffffffffffffffffffffffffffffff8091166114e383610d00565b526114ec611fe3565b163081036114ff575090610af991612d97565b90813b15610183575f916112498361127a9361128f604051978896879586947f298314fb0000000000000000000000000000000000000000000000000000000086527f74626879706572736361706500000000436f6d626174536b696c6c7300000000600487015260a0602487015260a48601906119c4565b604051907f01000000000000000000000000000000000000000000000000000000000000008060208401525f60218401528060258401525f602684015280602a8401525f602b840152602f8301525f6030830152601482526115d9826106de565b6115e1610ce6565b9073ffffffffffffffffffffffffffffffffffffffff80911661160383610d00565b5261160c611fe3565b1630810361161f575090610af991612ffd565b90813b15610183575f916112498361127a9361128f604051978896879586947f298314fb0000000000000000000000000000000000000000000000000000000086527f74626879706572736361706500000000476174686572696e67536b696c6c7300600487015260a0602487015260a48601906119c4565b6116a0610ce6565b9073ffffffffffffffffffffffffffffffffffffffff9082511561065b5781166020830152604051905f6020830152602082526116dc826106de565b6116e4611fe3565b16913083036116f757610af992506134c9565b90823b15610183576117a39261176d5f8094604051968795869485937f390baae00000000000000000000000000000000000000000000000000000000085527f74626879706572736361706500000000436f696e730000000000000000000000600486015260a0602486015260a48501906119c4565b908460448501527ffffffffffffffffffffffffffffffffffffffffffffffffffffffffffffffffc848303016064850152610b77565b7e80040020202020000000000000000000000000000000000000000000000000608483015203925af180156112b3576112a05750565b604051905f60208301525f60228301525f60248301525f60268301525f60288301525f602a830152600c825261180e826106de565b611816610ce6565b9073ffffffffffffffffffffffffffffffffffffffff80911661183883610d00565b52611841611fe3565b16308103611854575090610af9916125fe565b90813b15610183575f916112498361127a9361128f604051978896879586947f298314fb0000000000000000000000000000000000000000000000000000000086527f7462687970657273636170650000000045717569706d656e7400000000000000600487015260a0602487015260a48601906119c4565b604051905f60208301525f60218301525f60418301525f6042830152604282526118f682610716565b6118fe610ce6565b9073ffffffffffffffffffffffffffffffffffffffff80911661192083610d00565b52611929611fe3565b1630810361193c575090610af991613263565b90813b15610183575f916112498361127a9361128f604051978896879586947f298314fb0000000000000000000000000000000000000000000000000000000086527f74626879706572736361706500000000436f6d62617454617267657400000000600487015260a0602487015260a48601906119c4565b90816020910312610183575190565b9081518082526020808093019301915f5b8281106119e3575050505090565b8351855293810193928101926001016119d5565b6040513d5f823e3d90fd5b73ffffffffffffffffffffffffffffffffffffffff611a1f611fe3565b16308103611a315750610bcb90612025565b611a9a9160209160405180809581947f8c364d590000000000000000000000000000000000000000000000000000000083527f74626879706572736361706500000000506c617965720000000000000000000060048401526080602484015260848301906119c4565b5f60448301527e41030101202000000000000000000000000000000000000000000000000000606483015203915afa9081156112b3575f91611ada575090565b610bcb915060203d602011611afc575b611af48183610732565b8101906119b5565b503d611aea565b81601f82011215610183578051611b1981610773565b92611b276040519485610732565b8184526020828401011161018357610bcb9160208085019101610afb565b90916060828403126101835781519167ffffffffffffffff928381116101835784611b71918301611b03565b93602082015193604083015190811161018357610bcb9201611b03565b73ffffffffffffffffffffffffffffffffffffffff611bab611fe3565b16308103611bc45750611bbd906120eb565b9192909190565b611c2d92915f9160405180809681947f419b58fd0000000000000000000000000000000000000000000000000000000083527f74626879706572736361706500000000506c617965720000000000000000000060048401526060602484015260648301906119c4565b7e41030101202000000000000000000000000000000000000000000000000000604483015203915afa9081156112b3575f80935f93611c6d575b50929190565b91935050611c8d91503d805f833e611c858183610732565b810190611b45565b929092915f611c67565b73ffffffffffffffffffffffffffffffffffffffff611cb4611fe3565b16308103611cc65750611bbd90612203565b611d2f92915f9160405180809681947f419b58fd0000000000000000000000000000000000000000000000000000000083527f746268797065727363617065000000004865616c74680000000000000000000060048401526060602484015260648301906119c4565b7e08020004040000000000000000000000000000000000000000000000000000604483015203915afa9081156112b3575f80935f93611c6d5750929190565b73ffffffffffffffffffffffffffffffffffffffff611d8b611fe3565b16308103611d9d5750611bbd906122b9565b611e0692915f9160405180809681947f419b58fd0000000000000000000000000000000000000000000000000000000083527f74626879706572736361706500000000506f736974696f6e000000000000000060048401526060602484015260648301906119c4565b7e10050004040402020000000000000000000000000000000000000000000000604483015203915afa9081156112b3575f80935f93611c6d5750929190565b73ffffffffffffffffffffffffffffffffffffffff611e62611fe3565b16308103611e75575090610af991612864565b90813b15610183575f916112498361127a9361128f604051978896879586947f298314fb0000000000000000000000000000000000000000000000000000000086527f746268797065727363617065000000004865616c746800000000000000000000600487015260a0602487015260a48601906119c4565b9291909273ffffffffffffffffffffffffffffffffffffffff611f0f611fe3565b16308103611f22575092610af993612aca565b909192813b15610183575f611fcf9361128f8296611f9e94604051998a98899788967f298314fb0000000000000000000000000000000000000000000000000000000088527f74626879706572736361706500000000506c6179657200000000000000000000600489015260a0602489015260a48801906119c4565b7ffffffffffffffffffffffffffffffffffffffffffffffffffffffffffffffffc9283888303016044890152610b77565b926064860152848303016084850152610b77565b7f629a4c26e296b22a8e0856e9f6ecb2d1008d7e00081111962cd175fa7488e1755473ffffffffffffffffffffffffffffffffffffffff1680610bcb57503390565b6040516120668161203a6020820194856136e5565b037fffffffffffffffffffffffffffffffffffffffffffffffffffffffffffffffe08101835282610732565b5190207f86425bff6b57326c7859e89024fe4f238ca327a1ae4a230180dd2f0e88aaa7d9185490565b9061209982610773565b6120a66040519182610732565b8281527fffffffffffffffffffffffffffffffffffffffffffffffffffffffffffffffe06120d48294610773565b0190602036910137565b9190820180921161040857565b906120fd6120f883613a2b565b6142bc565b906121078361440b565b549261211b66ffffffffffffff851661208f565b9360209060208601925f935b60019060ff8616828110156121f7579064ffffffffff856121488987613c67565b936028026038011c16918190835b88808210156121c45750612173955080612189575b5050506120de565b9360ff8091169081146104085760010193612127565b7fffffffffffffffffffffffffffffffffffffffffffffffffffffffffffffffff9060031b1c908183511691199054161790525f808061216b565b8254845290920191908501907fffffffffffffffffffffffffffffffffffffffffffffffffffffffffffffffe001612156565b50505050939492915050565b5f90612210606091613a40565b604051906020907fffffffffffffffffffffffffffffffffffffffffffffffffffffffffffffffe090816047850116604052600884526020840192600891925b818310156122a157505080612266575b50505092565b7fffffffffffffffffffffffffffffffffffffffffffffffffffffffffffffffff9060031b1c908183511691199054161790525f8080612260565b81600185839495979654875201940194019190612250565b5f906122c6606091613a55565b604051906020907fffffffffffffffffffffffffffffffffffffffffffffffffffffffffffffffe09081604f850116604052601084526020840192601091925b8183101561231b575050806122665750505092565b81600185839495979654875201940194019190612306565b604092835192602084017f746273746f72650000000000000000005461626c65730000000000000000000081527f74626879706572736361706500000000506f736974696f6e0000000000000000948587820152868152612393816106fa565b5190207f86425bff6b57326c7859e89024fe4f238ca327a1ae4a230180dd2f0e88aaa7d91854916123c2614760565b905f5b82518110156124b4576124296124046123de8386610d0d565b517fffffffffffffffffffffffffffffffffffffffffff00000000000000000000001690565b7fffffffffffffffffffffffffffffffffffffffffff00000000000000000000001690565b6001808260581c1614612440575b506001016123c5565b60601c90813b156101835788517f57066c9c000000000000000000000000000000000000000000000000000000008152915f9083908183816124878c8c8f60048501613fa6565b03925af19182156112b3576001926124a1575b5090612437565b806112ad6124ae926106c5565b5f61249a565b50947f8dbb3a9672eebfd3773e72dd9c102393436816d832c7ba9e1e1ac8fcadcac7a98751806124e5868983613f3c565b0390a26125006124f485613a55565b83516020850191614c71565b60ff808460e01c16806125bf575b50505f5b81518110156125b65761252b6124046123de8385610d0d565b6002808260581c1614612542575b50600101612512565b60601c90813b156101835787517f5b28cdaf000000000000000000000000000000000000000000000000000000008152915f9083908183816125898b8b8e60048501613fa6565b03925af19182156112b3576001926125a3575b5090612539565b806112ad6125b0926106c5565b5f61259c565b50505050509050565b5f6125c987614420565b555f60805b82848316106125de57505061250e565b6001816125f586936125f0868d613ccd565b614bf1565b920116906125ce565b604092835192602084017f746273746f72650000000000000000005461626c65730000000000000000000081527f7462687970657273636170650000000045717569706d656e740000000000000094858782015286815261265e816106fa565b5190207f86425bff6b57326c7859e89024fe4f238ca327a1ae4a230180dd2f0e88aaa7d918549161268d614807565b905f5b8251811015612734576126a96124046123de8386610d0d565b6001808260581c16146126c0575b50600101612690565b60601c90813b156101835788517f57066c9c000000000000000000000000000000000000000000000000000000008152915f9083908183816127078c8c8f60048501614010565b03925af19182156112b357600192612721575b50906126b7565b806112ad61272e926106c5565b5f61271a565b50947f8dbb3a9672eebfd3773e72dd9c102393436816d832c7ba9e1e1ac8fcadcac7a9875180612765868983613f3c565b0390a26127746124f485613a6a565b60ff808460e01c168061282a575b50505f5b81518110156125b65761279f6124046123de8385610d0d565b6002808260581c16146127b6575b50600101612786565b60601c90813b156101835787517f5b28cdaf000000000000000000000000000000000000000000000000000000008152915f9083908183816127fd8b8b8e60048501614010565b03925af19182156112b357600192612817575b50906127ad565b806112ad612824926106c5565b5f612810565b5f612834876144ae565b555f60805b8284831610612849575050612782565b60018161285b86936125f0868d613d26565b92011690612839565b604092835192602084017f746273746f72650000000000000000005461626c65730000000000000000000081527f746268797065727363617065000000004865616c7468000000000000000000009485878201528681526128c4816106fa565b5190207f86425bff6b57326c7859e89024fe4f238ca327a1ae4a230180dd2f0e88aaa7d91854916128f36148ae565b905f5b825181101561299a5761290f6124046123de8386610d0d565b6001808260581c1614612926575b506001016128f6565b60601c90813b156101835788517f57066c9c000000000000000000000000000000000000000000000000000000008152915f90839081838161296d8c8c8f60048501614054565b03925af19182156112b357600192612987575b509061291d565b806112ad612994926106c5565b5f612980565b50947f8dbb3a9672eebfd3773e72dd9c102393436816d832c7ba9e1e1ac8fcadcac7a98751806129cb868983613f3c565b0390a26129da6124f485613a40565b60ff808460e01c1680612a90575b50505f5b81518110156125b657612a056124046123de8385610d0d565b6002808260581c1614612a1c575b506001016129ec565b60601c90813b156101835787517f5b28cdaf000000000000000000000000000000000000000000000000000000008152915f908390818381612a638b8b8e60048501614054565b03925af19182156112b357600192612a7d575b5090612a13565b806112ad612a8a926106c5565b5f612a76565b5f612a9a8761453c565b555f60805b8284831610612aaf5750506129e8565b600181612ac186936125f0868d613d7f565b92011690612a9f565b939293919091604092835194602086017f746273746f72650000000000000000005461626c65730000000000000000000081527f74626879706572736361706500000000506c6179657200000000000000000000968787820152868152612b30816106fa565b5190207f86425bff6b57326c7859e89024fe4f238ca327a1ae4a230180dd2f0e88aaa7d9185490612b5f614955565b905f5b8251811015612c0b57612b7b6124046123de8386610d0d565b6001808260581c1614612b92575b50600101612b62565b60601c90813b15610183575f888c9388838b612bde8f8c9051998a97889687957f57066c9c00000000000000000000000000000000000000000000000000000000875260048701614098565b03925af19182156112b357600192612bf8575b5090612b89565b806112ad612c05926106c5565b5f612bf1565b50967f8dbb3a9672eebfd3773e72dd9c102393436816d832c7ba9e1e1ac8fcadcac7a9875180612c3e8c8a898b85613f78565b0390a2612c59612c4d85613a2b565b84516020860191614c71565b60ff808360e01c1680612d1e575b50505f5b8151811015612d1357612c846124046123de8385610d0d565b6002808260581c1614612c9b575b50600101612c6b565b60601c90813b15610183575f878b9387838a612ce68a8f51998a97889687957f5b28cdaf00000000000000000000000000000000000000000000000000000000875260048701614098565b03925af19182156112b357600192612d00575b5090612c92565b806112ad612d0d926106c5565b5f612cf9565b505050505050509050565b9690989295949385612d32869a949a6145ca565b555f96602085015b8b8916908a821015612d8457612d7b8d9282612d7660019464ffffffffff8f8f908f90612d6691613dd8565b956028026038011c168094614c71565b6120de565b99011697612d3a565b5050939950939495509550955f80612c67565b604092835192602084017f746273746f72650000000000000000005461626c65730000000000000000000081527f74626879706572736361706500000000436f6d626174536b696c6c7300000000948587820152868152612df7816106fa565b5190207f86425bff6b57326c7859e89024fe4f238ca327a1ae4a230180dd2f0e88aaa7d9185491612e266149fc565b905f5b8251811015612ecd57612e426124046123de8386610d0d565b6001808260581c1614612e59575b50600101612e29565b60601c90813b156101835788517f57066c9c000000000000000000000000000000000000000000000000000000008152915f908390818381612ea08c8c8f600485016140fe565b03925af19182156112b357600192612eba575b5090612e50565b806112ad612ec7926106c5565b5f612eb3565b50947f8dbb3a9672eebfd3773e72dd9c102393436816d832c7ba9e1e1ac8fcadcac7a9875180612efe868983613f3c565b0390a2612f0d6124f485613a7f565b60ff808460e01c1680612fc3575b50505f5b81518110156125b657612f386124046123de8385610d0d565b6002808260581c1614612f4f575b50600101612f1f565b60601c90813b156101835787517f5b28cdaf000000000000000000000000000000000000000000000000000000008152915f908390818381612f968b8b8e600485016140fe565b03925af19182156112b357600192612fb0575b5090612f46565b806112ad612fbd926106c5565b5f612fa9565b5f612fcd87614658565b555f60805b8284831610612fe2575050612f1b565b600181612ff486936125f0868d613e31565b92011690612fd2565b604092835192602084017f746273746f72650000000000000000005461626c65730000000000000000000081527f74626879706572736361706500000000476174686572696e67536b696c6c730094858782015286815261305d816106fa565b5190207f86425bff6b57326c7859e89024fe4f238ca327a1ae4a230180dd2f0e88aaa7d918549161308c614aa3565b905f5b8251811015613133576130a86124046123de8386610d0d565b6001808260581c16146130bf575b5060010161308f565b60601c90813b156101835788517f57066c9c000000000000000000000000000000000000000000000000000000008152915f9083908183816131068c8c8f60048501614142565b03925af19182156112b357600192613120575b50906130b6565b806112ad61312d926106c5565b5f613119565b50947f8dbb3a9672eebfd3773e72dd9c102393436816d832c7ba9e1e1ac8fcadcac7a9875180613164868983613f3c565b0390a26131736124f485613b0d565b60ff808460e01c1680613229575b50505f5b81518110156125b65761319e6124046123de8385610d0d565b6002808260581c16146131b5575b50600101613185565b60601c90813b156101835787517f5b28cdaf000000000000000000000000000000000000000000000000000000008152915f9083908183816131fc8b8b8e60048501614142565b03925af19182156112b357600192613216575b50906131ac565b806112ad613223926106c5565b5f61320f565b5f6132338761466d565b555f60805b8284831610613248575050613181565b60018161325a86936125f0868d613e8a565b92011690613238565b604092835192602084017f746273746f72650000000000000000005461626c65730000000000000000000081527f74626879706572736361706500000000436f6d626174546172676574000000009485878201528681526132c3816106fa565b5190207f86425bff6b57326c7859e89024fe4f238ca327a1ae4a230180dd2f0e88aaa7d91854916132f2614b4a565b905f5b82518110156133995761330e6124046123de8386610d0d565b6001808260581c1614613325575b506001016132f5565b60601c90813b156101835788517f57066c9c000000000000000000000000000000000000000000000000000000008152915f90839081838161336c8c8c8f60048501614186565b03925af19182156112b357600192613386575b509061331c565b806112ad613393926106c5565b5f61337f565b50947f8dbb3a9672eebfd3773e72dd9c102393436816d832c7ba9e1e1ac8fcadcac7a98751806133ca868983613f3c565b0390a26133d96124f485613b9b565b60ff808460e01c168061348f575b50505f5b81518110156125b6576134046124046123de8385610d0d565b6002808260581c161461341b575b506001016133eb565b60601c90813b156101835787517f5b28cdaf000000000000000000000000000000000000000000000000000000008152915f9083908183816134628b8b8e60048501614186565b03925af19182156112b35760019261347c575b5090613412565b806112ad613489926106c5565b5f613475565b5f61349987614682565b555f60805b82848316106134ae5750506133e7565b6001816134c086936125f0868d613ee3565b9201169061349e565b91906134d483613975565b916134dd614697565b905f5b8251811015613582576134f96124046123de8386610d0d565b9060049182808260581c1614613515575b5060019150016134e0565b60601c803b1561018357855f91898361355c96604051978895869485937f964f667d000000000000000000000000000000000000000000000000000000008552840161426b565b03925af19182156112b3576001921561350a57806112ad61357c926106c5565b5f61350a565b509291906135e6826040947f74626879706572736361706500000000436f696e7300000000000000000000007f8c0b5119d4cec7b284c6b1b39252a03d1e2f2d7451a5895562524c113bb952be604051806135de868d83614240565b0390a2614d30565b5f5b815181101561368b576136016124046123de8385610d0d565b6008808260581c1614613618575b506001016135e8565b60601c90813b156101835784517fa8ba8721000000000000000000000000000000000000000000000000000000008152915f90839081838161365e8a8e6004840161426b565b03925af19182156112b357600192613678575b509061360f565b806112ad613685926106c5565b5f613671565b505050509050565b7f746273746f726500000000000000000053746f7265486f6f6b73000000000000815281516020918201928201915f5b8281106136d1575050505090565b8351855293810193928101926001016136c3565b7f74626879706572736361706500000000506c6179657200000000000000000000815281516020918201928201915f5b828110613723575050505090565b835185529381019392810192600101613715565b7f74626879706572736361706500000000506c6179657200000000000000000000815281516020918201928201915f5b828110613775575050505090565b835185529381019392810192600101613767565b7f746268797065727363617065000000004865616c746800000000000000000000815281516020918201928201915f5b8281106137c7575050505090565b8351855293810193928101926001016137b9565b7f74626879706572736361706500000000506f736974696f6e0000000000000000815281516020918201928201915f5b828110613819575050505090565b83518552938101939281019260010161380b565b7f7462687970657273636170650000000045717569706d656e7400000000000000815281516020918201928201915f5b82811061386b575050505090565b83518552938101939281019260010161385d565b7f74626879706572736361706500000000436f6d626174536b696c6c7300000000815281516020918201928201915f5b8281106138bd575050505090565b8351855293810193928101926001016138af565b7f74626879706572736361706500000000476174686572696e67536b696c6c7300815281516020918201928201915f5b82811061390f575050505090565b835185529381019392810192600101613901565b7f74626879706572736361706500000000436f6d62617454617267657400000000815281516020918201928201915f5b828110613961575050505090565b835185529381019392810192600101613953565b60405160208160208101937f74626879706572736361706500000000436f696e73000000000000000000000085526040820160208251919201935f5b828110613a14575050506139ec9250037fffffffffffffffffffffffffffffffffffffffffffffffffffffffffffffffe08101835282610732565b5190207f86425bff6b57326c7859e89024fe4f238ca327a1ae4a230180dd2f0e88aaa7d91890565b8551845294810194869450928101926001016139b1565b6040516139ec8161203a602082019485613737565b6040516139ec8161203a602082019485613789565b6040516139ec8161203a6020820194856137db565b6040516139ec8161203a60208201948561382d565b60405160208160208101937f74626879706572736361706500000000436f6d626174536b696c6c730000000085526040820160208251919201935f5b828110613af6575050506139ec9250037fffffffffffffffffffffffffffffffffffffffffffffffffffffffffffffffe08101835282610732565b855184529481019486945092810192600101613abb565b60405160208160208101937f74626879706572736361706500000000476174686572696e67536b696c6c730085526040820160208251919201935f5b828110613b84575050506139ec9250037fffffffffffffffffffffffffffffffffffffffffffffffffffffffffffffffe08101835282610732565b855184529481019486945092810192600101613b49565b60405160208160208101937f74626879706572736361706500000000436f6d6261745461726765740000000085526040820160208251919201935f5b828110613c12575050506139ec9250037fffffffffffffffffffffffffffffffffffffffffffffffffffffffffffffffe08101835282610732565b855184529481019486945092810192600101613bd7565b7f3b4102da22e32d82fc925482184f16c09fd4281692720b87d124aef6da48a0f190604051613c608161203a602082019485613693565b5190201890565b907fff000000000000000000000000000000000000000000000000000000000000007f3b4102da22e32d82fc925482184f16c09fd4281692720b87d124aef6da48a0f192604051613cc08161203a6020820194856136e5565b5190209160f81b16181890565b907fff000000000000000000000000000000000000000000000000000000000000007f3b4102da22e32d82fc925482184f16c09fd4281692720b87d124aef6da48a0f192604051613cc08161203a6020820194856137db565b907fff000000000000000000000000000000000000000000000000000000000000007f3b4102da22e32d82fc925482184f16c09fd4281692720b87d124aef6da48a0f192604051613cc08161203a60208201948561382d565b907fff000000000000000000000000000000000000000000000000000000000000007f3b4102da22e32d82fc925482184f16c09fd4281692720b87d124aef6da48a0f192604051613cc08161203a602082019485613789565b907fff000000000000000000000000000000000000000000000000000000000000007f3b4102da22e32d82fc925482184f16c09fd4281692720b87d124aef6da48a0f192604051613cc08161203a602082019485613737565b907fff000000000000000000000000000000000000000000000000000000000000007f3b4102da22e32d82fc925482184f16c09fd4281692720b87d124aef6da48a0f192604051613cc08161203a60208201948561387f565b907fff000000000000000000000000000000000000000000000000000000000000007f3b4102da22e32d82fc925482184f16c09fd4281692720b87d124aef6da48a0f192604051613cc08161203a6020820194856138d1565b907fff000000000000000000000000000000000000000000000000000000000000007f3b4102da22e32d82fc925482184f16c09fd4281692720b87d124aef6da48a0f192604051613cc08161203a602082019485613923565b90610bcb92613f56613f64926080855260808501906119c4565b908382036020850152610b77565b905f60408201526060818303910152610b1c565b90610bcb9492613f56613f93926080855260808501906119c4565b9260408201526060818403910152610b77565b939291613ff861400b91613fea60a0947f74626879706572736361706500000000506f736974696f6e0000000000000000895260c060208a015260c08901906119c4565b908782036040890152610b77565b5f60608701528581036080870152610b1c565b930152565b939291613ff861400b91613fea60a0947f7462687970657273636170650000000045717569706d656e7400000000000000895260c060208a015260c08901906119c4565b939291613ff861400b91613fea60a0947f746268797065727363617065000000004865616c746800000000000000000000895260c060208a015260c08901906119c4565b9594936140eb61400b936140dd60a096947f74626879706572736361706500000000506c61796572000000000000000000008b5260c060208c015260c08b01906119c4565b9089820360408b0152610b77565b9160608801528682036080880152610b77565b939291613ff861400b91613fea60a0947f74626879706572736361706500000000436f6d626174536b696c6c7300000000895260c060208a015260c08901906119c4565b939291613ff861400b91613fea60a0947f74626879706572736361706500000000476174686572696e67536b696c6c7300895260c060208a015260c08901906119c4565b939291613ff861400b91613fea60a0947f74626879706572736361706500000000436f6d62617454617267657400000000895260c060208a015260c08901906119c4565b90815181116141f1576fffffffffffffffffffffffffffffffff60209116910160801b1790565b61423092506040519283927f23230fa3000000000000000000000000000000000000000000000000000000008452606060048501526064840190610b77565b905f602484015260448301520390fd5b9091614257610bcb936060845260608401906119c4565b915f60208201526040818403910152610b77565b90916142a8610bcb937f74626879706572736361706500000000436f696e73000000000000000000000084526080602085015260808401906119c4565b915f60408201526060818403910152610b77565b604051906020907fffffffffffffffffffffffffffffffffffffffffffffffffffffffffffffffe090816080850116604052604184526020840192604191925b8183101561434d57505080614312575b50505090565b7fffffffffffffffffffffffffffffffffffffffffffffffffffffffffffffffff9060031b1c908183511691199054161790525f808061430c565b816001858394959796548752019401940191906142fc565b604080517fffffffffffffffffffffffffffffffffffffffffffffffffffffffffffffffe0603f85830101811690925283815292602080850193925b818310156143b6575050806143125750505090565b816001858394959796548752019401940191906143a1565b6040516143e38161203a602082019485613693565b5190207f14e2fcc58e58e68ec7edc30c8d50dccc3ce2714a623ec81f46b6a63922d765691890565b6040516143e38161203a6020820194856136e5565b60405160208160208101937f74626879706572736361706500000000506f736974696f6e000000000000000085526040820160208251919201935f5b828110614497575050506143e39250037fffffffffffffffffffffffffffffffffffffffffffffffffffffffffffffffe08101835282610732565b85518452948101948694509281019260010161445c565b60405160208160208101937f7462687970657273636170650000000045717569706d656e740000000000000085526040820160208251919201935f5b828110614525575050506143e39250037fffffffffffffffffffffffffffffffffffffffffffffffffffffffffffffffe08101835282610732565b8551845294810194869450928101926001016144ea565b60405160208160208101937f746268797065727363617065000000004865616c74680000000000000000000085526040820160208251919201935f5b8281106145b3575050506143e39250037fffffffffffffffffffffffffffffffffffffffffffffffffffffffffffffffe08101835282610732565b855184529481019486945092810192600101614578565b60405160208160208101937f74626879706572736361706500000000506c617965720000000000000000000085526040820160208251919201935f5b828110614641575050506143e39250037fffffffffffffffffffffffffffffffffffffffffffffffffffffffffffffffe08101835282610732565b855184529481019486945092810192600101614606565b6040516143e38161203a60208201948561387f565b6040516143e38161203a6020820194856138d1565b6040516143e38161203a602082019485613923565b61469f610ce6565b80511561065b576147066146fe6020927f74626879706572736361706500000000436f696e73000000000000000000000060208201526146f86146ea6146e483613c29565b926143ce565b5460381c64ffffffffff1690565b90614365565b8051906141ca565b8060801c9160156fffffffffffffffffffffffffffffffff8193160490604051936020850160208460051b8701016040528386525f5b84811061474c5750505050505090565b82518252918501919083019060010161473c565b614768610ce6565b80511561065b576147ad6146fe6020927f74626879706572736361706500000000506f736974696f6e000000000000000060208201526146f86146ea6146e483613c29565b8060801c9160156fffffffffffffffffffffffffffffffff8193160490604051936020850160208460051b8701016040528386525f5b8481106147f35750505050505090565b8251825291850191908301906001016147e3565b61480f610ce6565b80511561065b576148546146fe6020927f7462687970657273636170650000000045717569706d656e740000000000000060208201526146f86146ea6146e483613c29565b8060801c9160156fffffffffffffffffffffffffffffffff8193160490604051936020850160208460051b8701016040528386525f5b84811061489a5750505050505090565b82518252918501919083019060010161488a565b6148b6610ce6565b80511561065b576148fb6146fe6020927f746268797065727363617065000000004865616c74680000000000000000000060208201526146f86146ea6146e483613c29565b8060801c9160156fffffffffffffffffffffffffffffffff8193160490604051936020850160208460051b8701016040528386525f5b8481106149415750505050505090565b825182529185019190830190600101614931565b61495d610ce6565b80511561065b576149a26146fe6020927f74626879706572736361706500000000506c617965720000000000000000000060208201526146f86146ea6146e483613c29565b8060801c9160156fffffffffffffffffffffffffffffffff8193160490604051936020850160208460051b8701016040528386525f5b8481106149e85750505050505090565b8251825291850191908301906001016149d8565b614a04610ce6565b80511561065b57614a496146fe6020927f74626879706572736361706500000000436f6d626174536b696c6c730000000060208201526146f86146ea6146e483613c29565b8060801c9160156fffffffffffffffffffffffffffffffff8193160490604051936020850160208460051b8701016040528386525f5b848110614a8f5750505050505090565b825182529185019190830190600101614a7f565b614aab610ce6565b80511561065b57614af06146fe6020927f74626879706572736361706500000000476174686572696e67536b696c6c730060208201526146f86146ea6146e483613c29565b8060801c9160156fffffffffffffffffffffffffffffffff8193160490604051936020850160208460051b8701016040528386525f5b848110614b365750505050505090565b825182529185019190830190600101614b26565b614b52610ce6565b80511561065b57614b976146fe6020927f74626879706572736361706500000000436f6d6261745461726765740000000060208201526146f86146ea6146e483613c29565b8060801c9160156fffffffffffffffffffffffffffffffff8193160490604051936020850160208460051b8701016040528386525f5b848110614bdd5750505050505090565b825182529185019190830190600101614bcd565b905f5b6020808210614c3157600183947fffffffffffffffffffffffffffffffffffffffffffffffffffffffffffffffe093945181550193019101614bf4565b5080614c3c57505050565b7fffffffffffffffffffffffffffffffffffffffffffffffffffffffffffffffff9060031b1c90818354169119905116179055565b91906020808210614c3157600183947fffffffffffffffffffffffffffffffffffffffffffffffffffffffffffffffe093945181550193019101614bf4565b90915b6020808210614cef578083947fffffffffffffffffffffffffffffffffffffffffffffffffffffffffffffffe093945181520193019101614cb3565b508015614d2b577fffffffffffffffffffffffffffffffffffffffffffffffffffffffffffffffff9060031b1c90818351169119905116179052565b505050565b8151610af99260200191614c7156fea26469706673582212202d24b8a5cb692ad1b37e5d8e642fe4bcc9c296f82c7a94a45ab708eeeaf17f4664736f6c63430008180033","linkReferences":{}},"methodIdentifiers":{"_msgSender()":"119df25f","_msgValue()":"45ec9354","_world()":"e1af802c","getPosition(address)":"16c19739","heal(address,uint32)":"521c5a12","isAlive(address)":"1703e5f9","move(int32,int32,int32)":"6c53eb2a","register(string)":"f2c298be","supportsInterface(bytes4)":"01ffc9a7","takeDamage(address,uint32)":"048296fa","updateMaxHealth(address,uint8)":"582bca83"},"id":61}