{"abi":[{"type":"constructor","inputs":[],"stateMutability":"nonpayable"},{"type":"function","name":"_msgSender","inputs":[],"outputs":[{"name":"sender","type":"address","internalType":"address"}],"stateMutability":"view"},{"type":"function","name":"_msgValue","inputs":[],"outputs":[{"name":"value","type":"uint256","internalType":"uint256"}],"stateMutability":"view"},{"type":"function","name":"_world","inputs":[],"outputs":[{"name":"","type":"address","internalType":"address"}],"stateMutability":"view"},{"type":"function","name":"getPosition","inputs":[{"name":"player","type":"address","internalType":"address"}],"outputs":[{"name":"x","type":"int32","internalType":"int32"},{"name":"y","type":"int32","internalType":"int32"},{"name":"z","type":"int32","internalType":"int32"}],"stateMutability":"view"},{"type":"function","name":"heal","inputs":[{"name":"player","type":"address","internalType":"address"},{"name":"amount","type":"uint32","internalType":"uint32"}],"outputs":[],"stateMutability":"nonpayable"},{"type":"function","name":"isAlive","inputs":[{"name":"player","type":"address","internalType":"address"}],"outputs":[{"name":"","type":"bool","internalType":"bool"}],"stateMutability":"view"},{"type":"function","name":"itemsContract","inputs":[],"outputs":[{"name":"","type":"address","internalType":"address"}],"stateMutability":"view"},{"type":"function","name":"move","inputs":[{"name":"x","type":"int32","internalType":"int32"},{"name":"y","type":"int32","internalType":"int32"},{"name":"z","type":"int32","internalType":"int32"}],"outputs":[],"stateMutability":"nonpayable"},{"type":"function","name":"register","inputs":[{"name":"name","type":"string","internalType":"string"}],"outputs":[],"stateMutability":"nonpayable"},{"type":"function","name":"setItemsContract","inputs":[{"name":"_itemsContract","type":"address","internalType":"address"}],"outputs":[],"stateMutability":"nonpayable"},{"type":"function","name":"supportsInterface","inputs":[{"name":"interfaceId","type":"bytes4","internalType":"bytes4"}],"outputs":[{"name":"","type":"bool","internalType":"bool"}],"stateMutability":"pure"},{"type":"function","name":"takeDamage","inputs":[{"name":"player","type":"address","internalType":"address"},{"name":"amount","type":"uint32","internalType":"uint32"}],"outputs":[{"name":"died","type":"bool","internalType":"bool"}],"stateMutability":"nonpayable"},{"type":"function","name":"updateMaxHealth","inputs":[{"name":"player","type":"address","internalType":"address"},{"name":"constitutionLevel","type":"uint8","internalType":"uint8"}],"outputs":[],"stateMutability":"nonpayable"},{"type":"event","name":"ItemDropped","inputs":[{"name":"player","type":"address","indexed":true,"internalType":"address"},{"name":"itemId","type":"uint16","indexed":true,"internalType":"uint16"},{"name":"instanceId","type":"bytes32","indexed":false,"internalType":"bytes32"},{"name":"x","type":"int32","indexed":false,"internalType":"int32"},{"name":"y","type":"int32","indexed":false,"internalType":"int32"},{"name":"z","type":"int32","indexed":false,"internalType":"int32"},{"name":"quantity","type":"uint32","indexed":false,"internalType":"uint32"}],"anonymous":false},{"type":"event","name":"ItemProtected","inputs":[{"name":"player","type":"address","indexed":true,"internalType":"address"},{"name":"itemId","type":"uint16","indexed":true,"internalType":"uint16"},{"name":"instanceId","type":"bytes32","indexed":false,"internalType":"bytes32"}],"anonymous":false},{"type":"event","name":"PlayerDied","inputs":[{"name":"player","type":"address","indexed":true,"internalType":"address"},{"name":"deathX","type":"int32","indexed":false,"internalType":"int32"},{"name":"deathY","type":"int32","indexed":false,"internalType":"int32"},{"name":"deathZ","type":"int32","indexed":false,"internalType":"int32"}],"anonymous":false},{"type":"event","name":"PlayerMoved","inputs":[{"name":"player","type":"address","indexed":true,"internalType":"address"},{"name":"x","type":"int32","indexed":false,"internalType":"int32"},{"name":"y","type":"int32","indexed":false,"internalType":"int32"},{"name":"z","type":"int32","indexed":false,"internalType":"int32"}],"anonymous":false},{"type":"event","name":"PlayerRegistered","inputs":[{"name":"player","type":"address","indexed":true,"internalType":"address"},{"name":"name","type":"string","indexed":false,"internalType":"string"}],"anonymous":false},{"type":"event","name":"PlayerRespawned","inputs":[{"name":"player","type":"address","indexed":true,"internalType":"address"},{"name":"spawnX","type":"int32","indexed":false,"internalType":"int32"},{"name":"spawnY","type":"int32","indexed":false,"internalType":"int32"},{"name":"spawnZ","type":"int32","indexed":false,"internalType":"int32"}],"anonymous":false},{"type":"event","name":"Store_SetRecord","inputs":[{"name":"tableId","type":"bytes32","indexed":true,"internalType":"ResourceId"},{"name":"keyTuple","type":"bytes32[]","indexed":false,"internalType":"bytes32[]"},{"name":"staticData","type":"bytes","indexed":false,"internalType":"bytes"},{"name":"encodedLengths","type":"bytes32","indexed":false,"internalType":"EncodedLengths"},{"name":"dynamicData","type":"bytes","indexed":false,"internalType":"bytes"}],"anonymous":false},{"type":"event","name":"Store_SpliceStaticData","inputs":[{"name":"tableId","type":"bytes32","indexed":true,"internalType":"ResourceId"},{"name":"keyTuple","type":"bytes32[]","indexed":false,"internalType":"bytes32[]"},{"name":"start","type":"uint48","indexed":false,"internalType":"uint48"},{"name":"data","type":"bytes","indexed":false,"internalType":"bytes"}],"anonymous":false},{"type":"error","name":"Slice_OutOfBounds","inputs":[{"name":"data","type":"bytes","internalType":"bytes"},{"name":"start","type":"uint256","internalType":"uint256"},{"name":"end","type":"uint256","internalType":"uint256"}]}],"bytecode":{"object":"0x6080604052346200008c57620000306200001862000090565b60648152600a602082015260646040820152620000c4565b620000566200003e62000090565b60c88152600a602082015260966040820152620000c4565b6200007c6200006462000090565b60968152600a602082015260c86040820152620000c4565b604051615b6b90816200016c8239f35b5f80fd5b60405190606082016001600160401b03811183821017620000b057604052565b634e487b7160e01b5f52604160045260245ffd5b6001906001549168010000000000000000831015620000b0576001830180600155831015620001575760015f908152927fb10e2d527612073b26eecdfd717e6a320cf44b4afac2b0732d9fcbe2b7fa0cf60191908360205b600382106200012c575050505055565b9091818496829551908560051b9163ffffffff908116831b921b19161796019201909291926200011c565b634e487b7160e01b5f52603260045260245ffdfe60806040526004361015610011575f80fd5b5f3560e01c806301ffc9a7146100e4578063048296fa146100df578063119df25f146100da57806316c19739146100d55780631703e5f9146100d057806345ec9354146100cb578063521c5a12146100c6578063582bca83146100c15780636c53eb2a146100bc5780639c31c5ec146100b7578063a971e842146100b2578063e1af802c146100ad5763f2c298be146100a8575f80fd5b61092e565b6107a4565b610754565b610673565b6104d1565b61041c565b6103b5565b61035a565b610304565b610292565b61023c565b61020f565b346101a35760207ffffffffffffffffffffffffffffffffffffffffffffffffffffffffffffffffc3601126101a3576004357fffffffff0000000000000000000000000000000000000000000000000000000081168091036101a357807fb5dee1270000000000000000000000000000000000000000000000000000000060209214908115610179575b506040519015158152f35b7f01ffc9a7000000000000000000000000000000000000000000000000000000009150145f61016e565b5f80fd5b73ffffffffffffffffffffffffffffffffffffffff8116036101a357565b7ffffffffffffffffffffffffffffffffffffffffffffffffffffffffffffffffc60409101126101a3576004356101fb816101a7565b9060243563ffffffff811681036101a35790565b346101a3576020610228610222366101c5565b90610a50565b6040519015158152f35b5f9103126101a357565b346101a3575f7ffffffffffffffffffffffffffffffffffffffffffffffffffffffffffffffffc3601126101a3576020610274611190565b73ffffffffffffffffffffffffffffffffffffffff60405191168152f35b346101a35760207ffffffffffffffffffffffffffffffffffffffffffffffffffffffffffffffffc3601126101a3576102d56004356102d0816101a7565b611200565b80516020808301516040938401518451600394850b815291840b92820192909252910b91810191909152606090f35b346101a35760207ffffffffffffffffffffffffffffffffffffffffffffffffffffffffffffffffc3601126101a357602063ffffffff61034e600435610349816101a7565b610f22565b51161515604051908152f35b346101a3575f7ffffffffffffffffffffffffffffffffffffffffffffffffffffffffffffffffc3601126101a35760206040517fffffffffffffffffffffffffffffffffffffffffffffffffffffffffffffffe03601358152f35b346101a3576103c3366101c5565b6103d46103cf83610ec0565b6109be565b6103dd82610f22565b63ffffffff91828083511691160192828411610417578383602061040d9694015116938491161161040f57610fef565b005b829150610fef565b610a23565b346101a35760407ffffffffffffffffffffffffffffffffffffffffffffffffffffffffffffffffc3601126101a357600435610457816101a7565b60243560ff81168091036101a357600a906104746103cf84610ec0565b0263ffffffff918282169182036104175761040d9261049282610f22565b51169082821161040f57610fef565b600435908160030b82036101a357565b602435908160030b82036101a357565b604435908160030b82036101a357565b346101a35760607ffffffffffffffffffffffffffffffffffffffffffffffffffffffffffffffffc3601126101a3576105086104a1565b6105106104b1565b906105196104c1565b91610522611190565b9161052f6103cf84610ec0565b61054f60108560030b0560010b60108360030b0560010b868585886112e1565b61055761144e565b50610560610e6a565b73ffffffffffffffffffffffffffffffffffffffff84169481511561066e576106416106377fdcd8aaaa06454f13d15afde0bb2190e2ab57ef3207a93db6b53162822eb56ea8966105fd6105bc868b6020610669990152611d13565b64ffffffffff6105cf969394929661144e565b96602086015160f81c604160218801519701519660208a019760408b015287521515885260381c1690614fff565b9361062b6fffffffffffffffffffffffffffffffff861661061d8161272e565b96602088019060801c615a64565b84606082015251151590565b9051904292611528565b6040519384938491926040919493606084019560030b845260030b602084015260030b910152565b0390a2005b610bee565b346101a35760207ffffffffffffffffffffffffffffffffffffffffffffffffffffffffffffffffc3601126101a3576004356106ae816101a7565b3033036106f65773ffffffffffffffffffffffffffffffffffffffff167fffffffffffffffffffffffff00000000000000000000000000000000000000005f5416175f555f80f35b60646040517f08c379a000000000000000000000000000000000000000000000000000000000815260206004820152600b60248201527f4f6e6c792073797374656d0000000000000000000000000000000000000000006044820152fd5b346101a3575f7ffffffffffffffffffffffffffffffffffffffffffffffffffffffffffffffffc3601126101a357602073ffffffffffffffffffffffffffffffffffffffff5f5416604051908152f35b346101a3575f7ffffffffffffffffffffffffffffffffffffffffffffffffffffffffffffffffc3601126101a35760206102746126ae565b7f4e487b71000000000000000000000000000000000000000000000000000000005f52604160045260245ffd5b67ffffffffffffffff811161081d57604052565b6107dc565b6040810190811067ffffffffffffffff82111761081d57604052565b6060810190811067ffffffffffffffff82111761081d57604052565b6080810190811067ffffffffffffffff82111761081d57604052565b60a0810190811067ffffffffffffffff82111761081d57604052565b90601f7fffffffffffffffffffffffffffffffffffffffffffffffffffffffffffffffe0910116810190811067ffffffffffffffff82111761081d57604052565b60405190610120820182811067ffffffffffffffff82111761081d57604052565b67ffffffffffffffff811161081d57601f017fffffffffffffffffffffffffffffffffffffffffffffffffffffffffffffffe01660200190565b346101a35760207ffffffffffffffffffffffffffffffffffffffffffffffffffffffffffffffffc3601126101a35760043567ffffffffffffffff81116101a357366023820112156101a3578060040135610988816108f4565b906109966040519283610892565b80825236602482850101116101a3576020815f92602461040d96018386013783010152610d51565b156109c557565b60646040517f08c379a000000000000000000000000000000000000000000000000000000000815260206004820152601560248201527f506c61796572206e6f74207265676973746572656400000000000000000000006044820152fd5b7f4e487b71000000000000000000000000000000000000000000000000000000005f52601160045260245ffd5b610a5c6103cf82610ec0565b610a6581610f22565b8051909263ffffffff91908216908216808210610b08575050509060200151907fffffffff00000000000000000000000000000000000000000000000000000000604051925f602085015260e01b16602483015260088252610ac682610822565b610ace610e6a565b80511561066e57610b0392610afe9173ffffffffffffffffffffffffffffffffffffffff841660208201526120a1565b611037565b600190565b0390808211610417576020610b209401511691610fef565b5f90565b15610b2b57565b60646040517f08c379a000000000000000000000000000000000000000000000000000000000815260206004820152601960248201527f506c6179657220616c72656164792072656769737465726564000000000000006044820152fd5b15610b9057565b60646040517f08c379a000000000000000000000000000000000000000000000000000000000815260206004820152601c60248201527f4e616d65206d75737420626520312d32302063686172616374657273000000006044820152fd5b7f4e487b71000000000000000000000000000000000000000000000000000000005f52603260045260245ffd5b60015481101561066e5760015f527fb10e2d527612073b26eecdfd717e6a320cf44b4afac2b0732d9fcbe2b7fa0cf601905f90565b9060405191548060030b83528060201c60030b602084015260401c60030b6040830152610c7c8261083e565b565b5f5b838110610c8f5750505f910152565b8181015183820152602001610c80565b90606051918281525f5b838110610ce657507fffffffffffffffffffffffffffffffffffffffffffffffffffffffffffffffe0601f845f6020809697860101520116010190565b806020916080015182828501015201610ca9565b907fffffffffffffffffffffffffffffffffffffffffffffffffffffffffffffffe0601f602093610d3681518092818752878088019101610c7e565b0116010190565b906020610d4e928181520190610cfa565b90565b7fe04d23b73ae3d3b27074da9719b5a4cd521395aaf86bfe7e374933ecb567731a73ffffffffffffffffffffffffffffffffffffffff610d8f611190565b610da7610da2610d9e83610ec0565b1590565b610b24565b610dbc84518015159081610e5e575b50610b89565b610dc884424284611483565b610e12610de7610de1610ddc600154611554565b610c1b565b50610c50565b805160030b6040602083015160030b92015160030b6010810560010b926010830560010b92866112e1565b610e1b81610f83565b610e2481611593565b610e2d816116fd565b610e368161181d565b610e3f8161195e565b610e4881611a52565b610e59604051928392169482610d3d565b0390a2565b6014915011155f610db6565b60405190610e7782610822565b6001825260203681840137565b60405190610e918261083e565b600282526040366020840137565b80511561066e5760200190565b805182101561066e5760209160051b010190565b610ec8610e6a565b80511561066e5773ffffffffffffffffffffffffffffffffffffffff610ef392166020820152611b87565b60f81c90565b604051906040820182811067ffffffffffffffff82111761081d576040525f6020838281520152565b610f2a610ef9565b50610f33610e6a565b80511561066e5773ffffffffffffffffffffffffffffffffffffffff610f5e92166020820152611e1c565b5050610f68610ef9565b906024602082015191015160e01c602083015260e01c815290565b6040517c6400000000000000000000000000000000000000000000000000000000806020830152602482015260088152610fbc81610822565b610fc4610e6a565b80511561066e5773ffffffffffffffffffffffffffffffffffffffff610c7c931660208201526120a1565b9190604051917fffffffff00000000000000000000000000000000000000000000000000000000809260e01b16602084015260e01b16602482015260088152610fbc81610822565b7f70b198330127a7b958040236de84a5bfa533a1af8c75e16758e6984531be6d456110e1916110ea61106882611200565b805160030b7ffa6c1c9a5416b8ff10f457002d34f984ce2a8e406984b9e2a56959c81c3701fe61109c602084015160030b90565b6040848101518151600395860b815292850b602084015290930b9281019290925273ffffffffffffffffffffffffffffffffffffffff85169687929081906060820190565b0390a28261230e565b6110fb610de1610ddc600154611554565b90610e598251600390810b9361115d60208201946111358651850b60408501988951870b6010810560010b926010830560010b92866112e1565b611158611151602061114684610f22565b015163ffffffff1690565b8083610fef565b611a52565b51810b9251810b9351900b6040519384938491926040919493606084019560030b845260030b602084015260030b910152565b7fffffffffffffffffffffffffffffffffffffffffffffffffffffffffffffffcc36013560601c9081156111c057565b339150565b6040519060a0820182811067ffffffffffffffff82111761081d576040525f6080838281528260208201528260408201528260608201520152565b6112086111c5565b50611211610e6a565b80511561066e5773ffffffffffffffffffffffffffffffffffffffff61123c92166020820152611ef3565b5050610d4e6112496111c5565b916112d76020820151916112cd602482015160e01d916112c361127f611273602884015160e01c90565b63ffffffff1660030b90565b916112b96112af61129c602e6112a661129c602c87015160f01c90565b61ffff1660010b90565b94015160f01c90565b60010b60808b0152565b60010b6060890152565b60030b6040870152565b60030b6020850152565b60e01d60030b8252565b9391949290946040519560e01b602087015260e01b602486015260e01b602885015260f01b602c84015260f01b602e8301526010825261132082610822565b611328610e6a565b9073ffffffffffffffffffffffffffffffffffffffff80911661134a83610e9f565b526113536126ae565b16308103611366575090610c7c91612a4c565b90813b156101a3575f916113df8361141093611425604051978896879586947f298314fb0000000000000000000000000000000000000000000000000000000086527f74626879706572736361706500000000506f736974696f6e0000000000000000600487015260a0602487015260a4860190611b49565b7ffffffffffffffffffffffffffffffffffffffffffffffffffffffffffffffffc9283868303016044870152610cfa565b90846064850152838203016084840152610c9f565b03925af18015611449576114365750565b80611443610c7c92610809565b80610232565b611b7c565b604051906080820182811067ffffffffffffffff82111761081d57604052606080835f81525f60208201525f60408201520152565b90610c7c9392604051917f0100000000000000000000000000000000000000000000000000000000000000602084015260218301526041820152604181526114ca8161085a565b82516114e0816040519560208088019101610c7e565b6114f4602085838101038087520185610892565b73ffffffffffffffffffffffffffffffffffffffff611511610e6a565b931661151c84610e9f565b528060381b179161214a565b9192610c7c949360405192151560f81b602084015260218301526041820152604181526114ca8161085a565b801561158e575a60405160208101914283524460408301523360601b606083015260748201526074815261158781610876565b5190200690565b505f90565b604051907f01000000000000000000000000000000000000000000000000000000000000008060208401525f60218401528060258401525f602684015280602a8401525f602b8401527f0a00000000000000000000000000000000000000000000000000000000000000602f8401527d048200000000000000000000000000000000000000000000000000000000603084015260348301525f60358301526019825261163e82610822565b611646610e6a565b9073ffffffffffffffffffffffffffffffffffffffff80911661166883610e9f565b526116716126ae565b16308103611684575090610c7c916134b0565b90813b156101a3575f916113df8361141093611425604051978896879586947f298314fb0000000000000000000000000000000000000000000000000000000086527f74626879706572736361706500000000436f6d626174536b696c6c7300000000600487015260a0602487015260a4860190611b49565b604051907f01000000000000000000000000000000000000000000000000000000000000008060208401525f60218401528060258401525f602684015280602a8401525f602b840152602f8301525f60308301526014825261175e82610822565b611766610e6a565b9073ffffffffffffffffffffffffffffffffffffffff80911661178883610e9f565b526117916126ae565b163081036117a4575090610c7c91613716565b90813b156101a3575f916113df8361141093611425604051978896879586947f298314fb0000000000000000000000000000000000000000000000000000000086527f74626879706572736361706500000000476174686572696e67536b696c6c7300600487015260a0602487015260a4860190611b49565b611825610e6a565b9073ffffffffffffffffffffffffffffffffffffffff9082511561066e5781166020830152604051905f60208301526020825261186182610822565b6118696126ae565b169130830361187c57610c7c925061430c565b90823b156101a357611928926118f25f8094604051968795869485937f390baae00000000000000000000000000000000000000000000000000000000085527f74626879706572736361706500000000436f696e730000000000000000000000600486015260a0602486015260a4850190611b49565b908460448501527ffffffffffffffffffffffffffffffffffffffffffffffffffffffffffffffffc848303016064850152610cfa565b7e80040020202020000000000000000000000000000000000000000000000000608483015203925af18015611449576114365750565b604051905f60208301525f60228301525f60248301525f60268301525f60288301525f602a830152600c825261199382610822565b61199b610e6a565b9073ffffffffffffffffffffffffffffffffffffffff8091166119bd83610e9f565b526119c66126ae565b163081036119d9575090610c7c91612d17565b90813b156101a3575f916113df8361141093611425604051978896879586947f298314fb0000000000000000000000000000000000000000000000000000000086527f7462687970657273636170650000000045717569706d656e7400000000000000600487015260a0602487015260a4860190611b49565b604051905f60208301525f60218301525f60418301525f604283015260428252611a7b8261085a565b611a83610e6a565b9073ffffffffffffffffffffffffffffffffffffffff809116611aa583610e9f565b52611aae6126ae565b16308103611ac1575090610c7c9161397c565b90813b156101a3575f916113df8361141093611425604051978896879586947f298314fb0000000000000000000000000000000000000000000000000000000086527f74626879706572736361706500000000436f6d62617454617267657400000000600487015260a0602487015260a4860190611b49565b908160209103126101a3575190565b9081518082526020808093019301915f5b828110611b68575050505090565b835185529381019392810192600101611b5a565b6040513d5f823e3d90fd5b73ffffffffffffffffffffffffffffffffffffffff611ba46126ae565b16308103611bb65750610d4e906126f0565b611c1f9160209160405180809581947f8c364d590000000000000000000000000000000000000000000000000000000083527f74626879706572736361706500000000506c61796572000000000000000000006004840152608060248401526084830190611b49565b5f60448301527e41030101202000000000000000000000000000000000000000000000000000606483015203915afa908115611449575f91611c5f575090565b610d4e915060203d602011611c81575b611c798183610892565b810190611b3a565b503d611c6f565b81601f820112156101a3578051611c9e816108f4565b92611cac6040519485610892565b818452602082840101116101a357610d4e9160208085019101610c7e565b90916060828403126101a35781519167ffffffffffffffff928381116101a35784611cf6918301611c88565b9360208201519360408301519081116101a357610d4e9201611c88565b73ffffffffffffffffffffffffffffffffffffffff611d306126ae565b16308103611d495750611d429061278a565b9192909190565b611db292915f9160405180809681947f419b58fd0000000000000000000000000000000000000000000000000000000083527f74626879706572736361706500000000506c61796572000000000000000000006004840152606060248401526064830190611b49565b7e41030101202000000000000000000000000000000000000000000000000000604483015203915afa908115611449575f80935f93611df2575b50929190565b91935050611e1291503d805f833e611e0a8183610892565b810190611cca565b929092915f611dec565b73ffffffffffffffffffffffffffffffffffffffff611e396126ae565b16308103611e4b5750611d42906128a2565b611eb492915f9160405180809681947f419b58fd0000000000000000000000000000000000000000000000000000000083527f746268797065727363617065000000004865616c7468000000000000000000006004840152606060248401526064830190611b49565b7e08020004040000000000000000000000000000000000000000000000000000604483015203915afa908115611449575f80935f93611df25750929190565b73ffffffffffffffffffffffffffffffffffffffff611f106126ae565b16308103611f225750611d4290612958565b611f8b92915f9160405180809681947f419b58fd0000000000000000000000000000000000000000000000000000000083527f74626879706572736361706500000000506f736974696f6e00000000000000006004840152606060248401526064830190611b49565b7e10050004040402020000000000000000000000000000000000000000000000604483015203915afa908115611449575f80935f93611df25750929190565b73ffffffffffffffffffffffffffffffffffffffff611fe76126ae565b16308103611ff95750611d42906129d2565b61206292915f9160405180809681947f419b58fd0000000000000000000000000000000000000000000000000000000083527f74626879706572736361706500000000496e76656e746f7279536c6f740000006004840152606060248401526064830190611b49565b7e06020002040000000000000000000000000000000000000000000000000000604483015203915afa908115611449575f80935f93611df25750929190565b73ffffffffffffffffffffffffffffffffffffffff6120be6126ae565b163081036120d1575090610c7c91612f7d565b90813b156101a3575f916113df8361141093611425604051978896879586947f298314fb0000000000000000000000000000000000000000000000000000000086527f746268797065727363617065000000004865616c746800000000000000000000600487015260a0602487015260a4860190611b49565b9291909273ffffffffffffffffffffffffffffffffffffffff61216b6126ae565b1630810361217e575092610c7c936131e3565b909192813b156101a3575f61222b9361142582966121fa94604051998a98899788967f298314fb0000000000000000000000000000000000000000000000000000000088527f74626879706572736361706500000000506c6179657200000000000000000000600489015260a0602489015260a4880190611b49565b7ffffffffffffffffffffffffffffffffffffffffffffffffffffffffffffffffc9283888303016044890152610cfa565b926064860152848303016084850152610cfa565b73ffffffffffffffffffffffffffffffffffffffff61225c6126ae565b1630810361226f575090610c7c91613be2565b90813b156101a3575f916113df8361141093611425604051978896879586947f298314fb0000000000000000000000000000000000000000000000000000000086527f746268797065727363617065000000004974656d496e7374616e636500000000600487015260a0602487015260a4860190611b49565b91908260409103126101a357815180151581036101a357602090920151610d4e816101a7565b73ffffffffffffffffffffffffffffffffffffffff806123425f5473ffffffffffffffffffffffffffffffffffffffff1690565b16156126a9575f5b601c60ff82161061235b5750505050565b61236581846140ae565b805161ffff1661ffff8082161561269c576040918251906020916124648161243889868301958d8791927fffff0000000000000000000000000000000000000000000000000000000000006021947fffffffffffffffffffffffffffffffffffffffff0000000000000000000000007fff000000000000000000000000000000000000000000000000000000000000009460601b16855260f01b16601484015260f81b1660168201527f687970657273636170650000000000000000000000000000000000000000000060178201520190565b037fffffffffffffffffffffffffffffffffffffffffffffffffffffffffffffffe08101835282610892565b5190206124a461248b61248b5f5473ffffffffffffffffffffffffffffffffffffffff1690565b73ffffffffffffffffffffffffffffffffffffffff1690565b84805180927f410ef6c000000000000000000000000000000000000000000000000000000000825281806124e087600483019190602083019252565b03915afa8015611449575f915f9161266d575b508161265f575b5061261357845161ffff169389516125129060030b90565b95838b019586516125239060030b90565b97838d019889516125349060030b90565b9161253d6108d3565b61ffff90941684525f848901819052868501819052606085015242608085015260030b60a084015260030b60c083015260030b60e082015260016101008201526125879084614122565b612591888b61421b565b805161ffff16938b516125a49060030b90565b965197519101519151928352600395860b602084015295850b60408301529490930b606084015263ffffffff909316608083015290911690848416907feb6f2e3c8bc57bafad0ba3f63860f58e16fb44127ac05fe23e55f6b0483fb4ab9060a090a3600160ff915b011661234a565b90507ffb6325626e77a33d40a18420d73e0e5605180f6da15bf6c2828b057bbbda8b4560ff9593926126496001965161ffff1690565b93519283529092169186881691602090a361260c565b88168989161490505f6124fa565b905061268f9150853d8711612695575b6126878183610892565b8101906122e8565b5f6124f3565b503d61267d565b505050600160ff9161260c565b505050565b7f629a4c26e296b22a8e0856e9f6ecb2d1008d7e00081111962cd175fa7488e1755473ffffffffffffffffffffffffffffffffffffffff1680610d4e57503390565b60405161270581612438602082019485614528565b5190207f86425bff6b57326c7859e89024fe4f238ca327a1ae4a230180dd2f0e88aaa7d9185490565b90612738826108f4565b6127456040519182610892565b8281527fffffffffffffffffffffffffffffffffffffffffffffffffffffffffffffffe061277382946108f4565b0190602036910137565b9190820180921161041757565b9061279c612797836148c0565b6150f1565b906127a683615240565b54926127ba66ffffffffffffff851661272e565b9360209060208601925f935b60019060ff861682811015612896579064ffffffffff856127e789876149bb565b936028026038011c16918190835b88808210156128635750612812955080612828575b50505061277d565b9360ff80911690811461041757600101936127c6565b7fffffffffffffffffffffffffffffffffffffffffffffffffffffffffffffffff9060031b1c908183511691199054161790525f808061280a565b8254845290920191908501907fffffffffffffffffffffffffffffffffffffffffffffffffffffffffffffffe0016127f5565b50505050939492915050565b5f906128af6060916148d5565b604051906020907fffffffffffffffffffffffffffffffffffffffffffffffffffffffffffffffe090816047850116604052600884526020840192600891925b8183101561294057505080612905575b50505092565b7fffffffffffffffffffffffffffffffffffffffffffffffffffffffffffffffff9060031b1c908183511691199054161790525f80806128ff565b816001858394959796548752019401940191906128ef565b5f906129656060916148ea565b604051906020907fffffffffffffffffffffffffffffffffffffffffffffffffffffffffffffffe09081604f850116604052601084526020840192601091925b818310156129ba575050806129055750505092565b816001858394959796548752019401940191906129a5565b5f906129df6060916148ff565b604051906020907fffffffffffffffffffffffffffffffffffffffffffffffffffffffffffffffe090816045850116604052600684526020840192600691925b81831015612a34575050806129055750505092565b81600185839495979654875201940194019190612a1f565b604092835192602084017f746273746f72650000000000000000005461626c65730000000000000000000081527f74626879706572736361706500000000506f736974696f6e0000000000000000948587820152868152612aac8161083e565b5190207f86425bff6b57326c7859e89024fe4f238ca327a1ae4a230180dd2f0e88aaa7d9185491612adb6153c6565b905f5b8251811015612bcd57612b42612b1d612af78386610eac565b517fffffffffffffffffffffffffffffffffffffffffff00000000000000000000001690565b7fffffffffffffffffffffffffffffffffffffffffff00000000000000000000001690565b6001808260581c1614612b59575b50600101612ade565b60601c90813b156101a35788517f57066c9c000000000000000000000000000000000000000000000000000000008152915f908390818381612ba08c8c8f60048501614d53565b03925af191821561144957600192612bba575b5090612b50565b80611443612bc792610809565b5f612bb3565b50947f8dbb3a9672eebfd3773e72dd9c102393436816d832c7ba9e1e1ac8fcadcac7a9875180612bfe868983614ce9565b0390a2612c19612c0d856148ea565b83516020850191615a25565b60ff808460e01c1680612cd8575b50505f5b8151811015612ccf57612c44612b1d612af78385610eac565b6002808260581c1614612c5b575b50600101612c2b565b60601c90813b156101a35787517f5b28cdaf000000000000000000000000000000000000000000000000000000008152915f908390818381612ca28b8b8e60048501614d53565b03925af191821561144957600192612cbc575b5090612c52565b80611443612cc992610809565b5f612cb5565b50505050509050565b5f612ce287615255565b555f60805b8284831610612cf7575050612c27565b600181612d0e8693612d09868d614a21565b6159a5565b92011690612ce7565b604092835192602084017f746273746f72650000000000000000005461626c65730000000000000000000081527f7462687970657273636170650000000045717569706d656e7400000000000000948587820152868152612d778161083e565b5190207f86425bff6b57326c7859e89024fe4f238ca327a1ae4a230180dd2f0e88aaa7d9185491612da661546d565b905f5b8251811015612e4d57612dc2612b1d612af78386610eac565b6001808260581c1614612dd9575b50600101612da9565b60601c90813b156101a35788517f57066c9c000000000000000000000000000000000000000000000000000000008152915f908390818381612e208c8c8f60048501614dbd565b03925af191821561144957600192612e3a575b5090612dd0565b80611443612e4792610809565b5f612e33565b50947f8dbb3a9672eebfd3773e72dd9c102393436816d832c7ba9e1e1ac8fcadcac7a9875180612e7e868983614ce9565b0390a2612e8d612c0d85614914565b60ff808460e01c1680612f43575b50505f5b8151811015612ccf57612eb8612b1d612af78385610eac565b6002808260581c1614612ecf575b50600101612e9f565b60601c90813b156101a35787517f5b28cdaf000000000000000000000000000000000000000000000000000000008152915f908390818381612f168b8b8e60048501614dbd565b03925af191821561144957600192612f30575b5090612ec6565b80611443612f3d92610809565b5f612f29565b5f612f4d8761526a565b555f60805b8284831610612f62575050612e9b565b600181612f748693612d09868d614a7a565b92011690612f52565b604092835192602084017f746273746f72650000000000000000005461626c65730000000000000000000081527f746268797065727363617065000000004865616c746800000000000000000000948587820152868152612fdd8161083e565b5190207f86425bff6b57326c7859e89024fe4f238ca327a1ae4a230180dd2f0e88aaa7d918549161300c615514565b905f5b82518110156130b357613028612b1d612af78386610eac565b6001808260581c161461303f575b5060010161300f565b60601c90813b156101a35788517f57066c9c000000000000000000000000000000000000000000000000000000008152915f9083908183816130868c8c8f60048501614e01565b03925af1918215611449576001926130a0575b5090613036565b806114436130ad92610809565b5f613099565b50947f8dbb3a9672eebfd3773e72dd9c102393436816d832c7ba9e1e1ac8fcadcac7a98751806130e4868983614ce9565b0390a26130f3612c0d856148d5565b60ff808460e01c16806131a9575b50505f5b8151811015612ccf5761311e612b1d612af78385610eac565b6002808260581c1614613135575b50600101613105565b60601c90813b156101a35787517f5b28cdaf000000000000000000000000000000000000000000000000000000008152915f90839081838161317c8b8b8e60048501614e01565b03925af191821561144957600192613196575b509061312c565b806114436131a392610809565b5f61318f565b5f6131b38761527f565b555f60805b82848316106131c8575050613101565b6001816131da8693612d09868d614ad3565b920116906131b8565b939293919091604092835194602086017f746273746f72650000000000000000005461626c65730000000000000000000081527f74626879706572736361706500000000506c61796572000000000000000000009687878201528681526132498161083e565b5190207f86425bff6b57326c7859e89024fe4f238ca327a1ae4a230180dd2f0e88aaa7d91854906132786155bb565b905f5b825181101561332457613294612b1d612af78386610eac565b6001808260581c16146132ab575b5060010161327b565b60601c90813b156101a3575f888c9388838b6132f78f8c9051998a97889687957f57066c9c00000000000000000000000000000000000000000000000000000000875260048701614e45565b03925af191821561144957600192613311575b50906132a2565b8061144361331e92610809565b5f61330a565b50967f8dbb3a9672eebfd3773e72dd9c102393436816d832c7ba9e1e1ac8fcadcac7a98751806133578c8a898b85614d25565b0390a2613372613366856148c0565b84516020860191615a25565b60ff808360e01c1680613437575b50505f5b815181101561342c5761339d612b1d612af78385610eac565b6002808260581c16146133b4575b50600101613384565b60601c90813b156101a3575f878b9387838a6133ff8a8f51998a97889687957f5b28cdaf00000000000000000000000000000000000000000000000000000000875260048701614e45565b03925af191821561144957600192613419575b50906133ab565b8061144361342692610809565b5f613412565b505050505050509050565b969098929594938561344b869a949a615240565b555f96602085015b8b8916908a82101561349d576134948d928261348f60019464ffffffffff8f8f908f9061347f916149bb565b956028026038011c168094615a25565b61277d565b99011697613453565b5050939950939495509550955f80613380565b604092835192602084017f746273746f72650000000000000000005461626c65730000000000000000000081527f74626879706572736361706500000000436f6d626174536b696c6c73000000009485878201528681526135108161083e565b5190207f86425bff6b57326c7859e89024fe4f238ca327a1ae4a230180dd2f0e88aaa7d918549161353f615662565b905f5b82518110156135e65761355b612b1d612af78386610eac565b6001808260581c1614613572575b50600101613542565b60601c90813b156101a35788517f57066c9c000000000000000000000000000000000000000000000000000000008152915f9083908183816135b98c8c8f60048501614eab565b03925af1918215611449576001926135d3575b5090613569565b806114436135e092610809565b5f6135cc565b50947f8dbb3a9672eebfd3773e72dd9c102393436816d832c7ba9e1e1ac8fcadcac7a9875180613617868983614ce9565b0390a2613626612c0d85614929565b60ff808460e01c16806136dc575b50505f5b8151811015612ccf57613651612b1d612af78385610eac565b6002808260581c1614613668575b50600101613638565b60601c90813b156101a35787517f5b28cdaf000000000000000000000000000000000000000000000000000000008152915f9083908183816136af8b8b8e60048501614eab565b03925af1918215611449576001926136c9575b509061365f565b806114436136d692610809565b5f6136c2565b5f6136e687615294565b555f60805b82848316106136fb575050613634565b60018161370d8693612d09868d614b2c565b920116906136eb565b604092835192602084017f746273746f72650000000000000000005461626c65730000000000000000000081527f74626879706572736361706500000000476174686572696e67536b696c6c73009485878201528681526137768161083e565b5190207f86425bff6b57326c7859e89024fe4f238ca327a1ae4a230180dd2f0e88aaa7d91854916137a5615709565b905f5b825181101561384c576137c1612b1d612af78386610eac565b6001808260581c16146137d8575b506001016137a8565b60601c90813b156101a35788517f57066c9c000000000000000000000000000000000000000000000000000000008152915f90839081838161381f8c8c8f60048501614eef565b03925af191821561144957600192613839575b50906137cf565b8061144361384692610809565b5f613832565b50947f8dbb3a9672eebfd3773e72dd9c102393436816d832c7ba9e1e1ac8fcadcac7a987518061387d868983614ce9565b0390a261388c612c0d8561493e565b60ff808460e01c1680613942575b50505f5b8151811015612ccf576138b7612b1d612af78385610eac565b6002808260581c16146138ce575b5060010161389e565b60601c90813b156101a35787517f5b28cdaf000000000000000000000000000000000000000000000000000000008152915f9083908183816139158b8b8e60048501614eef565b03925af19182156114495760019261392f575b50906138c5565b8061144361393c92610809565b5f613928565b5f61394c876152a9565b555f60805b828483161061396157505061389a565b6001816139738693612d09868d614b85565b92011690613951565b604092835192602084017f746273746f72650000000000000000005461626c65730000000000000000000081527f74626879706572736361706500000000436f6d626174546172676574000000009485878201528681526139dc8161083e565b5190207f86425bff6b57326c7859e89024fe4f238ca327a1ae4a230180dd2f0e88aaa7d9185491613a0b6157b0565b905f5b8251811015613ab257613a27612b1d612af78386610eac565b6001808260581c1614613a3e575b50600101613a0e565b60601c90813b156101a35788517f57066c9c000000000000000000000000000000000000000000000000000000008152915f908390818381613a858c8c8f60048501614f33565b03925af191821561144957600192613a9f575b5090613a35565b80611443613aac92610809565b5f613a98565b50947f8dbb3a9672eebfd3773e72dd9c102393436816d832c7ba9e1e1ac8fcadcac7a9875180613ae3868983614ce9565b0390a2613af2612c0d85614953565b60ff808460e01c1680613ba8575b50505f5b8151811015612ccf57613b1d612b1d612af78385610eac565b6002808260581c1614613b34575b50600101613b04565b60601c90813b156101a35787517f5b28cdaf000000000000000000000000000000000000000000000000000000008152915f908390818381613b7b8b8b8e60048501614f33565b03925af191821561144957600192613b95575b5090613b2b565b80611443613ba292610809565b5f613b8e565b5f613bb2876152be565b555f60805b8284831610613bc7575050613b00565b600181613bd98693612d09868d614bde565b92011690613bb7565b604092835192602084017f746273746f72650000000000000000005461626c65730000000000000000000081527f746268797065727363617065000000004974656d496e7374616e636500000000948587820152868152613c428161083e565b5190207f86425bff6b57326c7859e89024fe4f238ca327a1ae4a230180dd2f0e88aaa7d9185491613c71615857565b905f5b8251811015613d1857613c8d612b1d612af78386610eac565b6001808260581c1614613ca4575b50600101613c74565b60601c90813b156101a35788517f57066c9c000000000000000000000000000000000000000000000000000000008152915f908390818381613ceb8c8c8f60048501614f77565b03925af191821561144957600192613d05575b5090613c9b565b80611443613d1292610809565b5f613cfe565b50947f8dbb3a9672eebfd3773e72dd9c102393436816d832c7ba9e1e1ac8fcadcac7a9875180613d49868983614ce9565b0390a2613d58612c0d85614968565b60ff808460e01c1680613e0e575b50505f5b8151811015612ccf57613d83612b1d612af78385610eac565b6002808260581c1614613d9a575b50600101613d6a565b60601c90813b156101a35787517f5b28cdaf000000000000000000000000000000000000000000000000000000008152915f908390818381613de18b8b8e60048501614f77565b03925af191821561144957600192613dfb575b5090613d91565b80611443613e0892610809565b5f613df4565b5f613e18876152d3565b555f60805b8284831610613e2d575050613d66565b600181613e3f8693612d09868d614c37565b92011690613e1d565b604092835192602084017f746273746f72650000000000000000005461626c65730000000000000000000081527f74626879706572736361706500000000496e76656e746f7279536c6f74000000948587820152868152613ea88161083e565b5190207f86425bff6b57326c7859e89024fe4f238ca327a1ae4a230180dd2f0e88aaa7d9185491613ed76158fe565b905f5b8251811015613f7e57613ef3612b1d612af78386610eac565b6001808260581c1614613f0a575b50600101613eda565b60601c90813b156101a35788517f57066c9c000000000000000000000000000000000000000000000000000000008152915f908390818381613f518c8c8f60048501614fbb565b03925af191821561144957600192613f6b575b5090613f01565b80611443613f7892610809565b5f613f64565b50947f8dbb3a9672eebfd3773e72dd9c102393436816d832c7ba9e1e1ac8fcadcac7a9875180613faf868983614ce9565b0390a2613fbe612c0d856148ff565b60ff808460e01c1680614074575b50505f5b8151811015612ccf57613fe9612b1d612af78385610eac565b6002808260581c1614614000575b50600101613fd0565b60601c90813b156101a35787517f5b28cdaf000000000000000000000000000000000000000000000000000000008152915f9083908183816140478b8b8e60048501614fbb565b03925af191821561144957600192614061575b5090613ff7565b8061144361406e92610809565b5f61405a565b5f61407e876152e8565b555f60805b8284831610614093575050613fcc565b6001816140a58693612d09868d614c90565b92011690614083565b6140b6610ef9565b506140bf610e84565b9081511561066e5773ffffffffffffffffffffffffffffffffffffffff16602082015280516001101561066e5760ff6140fd92166040820152611fca565b5050614107610ef9565b906022602082015160f01c91015160e01c6020830152815290565b90805190602081015190604081015115156060820151608083015160a08401519160c08501519360e086015160030b9561010001511515966040519860f01b7fffff0000000000000000000000000000000000000000000000000000000000001660208a015260601b7fffffffffffffffffffffffffffffffffffffffff00000000000000000000000016602289015260f81b60368801526037870152605786015260e01b6077850152607b84019060030b906141e09160e01b9052565b60e01b607f830152151560f81b6083820152606481526141ff81610876565b614207610e6a565b9161421183610e9f565b52610c7c9161223f565b90604051915f60208401525f60228401526006835261423983610822565b614241610e84565b9173ffffffffffffffffffffffffffffffffffffffff9183511561066e578216602084015282516001101561066e5760ff1660408301526142806126ae565b16308103614293575090610c7c91613e48565b90813b156101a3575f916113df8361141093611425604051978896879586947f298314fb0000000000000000000000000000000000000000000000000000000086527f74626879706572736361706500000000496e76656e746f7279536c6f74000000600487015260a0602487015260a4860190611b49565b91906143178361480a565b916143206152fd565b905f5b82518110156143c55761433c612b1d612af78386610eac565b9060049182808260581c1614614358575b506001915001614323565b60601c803b156101a357855f91898361439f96604051978895869485937f964f667d00000000000000000000000000000000000000000000000000000000855284016150a0565b03925af1918215611449576001921561434d57806114436143bf92610809565b5f61434d565b50929190614429826040947f74626879706572736361706500000000436f696e7300000000000000000000007f8c0b5119d4cec7b284c6b1b39252a03d1e2f2d7451a5895562524c113bb952be60405180614421868d83615075565b0390a2615adf565b5f5b81518110156144ce57614444612b1d612af78385610eac565b6008808260581c161461445b575b5060010161442b565b60601c90813b156101a35784517fa8ba8721000000000000000000000000000000000000000000000000000000008152915f9083908183816144a18a8e600484016150a0565b03925af1918215611449576001926144bb575b5090614452565b806114436144c892610809565b5f6144b4565b505050509050565b7f746273746f726500000000000000000053746f7265486f6f6b73000000000000815281516020918201928201915f5b828110614514575050505090565b835185529381019392810192600101614506565b7f74626879706572736361706500000000506c6179657200000000000000000000815281516020918201928201915f5b828110614566575050505090565b835185529381019392810192600101614558565b7f746268797065727363617065000000004865616c746800000000000000000000815281516020918201928201915f5b8281106145b8575050505090565b8351855293810193928101926001016145aa565b7f74626879706572736361706500000000506f736974696f6e0000000000000000815281516020918201928201915f5b82811061460a575050505090565b8351855293810193928101926001016145fc565b7f74626879706572736361706500000000496e76656e746f7279536c6f74000000815281516020918201928201915f5b82811061465c575050505090565b83518552938101939281019260010161464e565b7f7462687970657273636170650000000045717569706d656e7400000000000000815281516020918201928201915f5b8281106146ae575050505090565b8351855293810193928101926001016146a0565b7f74626879706572736361706500000000436f6d626174536b696c6c7300000000815281516020918201928201915f5b828110614700575050505090565b8351855293810193928101926001016146f2565b7f74626879706572736361706500000000476174686572696e67536b696c6c7300815281516020918201928201915f5b828110614752575050505090565b835185529381019392810192600101614744565b7f74626879706572736361706500000000436f6d62617454617267657400000000815281516020918201928201915f5b8281106147a4575050505090565b835185529381019392810192600101614796565b7f746268797065727363617065000000004974656d496e7374616e636500000000815281516020918201928201915f5b8281106147f6575050505090565b8351855293810193928101926001016147e8565b60405160208160208101937f74626879706572736361706500000000436f696e73000000000000000000000085526040820160208251919201935f5b8281106148a9575050506148819250037fffffffffffffffffffffffffffffffffffffffffffffffffffffffffffffffe08101835282610892565b5190207f86425bff6b57326c7859e89024fe4f238ca327a1ae4a230180dd2f0e88aaa7d91890565b855184529481019486945092810192600101614846565b60405161488181612438602082019485614528565b6040516148818161243860208201948561457a565b604051614881816124386020820194856145cc565b6040516148818161243860208201948561461e565b60405161488181612438602082019485614670565b604051614881816124386020820194856146c2565b60405161488181612438602082019485614714565b60405161488181612438602082019485614766565b604051614881816124386020820194856147b8565b7f3b4102da22e32d82fc925482184f16c09fd4281692720b87d124aef6da48a0f1906040516149b4816124386020820194856144d6565b5190201890565b907fff000000000000000000000000000000000000000000000000000000000000007f3b4102da22e32d82fc925482184f16c09fd4281692720b87d124aef6da48a0f192604051614a1481612438602082019485614528565b5190209160f81b16181890565b907fff000000000000000000000000000000000000000000000000000000000000007f3b4102da22e32d82fc925482184f16c09fd4281692720b87d124aef6da48a0f192604051614a14816124386020820194856145cc565b907fff000000000000000000000000000000000000000000000000000000000000007f3b4102da22e32d82fc925482184f16c09fd4281692720b87d124aef6da48a0f192604051614a1481612438602082019485614670565b907fff000000000000000000000000000000000000000000000000000000000000007f3b4102da22e32d82fc925482184f16c09fd4281692720b87d124aef6da48a0f192604051614a148161243860208201948561457a565b907fff000000000000000000000000000000000000000000000000000000000000007f3b4102da22e32d82fc925482184f16c09fd4281692720b87d124aef6da48a0f192604051614a14816124386020820194856146c2565b907fff000000000000000000000000000000000000000000000000000000000000007f3b4102da22e32d82fc925482184f16c09fd4281692720b87d124aef6da48a0f192604051614a1481612438602082019485614714565b907fff000000000000000000000000000000000000000000000000000000000000007f3b4102da22e32d82fc925482184f16c09fd4281692720b87d124aef6da48a0f192604051614a1481612438602082019485614766565b907fff000000000000000000000000000000000000000000000000000000000000007f3b4102da22e32d82fc925482184f16c09fd4281692720b87d124aef6da48a0f192604051614a14816124386020820194856147b8565b907fff000000000000000000000000000000000000000000000000000000000000007f3b4102da22e32d82fc925482184f16c09fd4281692720b87d124aef6da48a0f192604051614a148161243860208201948561461e565b90610d4e92614d03614d1192608085526080850190611b49565b908382036020850152610cfa565b905f60408201526060818303910152610c9f565b90610d4e9492614d03614d4092608085526080850190611b49565b9260408201526060818403910152610cfa565b939291614da5614db891614d9760a0947f74626879706572736361706500000000506f736974696f6e0000000000000000895260c060208a015260c0890190611b49565b908782036040890152610cfa565b5f60608701528581036080870152610c9f565b930152565b939291614da5614db891614d9760a0947f7462687970657273636170650000000045717569706d656e7400000000000000895260c060208a015260c0890190611b49565b939291614da5614db891614d9760a0947f746268797065727363617065000000004865616c746800000000000000000000895260c060208a015260c0890190611b49565b959493614e98614db893614e8a60a096947f74626879706572736361706500000000506c61796572000000000000000000008b5260c060208c015260c08b0190611b49565b9089820360408b0152610cfa565b9160608801528682036080880152610cfa565b939291614da5614db891614d9760a0947f74626879706572736361706500000000436f6d626174536b696c6c7300000000895260c060208a015260c0890190611b49565b939291614da5614db891614d9760a0947f74626879706572736361706500000000476174686572696e67536b696c6c7300895260c060208a015260c0890190611b49565b939291614da5614db891614d9760a0947f74626879706572736361706500000000436f6d62617454617267657400000000895260c060208a015260c0890190611b49565b939291614da5614db891614d9760a0947f746268797065727363617065000000004974656d496e7374616e636500000000895260c060208a015260c0890190611b49565b939291614da5614db891614d9760a0947f74626879706572736361706500000000496e76656e746f7279536c6f74000000895260c060208a015260c0890190611b49565b9081518111615026576fffffffffffffffffffffffffffffffff60209116910160801b1790565b61506592506040519283927f23230fa3000000000000000000000000000000000000000000000000000000008452606060048501526064840190610cfa565b905f602484015260448301520390fd5b909161508c610d4e93606084526060840190611b49565b915f60208201526040818403910152610cfa565b90916150dd610d4e937f74626879706572736361706500000000436f696e7300000000000000000000008452608060208501526080840190611b49565b915f60408201526060818403910152610cfa565b604051906020907fffffffffffffffffffffffffffffffffffffffffffffffffffffffffffffffe090816080850116604052604184526020840192604191925b8183101561518257505080615147575b50505090565b7fffffffffffffffffffffffffffffffffffffffffffffffffffffffffffffffff9060031b1c908183511691199054161790525f8080615141565b81600185839495979654875201940194019190615131565b604080517fffffffffffffffffffffffffffffffffffffffffffffffffffffffffffffffe0603f85830101811690925283815292602080850193925b818310156151eb575050806151475750505090565b816001858394959796548752019401940191906151d6565b604051615218816124386020820194856144d6565b5190207f14e2fcc58e58e68ec7edc30c8d50dccc3ce2714a623ec81f46b6a63922d765691890565b60405161521881612438602082019485614528565b604051615218816124386020820194856145cc565b60405161521881612438602082019485614670565b6040516152188161243860208201948561457a565b604051615218816124386020820194856146c2565b60405161521881612438602082019485614714565b60405161521881612438602082019485614766565b604051615218816124386020820194856147b8565b6040516152188161243860208201948561461e565b615305610e6a565b80511561066e5761536c6153646020927f74626879706572736361706500000000436f696e730000000000000000000000602082015261535e61535061534a8361497d565b92615203565b5460381c64ffffffffff1690565b9061519a565b805190614fff565b8060801c9160156fffffffffffffffffffffffffffffffff8193160490604051936020850160208460051b8701016040528386525f5b8481106153b25750505050505090565b8251825291850191908301906001016153a2565b6153ce610e6a565b80511561066e576154136153646020927f74626879706572736361706500000000506f736974696f6e0000000000000000602082015261535e61535061534a8361497d565b8060801c9160156fffffffffffffffffffffffffffffffff8193160490604051936020850160208460051b8701016040528386525f5b8481106154595750505050505090565b825182529185019190830190600101615449565b615475610e6a565b80511561066e576154ba6153646020927f7462687970657273636170650000000045717569706d656e7400000000000000602082015261535e61535061534a8361497d565b8060801c9160156fffffffffffffffffffffffffffffffff8193160490604051936020850160208460051b8701016040528386525f5b8481106155005750505050505090565b8251825291850191908301906001016154f0565b61551c610e6a565b80511561066e576155616153646020927f746268797065727363617065000000004865616c746800000000000000000000602082015261535e61535061534a8361497d565b8060801c9160156fffffffffffffffffffffffffffffffff8193160490604051936020850160208460051b8701016040528386525f5b8481106155a75750505050505090565b825182529185019190830190600101615597565b6155c3610e6a565b80511561066e576156086153646020927f74626879706572736361706500000000506c6179657200000000000000000000602082015261535e61535061534a8361497d565b8060801c9160156fffffffffffffffffffffffffffffffff8193160490604051936020850160208460051b8701016040528386525f5b84811061564e5750505050505090565b82518252918501919083019060010161563e565b61566a610e6a565b80511561066e576156af6153646020927f74626879706572736361706500000000436f6d626174536b696c6c7300000000602082015261535e61535061534a8361497d565b8060801c9160156fffffffffffffffffffffffffffffffff8193160490604051936020850160208460051b8701016040528386525f5b8481106156f55750505050505090565b8251825291850191908301906001016156e5565b615711610e6a565b80511561066e576157566153646020927f74626879706572736361706500000000476174686572696e67536b696c6c7300602082015261535e61535061534a8361497d565b8060801c9160156fffffffffffffffffffffffffffffffff8193160490604051936020850160208460051b8701016040528386525f5b84811061579c5750505050505090565b82518252918501919083019060010161578c565b6157b8610e6a565b80511561066e576157fd6153646020927f74626879706572736361706500000000436f6d62617454617267657400000000602082015261535e61535061534a8361497d565b8060801c9160156fffffffffffffffffffffffffffffffff8193160490604051936020850160208460051b8701016040528386525f5b8481106158435750505050505090565b825182529185019190830190600101615833565b61585f610e6a565b80511561066e576158a46153646020927f746268797065727363617065000000004974656d496e7374616e636500000000602082015261535e61535061534a8361497d565b8060801c9160156fffffffffffffffffffffffffffffffff8193160490604051936020850160208460051b8701016040528386525f5b8481106158ea5750505050505090565b8251825291850191908301906001016158da565b615906610e6a565b80511561066e5761594b6153646020927f74626879706572736361706500000000496e76656e746f7279536c6f74000000602082015261535e61535061534a8361497d565b8060801c9160156fffffffffffffffffffffffffffffffff8193160490604051936020850160208460051b8701016040528386525f5b8481106159915750505050505090565b825182529185019190830190600101615981565b905f5b60208082106159e557600183947fffffffffffffffffffffffffffffffffffffffffffffffffffffffffffffffe0939451815501930191016159a8565b50806159f057505050565b7fffffffffffffffffffffffffffffffffffffffffffffffffffffffffffffffff9060031b1c90818354169119905116179055565b919060208082106159e557600183947fffffffffffffffffffffffffffffffffffffffffffffffffffffffffffffffe0939451815501930191016159a8565b90915b6020808210615aa3578083947fffffffffffffffffffffffffffffffffffffffffffffffffffffffffffffffe093945181520193019101615a67565b5080156126a9577fffffffffffffffffffffffffffffffffffffffffffffffffffffffffffffffff9060031b1c90818351169119905116179052565b81519060208093019190925b80821015615afe5750806159f057505050565b9091928160017fffffffffffffffffffffffffffffffffffffffffffffffffffffffffffffffe09286518155019401920190615aeb56fea2646970667358221220f82a934ab9556d6c9d3b922ce47bf0033c51f01376d3eb5c1f2d4b7beea9f01664736f6c63430008180033","linkReferences":{}},"methodIdentifiers":{"_msgSender()":"119df25f","_msgValue()":"45ec9354","_world()":"e1af802c","getPosition(address)":"16c19739","heal(address,uint32)":"521c5a12","isAlive(address)":"1703e5f9","itemsContract()":"a971e842","move(int32,int32,int32)":"6c53eb2a","register(string)":"f2c298be","setItemsContract(address)":"9c31c5ec","supportsInterface(bytes4)":"01ffc9a7","takeDamage(address,uint32)":"048296fa","updateMaxHealth(address,uint8)":"582bca83"},"id":95}