{"abi":[{"type":"function","name":"MOB_RESPAWN_TIME","inputs":[],"outputs":[{"name":"","type":"uint256","internalType":"uint256"}],"stateMutability":"view"},{"type":"function","name":"_msgSender","inputs":[],"outputs":[{"name":"sender","type":"address","internalType":"address"}],"stateMutability":"view"},{"type":"function","name":"_msgValue","inputs":[],"outputs":[{"name":"value","type":"uint256","internalType":"uint256"}],"stateMutability":"view"},{"type":"function","name":"_world","inputs":[],"outputs":[{"name":"","type":"address","internalType":"address"}],"stateMutability":"view"},{"type":"function","name":"canRespawn","inputs":[{"name":"mobId","type":"bytes32","internalType":"bytes32"}],"outputs":[{"name":"","type":"bool","internalType":"bool"}],"stateMutability":"view"},{"type":"function","name":"respawnMob","inputs":[{"name":"mobId","type":"bytes32","internalType":"bytes32"}],"outputs":[{"name":"","type":"bool","internalType":"bool"}],"stateMutability":"nonpayable"},{"type":"function","name":"spawnMob","inputs":[{"name":"mobType","type":"uint8","internalType":"uint8"},{"name":"x","type":"int32","internalType":"int32"},{"name":"y","type":"int32","internalType":"int32"},{"name":"z","type":"int32","internalType":"int32"},{"name":"spawnIndex","type":"uint16","internalType":"uint16"}],"outputs":[{"name":"mobId","type":"bytes32","internalType":"bytes32"}],"stateMutability":"nonpayable"},{"type":"function","name":"supportsInterface","inputs":[{"name":"interfaceId","type":"bytes4","internalType":"bytes4"}],"outputs":[{"name":"","type":"bool","internalType":"bool"}],"stateMutability":"pure"},{"type":"event","name":"MobRespawned","inputs":[{"name":"mobId","type":"bytes32","indexed":true,"internalType":"bytes32"}],"anonymous":false},{"type":"event","name":"MobSpawned","inputs":[{"name":"mobId","type":"bytes32","indexed":true,"internalType":"bytes32"},{"name":"mobType","type":"uint8","indexed":false,"internalType":"uint8"},{"name":"x","type":"int32","indexed":false,"internalType":"int32"},{"name":"y","type":"int32","indexed":false,"internalType":"int32"},{"name":"z","type":"int32","indexed":false,"internalType":"int32"}],"anonymous":false},{"type":"event","name":"Store_SetRecord","inputs":[{"name":"tableId","type":"bytes32","indexed":true,"internalType":"ResourceId"},{"name":"keyTuple","type":"bytes32[]","indexed":false,"internalType":"bytes32[]"},{"name":"staticData","type":"bytes","indexed":false,"internalType":"bytes"},{"name":"encodedLengths","type":"bytes32","indexed":false,"internalType":"EncodedLengths"},{"name":"dynamicData","type":"bytes","indexed":false,"internalType":"bytes"}],"anonymous":false},{"type":"event","name":"Store_SpliceStaticData","inputs":[{"name":"tableId","type":"bytes32","indexed":true,"internalType":"ResourceId"},{"name":"keyTuple","type":"bytes32[]","indexed":false,"internalType":"bytes32[]"},{"name":"start","type":"uint48","indexed":false,"internalType":"uint48"},{"name":"data","type":"bytes","indexed":false,"internalType":"bytes"}],"anonymous":false},{"type":"error","name":"Slice_OutOfBounds","inputs":[{"name":"data","type":"bytes","internalType":"bytes"},{"name":"start","type":"uint256","internalType":"uint256"},{"name":"end","type":"uint256","internalType":"uint256"}]}],"bytecode":{"object":"0x608080604052346100165761230b908161001b8239f35b5f80fdfe60806040526004361015610011575f80fd5b5f3560e01c806301ffc9a714610094578063119df25f1461008f578063284a834e1461008a57806345ec93541461008557806389a2dcf814610080578063be0e48311461007b578063e1af802c146100765763ef91e25914610071575f80fd5b610486565b610430565b6103aa565b610290565b610235565b610213565b61015f565b346101515760207ffffffffffffffffffffffffffffffffffffffffffffffffffffffffffffffffc360112610151576004357fffffffff000000000000000000000000000000000000000000000000000000008116809103610151577fb5dee127000000000000000000000000000000000000000000000000000000008114908115610127575b50151560805260206080f35b7f01ffc9a7000000000000000000000000000000000000000000000000000000009150148161011b565b5f80fd5b5f91031261015157565b34610151575f7ffffffffffffffffffffffffffffffffffffffffffffffffffffffffffffffffc360112610151577fffffffffffffffffffffffffffffffffffffffffffffffffffffffffffffffcc36013560601c80156101dc575b60209073ffffffffffffffffffffffffffffffffffffffff60405191168152f35b50336101bb565b7ffffffffffffffffffffffffffffffffffffffffffffffffffffffffffffffffc60209101126101515760043590565b3461015157602061022b610226366101e3565b610501565b6040519015158152f35b34610151575f7ffffffffffffffffffffffffffffffffffffffffffffffffffffffffffffffffc3601126101515760206040517fffffffffffffffffffffffffffffffffffffffffffffffffffffffffffffffe03601358152f35b346101515761029e366101e3565b6102a7816108e8565b61016081015161032c576102de60a0826102d36102cb6101406102e49601516104ed565b421015610530565b015163ffffffff1690565b82610a7d565b6102ed81610bfb565b6102f74282610d23565b604051907f47ef25d208d9b96d58ec593666d7884d4743c228a1ff01261339439678ed771b5f80a260018152602090f35b0390f35b60646040517f08c379a000000000000000000000000000000000000000000000000000000000815260206004820152601460248201527f4d6f6220697320616c726561647920616c6976650000000000000000000000006044820152fd5b604435908160030b820361015157565b606435908160030b820361015157565b346101515760a07ffffffffffffffffffffffffffffffffffffffffffffffffffffffffffffffffc3601126101515760043560ff8116810361015157602435908160030b8203610151576103fc61038a565b61040461039a565b6084359161ffff8316830361015157610328946104209461069a565b6040519081529081906020820190565b34610151575f7ffffffffffffffffffffffffffffffffffffffffffffffffffffffffffffffffc3601126101515760206104686114ed565b73ffffffffffffffffffffffffffffffffffffffff60405191168152f35b34610151575f7ffffffffffffffffffffffffffffffffffffffffffffffffffffffffffffffffc3601126101515760206040516103848152f35b7f4e487b71000000000000000000000000000000000000000000000000000000005f52601160045260245ffd5b9061038482018092116104fc57565b6104c0565b61050a906108e8565b61016081015161052b57610140015161038481018091116104fc5742101590565b505f90565b1561053757565b60646040517f08c379a000000000000000000000000000000000000000000000000000000000815260206004820152601860248201527f5265737061776e2074696d65206e6f74207265616368656400000000000000006044820152fd5b7f4e487b71000000000000000000000000000000000000000000000000000000005f52604160045260245ffd5b67ffffffffffffffff81116105d657604052565b610595565b6040810190811067ffffffffffffffff8211176105d657604052565b6060810190811067ffffffffffffffff8211176105d657604052565b90601f7fffffffffffffffffffffffffffffffffffffffffffffffffffffffffffffffe0910116810190811067ffffffffffffffff8211176105d657604052565b6009111561065e57565b7f4e487b71000000000000000000000000000000000000000000000000000000005f52602160045260245ffd5b60ff16600981101561065e5790565b939291909360ff81169360098510156107b2577f36dc0b9de36ba78bb1920eb5ae112568b04bbf85220c9541da401287048adc2493869361077b6107ac936040517fffff00000000000000000000000000000000000000000000000000000000000060208201927fff000000000000000000000000000000000000000000000000000000000000008960f81b16845260f01b1660218201528760e01b60238201528460e01b6027820152600b8152610751816105db565b5190208099819984866107638a610e2c565b978761077486959794989399610654565b429a610f65565b60405194859485926060929594919560ff608086019716855260030b602085015260030b604084015260030b910152565b0390a290565b6040517f08c379a000000000000000000000000000000000000000000000000000000000815260206004820152601060248201527f496e76616c6964206d6f622074797065000000000000000000000000000000006044820152606490fd5b60405190610180820182811067ffffffffffffffff8211176105d6576040525f610160838281528260208201528260408201528260608201528260808201528260a08201528260c08201528260e08201528261010082015282610120820152826101408201520152565b60405190610888826105db565b6001825260203681840137565b7f4e487b71000000000000000000000000000000000000000000000000000000005f52603260045260245ffd5b8051156108cf5760200190565b610895565b80518210156108cf5760209160051b010190565b6108f0610811565b506108f961087b565b8051156108cf5761090e91602082015261123a565b5050610a7a61091b610811565b91610a74610935610930602084015160f81c90565b61068b565b91610a6a61095661094a602184015160e01c90565b63ffffffff1660030b90565b91610a6061096b61094a602584015160e01c90565b91610a5661098061094a602984015160e01c90565b91610a498b610a3c610996602d85015160e01c90565b9360c06109a7603183015160e01c90565b93610a336109b9603585015160f81c90565b93610a296109cb603683015160f81c90565b91610a1e6109dd603783015160f81c90565b916109ec603882015160f81c90565b90610a0d610a036059603984015193015160f81c90565b15156101608a0152565b61014088015260ff16610120870152565b60ff16610100850152565b60ff1660e0830152565b019060ff169052565b63ffffffff1660a08d0152565b63ffffffff1660808b0152565b60030b6060890152565b60030b6040870152565b60030b6020850152565b82611343565b90565b90610a8661087b565b918251156108cf5760208301527fffffffff000000000000000000000000000000000000000000000000000000006040519160e01b16602082015260048152610ace816105db565b73ffffffffffffffffffffffffffffffffffffffff610aeb6114ed565b1691308303610b0057610afe92506115e5565b565b90823b1561015157610bad92610b765f8094604051968795869485937f390baae00000000000000000000000000000000000000000000000000000000085527f746268797065727363617065000000004d6f6200000000000000000000000000600486015260a0602486015260a48501906111fc565b90600460448501527ffffffffffffffffffffffffffffffffffffffffffffffffffffffffffffffffc8483030160648501526113aa565b7e3a0c0001040404040401010101200100000000000000000000000000000000608483015203925af18015610bf657610be35750565b80610bf0610afe926105c2565b80610155565b61122f565b610c0361087b565b908151156108cf5760208201526040517f0100000000000000000000000000000000000000000000000000000000000000602082015260018152610c46816105db565b73ffffffffffffffffffffffffffffffffffffffff610c636114ed565b1691308303610c7657610afe9250611645565b90823b1561015157610bad92610cec5f8094604051968795869485937f390baae00000000000000000000000000000000000000000000000000000000085527f746268797065727363617065000000004d6f6200000000000000000000000000600486015260a0602486015260a48501906111fc565b90600b60448501527ffffffffffffffffffffffffffffffffffffffffffffffffffffffffffffffffc8483030160648501526113aa565b90610d2c61087b565b918251156108cf57602083015260405190602082015260208152610d4f816105db565b73ffffffffffffffffffffffffffffffffffffffff610d6c6114ed565b1691308303610d7f57610afe92506116a5565b90823b1561015157610bad92610df55f8094604051968795869485937f390baae00000000000000000000000000000000000000000000000000000000085527f746268797065727363617065000000004d6f6200000000000000000000000000600486015260a0602486015260a48501906111fc565b90600a60448501527ffffffffffffffffffffffffffffffffffffffffffffffffffffffffffffffffc8483030160648501526113aa565b60ff168015610f5557600190818114610f465760028114610f365760038114610f275760048114610f185760058114610f085760068114610ef85760078114610ee8576008915014610ed7576040517f08c379a000000000000000000000000000000000000000000000000000000000815260206004820152601060248201527f496e76616c6964206d6f622074797065000000000000000000000000000000006044820152606490fd5b609690601490601290600f90601e90565b50607891601c91601e9160199190565b50606491601991601a9160169190565b50604b91600f91601091600c9190565b50603c91600e918291600f9190565b50603291600c918291600a9190565b50601e9160049160059160039190565b50601c91600391829160029190565b5060199060029081906001908190565b989399959a9791966040519a600983101561065e57610afe9c610ff66110a698602d8f610fca611022966110d29f61107a9c610fb6610fc09261104e9d60f81b6020880152602187019060e01b9052565b60e01b6025850152565b60e01b6029830152565b01907fffffffff000000000000000000000000000000000000000000000000000000009060e01b169052565b60e01b7fffffffff000000000000000000000000000000000000000000000000000000001660318d0152565b60f81b7fff000000000000000000000000000000000000000000000000000000000000001660358b0152565b60f81b7fff00000000000000000000000000000000000000000000000000000000000000166036890152565b60f81b7fff00000000000000000000000000000000000000000000000000000000000000166037870152565b60f81b7fff00000000000000000000000000000000000000000000000000000000000000166038850152565b60398301527f01000000000000000000000000000000000000000000000000000000000000006059830152603a825261110a826105f7565b61111261087b565b9061111c826108c2565b526113ed565b5f5b8381106111335750505f910152565b8181015183820152602001611124565b81601f8201121561015157805167ffffffffffffffff81116105d6576040519261119560207fffffffffffffffffffffffffffffffffffffffffffffffffffffffffffffffe0601f8501160185610613565b8184526020828401011161015157610a7a9160208085019101611122565b90916060828403126101515781519167ffffffffffffffff9283811161015157846111df918301611143565b93602082015193604083015190811161015157610a7a9201611143565b9081518082526020808093019301915f5b82811061121b575050505090565b83518552938101939281019260010161120d565b6040513d5f823e3d90fd5b73ffffffffffffffffffffffffffffffffffffffff6112576114ed565b1630810361127057506112699061152f565b9192909190565b6112d992915f9160405180809681947f419b58fd0000000000000000000000000000000000000000000000000000000083527f746268797065727363617065000000004d6f620000000000000000000000000060048401526060602484015260648301906111fc565b7e3a0c0001040404040401010101200100000000000000000000000000000000604483015203915afa908115610bf6575f80935f93611319575b50929190565b9193505061133991503d805f833e6113318183610613565b8101906111b3565b929092915f611313565b600982101561065e5752565b90606051918281525f5b83811061139657507fffffffffffffffffffffffffffffffffffffffffffffffffffffffffffffffe0601f845f6020809697860101520116010190565b806020916080015182828501015201611359565b907fffffffffffffffffffffffffffffffffffffffffffffffffffffffffffffffe0601f6020936113e681518092818752878088019101611122565b0116010190565b73ffffffffffffffffffffffffffffffffffffffff61140a6114ed565b1630810361141d575090610afe91611705565b90813b15610151575f91611496836114c7936114dc604051978896879586947f298314fb0000000000000000000000000000000000000000000000000000000086527f746268797065727363617065000000004d6f6200000000000000000000000000600487015260a0602487015260a48601906111fc565b7ffffffffffffffffffffffffffffffffffffffffffffffffffffffffffffffffc92838683030160448701526113aa565b9084606485015283820301608484015261134f565b03925af18015610bf657610be35750565b7f629a4c26e296b22a8e0856e9f6ecb2d1008d7e00081111962cd175fa7488e1755473ffffffffffffffffffffffffffffffffffffffff1680610a7a57503390565b5f9061153c606091611e04565b604051906020907fffffffffffffffffffffffffffffffffffffffffffffffffffffffffffffffe090816079850116604052603a84526020840192603a91925b818310156115cd57505080611592575b50505092565b7fffffffffffffffffffffffffffffffffffffffffffffffffffffffffffffffff9060031b1c908183511691199054161790525f808061158c565b8160018583949597965487520194019401919061157c565b91905f925f5b60048110611607575065ffffffffffff610afe93941690611b8e565b9360ff7e3a0c000104040404040101010120010000000000000000000000000000000086601b0360031b1c1681018091116104fc57936001016115eb565b91905f925f5b600b8110611667575065ffffffffffff610afe93941690611b8e565b9360ff7e3a0c000104040404040101010120010000000000000000000000000000000086601b0360031b1c1681018091116104fc579360010161164b565b91905f925f5b600a81106116c7575065ffffffffffff610afe93941690611b8e565b9360ff7e3a0c000104040404040101010120010000000000000000000000000000000086601b0360031b1c1681018091116104fc57936001016116ab565b604092835192602084017f746273746f72650000000000000000005461626c65730000000000000000000081527f746268797065727363617065000000004d6f6200000000000000000000000000948587820152868152611765816105f7565b5190207f86425bff6b57326c7859e89024fe4f238ca327a1ae4a230180dd2f0e88aaa7d9185491611794611f9c565b905f5b8251811015611886576117fb6117d66117b083866108d4565b517fffffffffffffffffffffffffffffffffffffffffff00000000000000000000001690565b7fffffffffffffffffffffffffffffffffffffffffff00000000000000000000001690565b6001808260581c1614611812575b50600101611797565b60601c90813b156101515788517f57066c9c000000000000000000000000000000000000000000000000000000008152915f9083908183816118598c8c8f60048501611d9a565b03925af1918215610bf657600192611873575b5090611809565b80610bf0611880926105c2565b5f61186c565b50947f8dbb3a9672eebfd3773e72dd9c102393436816d832c7ba9e1e1ac8fcadcac7a98751806118b7868983611d5e565b0390a26118d26118c685611e04565b8351602085019161214d565b60ff808460e01c1680611991575b50505f5b8151811015611988576118fd6117d66117b083856108d4565b6002808260581c1614611914575b506001016118e4565b60601c90813b156101515787517f5b28cdaf000000000000000000000000000000000000000000000000000000008152915f90839081838161195b8b8b8e60048501611d9a565b03925af1918215610bf657600192611975575b509061190b565b80610bf0611982926105c2565b5f61196e565b50505050509050565b5f61199b87611ee6565b555f60805b82848316106119b05750506118e0565b6001816119c786936119c2868d611a74565b6120cd565b920116906119a0565b7f746273746f726500000000000000000053746f7265486f6f6b73000000000000815281516020918201928201915f5b828110611a0e575050505090565b835185529381019392810192600101611a00565b7f746268797065727363617065000000004d6f6200000000000000000000000000815281516020918201928201915f5b828110611a60575050505090565b835185529381019392810192600101611a52565b907fff000000000000000000000000000000000000000000000000000000000000007f3b4102da22e32d82fc925482184f16c09fd4281692720b87d124aef6da48a0f192604051611af981611acd602082019485611a22565b037fffffffffffffffffffffffffffffffffffffffffffffffffffffffffffffffe08101835282610613565b5190209160f81b16181890565b65ffffffffffff611b23610a7a95936060845260608401906111fc565b9316602082015260408184039101526113aa565b65ffffffffffff611b7a610a7a95937f746268797065727363617065000000004d6f620000000000000000000000000084526080602085015260808401906111fc565b9316604082015260608184039101526113aa565b90929192611b9b82611e04565b611ba3611f9c565b905f5b8251811015611c4957611bbf6117d66117b083866108d4565b9060049182808260581c1614611bdb575b506001915001611ba6565b60601c803b1561015157855f9188838c96611c23604051988996879586947f964f667d0000000000000000000000000000000000000000000000000000000086528501611b37565b03925af1918215610bf65760019215611bd05780610bf0611c43926105c2565b5f611bd0565b50949190611cb8836040977f746268797065727363617065000000004d6f62000000000000000000000000007f8c0b5119d4cec7b284c6b1b39252a03d1e2f2d7451a5895562524c113bb952be60405180611ca6868a8d84611b06565b0390a265ffffffffffff8516906120bc565b5f5b815181101561198857611cd36117d66117b083856108d4565b6008808260581c1614611cea575b50600101611cba565b60601c90813b156101515787517fa8ba8721000000000000000000000000000000000000000000000000000000008152915f908390818381611d318b8b8e60048501611b37565b03925af1918215610bf657600192611d4b575b5090611ce1565b80610bf0611d58926105c2565b5f611d44565b90610a7a92611d78611d86926080855260808501906111fc565b9083820360208501526113aa565b905f6040820152606081830391015261134f565b939291611dec611dff91611dde60a0947f746268797065727363617065000000004d6f6200000000000000000000000000895260c060208a015260c08901906111fc565b9087820360408901526113aa565b5f6060870152858103608087015261134f565b930152565b604051611e1981611acd602082019485611a22565b5190207f86425bff6b57326c7859e89024fe4f238ca327a1ae4a230180dd2f0e88aaa7d91890565b604080517fffffffffffffffffffffffffffffffffffffffffffffffffffffffffffffffe0603f85830101811690925283815292602080850193925b81831015611ece57505080611e93575b50505090565b7fffffffffffffffffffffffffffffffffffffffffffffffffffffffffffffffff9060031b1c908183511691199054161790525f8080611e8d565b81600185839495979654875201940194019190611e7d565b60405160208160208101937f746268797065727363617065000000004d6f620000000000000000000000000085526040820160208251919201935f5b828110611f8557505050611f5d9250037fffffffffffffffffffffffffffffffffffffffffffffffffffffffffffffffe08101835282610613565b5190207f14e2fcc58e58e68ec7edc30c8d50dccc3ce2714a623ec81f46b6a63922d765691890565b855184529481019486945092810192600101611f22565b611fa461087b565b8051156108cf5761209b817f746268797065727363617065000000004d6f62000000000000000000000000006020610a7a94015264ffffffffff604051917f3b4102da22e32d82fc925482184f16c09fd4281692720b87d124aef6da48a0f1602084018461201284836119d0565b03946120447fffffffffffffffffffffffffffffffffffffffffffffffffffffffffffffffe096878101835282610613565b519020189261206b604051918261205f6020820195866119d0565b03908101835282610613565b5190207f14e2fcc58e58e68ec7edc30c8d50dccc3ce2714a623ec81f46b6a63922d76569185460381c1690611e41565b60206fffffffffffffffffffffffffffffffff825116910160801b17612279565b8251610afe9360200192909161218c565b905f5b602080821061210d57600183947fffffffffffffffffffffffffffffffffffffffffffffffffffffffffffffffe0939451815501930191016120d0565b508061211857505050565b7fffffffffffffffffffffffffffffffffffffffffffffffffffffffffffffffff9060031b1c90818354169119905116179055565b9190602080821061210d57600183947fffffffffffffffffffffffffffffffffffffffffffffffffffffffffffffffe0939451815501930191016120d0565b90929192806121d5575b5091602080821061210d57600183947fffffffffffffffffffffffffffffffffffffffffffffffffffffffffffffffe0939451815501930191016120d0565b6020811015612269575b801561219657806020949394038160031b7fffffffffffffffffffffffffffffffffffffffffffffffffffffffffffffffff8560031b1c19811c908651901c9080198554169116178355808411156122625760017fffffffffffffffffffffffffffffffffffffffffffffffffffffffffffffffe093019401920101915f612196565b5050505050565b90601f908260051c0191166121df565b8060801c9060156fffffffffffffffffffffffffffffffff81921604604051926020906020850160208460051b8701016040528386525f5b8481106122c15750505050505090565b8251825291850191908301906001016122b156fea2646970667358221220f23b221047c519aae3ab12922394ba557c4169cb5935f8721bc804de3936c29464736f6c63430008180033","linkReferences":{}},"methodIdentifiers":{"MOB_RESPAWN_TIME()":"ef91e259","_msgSender()":"119df25f","_msgValue()":"45ec9354","_world()":"e1af802c","canRespawn(bytes32)":"284a834e","respawnMob(bytes32)":"89a2dcf8","spawnMob(uint8,int32,int32,int32,uint16)":"be0e4831","supportsInterface(bytes4)":"01ffc9a7"},"id":94}